{
    "contractName": "ZetaSaurio",
    "abi": [
        {
            "inputs": [],
            "stateMutability": "nonpayable",
            "type": "constructor"
        },
        {
            "anonymous": false,
            "inputs": [
                {
                    "indexed": true,
                    "internalType": "address",
                    "name": "owner",
                    "type": "address"
                },
                {
                    "indexed": true,
                    "internalType": "address",
                    "name": "approved",
                    "type": "address"
                },
                {
                    "indexed": true,
                    "internalType": "uint256",
                    "name": "tokenId",
                    "type": "uint256"
                }
            ],
            "name": "Approval",
            "type": "event"
        },
        {
            "anonymous": false,
            "inputs": [
                {
                    "indexed": true,
                    "internalType": "address",
                    "name": "owner",
                    "type": "address"
                },
                {
                    "indexed": true,
                    "internalType": "address",
                    "name": "operator",
                    "type": "address"
                },
                {
                    "indexed": false,
                    "internalType": "bool",
                    "name": "approved",
                    "type": "bool"
                }
            ],
            "name": "ApprovalForAll",
            "type": "event"
        },
        {
            "anonymous": false,
            "inputs": [
                {
                    "indexed": true,
                    "internalType": "address",
                    "name": "previousOwner",
                    "type": "address"
                },
                {
                    "indexed": true,
                    "internalType": "address",
                    "name": "newOwner",
                    "type": "address"
                }
            ],
            "name": "OwnershipTransferred",
            "type": "event"
        },
        {
            "anonymous": false,
            "inputs": [
                {
                    "indexed": true,
                    "internalType": "address",
                    "name": "from",
                    "type": "address"
                },
                {
                    "indexed": true,
                    "internalType": "address",
                    "name": "to",
                    "type": "address"
                },
                {
                    "indexed": true,
                    "internalType": "uint256",
                    "name": "tokenId",
                    "type": "uint256"
                }
            ],
            "name": "Transfer",
            "type": "event"
        },
        {
            "inputs": [
                {
                    "internalType": "address",
                    "name": "to",
                    "type": "address"
                },
                {
                    "internalType": "uint256",
                    "name": "tokenId",
                    "type": "uint256"
                }
            ],
            "name": "approve",
            "outputs": [],
            "stateMutability": "nonpayable",
            "type": "function"
        },
        {
            "inputs": [
                {
                    "internalType": "address",
                    "name": "owner",
                    "type": "address"
                }
            ],
            "name": "balanceOf",
            "outputs": [
                {
                    "internalType": "uint256",
                    "name": "",
                    "type": "uint256"
                }
            ],
            "stateMutability": "view",
            "type": "function"
        },
        {
            "inputs": [],
            "name": "baseURI",
            "outputs": [
                {
                    "internalType": "string",
                    "name": "",
                    "type": "string"
                }
            ],
            "stateMutability": "view",
            "type": "function"
        },
        {
            "inputs": [],
            "name": "batchMintLimit",
            "outputs": [
                {
                    "internalType": "uint256",
                    "name": "",
                    "type": "uint256"
                }
            ],
            "stateMutability": "view",
            "type": "function"
        },
        {
            "inputs": [
                {
                    "internalType": "address",
                    "name": "_partner",
                    "type": "address"
                },
                {
                    "internalType": "string",
                    "name": "_label",
                    "type": "string"
                },
                {
                    "internalType": "uint256",
                    "name": "_discountPercent",
                    "type": "uint256"
                },
                {
                    "internalType": "uint256",
                    "name": "_discountedSupply",
                    "type": "uint256"
                },
                {
                    "internalType": "uint256",
                    "name": "_freeToMintSupply",
                    "type": "uint256"
                },
                {
                    "internalType": "uint256",
                    "name": "_reservedUntilTimestamp",
                    "type": "uint256"
                }
            ],
            "name": "createPartnership",
            "outputs": [],
            "stateMutability": "nonpayable",
            "type": "function"
        },
        {
            "inputs": [
                {
                    "internalType": "address",
                    "name": "_partner",
                    "type": "address"
                }
            ],
            "name": "deletePartnership",
            "outputs": [],
            "stateMutability": "nonpayable",
            "type": "function"
        },
        {
            "inputs": [
                {
                    "internalType": "address",
                    "name": "_user",
                    "type": "address"
                },
                {
                    "internalType": "uint256",
                    "name": "_mintAmount",
                    "type": "uint256"
                }
            ],
            "name": "enoughPresaleMintingsLeft",
            "outputs": [
                {
                    "internalType": "bool",
                    "name": "",
                    "type": "bool"
                }
            ],
            "stateMutability": "view",
            "type": "function"
        },
        {
            "inputs": [
                {
                    "internalType": "address",
                    "name": "_user",
                    "type": "address"
                },
                {
                    "internalType": "uint256",
                    "name": "_mintAmount",
                    "type": "uint256"
                }
            ],
            "name": "freeMint",
            "outputs": [],
            "stateMutability": "payable",
            "type": "function"
        },
        {
            "inputs": [
                {
                    "internalType": "uint256",
                    "name": "tokenId",
                    "type": "uint256"
                }
            ],
            "name": "getApproved",
            "outputs": [
                {
                    "internalType": "address",
                    "name": "",
                    "type": "address"
                }
            ],
            "stateMutability": "view",
            "type": "function"
        },
        {
            "inputs": [
                {
                    "internalType": "address[]",
                    "name": "_users",
                    "type": "address[]"
                }
            ],
            "name": "grantPresaleAccess",
            "outputs": [],
            "stateMutability": "nonpayable",
            "type": "function"
        },
        {
            "inputs": [
                {
                    "internalType": "address",
                    "name": "",
                    "type": "address"
                }
            ],
            "name": "hasPresaleAccess",
            "outputs": [
                {
                    "internalType": "bool",
                    "name": "",
                    "type": "bool"
                }
            ],
            "stateMutability": "view",
            "type": "function"
        },
        {
            "inputs": [
                {
                    "internalType": "address",
                    "name": "owner",
                    "type": "address"
                },
                {
                    "internalType": "address",
                    "name": "operator",
                    "type": "address"
                }
            ],
            "name": "isApprovedForAll",
            "outputs": [
                {
                    "internalType": "bool",
                    "name": "",
                    "type": "bool"
                }
            ],
            "stateMutability": "view",
            "type": "function"
        },
        {
            "inputs": [],
            "name": "maxSupply",
            "outputs": [
                {
                    "internalType": "uint256",
                    "name": "",
                    "type": "uint256"
                }
            ],
            "stateMutability": "view",
            "type": "function"
        },
        {
            "inputs": [
                {
                    "internalType": "address",
                    "name": "_user",
                    "type": "address"
                },
                {
                    "internalType": "uint256",
                    "name": "_mintAmount",
                    "type": "uint256"
                }
            ],
            "name": "mint",
            "outputs": [],
            "stateMutability": "payable",
            "type": "function"
        },
        {
            "inputs": [
                {
                    "internalType": "address",
                    "name": "",
                    "type": "address"
                }
            ],
            "name": "mintedPerAddress",
            "outputs": [
                {
                    "internalType": "uint256",
                    "name": "",
                    "type": "uint256"
                }
            ],
            "stateMutability": "view",
            "type": "function"
        },
        {
            "inputs": [],
            "name": "name",
            "outputs": [
                {
                    "internalType": "string",
                    "name": "",
                    "type": "string"
                }
            ],
            "stateMutability": "view",
            "type": "function"
        },
        {
            "inputs": [],
            "name": "owner",
            "outputs": [
                {
                    "internalType": "address",
                    "name": "",
                    "type": "address"
                }
            ],
            "stateMutability": "view",
            "type": "function"
        },
        {
            "inputs": [
                {
                    "internalType": "uint256",
                    "name": "tokenId",
                    "type": "uint256"
                }
            ],
            "name": "ownerOf",
            "outputs": [
                {
                    "internalType": "address",
                    "name": "",
                    "type": "address"
                }
            ],
            "stateMutability": "view",
            "type": "function"
        },
        {
            "inputs": [
                {
                    "internalType": "uint256",
                    "name": "",
                    "type": "uint256"
                }
            ],
            "name": "partners",
            "outputs": [
                {
                    "internalType": "address",
                    "name": "",
                    "type": "address"
                }
            ],
            "stateMutability": "view",
            "type": "function"
        },
        {
            "inputs": [],
            "name": "partnersCount",
            "outputs": [
                {
                    "internalType": "uint256",
                    "name": "",
                    "type": "uint256"
                }
            ],
            "stateMutability": "view",
            "type": "function"
        },
        {
            "inputs": [
                {
                    "internalType": "address",
                    "name": "_partner",
                    "type": "address"
                }
            ],
            "name": "partnershipExists",
            "outputs": [
                {
                    "internalType": "bool",
                    "name": "",
                    "type": "bool"
                }
            ],
            "stateMutability": "view",
            "type": "function"
        },
        {
            "inputs": [
                {
                    "internalType": "address",
                    "name": "_partner",
                    "type": "address"
                }
            ],
            "name": "partnershipSupplyIsReserved",
            "outputs": [
                {
                    "internalType": "bool",
                    "name": "",
                    "type": "bool"
                }
            ],
            "stateMutability": "view",
            "type": "function"
        },
        {
            "inputs": [
                {
                    "internalType": "address",
                    "name": "_partner",
                    "type": "address"
                }
            ],
            "name": "partnershipTotalSupply",
            "outputs": [
                {
                    "internalType": "uint256",
                    "name": "",
                    "type": "uint256"
                }
            ],
            "stateMutability": "view",
            "type": "function"
        },
        {
            "inputs": [
                {
                    "internalType": "address",
                    "name": "",
                    "type": "address"
                }
            ],
            "name": "partnerships",
            "outputs": [
                {
                    "internalType": "string",
                    "name": "label",
                    "type": "string"
                },
                {
                    "internalType": "uint256",
                    "name": "discountPercent",
                    "type": "uint256"
                },
                {
                    "internalType": "uint256",
                    "name": "discountedSupply",
                    "type": "uint256"
                },
                {
                    "internalType": "uint256",
                    "name": "freeToMintSupply",
                    "type": "uint256"
                },
                {
                    "internalType": "uint256",
                    "name": "reservedUntilTimestamp",
                    "type": "uint256"
                },
                {
                    "internalType": "bool",
                    "name": "exists",
                    "type": "bool"
                }
            ],
            "stateMutability": "view",
            "type": "function"
        },
        {
            "inputs": [],
            "name": "presaleEndTimestamp",
            "outputs": [
                {
                    "internalType": "uint256",
                    "name": "",
                    "type": "uint256"
                }
            ],
            "stateMutability": "view",
            "type": "function"
        },
        {
            "inputs": [],
            "name": "presaleIsActive",
            "outputs": [
                {
                    "internalType": "bool",
                    "name": "",
                    "type": "bool"
                }
            ],
            "stateMutability": "view",
            "type": "function"
        },
        {
            "inputs": [],
            "name": "presaleMintPerAddressLimit",
            "outputs": [
                {
                    "internalType": "uint256",
                    "name": "",
                    "type": "uint256"
                }
            ],
            "stateMutability": "view",
            "type": "function"
        },
        {
            "inputs": [],
            "name": "presalePrice",
            "outputs": [
                {
                    "internalType": "uint256",
                    "name": "",
                    "type": "uint256"
                }
            ],
            "stateMutability": "view",
            "type": "function"
        },
        {
            "inputs": [],
            "name": "presaleStartTimestamp",
            "outputs": [
                {
                    "internalType": "uint256",
                    "name": "",
                    "type": "uint256"
                }
            ],
            "stateMutability": "view",
            "type": "function"
        },
        {
            "inputs": [],
            "name": "price",
            "outputs": [
                {
                    "internalType": "uint256",
                    "name": "",
                    "type": "uint256"
                }
            ],
            "stateMutability": "view",
            "type": "function"
        },
        {
            "inputs": [],
            "name": "renounceOwnership",
            "outputs": [],
            "stateMutability": "nonpayable",
            "type": "function"
        },
        {
            "inputs": [
                {
                    "internalType": "address",
                    "name": "_user",
                    "type": "address"
                },
                {
                    "internalType": "uint256",
                    "name": "_mintAmount",
                    "type": "uint256"
                }
            ],
            "name": "reserve",
            "outputs": [],
            "stateMutability": "nonpayable",
            "type": "function"
        },
        {
            "inputs": [],
            "name": "reservedSupply",
            "outputs": [
                {
                    "internalType": "uint256",
                    "name": "",
                    "type": "uint256"
                }
            ],
            "stateMutability": "view",
            "type": "function"
        },
        {
            "inputs": [
                {
                    "internalType": "address[]",
                    "name": "_users",
                    "type": "address[]"
                }
            ],
            "name": "revokePresaleAccess",
            "outputs": [],
            "stateMutability": "nonpayable",
            "type": "function"
        },
        {
            "inputs": [
                {
                    "internalType": "address",
                    "name": "from",
                    "type": "address"
                },
                {
                    "internalType": "address",
                    "name": "to",
                    "type": "address"
                },
                {
                    "internalType": "uint256",
                    "name": "tokenId",
                    "type": "uint256"
                }
            ],
            "name": "safeTransferFrom",
            "outputs": [],
            "stateMutability": "nonpayable",
            "type": "function"
        },
        {
            "inputs": [
                {
                    "internalType": "address",
                    "name": "from",
                    "type": "address"
                },
                {
                    "internalType": "address",
                    "name": "to",
                    "type": "address"
                },
                {
                    "internalType": "uint256",
                    "name": "tokenId",
                    "type": "uint256"
                },
                {
                    "internalType": "bytes",
                    "name": "data",
                    "type": "bytes"
                }
            ],
            "name": "safeTransferFrom",
            "outputs": [],
            "stateMutability": "nonpayable",
            "type": "function"
        },
        {
            "inputs": [],
            "name": "saleIsActive",
            "outputs": [
                {
                    "internalType": "bool",
                    "name": "",
                    "type": "bool"
                }
            ],
            "stateMutability": "view",
            "type": "function"
        },
        {
            "inputs": [],
            "name": "salePrice",
            "outputs": [
                {
                    "internalType": "uint256",
                    "name": "",
                    "type": "uint256"
                }
            ],
            "stateMutability": "view",
            "type": "function"
        },
        {
            "inputs": [],
            "name": "saleStartTimestamp",
            "outputs": [
                {
                    "internalType": "uint256",
                    "name": "",
                    "type": "uint256"
                }
            ],
            "stateMutability": "view",
            "type": "function"
        },
        {
            "inputs": [
                {
                    "internalType": "uint256",
                    "name": "_presaleStartTimestamp",
                    "type": "uint256"
                },
                {
                    "internalType": "uint256",
                    "name": "_presaleEndTimestamp",
                    "type": "uint256"
                }
            ],
            "name": "schedulePresale",
            "outputs": [],
            "stateMutability": "nonpayable",
            "type": "function"
        },
        {
            "inputs": [
                {
                    "internalType": "uint256",
                    "name": "_saleStartTimestamp",
                    "type": "uint256"
                }
            ],
            "name": "scheduleSale",
            "outputs": [],
            "stateMutability": "nonpayable",
            "type": "function"
        },
        {
            "inputs": [
                {
                    "internalType": "address",
                    "name": "operator",
                    "type": "address"
                },
                {
                    "internalType": "bool",
                    "name": "approved",
                    "type": "bool"
                }
            ],
            "name": "setApprovalForAll",
            "outputs": [],
            "stateMutability": "nonpayable",
            "type": "function"
        },
        {
            "inputs": [
                {
                    "internalType": "string",
                    "name": "_newBaseURI",
                    "type": "string"
                }
            ],
            "name": "setBaseURI",
            "outputs": [],
            "stateMutability": "nonpayable",
            "type": "function"
        },
        {
            "inputs": [
                {
                    "internalType": "bytes4",
                    "name": "interfaceId",
                    "type": "bytes4"
                }
            ],
            "name": "supportsInterface",
            "outputs": [
                {
                    "internalType": "bool",
                    "name": "",
                    "type": "bool"
                }
            ],
            "stateMutability": "view",
            "type": "function"
        },
        {
            "inputs": [],
            "name": "symbol",
            "outputs": [
                {
                    "internalType": "string",
                    "name": "",
                    "type": "string"
                }
            ],
            "stateMutability": "view",
            "type": "function"
        },
        {
            "inputs": [
                {
                    "internalType": "uint256",
                    "name": "index",
                    "type": "uint256"
                }
            ],
            "name": "tokenByIndex",
            "outputs": [
                {
                    "internalType": "uint256",
                    "name": "",
                    "type": "uint256"
                }
            ],
            "stateMutability": "view",
            "type": "function"
        },
        {
            "inputs": [
                {
                    "internalType": "address",
                    "name": "owner",
                    "type": "address"
                },
                {
                    "internalType": "uint256",
                    "name": "index",
                    "type": "uint256"
                }
            ],
            "name": "tokenOfOwnerByIndex",
            "outputs": [
                {
                    "internalType": "uint256",
                    "name": "",
                    "type": "uint256"
                }
            ],
            "stateMutability": "view",
            "type": "function"
        },
        {
            "inputs": [
                {
                    "internalType": "uint256",
                    "name": "tokenId",
                    "type": "uint256"
                }
            ],
            "name": "tokenURI",
            "outputs": [
                {
                    "internalType": "string",
                    "name": "",
                    "type": "string"
                }
            ],
            "stateMutability": "view",
            "type": "function"
        },
        {
            "inputs": [],
            "name": "totalSupply",
            "outputs": [
                {
                    "internalType": "uint256",
                    "name": "",
                    "type": "uint256"
                }
            ],
            "stateMutability": "view",
            "type": "function"
        },
        {
            "inputs": [
                {
                    "internalType": "address",
                    "name": "from",
                    "type": "address"
                },
                {
                    "internalType": "address",
                    "name": "to",
                    "type": "address"
                },
                {
                    "internalType": "uint256",
                    "name": "tokenId",
                    "type": "uint256"
                }
            ],
            "name": "transferFrom",
            "outputs": [],
            "stateMutability": "nonpayable",
            "type": "function"
        },
        {
            "inputs": [
                {
                    "internalType": "address",
                    "name": "newOwner",
                    "type": "address"
                }
            ],
            "name": "transferOwnership",
            "outputs": [],
            "stateMutability": "nonpayable",
            "type": "function"
        },
        {
            "inputs": [],
            "name": "withdraw",
            "outputs": [],
            "stateMutability": "payable",
            "type": "function"
        }
    ],
    "bytecode": "60a060405260006080908152600d906200001a9082620001aa565b503480156200002857600080fd5b506040518060400160405280600a8152602001695a65746153617572696f60b01b815250604051806040016040528060028152602001615a5360f01b8152508160009081620000789190620001aa565b506001620000878282620001aa565b505050620000a46200009e620000af60201b60201c565b620000b3565b6001600b5562000276565b3390565b600a80546001600160a01b038381166001600160a01b0319831681179093556040519116919082907f8be0079c531659141344cd1fd0a4f28419497f9722a3daafe3b4186f6b6457e090600090a35050565b634e487b7160e01b600052604160045260246000fd5b600181811c908216806200013057607f821691505b6020821081036200015157634e487b7160e01b600052602260045260246000fd5b50919050565b601f821115620001a557600081815260208120601f850160051c81016020861015620001805750805b601f850160051c820191505b81811015620001a1578281556001016200018c565b5050505b505050565b81516001600160401b03811115620001c657620001c662000105565b620001de81620001d784546200011b565b8462000157565b602080601f831160018114620002165760008415620001fd5750858301515b600019600386901b1c1916600185901b178555620001a1565b600085815260208120601f198616915b82811015620002475788860151825594840194600190910190840162000226565b5085821015620002665787850151600019600388901b60f8161c191681555b5050505050600190811b01905550565b612f4f80620002866000396000f3fe6080604052600436106102fe5760003560e01c806370a0823111610190578063c3b49d04116100dc578063d5abeb0111610095578063eb8d24441161006f578063eb8d2444146108e8578063f19b88ad146108fd578063f2fde38b1461091d578063f51f96dd1461093d57600080fd5b8063d5abeb0114610869578063dcad8a491461087f578063e985e9c51461089f57600080fd5b8063c3b49d04146107b2578063c6bd6bc8146107d2578063c87b56dd146107e7578063cc47a40b14610807578063cdd8fea514610827578063d445b9781461083c57600080fd5b806395d89b4111610149578063a035b1fe11610123578063a035b1fe1461073d578063a22cb46514610752578063b88d4fde14610772578063c383e6c61461079257600080fd5b806395d89b41146106f5578063985e89fe1461070a5780639883566e1461072a57600080fd5b806370a082311461064c578063715018a61461066c57806371efb8d11461068157806378da7ba1146106a15780637c920e47146106b75780638da5cb5b146106d757600080fd5b80632f745c591161024f57806344d19d2b1161020857806355f804b3116101e257806355f804b3146105d75780635a4fc355146105f75780636352211e146106175780636c0360eb1461063757600080fd5b806344d19d2b1461058c5780634ea37fec146105a15780634f6ccce7146105b757600080fd5b80632f745c591461050657806330f72cd4146105265780633c276d861461053b5780633ccfd60b1461055157806340c10f191461055957806342842e0e1461056c57600080fd5b80630f209186116102bc578063208596d611610296578063208596d61461047557806323b872dd1461049557806325efe85c146104b55780632f6b1cd5146104ca57600080fd5b80630f2091861461041057806318160ddd146104405780631e66345b1461045557600080fd5b80620e7fa81461030357806301ffc9a71461033257806306fdde0314610362578063081812fc14610384578063095ea7b3146103bc5780630d5893c6146103de575b600080fd5b34801561030f57600080fd5b5061031f670214e8348c4f000081565b6040519081526020015b60405180910390f35b34801561033e57600080fd5b5061035261034d366004612756565b610959565b6040519015158152602001610329565b34801561036e57600080fd5b50610377610984565b60405161032991906127c3565b34801561039057600080fd5b506103a461039f3660046127d6565b610a16565b6040516001600160a01b039091168152602001610329565b3480156103c857600080fd5b506103dc6103d7366004612806565b610a3d565b005b3480156103ea57600080fd5b506103fe6103f9366004612830565b610b57565b6040516103299695949392919061284b565b34801561041c57600080fd5b5061035261042b366004612830565b60116020526000908152604090205460ff1681565b34801561044c57600080fd5b5060085461031f565b34801561046157600080fd5b506103dc610470366004612830565b610c17565b34801561048157600080fd5b506103dc610490366004612935565b610da0565b3480156104a157600080fd5b506103dc6104b03660046129a6565b610ede565b3480156104c157600080fd5b5061031f600381565b3480156104d657600080fd5b506103526104e5366004612830565b6001600160a01b031660009081526013602052604090206004015442111590565b34801561051257600080fd5b5061031f610521366004612806565b610f0f565b34801561053257600080fd5b50610352610fa5565b34801561054757600080fd5b5061031f600e5481565b6103dc610fbf565b6103dc610567366004612806565b611073565b34801561057857600080fd5b506103dc6105873660046129a6565b6110f9565b34801561059857600080fd5b5061031f611114565b3480156105ad57600080fd5b5061031f60105481565b3480156105c357600080fd5b5061031f6105d23660046127d6565b6111be565b3480156105e357600080fd5b506103dc6105f23660046129e2565b611251565b34801561060357600080fd5b5061031f610612366004612830565b611265565b34801561062357600080fd5b506103a46106323660046127d6565b611292565b34801561064357600080fd5b506103776112f2565b34801561065857600080fd5b5061031f610667366004612830565b611380565b34801561067857600080fd5b506103dc611406565b34801561068d57600080fd5b5061035261069c366004612830565b61141a565b3480156106ad57600080fd5b5061031f600f5481565b3480156106c357600080fd5b506103dc6106d2366004612a17565b61143b565b3480156106e357600080fd5b50600a546001600160a01b03166103a4565b34801561070157600080fd5b506103776114b5565b34801561071657600080fd5b506103dc610725366004612a17565b6114c4565b6103dc610738366004612806565b61153e565b34801561074957600080fd5b5061031f61159e565b34801561075e57600080fd5b506103dc61076d366004612a8c565b61160a565b34801561077e57600080fd5b506103dc61078d366004612ac8565b611615565b34801561079e57600080fd5b506103dc6107ad3660046127d6565b61164d565b3480156107be57600080fd5b506103a46107cd3660046127d6565b61165a565b3480156107de57600080fd5b5061031f600581565b3480156107f357600080fd5b506103776108023660046127d6565b611684565b34801561081357600080fd5b506103dc610822366004612806565b6116eb565b34801561083357600080fd5b50600c5461031f565b34801561084857600080fd5b5061031f610857366004612830565b60126020526000908152604090205481565b34801561087557600080fd5b5061031f6124b181565b34801561088b57600080fd5b506103dc61089a366004612b44565b611744565b3480156108ab57600080fd5b506103526108ba366004612b66565b6001600160a01b03918216600090815260056020908152604080832093909416825291909152205460ff1690565b3480156108f457600080fd5b50610352611754565b34801561090957600080fd5b50610352610918366004612806565b61176f565b34801561092957600080fd5b506103dc610938366004612830565b61179f565b34801561094957600080fd5b5061031f6702c68af0bb14000081565b60006001600160e01b0319821663780e9d6360e01b148061097e575061097e82611815565b92915050565b60606000805461099390612b99565b80601f01602080910402602001604051908101604052809291908181526020018280546109bf90612b99565b8015610a0c5780601f106109e157610100808354040283529160200191610a0c565b820191906000526020600020905b8154815290600101906020018083116109ef57829003601f168201915b5050505050905090565b6000610a2182611865565b506000908152600460205260409020546001600160a01b031690565b6000610a4882611292565b9050806001600160a01b0316836001600160a01b031603610aba5760405162461bcd60e51b815260206004820152602160248201527f4552433732313a20617070726f76616c20746f2063757272656e74206f776e656044820152603960f91b60648201526084015b60405180910390fd5b336001600160a01b0382161480610ad65750610ad681336108ba565b610b485760405162461bcd60e51b815260206004820152603e60248201527f4552433732313a20617070726f76652063616c6c6572206973206e6f7420746f60448201527f6b656e206f776e6572206e6f7220617070726f76656420666f7220616c6c00006064820152608401610ab1565b610b5283836118c4565b505050565b601360205260009081526040902080548190610b7290612b99565b80601f0160208091040260200160405190810160405280929190818152602001828054610b9e90612b99565b8015610beb5780601f10610bc057610100808354040283529160200191610beb565b820191906000526020600020905b815481529060010190602001808311610bce57829003601f168201915b505050600184015460028501546003860154600487015460059097015495969295919450925060ff1686565b610c1f611932565b610c288161141a565b610c745760405162461bcd60e51b815260206004820152601a60248201527f506172746e65727368697020646f6573206e6f742065786973740000000000006044820152606401610ab1565b6001600160a01b0381166000908152601360205260408120600501805460ff191690555b600c54811015610d9c57816001600160a01b0316600c8281548110610cbf57610cbf612bcd565b6000918252602090912001546001600160a01b031603610d8a57600c8054610ce990600190612bf9565b81548110610cf957610cf9612bcd565b600091825260209091200154600c80546001600160a01b039092169183908110610d2557610d25612bcd565b9060005260206000200160006101000a8154816001600160a01b0302191690836001600160a01b03160217905550600c805480610d6457610d64612c0c565b600082815260209020810160001990810180546001600160a01b03191690550190555050565b80610d9481612c22565b915050610c98565b5050565b610da8611932565b610db18661141a565b15610dfe5760405162461bcd60e51b815260206004820152601a60248201527f506172746e65727368697020616c7265616479206578697374730000000000006044820152606401610ab1565b600c805460018082019092557fdf6966c971051c3d54ec59162606531493a51404a002842f56009d7e5cf4a8c70180546001600160a01b0319166001600160a01b0389169081179091556040805160c0810182528881526020808201899052818301889052606082018790526080820186905260a082019490945260009283526013909352902081518190610e939082612c89565b506020820151600182015560408201516002820155606082015160038201556080820151600482015560a0909101516005909101805460ff1916911515919091179055505050505050565b610ee8338261198c565b610f045760405162461bcd60e51b8152600401610ab190612d49565b610b52838383611a0b565b6000610f1a83611380565b8210610f7c5760405162461bcd60e51b815260206004820152602b60248201527f455243373231456e756d657261626c653a206f776e657220696e646578206f7560448201526a74206f6620626f756e647360a81b6064820152608401610ab1565b506001600160a01b03919091166000908152600660209081526040808320938352929052205490565b60004260105411158015610fba5750600f5442105b905090565b610fc7611932565b6000610fdb600a546001600160a01b031690565b6001600160a01b03164760405160006040518083038185875af1925050503d8060008114611025576040519150601f19603f3d011682016040523d82523d6000602084013e61102a565b606091505b50509050806110705760405162461bcd60e51b81526020600482015260126024820152714661696c656420746f20776974686472617760701b6044820152606401610ab1565b50565b6002600b54036110c55760405162461bcd60e51b815260206004820152601f60248201527f5265656e7472616e637947756172643a207265656e7472616e742063616c6c006044820152606401610ab1565b6002600b556110d381611bb2565b6110dd8282611cfb565b6110e681611dbe565b6110f08282611e58565b50506001600b55565b610b5283838360405180602001604052806000815250611615565b600080805b600c548110156111b857611164600c828154811061113957611139612bcd565b60009182526020808320909101546001600160a01b0316825260139052604090206004015442111590565b156111a657611199600c828154811061117f5761117f612bcd565b6000918252602090912001546001600160a01b0316611265565b6111a39083612d97565b91505b806111b081612c22565b915050611119565b50919050565b60006111c960085490565b821061122c5760405162461bcd60e51b815260206004820152602c60248201527f455243373231456e756d657261626c653a20676c6f62616c20696e646578206f60448201526b7574206f6620626f756e647360a01b6064820152608401610ab1565b6008828154811061123f5761123f612bcd565b90600052602060002001549050919050565b611259611932565b600d610d9c8282612c89565b6001600160a01b0381166000908152601360205260408120600381015460029091015461097e9190612d97565b6000818152600260205260408120546001600160a01b03168061097e5760405162461bcd60e51b8152602060048201526018602482015277115490cdcc8c4e881a5b9d985b1a59081d1bdad95b88125160421b6044820152606401610ab1565b600d80546112ff90612b99565b80601f016020809104026020016040519081016040528092919081815260200182805461132b90612b99565b80156113785780601f1061134d57610100808354040283529160200191611378565b820191906000526020600020905b81548152906001019060200180831161135b57829003601f168201915b505050505081565b60006001600160a01b0382166113ea5760405162461bcd60e51b815260206004820152602960248201527f4552433732313a2061646472657373207a65726f206973206e6f7420612076616044820152683634b21037bbb732b960b91b6064820152608401610ab1565b506001600160a01b031660009081526003602052604090205490565b61140e611932565b6114186000611ec5565b565b6001600160a01b031660009081526013602052604090206005015460ff1690565b611443611932565b60005b81811015610b525760016011600085858581811061146657611466612bcd565b905060200201602081019061147b9190612830565b6001600160a01b031681526020810191909152604001600020805460ff1916911515919091179055806114ad81612c22565b915050611446565b60606001805461099390612b99565b6114cc611932565b60005b81811015610b52576000601160008585858181106114ef576114ef612bcd565b90506020020160208101906115049190612830565b6001600160a01b031681526020810191909152604001600020805460ff19169115159190911790558061153681612c22565b9150506114cf565b6002600b54036115905760405162461bcd60e51b815260206004820152601f60248201527f5265656e7472616e637947756172643a207265656e7472616e742063616c6c006044820152606401610ab1565b6002600b556110e681611f17565b6000806115a9610fa5565b6115bb576702c68af0bb1400006115c5565b670214e8348c4f00005b90506115d03361141a565b1561160557336000908152601360205260409020600101546064906115f59083612daa565b6115ff9190612ddf565b91505090565b919050565b610d9c33838361204b565b61161f338361198c565b61163b5760405162461bcd60e51b8152600401610ab190612d49565b61164784848484612119565b50505050565b611655611932565b600e55565b600c818154811061166a57600080fd5b6000918252602090912001546001600160a01b0316905081565b606061168f82611865565b600061169961214c565b905060008151116116b957604051806020016040528060008152506116e4565b806116c38461215b565b6040516020016116d4929190612df3565b6040516020818303038152906040525b9392505050565b6116f3611932565b6124b16116fe611114565b8261170860085490565b6117129190612d97565b61171c9190612d97565b111561173a5760405162461bcd60e51b8152600401610ab190612e22565b610d9c8282611e58565b61174c611932565b600f55601055565b6000600e54600014158015610fba575042600e541115905090565b6001600160a01b038216600090815260126020526040812054600390611796908490612d97565b11159392505050565b6117a7611932565b6001600160a01b03811661180c5760405162461bcd60e51b815260206004820152602660248201527f4f776e61626c653a206e6577206f776e657220697320746865207a65726f206160448201526564647265737360d01b6064820152608401610ab1565b61107081611ec5565b60006001600160e01b031982166380ac58cd60e01b148061184657506001600160e01b03198216635b5e139f60e01b145b8061097e57506301ffc9a760e01b6001600160e01b031983161461097e565b6000818152600260205260409020546001600160a01b03166110705760405162461bcd60e51b8152602060048201526018602482015277115490cdcc8c4e881a5b9d985b1a59081d1bdad95b88125160421b6044820152606401610ab1565b600081815260046020526040902080546001600160a01b0319166001600160a01b03841690811790915581906118f982611292565b6001600160a01b03167f8c5be1e5ebec7d5bd14f71427d1e84f3dd0314c0f7b2291e5b200ac8c7c3b92560405160405180910390a45050565b600a546001600160a01b031633146114185760405162461bcd60e51b815260206004820181905260248201527f4f776e61626c653a2063616c6c6572206973206e6f7420746865206f776e65726044820152606401610ab1565b60008061199883611292565b9050806001600160a01b0316846001600160a01b031614806119df57506001600160a01b0380821660009081526005602090815260408083209388168352929052205460ff165b80611a035750836001600160a01b03166119f884610a16565b6001600160a01b0316145b949350505050565b826001600160a01b0316611a1e82611292565b6001600160a01b031614611a825760405162461bcd60e51b815260206004820152602560248201527f4552433732313a207472616e736665722066726f6d20696e636f72726563742060448201526437bbb732b960d91b6064820152608401610ab1565b6001600160a01b038216611ae45760405162461bcd60e51b8152602060048201526024808201527f4552433732313a207472616e7366657220746f20746865207a65726f206164646044820152637265737360e01b6064820152608401610ab1565b611aef83838361225c565b611afa6000826118c4565b6001600160a01b0383166000908152600360205260408120805460019290611b23908490612bf9565b90915550506001600160a01b0382166000908152600360205260408120805460019290611b51908490612d97565b909155505060008181526002602052604080822080546001600160a01b0319166001600160a01b0386811691821790925591518493918716917fddf252ad1be2c89b69c2b068fc378daa952ba7f163c4a11628f55a4df523b3ef91a4505050565b611bba611754565b80611bc85750611bc8610fa5565b611c095760405162461bcd60e51b815260206004820152601260248201527153616c65206973206e6f742061637469766560701b6044820152606401610ab1565b60008111611c595760405162461bcd60e51b815260206004820152601a60248201527f4d757374206d696e74206174206c65617374206f6e65204e46540000000000006044820152606401610ab1565b6124b181611c65611114565b600854611c729190612d97565b611c7c9190612d97565b1115611c9a5760405162461bcd60e51b8152600401610ab190612e22565b611ca261159e565b611cac9082612daa565b3410156110705760405162461bcd60e51b815260206004820152601c60248201527f4e6f7420656e6f7567682066756e647320746f207075726368617365000000006044820152606401610ab1565b611d03610fa5565b15610d9c576001600160a01b03821660009081526011602052604090205460ff16611d685760405162461bcd60e51b8152602060048201526015602482015274141c995cd85b19481858d8d95cdcc819195b9a5959605a1b6044820152606401610ab1565b611d72828261176f565b610d9c5760405162461bcd60e51b815260206004820181905260248201527f4e6f7420656e6f7567682070726573616c65206d696e74696e6773206c6566746044820152606401610ab1565b611dc73361141a565b156110705733600090815260136020526040902060020154811115611e2e5760405162461bcd60e51b815260206004820152601d60248201527f4e6f7420656e6f75676820706172746e6572206d696e7473206c6566740000006044820152606401610ab1565b3360009081526013602052604081206002018054839290611e50908490612bf9565b909155505050565b6000611e6360085490565b6001600160a01b038416600090815260126020526040812080549293508492909190611e90908490612d97565b90915550600190505b82811161164757611eb384611eae8385612d97565b612314565b80611ebd81612c22565b915050611e99565b600a80546001600160a01b038381166001600160a01b0319831681179093556040519116919082907f8be0079c531659141344cd1fd0a4f28419497f9722a3daafe3b4186f6b6457e090600090a35050565b611f203361141a565b611f7c5760405162461bcd60e51b815260206004820152602760248201527f4f6e6c7920706172746e65727320686176652061636365737320746f2066726560448201526665206d696e747360c81b6064820152608401610ab1565b6124b181611f88611114565b600854611f959190612d97565b611f9f9190612d97565b1115611fbd5760405162461bcd60e51b8152600401610ab190612e22565b3360009081526013602052604090206003015481106120295760405162461bcd60e51b815260206004820152602260248201527f4e6f7420656e6f75676820706172746e65722066726565206d696e7473206c65604482015261199d60f21b6064820152608401610ab1565b3360009081526013602052604081206003018054839290611e50908490612bf9565b816001600160a01b0316836001600160a01b0316036120ac5760405162461bcd60e51b815260206004820152601960248201527f4552433732313a20617070726f766520746f2063616c6c6572000000000000006044820152606401610ab1565b6001600160a01b03838116600081815260056020908152604080832094871680845294825291829020805460ff191686151590811790915591519182527f17307eab39ab6107e8899845ad3d59bd9653f200f220920489ca2b5937696c31910160405180910390a3505050565b612124848484611a0b565b6121308484848461232e565b6116475760405162461bcd60e51b8152600401610ab190612e59565b6060600d805461099390612b99565b6060816000036121825750506040805180820190915260018152600360fc1b602082015290565b8160005b81156121ac578061219681612c22565b91506121a59050600a83612ddf565b9150612186565b60008167ffffffffffffffff8111156121c7576121c7612889565b6040519080825280601f01601f1916602001820160405280156121f1576020820181803683370190505b5090505b8415611a0357612206600183612bf9565b9150612213600a86612eab565b61221e906030612d97565b60f81b81838151811061223357612233612bcd565b60200101906001600160f81b031916908160001a905350612255600a86612ddf565b94506121f5565b6001600160a01b0383166122b7576122b281600880546000838152600960205260408120829055600182018355919091527ff3f7a9fe364faab93b216da50a3214154f22a0a2b415b23a84c8169e8b636ee30155565b6122da565b816001600160a01b0316836001600160a01b0316146122da576122da838261242f565b6001600160a01b0382166122f157610b52816124cc565b826001600160a01b0316826001600160a01b031614610b5257610b52828261257b565b610d9c8282604051806020016040528060008152506125bf565b60006001600160a01b0384163b1561242457604051630a85bd0160e11b81526001600160a01b0385169063150b7a0290612372903390899088908890600401612ebf565b6020604051808303816000875af19250505080156123ad575060408051601f3d908101601f191682019092526123aa91810190612efc565b60015b61240a573d8080156123db576040519150601f19603f3d011682016040523d82523d6000602084013e6123e0565b606091505b5080516000036124025760405162461bcd60e51b8152600401610ab190612e59565b805181602001fd5b6001600160e01b031916630a85bd0160e11b149050611a03565b506001949350505050565b6000600161243c84611380565b6124469190612bf9565b600083815260076020526040902054909150808214612499576001600160a01b03841660009081526006602090815260408083208584528252808320548484528184208190558352600790915290208190555b5060009182526007602090815260408084208490556001600160a01b039094168352600681528383209183525290812055565b6008546000906124de90600190612bf9565b6000838152600960205260408120546008805493945090928490811061250657612506612bcd565b90600052602060002001549050806008838154811061252757612527612bcd565b600091825260208083209091019290925582815260099091526040808220849055858252812055600880548061255f5761255f612c0c565b6001900381819060005260206000200160009055905550505050565b600061258683611380565b6001600160a01b039093166000908152600660209081526040808320868452825280832085905593825260079052919091209190915550565b6125c983836125f2565b6125d6600084848461232e565b610b525760405162461bcd60e51b8152600401610ab190612e59565b6001600160a01b0382166126485760405162461bcd60e51b815260206004820181905260248201527f4552433732313a206d696e7420746f20746865207a65726f20616464726573736044820152606401610ab1565b6000818152600260205260409020546001600160a01b0316156126ad5760405162461bcd60e51b815260206004820152601c60248201527f4552433732313a20746f6b656e20616c7265616479206d696e746564000000006044820152606401610ab1565b6126b96000838361225c565b6001600160a01b03821660009081526003602052604081208054600192906126e2908490612d97565b909155505060008181526002602052604080822080546001600160a01b0319166001600160a01b03861690811790915590518392907fddf252ad1be2c89b69c2b068fc378daa952ba7f163c4a11628f55a4df523b3ef908290a45050565b6001600160e01b03198116811461107057600080fd5b60006020828403121561276857600080fd5b81356116e481612740565b60005b8381101561278e578181015183820152602001612776565b50506000910152565b600081518084526127af816020860160208601612773565b601f01601f19169290920160200192915050565b6020815260006116e46020830184612797565b6000602082840312156127e857600080fd5b5035919050565b80356001600160a01b038116811461160557600080fd5b6000806040838503121561281957600080fd5b612822836127ef565b946020939093013593505050565b60006020828403121561284257600080fd5b6116e4826127ef565b60c08152600061285e60c0830189612797565b602083019790975250604081019490945260608401929092526080830152151560a090910152919050565b634e487b7160e01b600052604160045260246000fd5b600067ffffffffffffffff808411156128ba576128ba612889565b604051601f8501601f19908116603f011681019082821181831017156128e2576128e2612889565b816040528093508581528686860111156128fb57600080fd5b858560208301376000602087830101525050509392505050565b600082601f83011261292657600080fd5b6116e48383356020850161289f565b60008060008060008060c0878903121561294e57600080fd5b612957876127ef565b9550602087013567ffffffffffffffff81111561297357600080fd5b61297f89828a01612915565b96999698505050506040850135946060810135946080820135945060a09091013592509050565b6000806000606084860312156129bb57600080fd5b6129c4846127ef565b92506129d2602085016127ef565b9150604084013590509250925092565b6000602082840312156129f457600080fd5b813567ffffffffffffffff811115612a0b57600080fd5b611a0384828501612915565b60008060208385031215612a2a57600080fd5b823567ffffffffffffffff80821115612a4257600080fd5b818501915085601f830112612a5657600080fd5b813581811115612a6557600080fd5b8660208260051b8501011115612a7a57600080fd5b60209290920196919550909350505050565b60008060408385031215612a9f57600080fd5b612aa8836127ef565b915060208301358015158114612abd57600080fd5b809150509250929050565b60008060008060808587031215612ade57600080fd5b612ae7856127ef565b9350612af5602086016127ef565b925060408501359150606085013567ffffffffffffffff811115612b1857600080fd5b8501601f81018713612b2957600080fd5b612b388782356020840161289f565b91505092959194509250565b60008060408385031215612b5757600080fd5b50508035926020909101359150565b60008060408385031215612b7957600080fd5b612b82836127ef565b9150612b90602084016127ef565b90509250929050565b600181811c90821680612bad57607f821691505b6020821081036111b857634e487b7160e01b600052602260045260246000fd5b634e487b7160e01b600052603260045260246000fd5b634e487b7160e01b600052601160045260246000fd5b8181038181111561097e5761097e612be3565b634e487b7160e01b600052603160045260246000fd5b600060018201612c3457612c34612be3565b5060010190565b601f821115610b5257600081815260208120601f850160051c81016020861015612c625750805b601f850160051c820191505b81811015612c8157828155600101612c6e565b505050505050565b815167ffffffffffffffff811115612ca357612ca3612889565b612cb781612cb18454612b99565b84612c3b565b602080601f831160018114612cec5760008415612cd45750858301515b600019600386901b1c1916600185901b178555612c81565b600085815260208120601f198616915b82811015612d1b57888601518255948401946001909101908401612cfc565b5085821015612d395787850151600019600388901b60f8161c191681555b5050505050600190811b01905550565b6020808252602e908201527f4552433732313a2063616c6c6572206973206e6f7420746f6b656e206f776e6560408201526d1c881b9bdc88185c1c1c9bdd995960921b606082015260800190565b8082018082111561097e5761097e612be3565b6000816000190483118215151615612dc457612dc4612be3565b500290565b634e487b7160e01b600052601260045260246000fd5b600082612dee57612dee612dc9565b500490565b60008351612e05818460208801612773565b835190830190612e19818360208801612773565b01949350505050565b60208082526019908201527f537570706c79206c656674206973206e6f7420656e6f75676800000000000000604082015260600190565b60208082526032908201527f4552433732313a207472616e7366657220746f206e6f6e20455243373231526560408201527131b2b4bb32b91034b6b83632b6b2b73a32b960711b606082015260800190565b600082612eba57612eba612dc9565b500690565b6001600160a01b0385811682528416602082015260408101839052608060608201819052600090612ef290830184612797565b9695505050505050565b600060208284031215612f0e57600080fd5b81516116e48161274056fea26469706673582212207e797f8cf431155f756ec1c4d37f493e652767be6f3e0c534a22f5540a4d0d1064736f6c63430008100033",
    "sourcePath": "/home/jose92/Personal/ZetaSaurio/zetasaurio/contracts/ZetaSaurio.sol",
    "compiler": {
        "name": "solc",
        "version": "0.8.16+commit.07a7930e"
    },
    "functionHashes": {
        "approve(address,uint256)": "095ea7b3",
        "balanceOf(address)": "70a08231",
        "baseURI()": "6c0360eb",
        "batchMintLimit()": "c6bd6bc8",
        "createPartnership(address,string,uint256,uint256,uint256,uint256)": "208596d6",
        "deletePartnership(address)": "1e66345b",
        "enoughPresaleMintingsLeft(address,uint256)": "f19b88ad",
        "freeMint(address,uint256)": "9883566e",
        "getApproved(uint256)": "081812fc",
        "grantPresaleAccess(address[])": "7c920e47",
        "hasPresaleAccess(address)": "0f209186",
        "isApprovedForAll(address,address)": "e985e9c5",
        "maxSupply()": "d5abeb01",
        "mint(address,uint256)": "40c10f19",
        "mintedPerAddress(address)": "d445b978",
        "name()": "06fdde03",
        "owner()": "8da5cb5b",
        "ownerOf(uint256)": "6352211e",
        "partners(uint256)": "c3b49d04",
        "partnersCount()": "cdd8fea5",
        "partnershipExists(address)": "71efb8d1",
        "partnershipSupplyIsReserved(address)": "2f6b1cd5",
        "partnershipTotalSupply(address)": "5a4fc355",
        "partnerships(address)": "0d5893c6",
        "presaleEndTimestamp()": "78da7ba1",
        "presaleIsActive()": "30f72cd4",
        "presaleMintPerAddressLimit()": "25efe85c",
        "presalePrice()": "000e7fa8",
        "presaleStartTimestamp()": "4ea37fec",
        "price()": "a035b1fe",
        "renounceOwnership()": "715018a6",
        "reserve(address,uint256)": "cc47a40b",
        "reservedSupply()": "44d19d2b",
        "revokePresaleAccess(address[])": "985e89fe",
        "safeTransferFrom(address,address,uint256)": "42842e0e",
        "safeTransferFrom(address,address,uint256,bytes)": "b88d4fde",
        "saleIsActive()": "eb8d2444",
        "salePrice()": "f51f96dd",
        "saleStartTimestamp()": "3c276d86",
        "schedulePresale(uint256,uint256)": "dcad8a49",
        "scheduleSale(uint256)": "c383e6c6",
        "setApprovalForAll(address,bool)": "a22cb465",
        "setBaseURI(string)": "55f804b3",
        "supportsInterface(bytes4)": "01ffc9a7",
        "symbol()": "95d89b41",
        "tokenByIndex(uint256)": "4f6ccce7",
        "tokenOfOwnerByIndex(address,uint256)": "2f745c59",
        "tokenURI(uint256)": "c87b56dd",
        "totalSupply()": "18160ddd",
        "transferFrom(address,address,uint256)": "23b872dd",
        "transferOwnership(address)": "f2fde38b",
        "withdraw()": "3ccfd60b"
    },
    "gasEstimates": {
        "creation": {
            "codeDepositCost": "2422200",
            "executionCost": "infinite",
            "totalCost": "infinite"
        },
        "external": {
            "approve(address,uint256)": "infinite",
            "balanceOf(address)": "2624",
            "baseURI()": "infinite",
            "batchMintLimit()": "251",
            "createPartnership(address,string,uint256,uint256,uint256,uint256)": "infinite",
            "deletePartnership(address)": "infinite",
            "enoughPresaleMintingsLeft(address,uint256)": "2766",
            "freeMint(address,uint256)": "infinite",
            "getApproved(uint256)": "4837",
            "grantPresaleAccess(address[])": "infinite",
            "hasPresaleAccess(address)": "2600",
            "isApprovedForAll(address,address)": "infinite",
            "maxSupply()": "251",
            "mint(address,uint256)": "infinite",
            "mintedPerAddress(address)": "2663",
            "name()": "infinite",
            "owner()": "2487",
            "ownerOf(uint256)": "2649",
            "partners(uint256)": "4659",
            "partnersCount()": "2414",
            "partnershipExists(address)": "2657",
            "partnershipSupplyIsReserved(address)": "2691",
            "partnershipTotalSupply(address)": "infinite",
            "partnerships(address)": "infinite",
            "presaleEndTimestamp()": "2396",
            "presaleIsActive()": "4527",
            "presaleMintPerAddressLimit()": "296",
            "presalePrice()": "231",
            "presaleStartTimestamp()": "2374",
            "price()": "9161",
            "renounceOwnership()": "infinite",
            "reserve(address,uint256)": "infinite",
            "reservedSupply()": "infinite",
            "revokePresaleAccess(address[])": "infinite",
            "safeTransferFrom(address,address,uint256)": "infinite",
            "safeTransferFrom(address,address,uint256,bytes)": "infinite",
            "saleIsActive()": "4528",
            "salePrice()": "316",
            "saleStartTimestamp()": "2374",
            "schedulePresale(uint256,uint256)": "46703",
            "scheduleSale(uint256)": "24621",
            "setApprovalForAll(address,bool)": "26772",
            "setBaseURI(string)": "infinite",
            "supportsInterface(bytes4)": "infinite",
            "symbol()": "infinite",
            "tokenByIndex(uint256)": "6816",
            "tokenOfOwnerByIndex(address,uint256)": "4965",
            "tokenURI(uint256)": "infinite",
            "totalSupply()": "2372",
            "transferFrom(address,address,uint256)": "infinite",
            "transferOwnership(address)": "28446",
            "withdraw()": "infinite"
        },
        "internal": {
            "_baseURI()": "infinite",
            "mintMany(address,uint256)": "infinite",
            "validateAndUpdateFreeMint(uint256)": "infinite",
            "validateAndUpdatePartnership(uint256)": "infinite",
            "validateAndUpdatePresale(address,uint256)": "infinite",
            "validateSale(uint256)": "infinite"
        }
    }
}