{
  "contractName": "ZetaSaurio",
  "abi": [
    {
      "inputs": [],
      "stateMutability": "nonpayable",
      "type": "constructor"
    },
    {
      "anonymous": false,
      "inputs": [
        {
          "indexed": true,
          "internalType": "address",
          "name": "owner",
          "type": "address"
        },
        {
          "indexed": true,
          "internalType": "address",
          "name": "approved",
          "type": "address"
        },
        {
          "indexed": true,
          "internalType": "uint256",
          "name": "tokenId",
          "type": "uint256"
        }
      ],
      "name": "Approval",
      "type": "event"
    },
    {
      "anonymous": false,
      "inputs": [
        {
          "indexed": true,
          "internalType": "address",
          "name": "owner",
          "type": "address"
        },
        {
          "indexed": true,
          "internalType": "address",
          "name": "operator",
          "type": "address"
        },
        {
          "indexed": false,
          "internalType": "bool",
          "name": "approved",
          "type": "bool"
        }
      ],
      "name": "ApprovalForAll",
      "type": "event"
    },
    {
      "anonymous": false,
      "inputs": [
        {
          "indexed": true,
          "internalType": "address",
          "name": "previousOwner",
          "type": "address"
        },
        {
          "indexed": true,
          "internalType": "address",
          "name": "newOwner",
          "type": "address"
        }
      ],
      "name": "OwnershipTransferred",
      "type": "event"
    },
    {
      "anonymous": false,
      "inputs": [
        {
          "indexed": true,
          "internalType": "address",
          "name": "from",
          "type": "address"
        },
        {
          "indexed": true,
          "internalType": "address",
          "name": "to",
          "type": "address"
        },
        {
          "indexed": true,
          "internalType": "uint256",
          "name": "tokenId",
          "type": "uint256"
        }
      ],
      "name": "Transfer",
      "type": "event"
    },
    {
      "inputs": [
        {
          "internalType": "address",
          "name": "to",
          "type": "address"
        },
        {
          "internalType": "uint256",
          "name": "tokenId",
          "type": "uint256"
        }
      ],
      "name": "approve",
      "outputs": [],
      "stateMutability": "nonpayable",
      "type": "function"
    },
    {
      "inputs": [
        {
          "internalType": "address",
          "name": "owner",
          "type": "address"
        }
      ],
      "name": "balanceOf",
      "outputs": [
        {
          "internalType": "uint256",
          "name": "",
          "type": "uint256"
        }
      ],
      "stateMutability": "view",
      "type": "function",
      "constant": true
    },
    {
      "inputs": [],
      "name": "baseURI",
      "outputs": [
        {
          "internalType": "string",
          "name": "",
          "type": "string"
        }
      ],
      "stateMutability": "view",
      "type": "function",
      "constant": true
    },
    {
      "inputs": [],
      "name": "batchMintLimit",
      "outputs": [
        {
          "internalType": "uint256",
          "name": "",
          "type": "uint256"
        }
      ],
      "stateMutability": "view",
      "type": "function",
      "constant": true
    },
    {
      "inputs": [
        {
          "internalType": "uint256",
          "name": "tokenId",
          "type": "uint256"
        }
      ],
      "name": "getApproved",
      "outputs": [
        {
          "internalType": "address",
          "name": "",
          "type": "address"
        }
      ],
      "stateMutability": "view",
      "type": "function",
      "constant": true
    },
    {
      "inputs": [
        {
          "internalType": "address",
          "name": "",
          "type": "address"
        }
      ],
      "name": "hasPresaleAccess",
      "outputs": [
        {
          "internalType": "bool",
          "name": "",
          "type": "bool"
        }
      ],
      "stateMutability": "view",
      "type": "function",
      "constant": true
    },
    {
      "inputs": [
        {
          "internalType": "address",
          "name": "owner",
          "type": "address"
        },
        {
          "internalType": "address",
          "name": "operator",
          "type": "address"
        }
      ],
      "name": "isApprovedForAll",
      "outputs": [
        {
          "internalType": "bool",
          "name": "",
          "type": "bool"
        }
      ],
      "stateMutability": "view",
      "type": "function",
      "constant": true
    },
    {
      "inputs": [],
      "name": "manager",
      "outputs": [
        {
          "internalType": "address",
          "name": "",
          "type": "address"
        }
      ],
      "stateMutability": "view",
      "type": "function",
      "constant": true
    },
    {
      "inputs": [],
      "name": "maxSupply",
      "outputs": [
        {
          "internalType": "uint256",
          "name": "",
          "type": "uint256"
        }
      ],
      "stateMutability": "view",
      "type": "function",
      "constant": true
    },
    {
      "inputs": [
        {
          "internalType": "address",
          "name": "",
          "type": "address"
        }
      ],
      "name": "mintedPerAddress",
      "outputs": [
        {
          "internalType": "uint256",
          "name": "",
          "type": "uint256"
        }
      ],
      "stateMutability": "view",
      "type": "function",
      "constant": true
    },
    {
      "inputs": [],
      "name": "name",
      "outputs": [
        {
          "internalType": "string",
          "name": "",
          "type": "string"
        }
      ],
      "stateMutability": "view",
      "type": "function",
      "constant": true
    },
    {
      "inputs": [],
      "name": "owner",
      "outputs": [
        {
          "internalType": "address",
          "name": "",
          "type": "address"
        }
      ],
      "stateMutability": "view",
      "type": "function",
      "constant": true
    },
    {
      "inputs": [
        {
          "internalType": "uint256",
          "name": "tokenId",
          "type": "uint256"
        }
      ],
      "name": "ownerOf",
      "outputs": [
        {
          "internalType": "address",
          "name": "",
          "type": "address"
        }
      ],
      "stateMutability": "view",
      "type": "function",
      "constant": true
    },
    {
      "inputs": [],
      "name": "presaleDuration",
      "outputs": [
        {
          "internalType": "uint256",
          "name": "",
          "type": "uint256"
        }
      ],
      "stateMutability": "view",
      "type": "function",
      "constant": true
    },
    {
      "inputs": [],
      "name": "presaleMintPerAddressLimit",
      "outputs": [
        {
          "internalType": "uint256",
          "name": "",
          "type": "uint256"
        }
      ],
      "stateMutability": "view",
      "type": "function",
      "constant": true
    },
    {
      "inputs": [],
      "name": "presalePrice",
      "outputs": [
        {
          "internalType": "uint256",
          "name": "",
          "type": "uint256"
        }
      ],
      "stateMutability": "view",
      "type": "function",
      "constant": true
    },
    {
      "inputs": [],
      "name": "presaleStartTimestamp",
      "outputs": [
        {
          "internalType": "uint256",
          "name": "",
          "type": "uint256"
        }
      ],
      "stateMutability": "view",
      "type": "function",
      "constant": true
    },
    {
      "inputs": [],
      "name": "renounceOwnership",
      "outputs": [],
      "stateMutability": "nonpayable",
      "type": "function"
    },
    {
      "inputs": [
        {
          "internalType": "address",
          "name": "from",
          "type": "address"
        },
        {
          "internalType": "address",
          "name": "to",
          "type": "address"
        },
        {
          "internalType": "uint256",
          "name": "tokenId",
          "type": "uint256"
        }
      ],
      "name": "safeTransferFrom",
      "outputs": [],
      "stateMutability": "nonpayable",
      "type": "function"
    },
    {
      "inputs": [
        {
          "internalType": "address",
          "name": "from",
          "type": "address"
        },
        {
          "internalType": "address",
          "name": "to",
          "type": "address"
        },
        {
          "internalType": "uint256",
          "name": "tokenId",
          "type": "uint256"
        },
        {
          "internalType": "bytes",
          "name": "data",
          "type": "bytes"
        }
      ],
      "name": "safeTransferFrom",
      "outputs": [],
      "stateMutability": "nonpayable",
      "type": "function"
    },
    {
      "inputs": [],
      "name": "salePrice",
      "outputs": [
        {
          "internalType": "uint256",
          "name": "",
          "type": "uint256"
        }
      ],
      "stateMutability": "view",
      "type": "function",
      "constant": true
    },
    {
      "inputs": [],
      "name": "saleStartTimestamp",
      "outputs": [
        {
          "internalType": "uint256",
          "name": "",
          "type": "uint256"
        }
      ],
      "stateMutability": "view",
      "type": "function",
      "constant": true
    },
    {
      "inputs": [
        {
          "internalType": "address",
          "name": "operator",
          "type": "address"
        },
        {
          "internalType": "bool",
          "name": "approved",
          "type": "bool"
        }
      ],
      "name": "setApprovalForAll",
      "outputs": [],
      "stateMutability": "nonpayable",
      "type": "function"
    },
    {
      "inputs": [
        {
          "internalType": "bytes4",
          "name": "interfaceId",
          "type": "bytes4"
        }
      ],
      "name": "supportsInterface",
      "outputs": [
        {
          "internalType": "bool",
          "name": "",
          "type": "bool"
        }
      ],
      "stateMutability": "view",
      "type": "function",
      "constant": true
    },
    {
      "inputs": [],
      "name": "symbol",
      "outputs": [
        {
          "internalType": "string",
          "name": "",
          "type": "string"
        }
      ],
      "stateMutability": "view",
      "type": "function",
      "constant": true
    },
    {
      "inputs": [
        {
          "internalType": "uint256",
          "name": "index",
          "type": "uint256"
        }
      ],
      "name": "tokenByIndex",
      "outputs": [
        {
          "internalType": "uint256",
          "name": "",
          "type": "uint256"
        }
      ],
      "stateMutability": "view",
      "type": "function",
      "constant": true
    },
    {
      "inputs": [
        {
          "internalType": "address",
          "name": "owner",
          "type": "address"
        },
        {
          "internalType": "uint256",
          "name": "index",
          "type": "uint256"
        }
      ],
      "name": "tokenOfOwnerByIndex",
      "outputs": [
        {
          "internalType": "uint256",
          "name": "",
          "type": "uint256"
        }
      ],
      "stateMutability": "view",
      "type": "function",
      "constant": true
    },
    {
      "inputs": [
        {
          "internalType": "uint256",
          "name": "tokenId",
          "type": "uint256"
        }
      ],
      "name": "tokenURI",
      "outputs": [
        {
          "internalType": "string",
          "name": "",
          "type": "string"
        }
      ],
      "stateMutability": "view",
      "type": "function",
      "constant": true
    },
    {
      "inputs": [],
      "name": "totalSupply",
      "outputs": [
        {
          "internalType": "uint256",
          "name": "",
          "type": "uint256"
        }
      ],
      "stateMutability": "view",
      "type": "function",
      "constant": true
    },
    {
      "inputs": [
        {
          "internalType": "address",
          "name": "from",
          "type": "address"
        },
        {
          "internalType": "address",
          "name": "to",
          "type": "address"
        },
        {
          "internalType": "uint256",
          "name": "tokenId",
          "type": "uint256"
        }
      ],
      "name": "transferFrom",
      "outputs": [],
      "stateMutability": "nonpayable",
      "type": "function"
    },
    {
      "inputs": [
        {
          "internalType": "address",
          "name": "newOwner",
          "type": "address"
        }
      ],
      "name": "transferOwnership",
      "outputs": [],
      "stateMutability": "nonpayable",
      "type": "function"
    },
    {
      "inputs": [
        {
          "internalType": "string",
          "name": "_newBaseURI",
          "type": "string"
        }
      ],
      "name": "setBaseURI",
      "outputs": [],
      "stateMutability": "nonpayable",
      "type": "function"
    },
    {
      "inputs": [
        {
          "internalType": "uint256",
          "name": "_presaleStartTimestamp",
          "type": "uint256"
        }
      ],
      "name": "schedulePresale",
      "outputs": [],
      "stateMutability": "nonpayable",
      "type": "function"
    },
    {
      "inputs": [
        {
          "internalType": "uint256",
          "name": "_saleStartTimestamp",
          "type": "uint256"
        }
      ],
      "name": "scheduleSale",
      "outputs": [],
      "stateMutability": "nonpayable",
      "type": "function"
    },
    {
      "inputs": [],
      "name": "presaleIsActive",
      "outputs": [
        {
          "internalType": "bool",
          "name": "",
          "type": "bool"
        }
      ],
      "stateMutability": "view",
      "type": "function",
      "constant": true
    },
    {
      "inputs": [],
      "name": "saleIsActive",
      "outputs": [
        {
          "internalType": "bool",
          "name": "",
          "type": "bool"
        }
      ],
      "stateMutability": "view",
      "type": "function",
      "constant": true
    },
    {
      "inputs": [],
      "name": "price",
      "outputs": [
        {
          "internalType": "uint256",
          "name": "",
          "type": "uint256"
        }
      ],
      "stateMutability": "view",
      "type": "function",
      "constant": true
    },
    {
      "inputs": [
        {
          "internalType": "uint256",
          "name": "_mintAmount",
          "type": "uint256"
        }
      ],
      "name": "enoughPresaleMintingsLeft",
      "outputs": [
        {
          "internalType": "bool",
          "name": "",
          "type": "bool"
        }
      ],
      "stateMutability": "view",
      "type": "function",
      "constant": true
    },
    {
      "inputs": [
        {
          "internalType": "address[]",
          "name": "_users",
          "type": "address[]"
        }
      ],
      "name": "grantPresaleAccess",
      "outputs": [],
      "stateMutability": "nonpayable",
      "type": "function"
    },
    {
      "inputs": [
        {
          "internalType": "address[]",
          "name": "_users",
          "type": "address[]"
        }
      ],
      "name": "revokePresaleAccess",
      "outputs": [],
      "stateMutability": "nonpayable",
      "type": "function"
    },
    {
      "inputs": [],
      "name": "withdraw",
      "outputs": [],
      "stateMutability": "payable",
      "type": "function",
      "payable": true
    },
    {
      "inputs": [
        {
          "internalType": "uint256",
          "name": "_amount",
          "type": "uint256"
        }
      ],
      "name": "reserve",
      "outputs": [],
      "stateMutability": "nonpayable",
      "type": "function"
    },
    {
      "inputs": [
        {
          "internalType": "uint256",
          "name": "_mintAmount",
          "type": "uint256"
        }
      ],
      "name": "mint",
      "outputs": [],
      "stateMutability": "payable",
      "type": "function",
      "payable": true
    }
  ],
  "bytecode": "0x608060405260405180602001604052806000815250600c908162000024919062000433565b503480156200003257600080fd5b506040518060400160405280600a81526020017f5a65746153617572696f000000000000000000000000000000000000000000008152506040518060400160405280600281526020017f5a530000000000000000000000000000000000000000000000000000000000008152508160009081620000b0919062000433565b508060019081620000c2919062000433565b505050620000e5620000d9620000eb60201b60201c565b620000f360201b60201c565b6200051a565b600033905090565b6000600a60009054906101000a900473ffffffffffffffffffffffffffffffffffffffff16905081600a60006101000a81548173ffffffffffffffffffffffffffffffffffffffff021916908373ffffffffffffffffffffffffffffffffffffffff1602179055508173ffffffffffffffffffffffffffffffffffffffff168173ffffffffffffffffffffffffffffffffffffffff167f8be0079c531659141344cd1fd0a4f28419497f9722a3daafe3b4186f6b6457e060405160405180910390a35050565b600081519050919050565b7f4e487b7100000000000000000000000000000000000000000000000000000000600052604160045260246000fd5b7f4e487b7100000000000000000000000000000000000000000000000000000000600052602260045260246000fd5b600060028204905060018216806200023b57607f821691505b602082108103620002515762000250620001f3565b5b50919050565b60008190508160005260206000209050919050565b60006020601f8301049050919050565b600082821b905092915050565b600060088302620002bb7fffffffffffffffffffffffffffffffffffffffffffffffffffffffffffffffff826200027c565b620002c786836200027c565b95508019841693508086168417925050509392505050565b6000819050919050565b6000819050919050565b6000620003146200030e6200030884620002df565b620002e9565b620002df565b9050919050565b6000819050919050565b6200033083620002f3565b620003486200033f826200031b565b84845462000289565b825550505050565b600090565b6200035f62000350565b6200036c81848462000325565b505050565b5b8181101562000394576200038860008262000355565b60018101905062000372565b5050565b601f821115620003e357620003ad8162000257565b620003b8846200026c565b81016020851015620003c8578190505b620003e0620003d7856200026c565b83018262000371565b50505b505050565b600082821c905092915050565b60006200040860001984600802620003e8565b1980831691505092915050565b6000620004238383620003f5565b9150826002028217905092915050565b6200043e82620001b9565b67ffffffffffffffff8111156200045a5762000459620001c4565b5b62000466825462000222565b6200047382828562000398565b600060209050601f831160018114620004ab576000841562000496578287015190505b620004a2858262000415565b86555062000512565b601f198416620004bb8662000257565b60005b82811015620004e557848901518255600182019150602085019450602081019050620004be565b8683101562000505578489015162000501601f891682620003f5565b8355505b6001600288020188555050505b505050505050565b614642806200052a6000396000f3fe60806040526004361061025b5760003560e01c80636352211e11610144578063a22cb465116100b6578063d445b9781161007a578063d445b978146108df578063d5abeb011461091c578063e985e9c514610947578063eb8d244414610984578063f2fde38b146109af578063f51f96dd146109d85761025b565b8063a22cb465146107fc578063b88d4fde14610825578063c383e6c61461084e578063c6bd6bc814610877578063c87b56dd146108a25761025b565b8063819b25ba11610108578063819b25ba1461070d5780638da5cb5b1461073657806395d89b4114610761578063985e89fe1461078c578063a035b1fe146107b5578063a0712d68146107e05761025b565b80636352211e146106285780636c0360eb1461066557806370a0823114610690578063715018a6146106cd5780637c920e47146106e45761025b565b806330f72cd4116101dd578063481c6a75116101a1578063481c6a75146105185780634ea37fec146105435780634f6ccce71461056e5780635299aef9146105ab57806355f804b3146105d45780635868c32a146105fd5761025b565b806330f72cd41461045257806334f30ad81461047d5780633c276d86146104ba5780633ccfd60b146104e557806342842e0e146104ef5761025b565b80630f209186116102245780630f2091861461035957806318160ddd1461039657806323b872dd146103c157806325efe85c146103ea5780632f745c59146104155761025b565b80620e7fa81461026057806301ffc9a71461028b57806306fdde03146102c8578063081812fc146102f3578063095ea7b314610330575b600080fd5b34801561026c57600080fd5b50610275610a03565b6040516102829190612cc4565b60405180910390f35b34801561029757600080fd5b506102b260048036038101906102ad9190612d4b565b610a0f565b6040516102bf9190612d93565b60405180910390f35b3480156102d457600080fd5b506102dd610a89565b6040516102ea9190612e47565b60405180910390f35b3480156102ff57600080fd5b5061031a60048036038101906103159190612e95565b610b1b565b6040516103279190612f03565b60405180910390f35b34801561033c57600080fd5b5061035760048036038101906103529190612f4a565b610b61565b005b34801561036557600080fd5b50610380600480360381019061037b9190612f8a565b610c78565b60405161038d9190612d93565b60405180910390f35b3480156103a257600080fd5b506103ab610c98565b6040516103b89190612cc4565b60405180910390f35b3480156103cd57600080fd5b506103e860048036038101906103e39190612fb7565b610ca5565b005b3480156103f657600080fd5b506103ff610d05565b60405161040c9190612cc4565b60405180910390f35b34801561042157600080fd5b5061043c60048036038101906104379190612f4a565b610d0a565b6040516104499190612cc4565b60405180910390f35b34801561045e57600080fd5b50610467610daf565b6040516104749190612d93565b60405180910390f35b34801561048957600080fd5b506104a4600480360381019061049f9190612e95565b610dd7565b6040516104b19190612d93565b60405180910390f35b3480156104c657600080fd5b506104cf610e2e565b6040516104dc9190612cc4565b60405180910390f35b6104ed610e34565b005b3480156104fb57600080fd5b5061051660048036038101906105119190612fb7565b610ef2565b005b34801561052457600080fd5b5061052d610f12565b60405161053a9190612f03565b60405180910390f35b34801561054f57600080fd5b50610558610f38565b6040516105659190612cc4565b60405180910390f35b34801561057a57600080fd5b5061059560048036038101906105909190612e95565b610f3e565b6040516105a29190612cc4565b60405180910390f35b3480156105b757600080fd5b506105d260048036038101906105cd9190612e95565b610faf565b005b3480156105e057600080fd5b506105fb60048036038101906105f6919061313f565b610fc1565b005b34801561060957600080fd5b50610612610fdc565b60405161061f9190612cc4565b60405180910390f35b34801561063457600080fd5b5061064f600480360381019061064a9190612e95565b610fe3565b60405161065c9190612f03565b60405180910390f35b34801561067157600080fd5b5061067a611094565b6040516106879190612e47565b60405180910390f35b34801561069c57600080fd5b506106b760048036038101906106b29190612f8a565b611122565b6040516106c49190612cc4565b60405180910390f35b3480156106d957600080fd5b506106e26111d9565b005b3480156106f057600080fd5b5061070b600480360381019061070691906131e8565b6111ed565b005b34801561071957600080fd5b50610734600480360381019061072f9190612e95565b61129a565b005b34801561074257600080fd5b5061074b6112e9565b6040516107589190612f03565b60405180910390f35b34801561076d57600080fd5b50610776611313565b6040516107839190612e47565b60405180910390f35b34801561079857600080fd5b506107b360048036038101906107ae91906131e8565b6113a5565b005b3480156107c157600080fd5b506107ca611452565b6040516107d79190612cc4565b60405180910390f35b6107fa60048036038101906107f59190612e95565b61147d565b005b34801561080857600080fd5b50610823600480360381019061081e9190613261565b61177d565b005b34801561083157600080fd5b5061084c60048036038101906108479190613342565b611793565b005b34801561085a57600080fd5b5061087560048036038101906108709190612e95565b6117f5565b005b34801561088357600080fd5b5061088c611807565b6040516108999190612cc4565b60405180910390f35b3480156108ae57600080fd5b506108c960048036038101906108c49190612e95565b61180c565b6040516108d69190612e47565b60405180910390f35b3480156108eb57600080fd5b5061090660048036038101906109019190612f8a565b611874565b6040516109139190612cc4565b60405180910390f35b34801561092857600080fd5b5061093161188c565b60405161093e9190612cc4565b60405180910390f35b34801561095357600080fd5b5061096e600480360381019061096991906133c5565b611892565b60405161097b9190612d93565b60405180910390f35b34801561099057600080fd5b50610999611926565b6040516109a69190612d93565b60405180910390f35b3480156109bb57600080fd5b506109d660048036038101906109d19190612f8a565b611941565b005b3480156109e457600080fd5b506109ed6119c4565b6040516109fa9190612cc4565b60405180910390f35b670214e8348c4f000081565b60007f780e9d63000000000000000000000000000000000000000000000000000000007bffffffffffffffffffffffffffffffffffffffffffffffffffffffff1916827bffffffffffffffffffffffffffffffffffffffffffffffffffffffff19161480610a825750610a81826119d0565b5b9050919050565b606060008054610a9890613434565b80601f0160208091040260200160405190810160405280929190818152602001828054610ac490613434565b8015610b115780601f10610ae657610100808354040283529160200191610b11565b820191906000526020600020905b815481529060010190602001808311610af457829003601f168201915b5050505050905090565b6000610b2682611ab2565b6004600083815260200190815260200160002060009054906101000a900473ffffffffffffffffffffffffffffffffffffffff169050919050565b6000610b6c82610fe3565b90508073ffffffffffffffffffffffffffffffffffffffff168373ffffffffffffffffffffffffffffffffffffffff1603610bdc576040517f08c379a0000000000000000000000000000000000000000000000000000000008152600401610bd3906134d7565b60405180910390fd5b8073ffffffffffffffffffffffffffffffffffffffff16610bfb611afd565b73ffffffffffffffffffffffffffffffffffffffff161480610c2a5750610c2981610c24611afd565b611892565b5b610c69576040517f08c379a0000000000000000000000000000000000000000000000000000000008152600401610c6090613569565b60405180910390fd5b610c738383611b05565b505050565b600f6020528060005260406000206000915054906101000a900460ff1681565b6000600880549050905090565b610cb6610cb0611afd565b82611bbe565b610cf5576040517f08c379a0000000000000000000000000000000000000000000000000000000008152600401610cec906135fb565b60405180910390fd5b610d00838383611c53565b505050565b600381565b6000610d1583611122565b8210610d56576040517f08c379a0000000000000000000000000000000000000000000000000000000008152600401610d4d9061368d565b60405180910390fd5b600660008473ffffffffffffffffffffffffffffffffffffffff1673ffffffffffffffffffffffffffffffffffffffff168152602001908152602001600020600083815260200190815260200160002054905092915050565b600042600e5411158015610dd257506203f480600e54610dcf91906136dc565b42105b905090565b6000600382601060003373ffffffffffffffffffffffffffffffffffffffff1673ffffffffffffffffffffffffffffffffffffffff16815260200190815260200160002054610e2691906136dc565b109050919050565b600d5481565b610e3c611eb9565b6000610e466112e9565b73ffffffffffffffffffffffffffffffffffffffff1647604051610e6990613763565b60006040518083038185875af1925050503d8060008114610ea6576040519150601f19603f3d011682016040523d82523d6000602084013e610eab565b606091505b5050905080610eef576040517f08c379a0000000000000000000000000000000000000000000000000000000008152600401610ee6906137c4565b60405180910390fd5b50565b610f0d83838360405180602001604052806000815250611793565b505050565b600b60009054906101000a900473ffffffffffffffffffffffffffffffffffffffff1681565b600e5481565b6000610f48610c98565b8210610f89576040517f08c379a0000000000000000000000000000000000000000000000000000000008152600401610f8090613856565b60405180910390fd5b60088281548110610f9d57610f9c613876565b5b90600052602060002001549050919050565b610fb7611eb9565b80600e8190555050565b610fc9611eb9565b80600c9081610fd89190613a51565b5050565b6203f48081565b6000806002600084815260200190815260200160002060009054906101000a900473ffffffffffffffffffffffffffffffffffffffff169050600073ffffffffffffffffffffffffffffffffffffffff168173ffffffffffffffffffffffffffffffffffffffff160361108b576040517f08c379a000000000000000000000000000000000000000000000000000000000815260040161108290613b6f565b60405180910390fd5b80915050919050565b600c80546110a190613434565b80601f01602080910402602001604051908101604052809291908181526020018280546110cd90613434565b801561111a5780601f106110ef5761010080835404028352916020019161111a565b820191906000526020600020905b8154815290600101906020018083116110fd57829003601f168201915b505050505081565b60008073ffffffffffffffffffffffffffffffffffffffff168273ffffffffffffffffffffffffffffffffffffffff1603611192576040517f08c379a000000000000000000000000000000000000000000000000000000000815260040161118990613c01565b60405180910390fd5b600360008373ffffffffffffffffffffffffffffffffffffffff1673ffffffffffffffffffffffffffffffffffffffff168152602001908152602001600020549050919050565b6111e1611eb9565b6111eb6000611f37565b565b6111f5611eb9565b60005b82829050811015611295576001600f600085858581811061121c5761121b613876565b5b90506020020160208101906112319190612f8a565b73ffffffffffffffffffffffffffffffffffffffff1673ffffffffffffffffffffffffffffffffffffffff16815260200190815260200160002060006101000a81548160ff021916908315150217905550808061128d90613c21565b9150506111f8565b505050565b6112a2611eb9565b60006112ac610c98565b90506000600190505b8281116112e4576112d13382846112cc91906136dc565b611ffd565b80806112dc90613c21565b9150506112b5565b505050565b6000600a60009054906101000a900473ffffffffffffffffffffffffffffffffffffffff16905090565b60606001805461132290613434565b80601f016020809104026020016040519081016040528092919081815260200182805461134e90613434565b801561139b5780601f106113705761010080835404028352916020019161139b565b820191906000526020600020905b81548152906001019060200180831161137e57829003601f168201915b5050505050905090565b6113ad611eb9565b60005b8282905081101561144d576000600f60008585858181106113d4576113d3613876565b5b90506020020160208101906113e99190612f8a565b73ffffffffffffffffffffffffffffffffffffffff1673ffffffffffffffffffffffffffffffffffffffff16815260200190815260200160002060006101000a81548160ff021916908315150217905550808061144590613c21565b9150506113b0565b505050565b600061145c610daf565b61146e576702c68af0bb140000611478565b670214e8348c4f00005b905090565b6000611487610c98565b9050600082116114cc576040517f08c379a00000000000000000000000000000000000000000000000000000000081526004016114c390613cb5565b60405180910390fd5b6114d4611926565b806114e357506114e2610daf565b5b611522576040517f08c379a000000000000000000000000000000000000000000000000000000000815260040161151990613d21565b60405180910390fd5b6124b1828261153191906136dc565b1115611572576040517f08c379a000000000000000000000000000000000000000000000000000000000815260040161156990613d8d565b60405180910390fd5b8161157b611452565b6115859190613dad565b3410156115c7576040517f08c379a00000000000000000000000000000000000000000000000000000000081526004016115be90613e53565b60405180910390fd5b600582111561160b576040517f08c379a000000000000000000000000000000000000000000000000000000000815260040161160290613ee5565b60405180910390fd5b611613610daf565b156116ed57600f60003373ffffffffffffffffffffffffffffffffffffffff1673ffffffffffffffffffffffffffffffffffffffff16815260200190815260200160002060009054906101000a900460ff166116a4576040517f08c379a000000000000000000000000000000000000000000000000000000000815260040161169b90613f51565b60405180910390fd5b6116ad82610dd7565b6116ec576040517f08c379a00000000000000000000000000000000000000000000000000000000081526004016116e390613fbd565b60405180910390fd5b5b6000600190505b82811161177857601060003373ffffffffffffffffffffffffffffffffffffffff1673ffffffffffffffffffffffffffffffffffffffff168152602001908152602001600020600081548092919061174b90613c21565b919050555061176533828461176091906136dc565b611ffd565b808061177090613c21565b9150506116f4565b505050565b61178f611788611afd565b838361201b565b5050565b6117a461179e611afd565b83611bbe565b6117e3576040517f08c379a00000000000000000000000000000000000000000000000000000000081526004016117da906135fb565b60405180910390fd5b6117ef84848484612187565b50505050565b6117fd611eb9565b80600d8190555050565b600581565b606061181782611ab2565b60006118216121e3565b90506000815111611841576040518060200160405280600081525061186c565b8061184b84612275565b60405160200161185c929190614019565b6040516020818303038152906040525b915050919050565b60106020528060005260406000206000915090505481565b6124b181565b6000600560008473ffffffffffffffffffffffffffffffffffffffff1673ffffffffffffffffffffffffffffffffffffffff16815260200190815260200160002060008373ffffffffffffffffffffffffffffffffffffffff1673ffffffffffffffffffffffffffffffffffffffff16815260200190815260200160002060009054906101000a900460ff16905092915050565b600080600d541415801561193c575042600d5411155b905090565b611949611eb9565b600073ffffffffffffffffffffffffffffffffffffffff168173ffffffffffffffffffffffffffffffffffffffff16036119b8576040517f08c379a00000000000000000000000000000000000000000000000000000000081526004016119af906140af565b60405180910390fd5b6119c181611f37565b50565b6702c68af0bb14000081565b60007f80ac58cd000000000000000000000000000000000000000000000000000000007bffffffffffffffffffffffffffffffffffffffffffffffffffffffff1916827bffffffffffffffffffffffffffffffffffffffffffffffffffffffff19161480611a9b57507f5b5e139f000000000000000000000000000000000000000000000000000000007bffffffffffffffffffffffffffffffffffffffffffffffffffffffff1916827bffffffffffffffffffffffffffffffffffffffffffffffffffffffff1916145b80611aab5750611aaa826123d5565b5b9050919050565b611abb8161243f565b611afa576040517f08c379a0000000000000000000000000000000000000000000000000000000008152600401611af190613b6f565b60405180910390fd5b50565b600033905090565b816004600083815260200190815260200160002060006101000a81548173ffffffffffffffffffffffffffffffffffffffff021916908373ffffffffffffffffffffffffffffffffffffffff160217905550808273ffffffffffffffffffffffffffffffffffffffff16611b7883610fe3565b73ffffffffffffffffffffffffffffffffffffffff167f8c5be1e5ebec7d5bd14f71427d1e84f3dd0314c0f7b2291e5b200ac8c7c3b92560405160405180910390a45050565b600080611bca83610fe3565b90508073ffffffffffffffffffffffffffffffffffffffff168473ffffffffffffffffffffffffffffffffffffffff161480611c0c5750611c0b8185611892565b5b80611c4a57508373ffffffffffffffffffffffffffffffffffffffff16611c3284610b1b565b73ffffffffffffffffffffffffffffffffffffffff16145b91505092915050565b8273ffffffffffffffffffffffffffffffffffffffff16611c7382610fe3565b73ffffffffffffffffffffffffffffffffffffffff1614611cc9576040517f08c379a0000000000000000000000000000000000000000000000000000000008152600401611cc090614141565b60405180910390fd5b600073ffffffffffffffffffffffffffffffffffffffff168273ffffffffffffffffffffffffffffffffffffffff1603611d38576040517f08c379a0000000000000000000000000000000000000000000000000000000008152600401611d2f906141d3565b60405180910390fd5b611d438383836124ab565b611d4e600082611b05565b6001600360008573ffffffffffffffffffffffffffffffffffffffff1673ffffffffffffffffffffffffffffffffffffffff1681526020019081526020016000206000828254611d9e91906141f3565b925050819055506001600360008473ffffffffffffffffffffffffffffffffffffffff1673ffffffffffffffffffffffffffffffffffffffff1681526020019081526020016000206000828254611df591906136dc565b92505081905550816002600083815260200190815260200160002060006101000a81548173ffffffffffffffffffffffffffffffffffffffff021916908373ffffffffffffffffffffffffffffffffffffffff160217905550808273ffffffffffffffffffffffffffffffffffffffff168473ffffffffffffffffffffffffffffffffffffffff167fddf252ad1be2c89b69c2b068fc378daa952ba7f163c4a11628f55a4df523b3ef60405160405180910390a4611eb48383836125bd565b505050565b611ec1611afd565b73ffffffffffffffffffffffffffffffffffffffff16611edf6112e9565b73ffffffffffffffffffffffffffffffffffffffff1614611f35576040517f08c379a0000000000000000000000000000000000000000000000000000000008152600401611f2c90614273565b60405180910390fd5b565b6000600a60009054906101000a900473ffffffffffffffffffffffffffffffffffffffff16905081600a60006101000a81548173ffffffffffffffffffffffffffffffffffffffff021916908373ffffffffffffffffffffffffffffffffffffffff1602179055508173ffffffffffffffffffffffffffffffffffffffff168173ffffffffffffffffffffffffffffffffffffffff167f8be0079c531659141344cd1fd0a4f28419497f9722a3daafe3b4186f6b6457e060405160405180910390a35050565b6120178282604051806020016040528060008152506125c2565b5050565b8173ffffffffffffffffffffffffffffffffffffffff168373ffffffffffffffffffffffffffffffffffffffff1603612089576040517f08c379a0000000000000000000000000000000000000000000000000000000008152600401612080906142df565b60405180910390fd5b80600560008573ffffffffffffffffffffffffffffffffffffffff1673ffffffffffffffffffffffffffffffffffffffff16815260200190815260200160002060008473ffffffffffffffffffffffffffffffffffffffff1673ffffffffffffffffffffffffffffffffffffffff16815260200190815260200160002060006101000a81548160ff0219169083151502179055508173ffffffffffffffffffffffffffffffffffffffff168373ffffffffffffffffffffffffffffffffffffffff167f17307eab39ab6107e8899845ad3d59bd9653f200f220920489ca2b5937696c318360405161217a9190612d93565b60405180910390a3505050565b612192848484611c53565b61219e8484848461261d565b6121dd576040517f08c379a00000000000000000000000000000000000000000000000000000000081526004016121d490614371565b60405180910390fd5b50505050565b6060600c80546121f290613434565b80601f016020809104026020016040519081016040528092919081815260200182805461221e90613434565b801561226b5780601f106122405761010080835404028352916020019161226b565b820191906000526020600020905b81548152906001019060200180831161224e57829003601f168201915b5050505050905090565b6060600082036122bc576040518060400160405280600181526020017f300000000000000000000000000000000000000000000000000000000000000081525090506123d0565b600082905060005b600082146122ee5780806122d790613c21565b915050600a826122e791906143c0565b91506122c4565b60008167ffffffffffffffff81111561230a57612309613014565b5b6040519080825280601f01601f19166020018201604052801561233c5781602001600182028036833780820191505090505b5090505b600085146123c95760018261235591906141f3565b9150600a8561236491906143f1565b603061237091906136dc565b60f81b81838151811061238657612385613876565b5b60200101907effffffffffffffffffffffffffffffffffffffffffffffffffffffffffffff1916908160001a905350600a856123c291906143c0565b9450612340565b8093505050505b919050565b60007f01ffc9a7000000000000000000000000000000000000000000000000000000007bffffffffffffffffffffffffffffffffffffffffffffffffffffffff1916827bffffffffffffffffffffffffffffffffffffffffffffffffffffffff1916149050919050565b60008073ffffffffffffffffffffffffffffffffffffffff166002600084815260200190815260200160002060009054906101000a900473ffffffffffffffffffffffffffffffffffffffff1673ffffffffffffffffffffffffffffffffffffffff1614159050919050565b6124b68383836127a4565b600073ffffffffffffffffffffffffffffffffffffffff168373ffffffffffffffffffffffffffffffffffffffff16036124f8576124f3816127a9565b612537565b8173ffffffffffffffffffffffffffffffffffffffff168373ffffffffffffffffffffffffffffffffffffffff16146125365761253583826127f2565b5b5b600073ffffffffffffffffffffffffffffffffffffffff168273ffffffffffffffffffffffffffffffffffffffff1603612579576125748161295f565b6125b8565b8273ffffffffffffffffffffffffffffffffffffffff168273ffffffffffffffffffffffffffffffffffffffff16146125b7576125b68282612a30565b5b5b505050565b505050565b6125cc8383612aaf565b6125d9600084848461261d565b612618576040517f08c379a000000000000000000000000000000000000000000000000000000000815260040161260f90614371565b60405180910390fd5b505050565b600061263e8473ffffffffffffffffffffffffffffffffffffffff16612c88565b15612797578373ffffffffffffffffffffffffffffffffffffffff1663150b7a02612667611afd565b8786866040518563ffffffff1660e01b81526004016126899493929190614477565b6020604051808303816000875af19250505080156126c557506040513d601f19601f820116820180604052508101906126c291906144d8565b60015b612747573d80600081146126f5576040519150601f19603f3d011682016040523d82523d6000602084013e6126fa565b606091505b50600081510361273f576040517f08c379a000000000000000000000000000000000000000000000000000000000815260040161273690614371565b60405180910390fd5b805181602001fd5b63150b7a0260e01b7bffffffffffffffffffffffffffffffffffffffffffffffffffffffff1916817bffffffffffffffffffffffffffffffffffffffffffffffffffffffff19161491505061279c565b600190505b949350505050565b505050565b6008805490506009600083815260200190815260200160002081905550600881908060018154018082558091505060019003906000526020600020016000909190919091505550565b600060016127ff84611122565b61280991906141f3565b90506000600760008481526020019081526020016000205490508181146128ee576000600660008673ffffffffffffffffffffffffffffffffffffffff1673ffffffffffffffffffffffffffffffffffffffff168152602001908152602001600020600084815260200190815260200160002054905080600660008773ffffffffffffffffffffffffffffffffffffffff1673ffffffffffffffffffffffffffffffffffffffff168152602001908152602001600020600084815260200190815260200160002081905550816007600083815260200190815260200160002081905550505b6007600084815260200190815260200160002060009055600660008573ffffffffffffffffffffffffffffffffffffffff1673ffffffffffffffffffffffffffffffffffffffff16815260200190815260200160002060008381526020019081526020016000206000905550505050565b6000600160088054905061297391906141f3565b90506000600960008481526020019081526020016000205490506000600883815481106129a3576129a2613876565b5b9060005260206000200154905080600883815481106129c5576129c4613876565b5b906000526020600020018190555081600960008381526020019081526020016000208190555060096000858152602001908152602001600020600090556008805480612a1457612a13614505565b5b6001900381819060005260206000200160009055905550505050565b6000612a3b83611122565b905081600660008573ffffffffffffffffffffffffffffffffffffffff1673ffffffffffffffffffffffffffffffffffffffff168152602001908152602001600020600083815260200190815260200160002081905550806007600084815260200190815260200160002081905550505050565b600073ffffffffffffffffffffffffffffffffffffffff168273ffffffffffffffffffffffffffffffffffffffff1603612b1e576040517f08c379a0000000000000000000000000000000000000000000000000000000008152600401612b1590614580565b60405180910390fd5b612b278161243f565b15612b67576040517f08c379a0000000000000000000000000000000000000000000000000000000008152600401612b5e906145ec565b60405180910390fd5b612b73600083836124ab565b6001600360008473ffffffffffffffffffffffffffffffffffffffff1673ffffffffffffffffffffffffffffffffffffffff1681526020019081526020016000206000828254612bc391906136dc565b92505081905550816002600083815260200190815260200160002060006101000a81548173ffffffffffffffffffffffffffffffffffffffff021916908373ffffffffffffffffffffffffffffffffffffffff160217905550808273ffffffffffffffffffffffffffffffffffffffff16600073ffffffffffffffffffffffffffffffffffffffff167fddf252ad1be2c89b69c2b068fc378daa952ba7f163c4a11628f55a4df523b3ef60405160405180910390a4612c84600083836125bd565b5050565b6000808273ffffffffffffffffffffffffffffffffffffffff163b119050919050565b6000819050919050565b612cbe81612cab565b82525050565b6000602082019050612cd96000830184612cb5565b92915050565b6000604051905090565b600080fd5b600080fd5b60007fffffffff0000000000000000000000000000000000000000000000000000000082169050919050565b612d2881612cf3565b8114612d3357600080fd5b50565b600081359050612d4581612d1f565b92915050565b600060208284031215612d6157612d60612ce9565b5b6000612d6f84828501612d36565b91505092915050565b60008115159050919050565b612d8d81612d78565b82525050565b6000602082019050612da86000830184612d84565b92915050565b600081519050919050565b600082825260208201905092915050565b60005b83811015612de8578082015181840152602081019050612dcd565b83811115612df7576000848401525b50505050565b6000601f19601f8301169050919050565b6000612e1982612dae565b612e238185612db9565b9350612e33818560208601612dca565b612e3c81612dfd565b840191505092915050565b60006020820190508181036000830152612e618184612e0e565b905092915050565b612e7281612cab565b8114612e7d57600080fd5b50565b600081359050612e8f81612e69565b92915050565b600060208284031215612eab57612eaa612ce9565b5b6000612eb984828501612e80565b91505092915050565b600073ffffffffffffffffffffffffffffffffffffffff82169050919050565b6000612eed82612ec2565b9050919050565b612efd81612ee2565b82525050565b6000602082019050612f186000830184612ef4565b92915050565b612f2781612ee2565b8114612f3257600080fd5b50565b600081359050612f4481612f1e565b92915050565b60008060408385031215612f6157612f60612ce9565b5b6000612f6f85828601612f35565b9250506020612f8085828601612e80565b9150509250929050565b600060208284031215612fa057612f9f612ce9565b5b6000612fae84828501612f35565b91505092915050565b600080600060608486031215612fd057612fcf612ce9565b5b6000612fde86828701612f35565b9350506020612fef86828701612f35565b925050604061300086828701612e80565b9150509250925092565b600080fd5b600080fd5b7f4e487b7100000000000000000000000000000000000000000000000000000000600052604160045260246000fd5b61304c82612dfd565b810181811067ffffffffffffffff8211171561306b5761306a613014565b5b80604052505050565b600061307e612cdf565b905061308a8282613043565b919050565b600067ffffffffffffffff8211156130aa576130a9613014565b5b6130b382612dfd565b9050602081019050919050565b82818337600083830152505050565b60006130e26130dd8461308f565b613074565b9050828152602081018484840111156130fe576130fd61300f565b5b6131098482856130c0565b509392505050565b600082601f8301126131265761312561300a565b5b81356131368482602086016130cf565b91505092915050565b60006020828403121561315557613154612ce9565b5b600082013567ffffffffffffffff81111561317357613172612cee565b5b61317f84828501613111565b91505092915050565b600080fd5b600080fd5b60008083601f8401126131a8576131a761300a565b5b8235905067ffffffffffffffff8111156131c5576131c4613188565b5b6020830191508360208202830111156131e1576131e061318d565b5b9250929050565b600080602083850312156131ff576131fe612ce9565b5b600083013567ffffffffffffffff81111561321d5761321c612cee565b5b61322985828601613192565b92509250509250929050565b61323e81612d78565b811461324957600080fd5b50565b60008135905061325b81613235565b92915050565b6000806040838503121561327857613277612ce9565b5b600061328685828601612f35565b92505060206132978582860161324c565b9150509250929050565b600067ffffffffffffffff8211156132bc576132bb613014565b5b6132c582612dfd565b9050602081019050919050565b60006132e56132e0846132a1565b613074565b9050828152602081018484840111156133015761330061300f565b5b61330c8482856130c0565b509392505050565b600082601f8301126133295761332861300a565b5b81356133398482602086016132d2565b91505092915050565b6000806000806080858703121561335c5761335b612ce9565b5b600061336a87828801612f35565b945050602061337b87828801612f35565b935050604061338c87828801612e80565b925050606085013567ffffffffffffffff8111156133ad576133ac612cee565b5b6133b987828801613314565b91505092959194509250565b600080604083850312156133dc576133db612ce9565b5b60006133ea85828601612f35565b92505060206133fb85828601612f35565b9150509250929050565b7f4e487b7100000000000000000000000000000000000000000000000000000000600052602260045260246000fd5b6000600282049050600182168061344c57607f821691505b60208210810361345f5761345e613405565b5b50919050565b7f4552433732313a20617070726f76616c20746f2063757272656e74206f776e6560008201527f7200000000000000000000000000000000000000000000000000000000000000602082015250565b60006134c1602183612db9565b91506134cc82613465565b604082019050919050565b600060208201905081810360008301526134f0816134b4565b9050919050565b7f4552433732313a20617070726f76652063616c6c6572206973206e6f7420746f60008201527f6b656e206f776e6572206e6f7220617070726f76656420666f7220616c6c0000602082015250565b6000613553603e83612db9565b915061355e826134f7565b604082019050919050565b6000602082019050818103600083015261358281613546565b9050919050565b7f4552433732313a2063616c6c6572206973206e6f7420746f6b656e206f776e6560008201527f72206e6f7220617070726f766564000000000000000000000000000000000000602082015250565b60006135e5602e83612db9565b91506135f082613589565b604082019050919050565b60006020820190508181036000830152613614816135d8565b9050919050565b7f455243373231456e756d657261626c653a206f776e657220696e646578206f7560008201527f74206f6620626f756e6473000000000000000000000000000000000000000000602082015250565b6000613677602b83612db9565b91506136828261361b565b604082019050919050565b600060208201905081810360008301526136a68161366a565b9050919050565b7f4e487b7100000000000000000000000000000000000000000000000000000000600052601160045260246000fd5b60006136e782612cab565b91506136f283612cab565b9250827fffffffffffffffffffffffffffffffffffffffffffffffffffffffffffffffff03821115613727576137266136ad565b5b828201905092915050565b600081905092915050565b50565b600061374d600083613732565b91506137588261373d565b600082019050919050565b600061376e82613740565b9150819050919050565b7f4661696c656420746f2073656e64204574686572000000000000000000000000600082015250565b60006137ae601483612db9565b91506137b982613778565b602082019050919050565b600060208201905081810360008301526137dd816137a1565b9050919050565b7f455243373231456e756d657261626c653a20676c6f62616c20696e646578206f60008201527f7574206f6620626f756e64730000000000000000000000000000000000000000602082015250565b6000613840602c83612db9565b915061384b826137e4565b604082019050919050565b6000602082019050818103600083015261386f81613833565b9050919050565b7f4e487b7100000000000000000000000000000000000000000000000000000000600052603260045260246000fd5b60008190508160005260206000209050919050565b60006020601f8301049050919050565b600082821b905092915050565b6000600883026139077fffffffffffffffffffffffffffffffffffffffffffffffffffffffffffffffff826138ca565b61391186836138ca565b95508019841693508086168417925050509392505050565b6000819050919050565b600061394e61394961394484612cab565b613929565b612cab565b9050919050565b6000819050919050565b61396883613933565b61397c61397482613955565b8484546138d7565b825550505050565b600090565b613991613984565b61399c81848461395f565b505050565b5b818110156139c0576139b5600082613989565b6001810190506139a2565b5050565b601f821115613a05576139d6816138a5565b6139df846138ba565b810160208510156139ee578190505b613a026139fa856138ba565b8301826139a1565b50505b505050565b600082821c905092915050565b6000613a2860001984600802613a0a565b1980831691505092915050565b6000613a418383613a17565b9150826002028217905092915050565b613a5a82612dae565b67ffffffffffffffff811115613a7357613a72613014565b5b613a7d8254613434565b613a888282856139c4565b600060209050601f831160018114613abb5760008415613aa9578287015190505b613ab38582613a35565b865550613b1b565b601f198416613ac9866138a5565b60005b82811015613af157848901518255600182019150602085019450602081019050613acc565b86831015613b0e5784890151613b0a601f891682613a17565b8355505b6001600288020188555050505b505050505050565b7f4552433732313a20696e76616c696420746f6b656e2049440000000000000000600082015250565b6000613b59601883612db9565b9150613b6482613b23565b602082019050919050565b60006020820190508181036000830152613b8881613b4c565b9050919050565b7f4552433732313a2061646472657373207a65726f206973206e6f74206120766160008201527f6c6964206f776e65720000000000000000000000000000000000000000000000602082015250565b6000613beb602983612db9565b9150613bf682613b8f565b604082019050919050565b60006020820190508181036000830152613c1a81613bde565b9050919050565b6000613c2c82612cab565b91507fffffffffffffffffffffffffffffffffffffffffffffffffffffffffffffffff8203613c5e57613c5d6136ad565b5b600182019050919050565b7f4d757374206d696e74206174206c65617374206f6e65204e4654000000000000600082015250565b6000613c9f601a83612db9565b9150613caa82613c69565b602082019050919050565b60006020820190508181036000830152613cce81613c92565b9050919050565b7f53616c65206973206e6f74206163746976650000000000000000000000000000600082015250565b6000613d0b601283612db9565b9150613d1682613cd5565b602082019050919050565b60006020820190508181036000830152613d3a81613cfe565b9050919050565b7f537570706c79206c656674206973206e6f7420656e6f75676800000000000000600082015250565b6000613d77601983612db9565b9150613d8282613d41565b602082019050919050565b60006020820190508181036000830152613da681613d6a565b9050919050565b6000613db882612cab565b9150613dc383612cab565b9250817fffffffffffffffffffffffffffffffffffffffffffffffffffffffffffffffff0483118215151615613dfc57613dfb6136ad565b5b828202905092915050565b7f4e6f7420656e6f7567682066756e647320746f20707572636861736500000000600082015250565b6000613e3d601c83612db9565b9150613e4882613e07565b602082019050919050565b60006020820190508181036000830152613e6c81613e30565b9050919050565b7f43616e2774206d696e74207468657365206d616e79204e465473206174206f6e60008201527f6365000000000000000000000000000000000000000000000000000000000000602082015250565b6000613ecf602283612db9565b9150613eda82613e73565b604082019050919050565b60006020820190508181036000830152613efe81613ec2565b9050919050565b7f50726573616c65206163636573732064656e6965640000000000000000000000600082015250565b6000613f3b601583612db9565b9150613f4682613f05565b602082019050919050565b60006020820190508181036000830152613f6a81613f2e565b9050919050565b7f4e6f7420656e6f7567682070726573616c65206d696e74696e6773206c656674600082015250565b6000613fa7602083612db9565b9150613fb282613f71565b602082019050919050565b60006020820190508181036000830152613fd681613f9a565b9050919050565b600081905092915050565b6000613ff382612dae565b613ffd8185613fdd565b935061400d818560208601612dca565b80840191505092915050565b60006140258285613fe8565b91506140318284613fe8565b91508190509392505050565b7f4f776e61626c653a206e6577206f776e657220697320746865207a65726f206160008201527f6464726573730000000000000000000000000000000000000000000000000000602082015250565b6000614099602683612db9565b91506140a48261403d565b604082019050919050565b600060208201905081810360008301526140c88161408c565b9050919050565b7f4552433732313a207472616e736665722066726f6d20696e636f72726563742060008201527f6f776e6572000000000000000000000000000000000000000000000000000000602082015250565b600061412b602583612db9565b9150614136826140cf565b604082019050919050565b6000602082019050818103600083015261415a8161411e565b9050919050565b7f4552433732313a207472616e7366657220746f20746865207a65726f2061646460008201527f7265737300000000000000000000000000000000000000000000000000000000602082015250565b60006141bd602483612db9565b91506141c882614161565b604082019050919050565b600060208201905081810360008301526141ec816141b0565b9050919050565b60006141fe82612cab565b915061420983612cab565b92508282101561421c5761421b6136ad565b5b828203905092915050565b7f4f776e61626c653a2063616c6c6572206973206e6f7420746865206f776e6572600082015250565b600061425d602083612db9565b915061426882614227565b602082019050919050565b6000602082019050818103600083015261428c81614250565b9050919050565b7f4552433732313a20617070726f766520746f2063616c6c657200000000000000600082015250565b60006142c9601983612db9565b91506142d482614293565b602082019050919050565b600060208201905081810360008301526142f8816142bc565b9050919050565b7f4552433732313a207472616e7366657220746f206e6f6e20455243373231526560008201527f63656976657220696d706c656d656e7465720000000000000000000000000000602082015250565b600061435b603283612db9565b9150614366826142ff565b604082019050919050565b6000602082019050818103600083015261438a8161434e565b9050919050565b7f4e487b7100000000000000000000000000000000000000000000000000000000600052601260045260246000fd5b60006143cb82612cab565b91506143d683612cab565b9250826143e6576143e5614391565b5b828204905092915050565b60006143fc82612cab565b915061440783612cab565b92508261441757614416614391565b5b828206905092915050565b600081519050919050565b600082825260208201905092915050565b600061444982614422565b614453818561442d565b9350614463818560208601612dca565b61446c81612dfd565b840191505092915050565b600060808201905061448c6000830187612ef4565b6144996020830186612ef4565b6144a66040830185612cb5565b81810360608301526144b8818461443e565b905095945050505050565b6000815190506144d281612d1f565b92915050565b6000602082840312156144ee576144ed612ce9565b5b60006144fc848285016144c3565b91505092915050565b7f4e487b7100000000000000000000000000000000000000000000000000000000600052603160045260246000fd5b7f4552433732313a206d696e7420746f20746865207a65726f2061646472657373600082015250565b600061456a602083612db9565b915061457582614534565b602082019050919050565b600060208201905081810360008301526145998161455d565b9050919050565b7f4552433732313a20746f6b656e20616c7265616479206d696e74656400000000600082015250565b60006145d6601c83612db9565b91506145e1826145a0565b602082019050919050565b60006020820190508181036000830152614605816145c9565b905091905056fea2646970667358221220cac9018a879bab7609efbcbe161544bf775c8917a35cca0042a047550127ad2064736f6c634300080f0033",
  "immutableReferences": {},
  "source": "// SPDX-License-Identifier: MIT\n\npragma solidity ^0.8.0;\n\nimport \"@openzeppelin/contracts/access/Ownable.sol\";\nimport \"@openzeppelin/contracts/token/ERC721/extensions/ERC721Enumerable.sol\";\n\n/*\n      .\".\".\".\n    (`       `)               _.-=-.\n     '._.--.-;             .-`  -'  '.\n    .-'`.o )  \\           /  .-_.--'  `\\\n   `;---) \\    ;         /  / ;' _-_.-' `\n     `;\"`  ;    \\        ; .  .'   _-' \\\n      (    )    |        |  / .-.-'    -`\n       '-.-'     \\       | .' ` '.-'-\\`\n        /_./\\_.|\\_\\      ;  ' .'-'.-.\n        /         '-._    \\` /  _;-,\n       |         .-=-.;-._ \\  -'-,\n       \\        /      `\";`-`,-\"`)\n        \\       \\     '-- `\\.\\\n         '.      '._ '-- '--'/\n           `-._     `'----'`;\n               `\"\"\"--.____,/\n                      \\\\  \\\n                      // /`\n                  ___// /__\n                (`(`(---\"-`)\n*/\ncontract ZetaSaurio is ERC721Enumerable, Ownable {\n    using Strings for uint256;\n\n    address public manager;\n\n    string public baseURI = \"\";\n\n    uint256 public saleStartTimestamp;\n    uint256 public presaleStartTimestamp;\n    uint256 public constant maxSupply = 9393;\n    uint256 public constant batchMintLimit = 5;\n    uint256 public constant presaleMintPerAddressLimit = 3;\n    uint256 public constant salePrice = 0.2 ether; // 0.2 BNB\n    uint256 public constant presalePrice = 0.15 ether; // 0.15 BNB\n    uint256 public constant presaleDuration = 259200; // 72 hours\n\n    mapping(address => bool) public hasPresaleAccess;\n    mapping(address => uint256) public mintedPerAddress;\n\n    constructor() ERC721(\"ZetaSaurio\", \"ZS\") {}\n\n    /**\n     * @dev Base URI for computing {tokenURI} in {ERC721} parent contract.\n     */\n    function _baseURI() internal view virtual override returns (string memory) {\n        return baseURI;\n    }\n\n    function setBaseURI(string memory _newBaseURI) public onlyOwner {\n        baseURI = _newBaseURI;\n    }\n\n    function schedulePresale(uint256 _presaleStartTimestamp) public onlyOwner {\n        presaleStartTimestamp = _presaleStartTimestamp;\n    }\n\n    function scheduleSale(uint256 _saleStartTimestamp) public onlyOwner {\n        saleStartTimestamp = _saleStartTimestamp;\n    }\n\n    function presaleIsActive() public view returns (bool) {\n        return presaleStartTimestamp <= block.timestamp && block.timestamp < (presaleStartTimestamp + presaleDuration);\n    }\n\n    function saleIsActive() public view returns (bool) {\n        return saleStartTimestamp != 0 && saleStartTimestamp <= block.timestamp;\n    }\n\n    function price() public view virtual returns (uint256) {\n        return presaleIsActive() ? presalePrice : salePrice;\n    }\n\n    function enoughPresaleMintingsLeft(uint256 _mintAmount) public view returns (bool) {\n        return mintedPerAddress[msg.sender] + _mintAmount < presaleMintPerAddressLimit;\n    }\n\n    function grantPresaleAccess(address[] calldata _users) public onlyOwner {\n        for (uint256 i = 0; i < _users.length; i++) {\n            hasPresaleAccess[_users[i]] = true;\n        }\n    }\n\n    function revokePresaleAccess(address[] calldata _users) public onlyOwner {\n        for (uint256 i = 0; i < _users.length; i++) {\n            hasPresaleAccess[_users[i]] = false;\n        }\n    }\n\n    function withdraw() public payable onlyOwner {\n        (bool sent,) = payable(owner()).call{value: address(this).balance}(\"\");\n        require(sent, \"Failed to send Ether\");\n    }\n\n    /**\n     * Reserve zetas for the team and giveaways.\n     */\n    function reserve(uint256 _amount) public onlyOwner {\n        uint256 supply = totalSupply();\n\n        for (uint256 i = 1; i <= _amount; i++) {\n            _safeMint(msg.sender, supply + i);\n        }\n    }\n\n    function mint(uint256 _mintAmount) public payable {\n        uint256 supply = totalSupply();\n\n        require(_mintAmount > 0, \"Must mint at least one NFT\");\n        require(saleIsActive() || presaleIsActive(), \"Sale is not active\");\n        require(supply + _mintAmount <= maxSupply, \"Supply left is not enough\");\n        require(msg.value >= price() * _mintAmount, \"Not enough funds to purchase\");\n        require(_mintAmount <= batchMintLimit, \"Can't mint these many NFTs at once\");\n\n        if (presaleIsActive()) {\n            require(hasPresaleAccess[msg.sender], \"Presale access denied\");\n            require(enoughPresaleMintingsLeft(_mintAmount), \"Not enough presale mintings left\");\n        }\n\n        for (uint256 i = 1; i <= _mintAmount; i++) {\n            mintedPerAddress[msg.sender]++;\n            _safeMint(msg.sender, supply + i);\n        }\n    }\n}\n",
  "sourcePath": "/home/jose92/Personal/ZetaSaurio/zetasaurio/contracts/ZetaSaurio.sol",
  "compiler": {
    "name": "solc",
    "version": "0.8.15+commit.e14f2714.Emscripten.clang"
  },
  "schemaVersion": "3.4.8",
  "updatedAt": "2022-07-21T06:08:54.845Z",
  "networkType": "ethereum",
  "devdoc": {
    "kind": "dev",
    "methods": {
      "approve(address,uint256)": {
        "details": "See {IERC721-approve}."
      },
      "balanceOf(address)": {
        "details": "See {IERC721-balanceOf}."
      },
      "getApproved(uint256)": {
        "details": "See {IERC721-getApproved}."
      },
      "isApprovedForAll(address,address)": {
        "details": "See {IERC721-isApprovedForAll}."
      },
      "name()": {
        "details": "See {IERC721Metadata-name}."
      },
      "owner()": {
        "details": "Returns the address of the current owner."
      },
      "ownerOf(uint256)": {
        "details": "See {IERC721-ownerOf}."
      },
      "renounceOwnership()": {
        "details": "Leaves the contract without owner. It will not be possible to call `onlyOwner` functions anymore. Can only be called by the current owner. NOTE: Renouncing ownership will leave the contract without an owner, thereby removing any functionality that is only available to the owner."
      },
      "safeTransferFrom(address,address,uint256)": {
        "details": "See {IERC721-safeTransferFrom}."
      },
      "safeTransferFrom(address,address,uint256,bytes)": {
        "details": "See {IERC721-safeTransferFrom}."
      },
      "setApprovalForAll(address,bool)": {
        "details": "See {IERC721-setApprovalForAll}."
      },
      "supportsInterface(bytes4)": {
        "details": "See {IERC165-supportsInterface}."
      },
      "symbol()": {
        "details": "See {IERC721Metadata-symbol}."
      },
      "tokenByIndex(uint256)": {
        "details": "See {IERC721Enumerable-tokenByIndex}."
      },
      "tokenOfOwnerByIndex(address,uint256)": {
        "details": "See {IERC721Enumerable-tokenOfOwnerByIndex}."
      },
      "tokenURI(uint256)": {
        "details": "See {IERC721Metadata-tokenURI}."
      },
      "totalSupply()": {
        "details": "See {IERC721Enumerable-totalSupply}."
      },
      "transferFrom(address,address,uint256)": {
        "details": "See {IERC721-transferFrom}."
      },
      "transferOwnership(address)": {
        "details": "Transfers ownership of the contract to a new account (`newOwner`). Can only be called by the current owner."
      }
    },
    "version": 1
  },
  "userdoc": {
    "kind": "user",
    "methods": {
      "reserve(uint256)": {
        "notice": "Reserve zetas for the team and giveaways."
      }
    },
    "version": 1
  }
}