{
  "contractName": "ZetaSaurio",
  "abi": [
    {
      "inputs": [],
      "stateMutability": "nonpayable",
      "type": "constructor"
    },
    {
      "anonymous": false,
      "inputs": [
        {
          "indexed": true,
          "internalType": "address",
          "name": "owner",
          "type": "address"
        },
        {
          "indexed": true,
          "internalType": "address",
          "name": "approved",
          "type": "address"
        },
        {
          "indexed": true,
          "internalType": "uint256",
          "name": "tokenId",
          "type": "uint256"
        }
      ],
      "name": "Approval",
      "type": "event"
    },
    {
      "anonymous": false,
      "inputs": [
        {
          "indexed": true,
          "internalType": "address",
          "name": "owner",
          "type": "address"
        },
        {
          "indexed": true,
          "internalType": "address",
          "name": "operator",
          "type": "address"
        },
        {
          "indexed": false,
          "internalType": "bool",
          "name": "approved",
          "type": "bool"
        }
      ],
      "name": "ApprovalForAll",
      "type": "event"
    },
    {
      "anonymous": false,
      "inputs": [
        {
          "indexed": true,
          "internalType": "address",
          "name": "previousOwner",
          "type": "address"
        },
        {
          "indexed": true,
          "internalType": "address",
          "name": "newOwner",
          "type": "address"
        }
      ],
      "name": "OwnershipTransferred",
      "type": "event"
    },
    {
      "anonymous": false,
      "inputs": [
        {
          "indexed": true,
          "internalType": "address",
          "name": "from",
          "type": "address"
        },
        {
          "indexed": true,
          "internalType": "address",
          "name": "to",
          "type": "address"
        },
        {
          "indexed": true,
          "internalType": "uint256",
          "name": "tokenId",
          "type": "uint256"
        }
      ],
      "name": "Transfer",
      "type": "event"
    },
    {
      "inputs": [
        {
          "internalType": "address",
          "name": "to",
          "type": "address"
        },
        {
          "internalType": "uint256",
          "name": "tokenId",
          "type": "uint256"
        }
      ],
      "name": "approve",
      "outputs": [],
      "stateMutability": "nonpayable",
      "type": "function"
    },
    {
      "inputs": [
        {
          "internalType": "address",
          "name": "owner",
          "type": "address"
        }
      ],
      "name": "balanceOf",
      "outputs": [
        {
          "internalType": "uint256",
          "name": "",
          "type": "uint256"
        }
      ],
      "stateMutability": "view",
      "type": "function"
    },
    {
      "inputs": [],
      "name": "baseURI",
      "outputs": [
        {
          "internalType": "string",
          "name": "",
          "type": "string"
        }
      ],
      "stateMutability": "view",
      "type": "function"
    },
    {
      "inputs": [],
      "name": "batchMintLimit",
      "outputs": [
        {
          "internalType": "uint256",
          "name": "",
          "type": "uint256"
        }
      ],
      "stateMutability": "view",
      "type": "function"
    },
    {
      "inputs": [
        {
          "internalType": "uint256",
          "name": "tokenId",
          "type": "uint256"
        }
      ],
      "name": "getApproved",
      "outputs": [
        {
          "internalType": "address",
          "name": "",
          "type": "address"
        }
      ],
      "stateMutability": "view",
      "type": "function"
    },
    {
      "inputs": [
        {
          "internalType": "address",
          "name": "",
          "type": "address"
        }
      ],
      "name": "hasPresaleAccess",
      "outputs": [
        {
          "internalType": "bool",
          "name": "",
          "type": "bool"
        }
      ],
      "stateMutability": "view",
      "type": "function"
    },
    {
      "inputs": [
        {
          "internalType": "address",
          "name": "owner",
          "type": "address"
        },
        {
          "internalType": "address",
          "name": "operator",
          "type": "address"
        }
      ],
      "name": "isApprovedForAll",
      "outputs": [
        {
          "internalType": "bool",
          "name": "",
          "type": "bool"
        }
      ],
      "stateMutability": "view",
      "type": "function"
    },
    {
      "inputs": [],
      "name": "manager",
      "outputs": [
        {
          "internalType": "address",
          "name": "",
          "type": "address"
        }
      ],
      "stateMutability": "view",
      "type": "function"
    },
    {
      "inputs": [],
      "name": "maxSupply",
      "outputs": [
        {
          "internalType": "uint256",
          "name": "",
          "type": "uint256"
        }
      ],
      "stateMutability": "view",
      "type": "function"
    },
    {
      "inputs": [
        {
          "internalType": "address",
          "name": "",
          "type": "address"
        }
      ],
      "name": "mintedPerAddress",
      "outputs": [
        {
          "internalType": "uint256",
          "name": "",
          "type": "uint256"
        }
      ],
      "stateMutability": "view",
      "type": "function"
    },
    {
      "inputs": [],
      "name": "name",
      "outputs": [
        {
          "internalType": "string",
          "name": "",
          "type": "string"
        }
      ],
      "stateMutability": "view",
      "type": "function"
    },
    {
      "inputs": [],
      "name": "owner",
      "outputs": [
        {
          "internalType": "address",
          "name": "",
          "type": "address"
        }
      ],
      "stateMutability": "view",
      "type": "function"
    },
    {
      "inputs": [
        {
          "internalType": "uint256",
          "name": "tokenId",
          "type": "uint256"
        }
      ],
      "name": "ownerOf",
      "outputs": [
        {
          "internalType": "address",
          "name": "",
          "type": "address"
        }
      ],
      "stateMutability": "view",
      "type": "function"
    },
    {
      "inputs": [],
      "name": "presaleEndTimestamp",
      "outputs": [
        {
          "internalType": "uint256",
          "name": "",
          "type": "uint256"
        }
      ],
      "stateMutability": "view",
      "type": "function"
    },
    {
      "inputs": [],
      "name": "presaleMintPerAddressLimit",
      "outputs": [
        {
          "internalType": "uint256",
          "name": "",
          "type": "uint256"
        }
      ],
      "stateMutability": "view",
      "type": "function"
    },
    {
      "inputs": [],
      "name": "presalePrice",
      "outputs": [
        {
          "internalType": "uint256",
          "name": "",
          "type": "uint256"
        }
      ],
      "stateMutability": "view",
      "type": "function"
    },
    {
      "inputs": [],
      "name": "presaleStartTimestamp",
      "outputs": [
        {
          "internalType": "uint256",
          "name": "",
          "type": "uint256"
        }
      ],
      "stateMutability": "view",
      "type": "function"
    },
    {
      "inputs": [],
      "name": "renounceOwnership",
      "outputs": [],
      "stateMutability": "nonpayable",
      "type": "function"
    },
    {
      "inputs": [
        {
          "internalType": "address",
          "name": "from",
          "type": "address"
        },
        {
          "internalType": "address",
          "name": "to",
          "type": "address"
        },
        {
          "internalType": "uint256",
          "name": "tokenId",
          "type": "uint256"
        }
      ],
      "name": "safeTransferFrom",
      "outputs": [],
      "stateMutability": "nonpayable",
      "type": "function"
    },
    {
      "inputs": [
        {
          "internalType": "address",
          "name": "from",
          "type": "address"
        },
        {
          "internalType": "address",
          "name": "to",
          "type": "address"
        },
        {
          "internalType": "uint256",
          "name": "tokenId",
          "type": "uint256"
        },
        {
          "internalType": "bytes",
          "name": "data",
          "type": "bytes"
        }
      ],
      "name": "safeTransferFrom",
      "outputs": [],
      "stateMutability": "nonpayable",
      "type": "function"
    },
    {
      "inputs": [],
      "name": "salePrice",
      "outputs": [
        {
          "internalType": "uint256",
          "name": "",
          "type": "uint256"
        }
      ],
      "stateMutability": "view",
      "type": "function"
    },
    {
      "inputs": [],
      "name": "saleStartTimestamp",
      "outputs": [
        {
          "internalType": "uint256",
          "name": "",
          "type": "uint256"
        }
      ],
      "stateMutability": "view",
      "type": "function"
    },
    {
      "inputs": [
        {
          "internalType": "address",
          "name": "operator",
          "type": "address"
        },
        {
          "internalType": "bool",
          "name": "approved",
          "type": "bool"
        }
      ],
      "name": "setApprovalForAll",
      "outputs": [],
      "stateMutability": "nonpayable",
      "type": "function"
    },
    {
      "inputs": [
        {
          "internalType": "bytes4",
          "name": "interfaceId",
          "type": "bytes4"
        }
      ],
      "name": "supportsInterface",
      "outputs": [
        {
          "internalType": "bool",
          "name": "",
          "type": "bool"
        }
      ],
      "stateMutability": "view",
      "type": "function"
    },
    {
      "inputs": [],
      "name": "symbol",
      "outputs": [
        {
          "internalType": "string",
          "name": "",
          "type": "string"
        }
      ],
      "stateMutability": "view",
      "type": "function"
    },
    {
      "inputs": [
        {
          "internalType": "uint256",
          "name": "index",
          "type": "uint256"
        }
      ],
      "name": "tokenByIndex",
      "outputs": [
        {
          "internalType": "uint256",
          "name": "",
          "type": "uint256"
        }
      ],
      "stateMutability": "view",
      "type": "function"
    },
    {
      "inputs": [
        {
          "internalType": "address",
          "name": "owner",
          "type": "address"
        },
        {
          "internalType": "uint256",
          "name": "index",
          "type": "uint256"
        }
      ],
      "name": "tokenOfOwnerByIndex",
      "outputs": [
        {
          "internalType": "uint256",
          "name": "",
          "type": "uint256"
        }
      ],
      "stateMutability": "view",
      "type": "function"
    },
    {
      "inputs": [
        {
          "internalType": "uint256",
          "name": "tokenId",
          "type": "uint256"
        }
      ],
      "name": "tokenURI",
      "outputs": [
        {
          "internalType": "string",
          "name": "",
          "type": "string"
        }
      ],
      "stateMutability": "view",
      "type": "function"
    },
    {
      "inputs": [],
      "name": "totalSupply",
      "outputs": [
        {
          "internalType": "uint256",
          "name": "",
          "type": "uint256"
        }
      ],
      "stateMutability": "view",
      "type": "function"
    },
    {
      "inputs": [
        {
          "internalType": "address",
          "name": "from",
          "type": "address"
        },
        {
          "internalType": "address",
          "name": "to",
          "type": "address"
        },
        {
          "internalType": "uint256",
          "name": "tokenId",
          "type": "uint256"
        }
      ],
      "name": "transferFrom",
      "outputs": [],
      "stateMutability": "nonpayable",
      "type": "function"
    },
    {
      "inputs": [
        {
          "internalType": "address",
          "name": "newOwner",
          "type": "address"
        }
      ],
      "name": "transferOwnership",
      "outputs": [],
      "stateMutability": "nonpayable",
      "type": "function"
    },
    {
      "inputs": [
        {
          "internalType": "string",
          "name": "_newBaseURI",
          "type": "string"
        }
      ],
      "name": "setBaseURI",
      "outputs": [],
      "stateMutability": "nonpayable",
      "type": "function"
    },
    {
      "inputs": [
        {
          "internalType": "uint256",
          "name": "_presaleStartTimestamp",
          "type": "uint256"
        },
        {
          "internalType": "uint256",
          "name": "_presaleEndTimestamp",
          "type": "uint256"
        }
      ],
      "name": "schedulePresale",
      "outputs": [],
      "stateMutability": "nonpayable",
      "type": "function"
    },
    {
      "inputs": [
        {
          "internalType": "uint256",
          "name": "_saleStartTimestamp",
          "type": "uint256"
        }
      ],
      "name": "scheduleSale",
      "outputs": [],
      "stateMutability": "nonpayable",
      "type": "function"
    },
    {
      "inputs": [],
      "name": "presaleIsActive",
      "outputs": [
        {
          "internalType": "bool",
          "name": "",
          "type": "bool"
        }
      ],
      "stateMutability": "view",
      "type": "function"
    },
    {
      "inputs": [],
      "name": "saleIsActive",
      "outputs": [
        {
          "internalType": "bool",
          "name": "",
          "type": "bool"
        }
      ],
      "stateMutability": "view",
      "type": "function"
    },
    {
      "inputs": [],
      "name": "price",
      "outputs": [
        {
          "internalType": "uint256",
          "name": "",
          "type": "uint256"
        }
      ],
      "stateMutability": "view",
      "type": "function"
    },
    {
      "inputs": [
        {
          "internalType": "uint256",
          "name": "_mintAmount",
          "type": "uint256"
        }
      ],
      "name": "enoughPresaleMintingsLeft",
      "outputs": [
        {
          "internalType": "bool",
          "name": "",
          "type": "bool"
        }
      ],
      "stateMutability": "view",
      "type": "function"
    },
    {
      "inputs": [
        {
          "internalType": "address[]",
          "name": "_users",
          "type": "address[]"
        }
      ],
      "name": "grantPresaleAccess",
      "outputs": [],
      "stateMutability": "nonpayable",
      "type": "function"
    },
    {
      "inputs": [
        {
          "internalType": "address[]",
          "name": "_users",
          "type": "address[]"
        }
      ],
      "name": "revokePresaleAccess",
      "outputs": [],
      "stateMutability": "nonpayable",
      "type": "function"
    },
    {
      "inputs": [],
      "name": "withdraw",
      "outputs": [],
      "stateMutability": "payable",
      "type": "function"
    },
    {
      "inputs": [
        {
          "internalType": "uint256",
          "name": "_amount",
          "type": "uint256"
        }
      ],
      "name": "reserve",
      "outputs": [],
      "stateMutability": "nonpayable",
      "type": "function"
    },
    {
      "inputs": [
        {
          "internalType": "uint256",
          "name": "_mintAmount",
          "type": "uint256"
        }
      ],
      "name": "mint",
      "outputs": [],
      "stateMutability": "payable",
      "type": "function"
    }
  ],
  "bytecode": "0x608060405260405180602001604052806000815250600c908162000024919062000433565b503480156200003257600080fd5b506040518060400160405280600a81526020017f5a65746153617572696f000000000000000000000000000000000000000000008152506040518060400160405280600281526020017f5a530000000000000000000000000000000000000000000000000000000000008152508160009081620000b0919062000433565b508060019081620000c2919062000433565b505050620000e5620000d9620000eb60201b60201c565b620000f360201b60201c565b6200051a565b600033905090565b6000600a60009054906101000a900473ffffffffffffffffffffffffffffffffffffffff16905081600a60006101000a81548173ffffffffffffffffffffffffffffffffffffffff021916908373ffffffffffffffffffffffffffffffffffffffff1602179055508173ffffffffffffffffffffffffffffffffffffffff168173ffffffffffffffffffffffffffffffffffffffff167f8be0079c531659141344cd1fd0a4f28419497f9722a3daafe3b4186f6b6457e060405160405180910390a35050565b600081519050919050565b7f4e487b7100000000000000000000000000000000000000000000000000000000600052604160045260246000fd5b7f4e487b7100000000000000000000000000000000000000000000000000000000600052602260045260246000fd5b600060028204905060018216806200023b57607f821691505b602082108103620002515762000250620001f3565b5b50919050565b60008190508160005260206000209050919050565b60006020601f8301049050919050565b600082821b905092915050565b600060088302620002bb7fffffffffffffffffffffffffffffffffffffffffffffffffffffffffffffffff826200027c565b620002c786836200027c565b95508019841693508086168417925050509392505050565b6000819050919050565b6000819050919050565b6000620003146200030e6200030884620002df565b620002e9565b620002df565b9050919050565b6000819050919050565b6200033083620002f3565b620003486200033f826200031b565b84845462000289565b825550505050565b600090565b6200035f62000350565b6200036c81848462000325565b505050565b5b8181101562000394576200038860008262000355565b60018101905062000372565b5050565b601f821115620003e357620003ad8162000257565b620003b8846200026c565b81016020851015620003c8578190505b620003e0620003d7856200026c565b83018262000371565b50505b505050565b600082821c905092915050565b60006200040860001984600802620003e8565b1980831691505092915050565b6000620004238383620003f5565b9150826002028217905092915050565b6200043e82620001b9565b67ffffffffffffffff8111156200045a5762000459620001c4565b5b62000466825462000222565b6200047382828562000398565b600060209050601f831160018114620004ab576000841562000496578287015190505b620004a2858262000415565b86555062000512565b601f198416620004bb8662000257565b60005b82811015620004e557848901518255600182019150602085019450602081019050620004be565b8683101562000505578489015162000501601f891682620003f5565b8355505b6001600288020188555050505b505050505050565b61467b806200052a6000396000f3fe60806040526004361061025b5760003560e01c806370a0823111610144578063b88d4fde116100b6578063d5abeb011161007a578063d5abeb01146108f3578063dcad8a491461091e578063e985e9c514610947578063eb8d244414610984578063f2fde38b146109af578063f51f96dd146109d85761025b565b8063b88d4fde146107fc578063c383e6c614610825578063c6bd6bc81461084e578063c87b56dd14610879578063d445b978146108b65761025b565b80638da5cb5b116101085780638da5cb5b1461070d57806395d89b4114610738578063985e89fe14610763578063a035b1fe1461078c578063a0712d68146107b7578063a22cb465146107d35761025b565b806370a082311461063c578063715018a61461067957806378da7ba1146106905780637c920e47146106bb578063819b25ba146106e45761025b565b806330f72cd4116101dd578063481c6a75116101a1578063481c6a75146105185780634ea37fec146105435780634f6ccce71461056e57806355f804b3146105ab5780636352211e146105d45780636c0360eb146106115761025b565b806330f72cd41461045257806334f30ad81461047d5780633c276d86146104ba5780633ccfd60b146104e557806342842e0e146104ef5761025b565b80630f209186116102245780630f2091861461035957806318160ddd1461039657806323b872dd146103c157806325efe85c146103ea5780632f745c59146104155761025b565b80620e7fa81461026057806301ffc9a71461028b57806306fdde03146102c8578063081812fc146102f3578063095ea7b314610330575b600080fd5b34801561026c57600080fd5b50610275610a03565b6040516102829190612cbd565b60405180910390f35b34801561029757600080fd5b506102b260048036038101906102ad9190612d44565b610a0f565b6040516102bf9190612d8c565b60405180910390f35b3480156102d457600080fd5b506102dd610a89565b6040516102ea9190612e40565b60405180910390f35b3480156102ff57600080fd5b5061031a60048036038101906103159190612e8e565b610b1b565b6040516103279190612efc565b60405180910390f35b34801561033c57600080fd5b5061035760048036038101906103529190612f43565b610b61565b005b34801561036557600080fd5b50610380600480360381019061037b9190612f83565b610c78565b60405161038d9190612d8c565b60405180910390f35b3480156103a257600080fd5b506103ab610c98565b6040516103b89190612cbd565b60405180910390f35b3480156103cd57600080fd5b506103e860048036038101906103e39190612fb0565b610ca5565b005b3480156103f657600080fd5b506103ff610d05565b60405161040c9190612cbd565b60405180910390f35b34801561042157600080fd5b5061043c60048036038101906104379190612f43565b610d0a565b6040516104499190612cbd565b60405180910390f35b34801561045e57600080fd5b50610467610daf565b6040516104749190612d8c565b60405180910390f35b34801561048957600080fd5b506104a4600480360381019061049f9190612e8e565b610dc9565b6040516104b19190612d8c565b60405180910390f35b3480156104c657600080fd5b506104cf610e20565b6040516104dc9190612cbd565b60405180910390f35b6104ed610e26565b005b3480156104fb57600080fd5b5061051660048036038101906105119190612fb0565b610ee4565b005b34801561052457600080fd5b5061052d610f04565b60405161053a9190612efc565b60405180910390f35b34801561054f57600080fd5b50610558610f2a565b6040516105659190612cbd565b60405180910390f35b34801561057a57600080fd5b5061059560048036038101906105909190612e8e565b610f30565b6040516105a29190612cbd565b60405180910390f35b3480156105b757600080fd5b506105d260048036038101906105cd9190613138565b610fa1565b005b3480156105e057600080fd5b506105fb60048036038101906105f69190612e8e565b610fbc565b6040516106089190612efc565b60405180910390f35b34801561061d57600080fd5b5061062661106d565b6040516106339190612e40565b60405180910390f35b34801561064857600080fd5b50610663600480360381019061065e9190612f83565b6110fb565b6040516106709190612cbd565b60405180910390f35b34801561068557600080fd5b5061068e6111b2565b005b34801561069c57600080fd5b506106a56111c6565b6040516106b29190612cbd565b60405180910390f35b3480156106c757600080fd5b506106e260048036038101906106dd91906131e1565b6111cc565b005b3480156106f057600080fd5b5061070b60048036038101906107069190612e8e565b611279565b005b34801561071957600080fd5b506107226112c8565b60405161072f9190612efc565b60405180910390f35b34801561074457600080fd5b5061074d6112f2565b60405161075a9190612e40565b60405180910390f35b34801561076f57600080fd5b5061078a600480360381019061078591906131e1565b611384565b005b34801561079857600080fd5b506107a1611431565b6040516107ae9190612cbd565b60405180910390f35b6107d160048036038101906107cc9190612e8e565b61145c565b005b3480156107df57600080fd5b506107fa60048036038101906107f5919061325a565b61175c565b005b34801561080857600080fd5b50610823600480360381019061081e919061333b565b611772565b005b34801561083157600080fd5b5061084c60048036038101906108479190612e8e565b6117d4565b005b34801561085a57600080fd5b506108636117e6565b6040516108709190612cbd565b60405180910390f35b34801561088557600080fd5b506108a0600480360381019061089b9190612e8e565b6117eb565b6040516108ad9190612e40565b60405180910390f35b3480156108c257600080fd5b506108dd60048036038101906108d89190612f83565b611853565b6040516108ea9190612cbd565b60405180910390f35b3480156108ff57600080fd5b5061090861186b565b6040516109159190612cbd565b60405180910390f35b34801561092a57600080fd5b50610945600480360381019061094091906133be565b611871565b005b34801561095357600080fd5b5061096e600480360381019061096991906133fe565b61188b565b60405161097b9190612d8c565b60405180910390f35b34801561099057600080fd5b5061099961191f565b6040516109a69190612d8c565b60405180910390f35b3480156109bb57600080fd5b506109d660048036038101906109d19190612f83565b61193a565b005b3480156109e457600080fd5b506109ed6119bd565b6040516109fa9190612cbd565b60405180910390f35b670214e8348c4f000081565b60007f780e9d63000000000000000000000000000000000000000000000000000000007bffffffffffffffffffffffffffffffffffffffffffffffffffffffff1916827bffffffffffffffffffffffffffffffffffffffffffffffffffffffff19161480610a825750610a81826119c9565b5b9050919050565b606060008054610a989061346d565b80601f0160208091040260200160405190810160405280929190818152602001828054610ac49061346d565b8015610b115780601f10610ae657610100808354040283529160200191610b11565b820191906000526020600020905b815481529060010190602001808311610af457829003601f168201915b5050505050905090565b6000610b2682611aab565b6004600083815260200190815260200160002060009054906101000a900473ffffffffffffffffffffffffffffffffffffffff169050919050565b6000610b6c82610fbc565b90508073ffffffffffffffffffffffffffffffffffffffff168373ffffffffffffffffffffffffffffffffffffffff1603610bdc576040517f08c379a0000000000000000000000000000000000000000000000000000000008152600401610bd390613510565b60405180910390fd5b8073ffffffffffffffffffffffffffffffffffffffff16610bfb611af6565b73ffffffffffffffffffffffffffffffffffffffff161480610c2a5750610c2981610c24611af6565b61188b565b5b610c69576040517f08c379a0000000000000000000000000000000000000000000000000000000008152600401610c60906135a2565b60405180910390fd5b610c738383611afe565b505050565b60106020528060005260406000206000915054906101000a900460ff1681565b6000600880549050905090565b610cb6610cb0611af6565b82611bb7565b610cf5576040517f08c379a0000000000000000000000000000000000000000000000000000000008152600401610cec90613634565b60405180910390fd5b610d00838383611c4c565b505050565b600381565b6000610d15836110fb565b8210610d56576040517f08c379a0000000000000000000000000000000000000000000000000000000008152600401610d4d906136c6565b60405180910390fd5b600660008473ffffffffffffffffffffffffffffffffffffffff1673ffffffffffffffffffffffffffffffffffffffff168152602001908152602001600020600083815260200190815260200160002054905092915050565b600042600f5411158015610dc45750600e5442105b905090565b6000600382601160003373ffffffffffffffffffffffffffffffffffffffff1673ffffffffffffffffffffffffffffffffffffffff16815260200190815260200160002054610e189190613715565b109050919050565b600d5481565b610e2e611eb2565b6000610e386112c8565b73ffffffffffffffffffffffffffffffffffffffff1647604051610e5b9061379c565b60006040518083038185875af1925050503d8060008114610e98576040519150601f19603f3d011682016040523d82523d6000602084013e610e9d565b606091505b5050905080610ee1576040517f08c379a0000000000000000000000000000000000000000000000000000000008152600401610ed8906137fd565b60405180910390fd5b50565b610eff83838360405180602001604052806000815250611772565b505050565b600b60009054906101000a900473ffffffffffffffffffffffffffffffffffffffff1681565b600f5481565b6000610f3a610c98565b8210610f7b576040517f08c379a0000000000000000000000000000000000000000000000000000000008152600401610f729061388f565b60405180910390fd5b60088281548110610f8f57610f8e6138af565b5b90600052602060002001549050919050565b610fa9611eb2565b80600c9081610fb89190613a8a565b5050565b6000806002600084815260200190815260200160002060009054906101000a900473ffffffffffffffffffffffffffffffffffffffff169050600073ffffffffffffffffffffffffffffffffffffffff168173ffffffffffffffffffffffffffffffffffffffff1603611064576040517f08c379a000000000000000000000000000000000000000000000000000000000815260040161105b90613ba8565b60405180910390fd5b80915050919050565b600c805461107a9061346d565b80601f01602080910402602001604051908101604052809291908181526020018280546110a69061346d565b80156110f35780601f106110c8576101008083540402835291602001916110f3565b820191906000526020600020905b8154815290600101906020018083116110d657829003601f168201915b505050505081565b60008073ffffffffffffffffffffffffffffffffffffffff168273ffffffffffffffffffffffffffffffffffffffff160361116b576040517f08c379a000000000000000000000000000000000000000000000000000000000815260040161116290613c3a565b60405180910390fd5b600360008373ffffffffffffffffffffffffffffffffffffffff1673ffffffffffffffffffffffffffffffffffffffff168152602001908152602001600020549050919050565b6111ba611eb2565b6111c46000611f30565b565b600e5481565b6111d4611eb2565b60005b82829050811015611274576001601060008585858181106111fb576111fa6138af565b5b90506020020160208101906112109190612f83565b73ffffffffffffffffffffffffffffffffffffffff1673ffffffffffffffffffffffffffffffffffffffff16815260200190815260200160002060006101000a81548160ff021916908315150217905550808061126c90613c5a565b9150506111d7565b505050565b611281611eb2565b600061128b610c98565b90506000600190505b8281116112c3576112b03382846112ab9190613715565b611ff6565b80806112bb90613c5a565b915050611294565b505050565b6000600a60009054906101000a900473ffffffffffffffffffffffffffffffffffffffff16905090565b6060600180546113019061346d565b80601f016020809104026020016040519081016040528092919081815260200182805461132d9061346d565b801561137a5780601f1061134f5761010080835404028352916020019161137a565b820191906000526020600020905b81548152906001019060200180831161135d57829003601f168201915b5050505050905090565b61138c611eb2565b60005b8282905081101561142c576000601060008585858181106113b3576113b26138af565b5b90506020020160208101906113c89190612f83565b73ffffffffffffffffffffffffffffffffffffffff1673ffffffffffffffffffffffffffffffffffffffff16815260200190815260200160002060006101000a81548160ff021916908315150217905550808061142490613c5a565b91505061138f565b505050565b600061143b610daf565b61144d576702c68af0bb140000611457565b670214e8348c4f00005b905090565b6000611466610c98565b905061147061191f565b8061147f575061147e610daf565b5b6114be576040517f08c379a00000000000000000000000000000000000000000000000000000000081526004016114b590613cee565b60405180910390fd5b60008211611501576040517f08c379a00000000000000000000000000000000000000000000000000000000081526004016114f890613d5a565b60405180910390fd5b6124b182826115109190613715565b1115611551576040517f08c379a000000000000000000000000000000000000000000000000000000000815260040161154890613dc6565b60405180910390fd5b8161155a611431565b6115649190613de6565b3410156115a6576040517f08c379a000000000000000000000000000000000000000000000000000000000815260040161159d90613e8c565b60405180910390fd5b60058211156115ea576040517f08c379a00000000000000000000000000000000000000000000000000000000081526004016115e190613f1e565b60405180910390fd5b6115f2610daf565b156116cc57601060003373ffffffffffffffffffffffffffffffffffffffff1673ffffffffffffffffffffffffffffffffffffffff16815260200190815260200160002060009054906101000a900460ff16611683576040517f08c379a000000000000000000000000000000000000000000000000000000000815260040161167a90613f8a565b60405180910390fd5b61168c82610dc9565b6116cb576040517f08c379a00000000000000000000000000000000000000000000000000000000081526004016116c290613ff6565b60405180910390fd5b5b6000600190505b82811161175757601160003373ffffffffffffffffffffffffffffffffffffffff1673ffffffffffffffffffffffffffffffffffffffff168152602001908152602001600020600081548092919061172a90613c5a565b919050555061174433828461173f9190613715565b611ff6565b808061174f90613c5a565b9150506116d3565b505050565b61176e611767611af6565b8383612014565b5050565b61178361177d611af6565b83611bb7565b6117c2576040517f08c379a00000000000000000000000000000000000000000000000000000000081526004016117b990613634565b60405180910390fd5b6117ce84848484612180565b50505050565b6117dc611eb2565b80600d8190555050565b600581565b60606117f682611aab565b60006118006121dc565b90506000815111611820576040518060200160405280600081525061184b565b8061182a8461226e565b60405160200161183b929190614052565b6040516020818303038152906040525b915050919050565b60116020528060005260406000206000915090505481565b6124b181565b611879611eb2565b80600e8190555081600f819055505050565b6000600560008473ffffffffffffffffffffffffffffffffffffffff1673ffffffffffffffffffffffffffffffffffffffff16815260200190815260200160002060008373ffffffffffffffffffffffffffffffffffffffff1673ffffffffffffffffffffffffffffffffffffffff16815260200190815260200160002060009054906101000a900460ff16905092915050565b600080600d5414158015611935575042600d5411155b905090565b611942611eb2565b600073ffffffffffffffffffffffffffffffffffffffff168173ffffffffffffffffffffffffffffffffffffffff16036119b1576040517f08c379a00000000000000000000000000000000000000000000000000000000081526004016119a8906140e8565b60405180910390fd5b6119ba81611f30565b50565b6702c68af0bb14000081565b60007f80ac58cd000000000000000000000000000000000000000000000000000000007bffffffffffffffffffffffffffffffffffffffffffffffffffffffff1916827bffffffffffffffffffffffffffffffffffffffffffffffffffffffff19161480611a9457507f5b5e139f000000000000000000000000000000000000000000000000000000007bffffffffffffffffffffffffffffffffffffffffffffffffffffffff1916827bffffffffffffffffffffffffffffffffffffffffffffffffffffffff1916145b80611aa45750611aa3826123ce565b5b9050919050565b611ab481612438565b611af3576040517f08c379a0000000000000000000000000000000000000000000000000000000008152600401611aea90613ba8565b60405180910390fd5b50565b600033905090565b816004600083815260200190815260200160002060006101000a81548173ffffffffffffffffffffffffffffffffffffffff021916908373ffffffffffffffffffffffffffffffffffffffff160217905550808273ffffffffffffffffffffffffffffffffffffffff16611b7183610fbc565b73ffffffffffffffffffffffffffffffffffffffff167f8c5be1e5ebec7d5bd14f71427d1e84f3dd0314c0f7b2291e5b200ac8c7c3b92560405160405180910390a45050565b600080611bc383610fbc565b90508073ffffffffffffffffffffffffffffffffffffffff168473ffffffffffffffffffffffffffffffffffffffff161480611c055750611c04818561188b565b5b80611c4357508373ffffffffffffffffffffffffffffffffffffffff16611c2b84610b1b565b73ffffffffffffffffffffffffffffffffffffffff16145b91505092915050565b8273ffffffffffffffffffffffffffffffffffffffff16611c6c82610fbc565b73ffffffffffffffffffffffffffffffffffffffff1614611cc2576040517f08c379a0000000000000000000000000000000000000000000000000000000008152600401611cb99061417a565b60405180910390fd5b600073ffffffffffffffffffffffffffffffffffffffff168273ffffffffffffffffffffffffffffffffffffffff1603611d31576040517f08c379a0000000000000000000000000000000000000000000000000000000008152600401611d289061420c565b60405180910390fd5b611d3c8383836124a4565b611d47600082611afe565b6001600360008573ffffffffffffffffffffffffffffffffffffffff1673ffffffffffffffffffffffffffffffffffffffff1681526020019081526020016000206000828254611d97919061422c565b925050819055506001600360008473ffffffffffffffffffffffffffffffffffffffff1673ffffffffffffffffffffffffffffffffffffffff1681526020019081526020016000206000828254611dee9190613715565b92505081905550816002600083815260200190815260200160002060006101000a81548173ffffffffffffffffffffffffffffffffffffffff021916908373ffffffffffffffffffffffffffffffffffffffff160217905550808273ffffffffffffffffffffffffffffffffffffffff168473ffffffffffffffffffffffffffffffffffffffff167fddf252ad1be2c89b69c2b068fc378daa952ba7f163c4a11628f55a4df523b3ef60405160405180910390a4611ead8383836125b6565b505050565b611eba611af6565b73ffffffffffffffffffffffffffffffffffffffff16611ed86112c8565b73ffffffffffffffffffffffffffffffffffffffff1614611f2e576040517f08c379a0000000000000000000000000000000000000000000000000000000008152600401611f25906142ac565b60405180910390fd5b565b6000600a60009054906101000a900473ffffffffffffffffffffffffffffffffffffffff16905081600a60006101000a81548173ffffffffffffffffffffffffffffffffffffffff021916908373ffffffffffffffffffffffffffffffffffffffff1602179055508173ffffffffffffffffffffffffffffffffffffffff168173ffffffffffffffffffffffffffffffffffffffff167f8be0079c531659141344cd1fd0a4f28419497f9722a3daafe3b4186f6b6457e060405160405180910390a35050565b6120108282604051806020016040528060008152506125bb565b5050565b8173ffffffffffffffffffffffffffffffffffffffff168373ffffffffffffffffffffffffffffffffffffffff1603612082576040517f08c379a000000000000000000000000000000000000000000000000000000000815260040161207990614318565b60405180910390fd5b80600560008573ffffffffffffffffffffffffffffffffffffffff1673ffffffffffffffffffffffffffffffffffffffff16815260200190815260200160002060008473ffffffffffffffffffffffffffffffffffffffff1673ffffffffffffffffffffffffffffffffffffffff16815260200190815260200160002060006101000a81548160ff0219169083151502179055508173ffffffffffffffffffffffffffffffffffffffff168373ffffffffffffffffffffffffffffffffffffffff167f17307eab39ab6107e8899845ad3d59bd9653f200f220920489ca2b5937696c31836040516121739190612d8c565b60405180910390a3505050565b61218b848484611c4c565b61219784848484612616565b6121d6576040517f08c379a00000000000000000000000000000000000000000000000000000000081526004016121cd906143aa565b60405180910390fd5b50505050565b6060600c80546121eb9061346d565b80601f01602080910402602001604051908101604052809291908181526020018280546122179061346d565b80156122645780601f1061223957610100808354040283529160200191612264565b820191906000526020600020905b81548152906001019060200180831161224757829003601f168201915b5050505050905090565b6060600082036122b5576040518060400160405280600181526020017f300000000000000000000000000000000000000000000000000000000000000081525090506123c9565b600082905060005b600082146122e75780806122d090613c5a565b915050600a826122e091906143f9565b91506122bd565b60008167ffffffffffffffff8111156123035761230261300d565b5b6040519080825280601f01601f1916602001820160405280156123355781602001600182028036833780820191505090505b5090505b600085146123c25760018261234e919061422c565b9150600a8561235d919061442a565b60306123699190613715565b60f81b81838151811061237f5761237e6138af565b5b60200101907effffffffffffffffffffffffffffffffffffffffffffffffffffffffffffff1916908160001a905350600a856123bb91906143f9565b9450612339565b8093505050505b919050565b60007f01ffc9a7000000000000000000000000000000000000000000000000000000007bffffffffffffffffffffffffffffffffffffffffffffffffffffffff1916827bffffffffffffffffffffffffffffffffffffffffffffffffffffffff1916149050919050565b60008073ffffffffffffffffffffffffffffffffffffffff166002600084815260200190815260200160002060009054906101000a900473ffffffffffffffffffffffffffffffffffffffff1673ffffffffffffffffffffffffffffffffffffffff1614159050919050565b6124af83838361279d565b600073ffffffffffffffffffffffffffffffffffffffff168373ffffffffffffffffffffffffffffffffffffffff16036124f1576124ec816127a2565b612530565b8173ffffffffffffffffffffffffffffffffffffffff168373ffffffffffffffffffffffffffffffffffffffff161461252f5761252e83826127eb565b5b5b600073ffffffffffffffffffffffffffffffffffffffff168273ffffffffffffffffffffffffffffffffffffffff16036125725761256d81612958565b6125b1565b8273ffffffffffffffffffffffffffffffffffffffff168273ffffffffffffffffffffffffffffffffffffffff16146125b0576125af8282612a29565b5b5b505050565b505050565b6125c58383612aa8565b6125d26000848484612616565b612611576040517f08c379a0000000000000000000000000000000000000000000000000000000008152600401612608906143aa565b60405180910390fd5b505050565b60006126378473ffffffffffffffffffffffffffffffffffffffff16612c81565b15612790578373ffffffffffffffffffffffffffffffffffffffff1663150b7a02612660611af6565b8786866040518563ffffffff1660e01b815260040161268294939291906144b0565b6020604051808303816000875af19250505080156126be57506040513d601f19601f820116820180604052508101906126bb9190614511565b60015b612740573d80600081146126ee576040519150601f19603f3d011682016040523d82523d6000602084013e6126f3565b606091505b506000815103612738576040517f08c379a000000000000000000000000000000000000000000000000000000000815260040161272f906143aa565b60405180910390fd5b805181602001fd5b63150b7a0260e01b7bffffffffffffffffffffffffffffffffffffffffffffffffffffffff1916817bffffffffffffffffffffffffffffffffffffffffffffffffffffffff191614915050612795565b600190505b949350505050565b505050565b6008805490506009600083815260200190815260200160002081905550600881908060018154018082558091505060019003906000526020600020016000909190919091505550565b600060016127f8846110fb565b612802919061422c565b90506000600760008481526020019081526020016000205490508181146128e7576000600660008673ffffffffffffffffffffffffffffffffffffffff1673ffffffffffffffffffffffffffffffffffffffff168152602001908152602001600020600084815260200190815260200160002054905080600660008773ffffffffffffffffffffffffffffffffffffffff1673ffffffffffffffffffffffffffffffffffffffff168152602001908152602001600020600084815260200190815260200160002081905550816007600083815260200190815260200160002081905550505b6007600084815260200190815260200160002060009055600660008573ffffffffffffffffffffffffffffffffffffffff1673ffffffffffffffffffffffffffffffffffffffff16815260200190815260200160002060008381526020019081526020016000206000905550505050565b6000600160088054905061296c919061422c565b905060006009600084815260200190815260200160002054905060006008838154811061299c5761299b6138af565b5b9060005260206000200154905080600883815481106129be576129bd6138af565b5b906000526020600020018190555081600960008381526020019081526020016000208190555060096000858152602001908152602001600020600090556008805480612a0d57612a0c61453e565b5b6001900381819060005260206000200160009055905550505050565b6000612a34836110fb565b905081600660008573ffffffffffffffffffffffffffffffffffffffff1673ffffffffffffffffffffffffffffffffffffffff168152602001908152602001600020600083815260200190815260200160002081905550806007600084815260200190815260200160002081905550505050565b600073ffffffffffffffffffffffffffffffffffffffff168273ffffffffffffffffffffffffffffffffffffffff1603612b17576040517f08c379a0000000000000000000000000000000000000000000000000000000008152600401612b0e906145b9565b60405180910390fd5b612b2081612438565b15612b60576040517f08c379a0000000000000000000000000000000000000000000000000000000008152600401612b5790614625565b60405180910390fd5b612b6c600083836124a4565b6001600360008473ffffffffffffffffffffffffffffffffffffffff1673ffffffffffffffffffffffffffffffffffffffff1681526020019081526020016000206000828254612bbc9190613715565b92505081905550816002600083815260200190815260200160002060006101000a81548173ffffffffffffffffffffffffffffffffffffffff021916908373ffffffffffffffffffffffffffffffffffffffff160217905550808273ffffffffffffffffffffffffffffffffffffffff16600073ffffffffffffffffffffffffffffffffffffffff167fddf252ad1be2c89b69c2b068fc378daa952ba7f163c4a11628f55a4df523b3ef60405160405180910390a4612c7d600083836125b6565b5050565b6000808273ffffffffffffffffffffffffffffffffffffffff163b119050919050565b6000819050919050565b612cb781612ca4565b82525050565b6000602082019050612cd26000830184612cae565b92915050565b6000604051905090565b600080fd5b600080fd5b60007fffffffff0000000000000000000000000000000000000000000000000000000082169050919050565b612d2181612cec565b8114612d2c57600080fd5b50565b600081359050612d3e81612d18565b92915050565b600060208284031215612d5a57612d59612ce2565b5b6000612d6884828501612d2f565b91505092915050565b60008115159050919050565b612d8681612d71565b82525050565b6000602082019050612da16000830184612d7d565b92915050565b600081519050919050565b600082825260208201905092915050565b60005b83811015612de1578082015181840152602081019050612dc6565b83811115612df0576000848401525b50505050565b6000601f19601f8301169050919050565b6000612e1282612da7565b612e1c8185612db2565b9350612e2c818560208601612dc3565b612e3581612df6565b840191505092915050565b60006020820190508181036000830152612e5a8184612e07565b905092915050565b612e6b81612ca4565b8114612e7657600080fd5b50565b600081359050612e8881612e62565b92915050565b600060208284031215612ea457612ea3612ce2565b5b6000612eb284828501612e79565b91505092915050565b600073ffffffffffffffffffffffffffffffffffffffff82169050919050565b6000612ee682612ebb565b9050919050565b612ef681612edb565b82525050565b6000602082019050612f116000830184612eed565b92915050565b612f2081612edb565b8114612f2b57600080fd5b50565b600081359050612f3d81612f17565b92915050565b60008060408385031215612f5a57612f59612ce2565b5b6000612f6885828601612f2e565b9250506020612f7985828601612e79565b9150509250929050565b600060208284031215612f9957612f98612ce2565b5b6000612fa784828501612f2e565b91505092915050565b600080600060608486031215612fc957612fc8612ce2565b5b6000612fd786828701612f2e565b9350506020612fe886828701612f2e565b9250506040612ff986828701612e79565b9150509250925092565b600080fd5b600080fd5b7f4e487b7100000000000000000000000000000000000000000000000000000000600052604160045260246000fd5b61304582612df6565b810181811067ffffffffffffffff821117156130645761306361300d565b5b80604052505050565b6000613077612cd8565b9050613083828261303c565b919050565b600067ffffffffffffffff8211156130a3576130a261300d565b5b6130ac82612df6565b9050602081019050919050565b82818337600083830152505050565b60006130db6130d684613088565b61306d565b9050828152602081018484840111156130f7576130f6613008565b5b6131028482856130b9565b509392505050565b600082601f83011261311f5761311e613003565b5b813561312f8482602086016130c8565b91505092915050565b60006020828403121561314e5761314d612ce2565b5b600082013567ffffffffffffffff81111561316c5761316b612ce7565b5b6131788482850161310a565b91505092915050565b600080fd5b600080fd5b60008083601f8401126131a1576131a0613003565b5b8235905067ffffffffffffffff8111156131be576131bd613181565b5b6020830191508360208202830111156131da576131d9613186565b5b9250929050565b600080602083850312156131f8576131f7612ce2565b5b600083013567ffffffffffffffff81111561321657613215612ce7565b5b6132228582860161318b565b92509250509250929050565b61323781612d71565b811461324257600080fd5b50565b6000813590506132548161322e565b92915050565b6000806040838503121561327157613270612ce2565b5b600061327f85828601612f2e565b925050602061329085828601613245565b9150509250929050565b600067ffffffffffffffff8211156132b5576132b461300d565b5b6132be82612df6565b9050602081019050919050565b60006132de6132d98461329a565b61306d565b9050828152602081018484840111156132fa576132f9613008565b5b6133058482856130b9565b509392505050565b600082601f83011261332257613321613003565b5b81356133328482602086016132cb565b91505092915050565b6000806000806080858703121561335557613354612ce2565b5b600061336387828801612f2e565b945050602061337487828801612f2e565b935050604061338587828801612e79565b925050606085013567ffffffffffffffff8111156133a6576133a5612ce7565b5b6133b28782880161330d565b91505092959194509250565b600080604083850312156133d5576133d4612ce2565b5b60006133e385828601612e79565b92505060206133f485828601612e79565b9150509250929050565b6000806040838503121561341557613414612ce2565b5b600061342385828601612f2e565b925050602061343485828601612f2e565b9150509250929050565b7f4e487b7100000000000000000000000000000000000000000000000000000000600052602260045260246000fd5b6000600282049050600182168061348557607f821691505b6020821081036134985761349761343e565b5b50919050565b7f4552433732313a20617070726f76616c20746f2063757272656e74206f776e6560008201527f7200000000000000000000000000000000000000000000000000000000000000602082015250565b60006134fa602183612db2565b91506135058261349e565b604082019050919050565b60006020820190508181036000830152613529816134ed565b9050919050565b7f4552433732313a20617070726f76652063616c6c6572206973206e6f7420746f60008201527f6b656e206f776e6572206e6f7220617070726f76656420666f7220616c6c0000602082015250565b600061358c603e83612db2565b915061359782613530565b604082019050919050565b600060208201905081810360008301526135bb8161357f565b9050919050565b7f4552433732313a2063616c6c6572206973206e6f7420746f6b656e206f776e6560008201527f72206e6f7220617070726f766564000000000000000000000000000000000000602082015250565b600061361e602e83612db2565b9150613629826135c2565b604082019050919050565b6000602082019050818103600083015261364d81613611565b9050919050565b7f455243373231456e756d657261626c653a206f776e657220696e646578206f7560008201527f74206f6620626f756e6473000000000000000000000000000000000000000000602082015250565b60006136b0602b83612db2565b91506136bb82613654565b604082019050919050565b600060208201905081810360008301526136df816136a3565b9050919050565b7f4e487b7100000000000000000000000000000000000000000000000000000000600052601160045260246000fd5b600061372082612ca4565b915061372b83612ca4565b9250827fffffffffffffffffffffffffffffffffffffffffffffffffffffffffffffffff038211156137605761375f6136e6565b5b828201905092915050565b600081905092915050565b50565b600061378660008361376b565b915061379182613776565b600082019050919050565b60006137a782613779565b9150819050919050565b7f4661696c656420746f2073656e64204574686572000000000000000000000000600082015250565b60006137e7601483612db2565b91506137f2826137b1565b602082019050919050565b60006020820190508181036000830152613816816137da565b9050919050565b7f455243373231456e756d657261626c653a20676c6f62616c20696e646578206f60008201527f7574206f6620626f756e64730000000000000000000000000000000000000000602082015250565b6000613879602c83612db2565b91506138848261381d565b604082019050919050565b600060208201905081810360008301526138a88161386c565b9050919050565b7f4e487b7100000000000000000000000000000000000000000000000000000000600052603260045260246000fd5b60008190508160005260206000209050919050565b60006020601f8301049050919050565b600082821b905092915050565b6000600883026139407fffffffffffffffffffffffffffffffffffffffffffffffffffffffffffffffff82613903565b61394a8683613903565b95508019841693508086168417925050509392505050565b6000819050919050565b600061398761398261397d84612ca4565b613962565b612ca4565b9050919050565b6000819050919050565b6139a18361396c565b6139b56139ad8261398e565b848454613910565b825550505050565b600090565b6139ca6139bd565b6139d5818484613998565b505050565b5b818110156139f9576139ee6000826139c2565b6001810190506139db565b5050565b601f821115613a3e57613a0f816138de565b613a18846138f3565b81016020851015613a27578190505b613a3b613a33856138f3565b8301826139da565b50505b505050565b600082821c905092915050565b6000613a6160001984600802613a43565b1980831691505092915050565b6000613a7a8383613a50565b9150826002028217905092915050565b613a9382612da7565b67ffffffffffffffff811115613aac57613aab61300d565b5b613ab6825461346d565b613ac18282856139fd565b600060209050601f831160018114613af45760008415613ae2578287015190505b613aec8582613a6e565b865550613b54565b601f198416613b02866138de565b60005b82811015613b2a57848901518255600182019150602085019450602081019050613b05565b86831015613b475784890151613b43601f891682613a50565b8355505b6001600288020188555050505b505050505050565b7f4552433732313a20696e76616c696420746f6b656e2049440000000000000000600082015250565b6000613b92601883612db2565b9150613b9d82613b5c565b602082019050919050565b60006020820190508181036000830152613bc181613b85565b9050919050565b7f4552433732313a2061646472657373207a65726f206973206e6f74206120766160008201527f6c6964206f776e65720000000000000000000000000000000000000000000000602082015250565b6000613c24602983612db2565b9150613c2f82613bc8565b604082019050919050565b60006020820190508181036000830152613c5381613c17565b9050919050565b6000613c6582612ca4565b91507fffffffffffffffffffffffffffffffffffffffffffffffffffffffffffffffff8203613c9757613c966136e6565b5b600182019050919050565b7f53616c65206973206e6f74206163746976650000000000000000000000000000600082015250565b6000613cd8601283612db2565b9150613ce382613ca2565b602082019050919050565b60006020820190508181036000830152613d0781613ccb565b9050919050565b7f4d757374206d696e74206174206c65617374206f6e65204e4654000000000000600082015250565b6000613d44601a83612db2565b9150613d4f82613d0e565b602082019050919050565b60006020820190508181036000830152613d7381613d37565b9050919050565b7f537570706c79206c656674206973206e6f7420656e6f75676800000000000000600082015250565b6000613db0601983612db2565b9150613dbb82613d7a565b602082019050919050565b60006020820190508181036000830152613ddf81613da3565b9050919050565b6000613df182612ca4565b9150613dfc83612ca4565b9250817fffffffffffffffffffffffffffffffffffffffffffffffffffffffffffffffff0483118215151615613e3557613e346136e6565b5b828202905092915050565b7f4e6f7420656e6f7567682066756e647320746f20707572636861736500000000600082015250565b6000613e76601c83612db2565b9150613e8182613e40565b602082019050919050565b60006020820190508181036000830152613ea581613e69565b9050919050565b7f43616e2774206d696e74207468657365206d616e79204e465473206174206f6e60008201527f6365000000000000000000000000000000000000000000000000000000000000602082015250565b6000613f08602283612db2565b9150613f1382613eac565b604082019050919050565b60006020820190508181036000830152613f3781613efb565b9050919050565b7f50726573616c65206163636573732064656e6965640000000000000000000000600082015250565b6000613f74601583612db2565b9150613f7f82613f3e565b602082019050919050565b60006020820190508181036000830152613fa381613f67565b9050919050565b7f4e6f7420656e6f7567682070726573616c65206d696e74696e6773206c656674600082015250565b6000613fe0602083612db2565b9150613feb82613faa565b602082019050919050565b6000602082019050818103600083015261400f81613fd3565b9050919050565b600081905092915050565b600061402c82612da7565b6140368185614016565b9350614046818560208601612dc3565b80840191505092915050565b600061405e8285614021565b915061406a8284614021565b91508190509392505050565b7f4f776e61626c653a206e6577206f776e657220697320746865207a65726f206160008201527f6464726573730000000000000000000000000000000000000000000000000000602082015250565b60006140d2602683612db2565b91506140dd82614076565b604082019050919050565b60006020820190508181036000830152614101816140c5565b9050919050565b7f4552433732313a207472616e736665722066726f6d20696e636f72726563742060008201527f6f776e6572000000000000000000000000000000000000000000000000000000602082015250565b6000614164602583612db2565b915061416f82614108565b604082019050919050565b6000602082019050818103600083015261419381614157565b9050919050565b7f4552433732313a207472616e7366657220746f20746865207a65726f2061646460008201527f7265737300000000000000000000000000000000000000000000000000000000602082015250565b60006141f6602483612db2565b91506142018261419a565b604082019050919050565b60006020820190508181036000830152614225816141e9565b9050919050565b600061423782612ca4565b915061424283612ca4565b925082821015614255576142546136e6565b5b828203905092915050565b7f4f776e61626c653a2063616c6c6572206973206e6f7420746865206f776e6572600082015250565b6000614296602083612db2565b91506142a182614260565b602082019050919050565b600060208201905081810360008301526142c581614289565b9050919050565b7f4552433732313a20617070726f766520746f2063616c6c657200000000000000600082015250565b6000614302601983612db2565b915061430d826142cc565b602082019050919050565b60006020820190508181036000830152614331816142f5565b9050919050565b7f4552433732313a207472616e7366657220746f206e6f6e20455243373231526560008201527f63656976657220696d706c656d656e7465720000000000000000000000000000602082015250565b6000614394603283612db2565b915061439f82614338565b604082019050919050565b600060208201905081810360008301526143c381614387565b9050919050565b7f4e487b7100000000000000000000000000000000000000000000000000000000600052601260045260246000fd5b600061440482612ca4565b915061440f83612ca4565b92508261441f5761441e6143ca565b5b828204905092915050565b600061443582612ca4565b915061444083612ca4565b9250826144505761444f6143ca565b5b828206905092915050565b600081519050919050565b600082825260208201905092915050565b60006144828261445b565b61448c8185614466565b935061449c818560208601612dc3565b6144a581612df6565b840191505092915050565b60006080820190506144c56000830187612eed565b6144d26020830186612eed565b6144df6040830185612cae565b81810360608301526144f18184614477565b905095945050505050565b60008151905061450b81612d18565b92915050565b60006020828403121561452757614526612ce2565b5b6000614535848285016144fc565b91505092915050565b7f4e487b7100000000000000000000000000000000000000000000000000000000600052603160045260246000fd5b7f4552433732313a206d696e7420746f20746865207a65726f2061646472657373600082015250565b60006145a3602083612db2565b91506145ae8261456d565b602082019050919050565b600060208201905081810360008301526145d281614596565b9050919050565b7f4552433732313a20746f6b656e20616c7265616479206d696e74656400000000600082015250565b600061460f601c83612db2565b915061461a826145d9565b602082019050919050565b6000602082019050818103600083015261463e81614602565b905091905056fea2646970667358221220f0acd8acff53d76e7172a303440dd97ecf1a04c9c32ab5603a77a970ff2975c564736f6c634300080f0033",
  "immutableReferences": {},
  "source": "// SPDX-License-Identifier: MIT\n\npragma solidity ^0.8.0;\n\nimport \"@openzeppelin/contracts/access/Ownable.sol\";\nimport \"@openzeppelin/contracts/token/ERC721/extensions/ERC721Enumerable.sol\";\n\n/*\n      .\".\".\".\n    (`       `)               _.-=-.\n     '._.--.-;             .-`  -'  '.\n    .-'`.o )  \\           /  .-_.--'  `\\\n   `;---) \\    ;         /  / ;' _-_.-' `\n     `;\"`  ;    \\        ; .  .'   _-' \\\n      (    )    |        |  / .-.-'    -`\n       '-.-'     \\       | .' ` '.-'-\\`\n        /_./\\_.|\\_\\      ;  ' .'-'.-.\n        /         '-._    \\` /  _;-,\n       |         .-=-.;-._ \\  -'-,\n       \\        /      `\";`-`,-\"`)\n        \\       \\     '-- `\\.\\\n         '.      '._ '-- '--'/\n           `-._     `'----'`;\n               `\"\"\"--.____,/\n                      \\\\  \\\n                      // /`\n                  ___// /__\n                (`(`(---\"-`)\n*/\ncontract ZetaSaurio is ERC721Enumerable, Ownable {\n    using Strings for uint256;\n\n    address public manager;\n\n    string public baseURI = \"\";\n\n    uint256 public saleStartTimestamp;\n    uint256 public presaleEndTimestamp;\n    uint256 public presaleStartTimestamp;\n    uint256 public constant maxSupply = 9393;\n    uint256 public constant batchMintLimit = 5;\n    uint256 public constant presaleMintPerAddressLimit = 3;\n    uint256 public constant salePrice = 0.2 ether; // 0.2 BNB\n    uint256 public constant presalePrice = 0.15 ether; // 0.15 BNB\n\n    mapping(address => bool) public hasPresaleAccess;\n    mapping(address => uint256) public mintedPerAddress;\n\n    constructor() ERC721(\"ZetaSaurio\", \"ZS\") {}\n\n    /**\n     * @dev Base URI for computing {tokenURI} in {ERC721} parent contract.\n     */\n    function _baseURI() internal view virtual override returns (string memory) {\n        return baseURI;\n    }\n\n    function setBaseURI(string memory _newBaseURI) public onlyOwner {\n        baseURI = _newBaseURI;\n    }\n\n    function schedulePresale(uint256 _presaleStartTimestamp, uint256 _presaleEndTimestamp   ) public onlyOwner {\n        presaleEndTimestamp = _presaleEndTimestamp;\n        presaleStartTimestamp = _presaleStartTimestamp;\n    }\n\n    function scheduleSale(uint256 _saleStartTimestamp) public onlyOwner {\n        saleStartTimestamp = _saleStartTimestamp;\n    }\n\n    function presaleIsActive() public view returns (bool) {\n        return (presaleStartTimestamp <= block.timestamp) && (block.timestamp < presaleEndTimestamp);\n    }\n\n    function saleIsActive() public view returns (bool) {\n        return saleStartTimestamp != 0 && saleStartTimestamp <= block.timestamp;\n    }\n\n    function price() public view virtual returns (uint256) {\n        return presaleIsActive() ? presalePrice : salePrice;\n    }\n\n    function enoughPresaleMintingsLeft(uint256 _mintAmount) public view returns (bool) {\n        return mintedPerAddress[msg.sender] + _mintAmount < presaleMintPerAddressLimit;\n    }\n\n    function grantPresaleAccess(address[] calldata _users) public onlyOwner {\n        for (uint256 i = 0; i < _users.length; i++) {\n            hasPresaleAccess[_users[i]] = true;\n        }\n    }\n\n    function revokePresaleAccess(address[] calldata _users) public onlyOwner {\n        for (uint256 i = 0; i < _users.length; i++) {\n            hasPresaleAccess[_users[i]] = false;\n        }\n    }\n\n    function withdraw() public payable onlyOwner {\n        (bool sent,) = payable(owner()).call{value: address(this).balance}(\"\");\n        require(sent, \"Failed to send Ether\");\n    }\n\n    /**\n     * Reserve zetas for the team and giveaways.\n     */\n    function reserve(uint256 _amount) public onlyOwner {\n        uint256 supply = totalSupply();\n\n        for (uint256 i = 1; i <= _amount; i++) {\n            _safeMint(msg.sender, supply + i);\n        }\n    }\n\n    function mint(uint256 _mintAmount) public payable {\n        uint256 supply = totalSupply();\n\n        require(saleIsActive() || presaleIsActive(), \"Sale is not active\");\n        require(_mintAmount > 0, \"Must mint at least one NFT\");\n        require(supply + _mintAmount <= maxSupply, \"Supply left is not enough\");\n        require(msg.value >= price() * _mintAmount, \"Not enough funds to purchase\");\n        require(_mintAmount <= batchMintLimit, \"Can't mint these many NFTs at once\");\n\n        if (presaleIsActive()) {\n            require(hasPresaleAccess[msg.sender], \"Presale access denied\");\n            require(enoughPresaleMintingsLeft(_mintAmount), \"Not enough presale mintings left\");\n        }\n\n        for (uint256 i = 1; i <= _mintAmount; i++) {\n            mintedPerAddress[msg.sender]++;\n            _safeMint(msg.sender, supply + i);\n        }\n    }\n}\n",
  "sourcePath": "/home/jose92/Personal/ZetaSaurio/zetasaurio/contracts/ZetaSaurio.sol",
  "compiler": {
    "name": "solc",
    "version": "0.8.15+commit.e14f2714.Emscripten.clang"
  },
  "schemaVersion": "3.4.8",
  "updatedAt": "2022-07-24T05:10:02.607Z",
  "devdoc": {
    "kind": "dev",
    "methods": {
      "approve(address,uint256)": {
        "details": "See {IERC721-approve}."
      },
      "balanceOf(address)": {
        "details": "See {IERC721-balanceOf}."
      },
      "getApproved(uint256)": {
        "details": "See {IERC721-getApproved}."
      },
      "isApprovedForAll(address,address)": {
        "details": "See {IERC721-isApprovedForAll}."
      },
      "name()": {
        "details": "See {IERC721Metadata-name}."
      },
      "owner()": {
        "details": "Returns the address of the current owner."
      },
      "ownerOf(uint256)": {
        "details": "See {IERC721-ownerOf}."
      },
      "renounceOwnership()": {
        "details": "Leaves the contract without owner. It will not be possible to call `onlyOwner` functions anymore. Can only be called by the current owner. NOTE: Renouncing ownership will leave the contract without an owner, thereby removing any functionality that is only available to the owner."
      },
      "safeTransferFrom(address,address,uint256)": {
        "details": "See {IERC721-safeTransferFrom}."
      },
      "safeTransferFrom(address,address,uint256,bytes)": {
        "details": "See {IERC721-safeTransferFrom}."
      },
      "setApprovalForAll(address,bool)": {
        "details": "See {IERC721-setApprovalForAll}."
      },
      "supportsInterface(bytes4)": {
        "details": "See {IERC165-supportsInterface}."
      },
      "symbol()": {
        "details": "See {IERC721Metadata-symbol}."
      },
      "tokenByIndex(uint256)": {
        "details": "See {IERC721Enumerable-tokenByIndex}."
      },
      "tokenOfOwnerByIndex(address,uint256)": {
        "details": "See {IERC721Enumerable-tokenOfOwnerByIndex}."
      },
      "tokenURI(uint256)": {
        "details": "See {IERC721Metadata-tokenURI}."
      },
      "totalSupply()": {
        "details": "See {IERC721Enumerable-totalSupply}."
      },
      "transferFrom(address,address,uint256)": {
        "details": "See {IERC721-transferFrom}."
      },
      "transferOwnership(address)": {
        "details": "Transfers ownership of the contract to a new account (`newOwner`). Can only be called by the current owner."
      }
    },
    "version": 1
  },
  "userdoc": {
    "kind": "user",
    "methods": {
      "reserve(uint256)": {
        "notice": "Reserve zetas for the team and giveaways."
      }
    },
    "version": 1
  }
}