{
  "contractName": "ZetaSaurio",
  "abi": [
    {
      "inputs": [],
      "stateMutability": "nonpayable",
      "type": "constructor"
    },
    {
      "anonymous": false,
      "inputs": [
        {
          "indexed": true,
          "internalType": "address",
          "name": "owner",
          "type": "address"
        },
        {
          "indexed": true,
          "internalType": "address",
          "name": "approved",
          "type": "address"
        },
        {
          "indexed": true,
          "internalType": "uint256",
          "name": "tokenId",
          "type": "uint256"
        }
      ],
      "name": "Approval",
      "type": "event"
    },
    {
      "anonymous": false,
      "inputs": [
        {
          "indexed": true,
          "internalType": "address",
          "name": "owner",
          "type": "address"
        },
        {
          "indexed": true,
          "internalType": "address",
          "name": "operator",
          "type": "address"
        },
        {
          "indexed": false,
          "internalType": "bool",
          "name": "approved",
          "type": "bool"
        }
      ],
      "name": "ApprovalForAll",
      "type": "event"
    },
    {
      "anonymous": false,
      "inputs": [
        {
          "indexed": true,
          "internalType": "address",
          "name": "previousOwner",
          "type": "address"
        },
        {
          "indexed": true,
          "internalType": "address",
          "name": "newOwner",
          "type": "address"
        }
      ],
      "name": "OwnershipTransferred",
      "type": "event"
    },
    {
      "anonymous": false,
      "inputs": [
        {
          "indexed": true,
          "internalType": "address",
          "name": "from",
          "type": "address"
        },
        {
          "indexed": true,
          "internalType": "address",
          "name": "to",
          "type": "address"
        },
        {
          "indexed": true,
          "internalType": "uint256",
          "name": "tokenId",
          "type": "uint256"
        }
      ],
      "name": "Transfer",
      "type": "event"
    },
    {
      "inputs": [
        {
          "internalType": "address",
          "name": "to",
          "type": "address"
        },
        {
          "internalType": "uint256",
          "name": "tokenId",
          "type": "uint256"
        }
      ],
      "name": "approve",
      "outputs": [],
      "stateMutability": "nonpayable",
      "type": "function"
    },
    {
      "inputs": [
        {
          "internalType": "address",
          "name": "owner",
          "type": "address"
        }
      ],
      "name": "balanceOf",
      "outputs": [
        {
          "internalType": "uint256",
          "name": "",
          "type": "uint256"
        }
      ],
      "stateMutability": "view",
      "type": "function"
    },
    {
      "inputs": [],
      "name": "baseURI",
      "outputs": [
        {
          "internalType": "string",
          "name": "",
          "type": "string"
        }
      ],
      "stateMutability": "view",
      "type": "function"
    },
    {
      "inputs": [],
      "name": "batchMintLimit",
      "outputs": [
        {
          "internalType": "uint256",
          "name": "",
          "type": "uint256"
        }
      ],
      "stateMutability": "view",
      "type": "function"
    },
    {
      "inputs": [
        {
          "internalType": "uint256",
          "name": "tokenId",
          "type": "uint256"
        }
      ],
      "name": "getApproved",
      "outputs": [
        {
          "internalType": "address",
          "name": "",
          "type": "address"
        }
      ],
      "stateMutability": "view",
      "type": "function"
    },
    {
      "inputs": [
        {
          "internalType": "address",
          "name": "",
          "type": "address"
        }
      ],
      "name": "hasPresaleAccess",
      "outputs": [
        {
          "internalType": "bool",
          "name": "",
          "type": "bool"
        }
      ],
      "stateMutability": "view",
      "type": "function"
    },
    {
      "inputs": [
        {
          "internalType": "address",
          "name": "owner",
          "type": "address"
        },
        {
          "internalType": "address",
          "name": "operator",
          "type": "address"
        }
      ],
      "name": "isApprovedForAll",
      "outputs": [
        {
          "internalType": "bool",
          "name": "",
          "type": "bool"
        }
      ],
      "stateMutability": "view",
      "type": "function"
    },
    {
      "inputs": [],
      "name": "manager",
      "outputs": [
        {
          "internalType": "address",
          "name": "",
          "type": "address"
        }
      ],
      "stateMutability": "view",
      "type": "function"
    },
    {
      "inputs": [],
      "name": "maxSupply",
      "outputs": [
        {
          "internalType": "uint256",
          "name": "",
          "type": "uint256"
        }
      ],
      "stateMutability": "view",
      "type": "function"
    },
    {
      "inputs": [
        {
          "internalType": "address",
          "name": "",
          "type": "address"
        }
      ],
      "name": "mintedPerAddress",
      "outputs": [
        {
          "internalType": "uint256",
          "name": "",
          "type": "uint256"
        }
      ],
      "stateMutability": "view",
      "type": "function"
    },
    {
      "inputs": [],
      "name": "name",
      "outputs": [
        {
          "internalType": "string",
          "name": "",
          "type": "string"
        }
      ],
      "stateMutability": "view",
      "type": "function"
    },
    {
      "inputs": [],
      "name": "owner",
      "outputs": [
        {
          "internalType": "address",
          "name": "",
          "type": "address"
        }
      ],
      "stateMutability": "view",
      "type": "function"
    },
    {
      "inputs": [
        {
          "internalType": "uint256",
          "name": "tokenId",
          "type": "uint256"
        }
      ],
      "name": "ownerOf",
      "outputs": [
        {
          "internalType": "address",
          "name": "",
          "type": "address"
        }
      ],
      "stateMutability": "view",
      "type": "function"
    },
    {
      "inputs": [],
      "name": "presaleDuration",
      "outputs": [
        {
          "internalType": "uint256",
          "name": "",
          "type": "uint256"
        }
      ],
      "stateMutability": "view",
      "type": "function"
    },
    {
      "inputs": [],
      "name": "presaleMintPerAddressLimit",
      "outputs": [
        {
          "internalType": "uint256",
          "name": "",
          "type": "uint256"
        }
      ],
      "stateMutability": "view",
      "type": "function"
    },
    {
      "inputs": [],
      "name": "presalePrice",
      "outputs": [
        {
          "internalType": "uint256",
          "name": "",
          "type": "uint256"
        }
      ],
      "stateMutability": "view",
      "type": "function"
    },
    {
      "inputs": [],
      "name": "presaleStartTimestamp",
      "outputs": [
        {
          "internalType": "uint256",
          "name": "",
          "type": "uint256"
        }
      ],
      "stateMutability": "view",
      "type": "function"
    },
    {
      "inputs": [],
      "name": "renounceOwnership",
      "outputs": [],
      "stateMutability": "nonpayable",
      "type": "function"
    },
    {
      "inputs": [
        {
          "internalType": "address",
          "name": "from",
          "type": "address"
        },
        {
          "internalType": "address",
          "name": "to",
          "type": "address"
        },
        {
          "internalType": "uint256",
          "name": "tokenId",
          "type": "uint256"
        }
      ],
      "name": "safeTransferFrom",
      "outputs": [],
      "stateMutability": "nonpayable",
      "type": "function"
    },
    {
      "inputs": [
        {
          "internalType": "address",
          "name": "from",
          "type": "address"
        },
        {
          "internalType": "address",
          "name": "to",
          "type": "address"
        },
        {
          "internalType": "uint256",
          "name": "tokenId",
          "type": "uint256"
        },
        {
          "internalType": "bytes",
          "name": "data",
          "type": "bytes"
        }
      ],
      "name": "safeTransferFrom",
      "outputs": [],
      "stateMutability": "nonpayable",
      "type": "function"
    },
    {
      "inputs": [],
      "name": "salePrice",
      "outputs": [
        {
          "internalType": "uint256",
          "name": "",
          "type": "uint256"
        }
      ],
      "stateMutability": "view",
      "type": "function"
    },
    {
      "inputs": [],
      "name": "saleStartTimestamp",
      "outputs": [
        {
          "internalType": "uint256",
          "name": "",
          "type": "uint256"
        }
      ],
      "stateMutability": "view",
      "type": "function"
    },
    {
      "inputs": [
        {
          "internalType": "address",
          "name": "operator",
          "type": "address"
        },
        {
          "internalType": "bool",
          "name": "approved",
          "type": "bool"
        }
      ],
      "name": "setApprovalForAll",
      "outputs": [],
      "stateMutability": "nonpayable",
      "type": "function"
    },
    {
      "inputs": [
        {
          "internalType": "bytes4",
          "name": "interfaceId",
          "type": "bytes4"
        }
      ],
      "name": "supportsInterface",
      "outputs": [
        {
          "internalType": "bool",
          "name": "",
          "type": "bool"
        }
      ],
      "stateMutability": "view",
      "type": "function"
    },
    {
      "inputs": [],
      "name": "symbol",
      "outputs": [
        {
          "internalType": "string",
          "name": "",
          "type": "string"
        }
      ],
      "stateMutability": "view",
      "type": "function"
    },
    {
      "inputs": [
        {
          "internalType": "uint256",
          "name": "index",
          "type": "uint256"
        }
      ],
      "name": "tokenByIndex",
      "outputs": [
        {
          "internalType": "uint256",
          "name": "",
          "type": "uint256"
        }
      ],
      "stateMutability": "view",
      "type": "function"
    },
    {
      "inputs": [
        {
          "internalType": "address",
          "name": "owner",
          "type": "address"
        },
        {
          "internalType": "uint256",
          "name": "index",
          "type": "uint256"
        }
      ],
      "name": "tokenOfOwnerByIndex",
      "outputs": [
        {
          "internalType": "uint256",
          "name": "",
          "type": "uint256"
        }
      ],
      "stateMutability": "view",
      "type": "function"
    },
    {
      "inputs": [
        {
          "internalType": "uint256",
          "name": "tokenId",
          "type": "uint256"
        }
      ],
      "name": "tokenURI",
      "outputs": [
        {
          "internalType": "string",
          "name": "",
          "type": "string"
        }
      ],
      "stateMutability": "view",
      "type": "function"
    },
    {
      "inputs": [],
      "name": "totalSupply",
      "outputs": [
        {
          "internalType": "uint256",
          "name": "",
          "type": "uint256"
        }
      ],
      "stateMutability": "view",
      "type": "function"
    },
    {
      "inputs": [
        {
          "internalType": "address",
          "name": "from",
          "type": "address"
        },
        {
          "internalType": "address",
          "name": "to",
          "type": "address"
        },
        {
          "internalType": "uint256",
          "name": "tokenId",
          "type": "uint256"
        }
      ],
      "name": "transferFrom",
      "outputs": [],
      "stateMutability": "nonpayable",
      "type": "function"
    },
    {
      "inputs": [
        {
          "internalType": "address",
          "name": "newOwner",
          "type": "address"
        }
      ],
      "name": "transferOwnership",
      "outputs": [],
      "stateMutability": "nonpayable",
      "type": "function"
    },
    {
      "inputs": [
        {
          "internalType": "string",
          "name": "_newBaseURI",
          "type": "string"
        }
      ],
      "name": "setBaseURI",
      "outputs": [],
      "stateMutability": "nonpayable",
      "type": "function"
    },
    {
      "inputs": [
        {
          "internalType": "uint256",
          "name": "_presaleStartTimestamp",
          "type": "uint256"
        }
      ],
      "name": "schedulePresale",
      "outputs": [],
      "stateMutability": "nonpayable",
      "type": "function"
    },
    {
      "inputs": [
        {
          "internalType": "uint256",
          "name": "_saleStartTimestamp",
          "type": "uint256"
        }
      ],
      "name": "scheduleSale",
      "outputs": [],
      "stateMutability": "nonpayable",
      "type": "function"
    },
    {
      "inputs": [],
      "name": "presaleIsActive",
      "outputs": [
        {
          "internalType": "bool",
          "name": "",
          "type": "bool"
        }
      ],
      "stateMutability": "view",
      "type": "function"
    },
    {
      "inputs": [],
      "name": "saleIsActive",
      "outputs": [
        {
          "internalType": "bool",
          "name": "",
          "type": "bool"
        }
      ],
      "stateMutability": "view",
      "type": "function"
    },
    {
      "inputs": [],
      "name": "price",
      "outputs": [
        {
          "internalType": "uint256",
          "name": "",
          "type": "uint256"
        }
      ],
      "stateMutability": "view",
      "type": "function"
    },
    {
      "inputs": [
        {
          "internalType": "uint256",
          "name": "_mintAmount",
          "type": "uint256"
        }
      ],
      "name": "enoughPresaleMintingsLeft",
      "outputs": [
        {
          "internalType": "bool",
          "name": "",
          "type": "bool"
        }
      ],
      "stateMutability": "view",
      "type": "function"
    },
    {
      "inputs": [
        {
          "internalType": "address[]",
          "name": "_users",
          "type": "address[]"
        }
      ],
      "name": "grantPresaleAccess",
      "outputs": [],
      "stateMutability": "nonpayable",
      "type": "function"
    },
    {
      "inputs": [
        {
          "internalType": "address[]",
          "name": "_users",
          "type": "address[]"
        }
      ],
      "name": "revokePresaleAccess",
      "outputs": [],
      "stateMutability": "nonpayable",
      "type": "function"
    },
    {
      "inputs": [],
      "name": "withdraw",
      "outputs": [],
      "stateMutability": "payable",
      "type": "function"
    },
    {
      "inputs": [
        {
          "internalType": "uint256",
          "name": "_amount",
          "type": "uint256"
        }
      ],
      "name": "reserve",
      "outputs": [],
      "stateMutability": "nonpayable",
      "type": "function"
    },
    {
      "inputs": [
        {
          "internalType": "uint256",
          "name": "_mintAmount",
          "type": "uint256"
        }
      ],
      "name": "mint",
      "outputs": [],
      "stateMutability": "payable",
      "type": "function"
    }
  ],
  "bytecode": "0x608060405260405180602001604052806000815250600c908162000024919062000433565b503480156200003257600080fd5b506040518060400160405280600a81526020017f5a65746153617572696f000000000000000000000000000000000000000000008152506040518060400160405280600281526020017f5a530000000000000000000000000000000000000000000000000000000000008152508160009081620000b0919062000433565b508060019081620000c2919062000433565b505050620000e5620000d9620000eb60201b60201c565b620000f360201b60201c565b6200051a565b600033905090565b6000600a60009054906101000a900473ffffffffffffffffffffffffffffffffffffffff16905081600a60006101000a81548173ffffffffffffffffffffffffffffffffffffffff021916908373ffffffffffffffffffffffffffffffffffffffff1602179055508173ffffffffffffffffffffffffffffffffffffffff168173ffffffffffffffffffffffffffffffffffffffff167f8be0079c531659141344cd1fd0a4f28419497f9722a3daafe3b4186f6b6457e060405160405180910390a35050565b600081519050919050565b7f4e487b7100000000000000000000000000000000000000000000000000000000600052604160045260246000fd5b7f4e487b7100000000000000000000000000000000000000000000000000000000600052602260045260246000fd5b600060028204905060018216806200023b57607f821691505b602082108103620002515762000250620001f3565b5b50919050565b60008190508160005260206000209050919050565b60006020601f8301049050919050565b600082821b905092915050565b600060088302620002bb7fffffffffffffffffffffffffffffffffffffffffffffffffffffffffffffffff826200027c565b620002c786836200027c565b95508019841693508086168417925050509392505050565b6000819050919050565b6000819050919050565b6000620003146200030e6200030884620002df565b620002e9565b620002df565b9050919050565b6000819050919050565b6200033083620002f3565b620003486200033f826200031b565b84845462000289565b825550505050565b600090565b6200035f62000350565b6200036c81848462000325565b505050565b5b8181101562000394576200038860008262000355565b60018101905062000372565b5050565b601f821115620003e357620003ad8162000257565b620003b8846200026c565b81016020851015620003c8578190505b620003e0620003d7856200026c565b83018262000371565b50505b505050565b600082821c905092915050565b60006200040860001984600802620003e8565b1980831691505092915050565b6000620004238383620003f5565b9150826002028217905092915050565b6200043e82620001b9565b67ffffffffffffffff8111156200045a5762000459620001c4565b5b62000466825462000222565b6200047382828562000398565b600060209050601f831160018114620004ab576000841562000496578287015190505b620004a2858262000415565b86555062000512565b601f198416620004bb8662000257565b60005b82811015620004e557848901518255600182019150602085019450602081019050620004be565b8683101562000505578489015162000501601f891682620003f5565b8355505b6001600288020188555050505b505050505050565b61451a806200052a6000396000f3fe60806040526004361061025b5760003560e01c80636352211e11610144578063a22cb465116100b6578063d445b9781161007a578063d445b978146108df578063d5abeb011461091c578063e985e9c514610947578063eb8d244414610984578063f2fde38b146109af578063f51f96dd146109d85761025b565b8063a22cb465146107fc578063b88d4fde14610825578063c383e6c61461084e578063c6bd6bc814610877578063c87b56dd146108a25761025b565b8063819b25ba11610108578063819b25ba1461070d5780638da5cb5b1461073657806395d89b4114610761578063985e89fe1461078c578063a035b1fe146107b5578063a0712d68146107e05761025b565b80636352211e146106285780636c0360eb1461066557806370a0823114610690578063715018a6146106cd5780637c920e47146106e45761025b565b806330f72cd4116101dd578063481c6a75116101a1578063481c6a75146105185780634ea37fec146105435780634f6ccce71461056e5780635299aef9146105ab57806355f804b3146105d45780635868c32a146105fd5761025b565b806330f72cd41461045257806334f30ad81461047d5780633c276d86146104ba5780633ccfd60b146104e557806342842e0e146104ef5761025b565b80630f209186116102245780630f2091861461035957806318160ddd1461039657806323b872dd146103c157806325efe85c146103ea5780632f745c59146104155761025b565b80620e7fa81461026057806301ffc9a71461028b57806306fdde03146102c8578063081812fc146102f3578063095ea7b314610330575b600080fd5b34801561026c57600080fd5b50610275610a03565b6040516102829190612c4e565b60405180910390f35b34801561029757600080fd5b506102b260048036038101906102ad9190612cd5565b610a0f565b6040516102bf9190612d1d565b60405180910390f35b3480156102d457600080fd5b506102dd610a89565b6040516102ea9190612dd1565b60405180910390f35b3480156102ff57600080fd5b5061031a60048036038101906103159190612e1f565b610b1b565b6040516103279190612e8d565b60405180910390f35b34801561033c57600080fd5b5061035760048036038101906103529190612ed4565b610b61565b005b34801561036557600080fd5b50610380600480360381019061037b9190612f14565b610c78565b60405161038d9190612d1d565b60405180910390f35b3480156103a257600080fd5b506103ab610c98565b6040516103b89190612c4e565b60405180910390f35b3480156103cd57600080fd5b506103e860048036038101906103e39190612f41565b610ca5565b005b3480156103f657600080fd5b506103ff610d05565b60405161040c9190612c4e565b60405180910390f35b34801561042157600080fd5b5061043c60048036038101906104379190612ed4565b610d0a565b6040516104499190612c4e565b60405180910390f35b34801561045e57600080fd5b50610467610daf565b6040516104749190612d1d565b60405180910390f35b34801561048957600080fd5b506104a4600480360381019061049f9190612e1f565b610dd7565b6040516104b19190612d1d565b60405180910390f35b3480156104c657600080fd5b506104cf610e2e565b6040516104dc9190612c4e565b60405180910390f35b6104ed610e34565b005b3480156104fb57600080fd5b5061051660048036038101906105119190612f41565b610e7c565b005b34801561052457600080fd5b5061052d610e9c565b60405161053a9190612e8d565b60405180910390f35b34801561054f57600080fd5b50610558610ec2565b6040516105659190612c4e565b60405180910390f35b34801561057a57600080fd5b5061059560048036038101906105909190612e1f565b610ec8565b6040516105a29190612c4e565b60405180910390f35b3480156105b757600080fd5b506105d260048036038101906105cd9190612e1f565b610f39565b005b3480156105e057600080fd5b506105fb60048036038101906105f691906130c9565b610f4b565b005b34801561060957600080fd5b50610612610f66565b60405161061f9190612c4e565b60405180910390f35b34801561063457600080fd5b5061064f600480360381019061064a9190612e1f565b610f6d565b60405161065c9190612e8d565b60405180910390f35b34801561067157600080fd5b5061067a61101e565b6040516106879190612dd1565b60405180910390f35b34801561069c57600080fd5b506106b760048036038101906106b29190612f14565b6110ac565b6040516106c49190612c4e565b60405180910390f35b3480156106d957600080fd5b506106e2611163565b005b3480156106f057600080fd5b5061070b60048036038101906107069190613172565b611177565b005b34801561071957600080fd5b50610734600480360381019061072f9190612e1f565b611224565b005b34801561074257600080fd5b5061074b611273565b6040516107589190612e8d565b60405180910390f35b34801561076d57600080fd5b5061077661129d565b6040516107839190612dd1565b60405180910390f35b34801561079857600080fd5b506107b360048036038101906107ae9190613172565b61132f565b005b3480156107c157600080fd5b506107ca6113dc565b6040516107d79190612c4e565b60405180910390f35b6107fa60048036038101906107f59190612e1f565b611407565b005b34801561080857600080fd5b50610823600480360381019061081e91906131eb565b611707565b005b34801561083157600080fd5b5061084c600480360381019061084791906132cc565b61171d565b005b34801561085a57600080fd5b5061087560048036038101906108709190612e1f565b61177f565b005b34801561088357600080fd5b5061088c611791565b6040516108999190612c4e565b60405180910390f35b3480156108ae57600080fd5b506108c960048036038101906108c49190612e1f565b611796565b6040516108d69190612dd1565b60405180910390f35b3480156108eb57600080fd5b5061090660048036038101906109019190612f14565b6117fe565b6040516109139190612c4e565b60405180910390f35b34801561092857600080fd5b50610931611816565b60405161093e9190612c4e565b60405180910390f35b34801561095357600080fd5b5061096e6004803603810190610969919061334f565b61181c565b60405161097b9190612d1d565b60405180910390f35b34801561099057600080fd5b506109996118b0565b6040516109a69190612d1d565b60405180910390f35b3480156109bb57600080fd5b506109d660048036038101906109d19190612f14565b6118cb565b005b3480156109e457600080fd5b506109ed61194e565b6040516109fa9190612c4e565b60405180910390f35b670214e8348c4f000081565b60007f780e9d63000000000000000000000000000000000000000000000000000000007bffffffffffffffffffffffffffffffffffffffffffffffffffffffff1916827bffffffffffffffffffffffffffffffffffffffffffffffffffffffff19161480610a825750610a818261195a565b5b9050919050565b606060008054610a98906133be565b80601f0160208091040260200160405190810160405280929190818152602001828054610ac4906133be565b8015610b115780601f10610ae657610100808354040283529160200191610b11565b820191906000526020600020905b815481529060010190602001808311610af457829003601f168201915b5050505050905090565b6000610b2682611a3c565b6004600083815260200190815260200160002060009054906101000a900473ffffffffffffffffffffffffffffffffffffffff169050919050565b6000610b6c82610f6d565b90508073ffffffffffffffffffffffffffffffffffffffff168373ffffffffffffffffffffffffffffffffffffffff1603610bdc576040517f08c379a0000000000000000000000000000000000000000000000000000000008152600401610bd390613461565b60405180910390fd5b8073ffffffffffffffffffffffffffffffffffffffff16610bfb611a87565b73ffffffffffffffffffffffffffffffffffffffff161480610c2a5750610c2981610c24611a87565b61181c565b5b610c69576040517f08c379a0000000000000000000000000000000000000000000000000000000008152600401610c60906134f3565b60405180910390fd5b610c738383611a8f565b505050565b600f6020528060005260406000206000915054906101000a900460ff1681565b6000600880549050905090565b610cb6610cb0611a87565b82611b48565b610cf5576040517f08c379a0000000000000000000000000000000000000000000000000000000008152600401610cec90613585565b60405180910390fd5b610d00838383611bdd565b505050565b600381565b6000610d15836110ac565b8210610d56576040517f08c379a0000000000000000000000000000000000000000000000000000000008152600401610d4d90613617565b60405180910390fd5b600660008473ffffffffffffffffffffffffffffffffffffffff1673ffffffffffffffffffffffffffffffffffffffff168152602001908152602001600020600083815260200190815260200160002054905092915050565b600042600e5410158015610dd257506203f480600e54610dcf9190613666565b42105b905090565b6000600382601060003373ffffffffffffffffffffffffffffffffffffffff1673ffffffffffffffffffffffffffffffffffffffff16815260200190815260200160002054610e269190613666565b109050919050565b600d5481565b610e3c611e43565b3373ffffffffffffffffffffffffffffffffffffffff166108fc479081150290604051600060405180830381858888f19350505050610e7a57600080fd5b565b610e978383836040518060200160405280600081525061171d565b505050565b600b60009054906101000a900473ffffffffffffffffffffffffffffffffffffffff1681565b600e5481565b6000610ed2610c98565b8210610f13576040517f08c379a0000000000000000000000000000000000000000000000000000000008152600401610f0a9061372e565b60405180910390fd5b60088281548110610f2757610f2661374e565b5b90600052602060002001549050919050565b610f41611e43565b80600e8190555050565b610f53611e43565b80600c9081610f629190613929565b5050565b6203f48081565b6000806002600084815260200190815260200160002060009054906101000a900473ffffffffffffffffffffffffffffffffffffffff169050600073ffffffffffffffffffffffffffffffffffffffff168173ffffffffffffffffffffffffffffffffffffffff1603611015576040517f08c379a000000000000000000000000000000000000000000000000000000000815260040161100c90613a47565b60405180910390fd5b80915050919050565b600c805461102b906133be565b80601f0160208091040260200160405190810160405280929190818152602001828054611057906133be565b80156110a45780601f10611079576101008083540402835291602001916110a4565b820191906000526020600020905b81548152906001019060200180831161108757829003601f168201915b505050505081565b60008073ffffffffffffffffffffffffffffffffffffffff168273ffffffffffffffffffffffffffffffffffffffff160361111c576040517f08c379a000000000000000000000000000000000000000000000000000000000815260040161111390613ad9565b60405180910390fd5b600360008373ffffffffffffffffffffffffffffffffffffffff1673ffffffffffffffffffffffffffffffffffffffff168152602001908152602001600020549050919050565b61116b611e43565b6111756000611ec1565b565b61117f611e43565b60005b8282905081101561121f576001600f60008585858181106111a6576111a561374e565b5b90506020020160208101906111bb9190612f14565b73ffffffffffffffffffffffffffffffffffffffff1673ffffffffffffffffffffffffffffffffffffffff16815260200190815260200160002060006101000a81548160ff021916908315150217905550808061121790613af9565b915050611182565b505050565b61122c611e43565b6000611236610c98565b90506000600190505b82811161126e5761125b3382846112569190613666565b611f87565b808061126690613af9565b91505061123f565b505050565b6000600a60009054906101000a900473ffffffffffffffffffffffffffffffffffffffff16905090565b6060600180546112ac906133be565b80601f01602080910402602001604051908101604052809291908181526020018280546112d8906133be565b80156113255780601f106112fa57610100808354040283529160200191611325565b820191906000526020600020905b81548152906001019060200180831161130857829003601f168201915b5050505050905090565b611337611e43565b60005b828290508110156113d7576000600f600085858581811061135e5761135d61374e565b5b90506020020160208101906113739190612f14565b73ffffffffffffffffffffffffffffffffffffffff1673ffffffffffffffffffffffffffffffffffffffff16815260200190815260200160002060006101000a81548160ff02191690831515021790555080806113cf90613af9565b91505061133a565b505050565b60006113e6610daf565b6113f8576702c68af0bb140000611402565b670214e8348c4f00005b905090565b6000611411610c98565b905060008211611456576040517f08c379a000000000000000000000000000000000000000000000000000000000815260040161144d90613b8d565b60405180910390fd5b61145e6118b0565b8061146d575061146c610daf565b5b6114ac576040517f08c379a00000000000000000000000000000000000000000000000000000000081526004016114a390613bf9565b60405180910390fd5b6124b182826114bb9190613666565b11156114fc576040517f08c379a00000000000000000000000000000000000000000000000000000000081526004016114f390613c65565b60405180910390fd5b816115056113dc565b61150f9190613c85565b341015611551576040517f08c379a000000000000000000000000000000000000000000000000000000000815260040161154890613d2b565b60405180910390fd5b6005821115611595576040517f08c379a000000000000000000000000000000000000000000000000000000000815260040161158c90613dbd565b60405180910390fd5b61159d610daf565b1561167757600f60003373ffffffffffffffffffffffffffffffffffffffff1673ffffffffffffffffffffffffffffffffffffffff16815260200190815260200160002060009054906101000a900460ff1661162e576040517f08c379a000000000000000000000000000000000000000000000000000000000815260040161162590613e29565b60405180910390fd5b61163782610dd7565b611676576040517f08c379a000000000000000000000000000000000000000000000000000000000815260040161166d90613e95565b60405180910390fd5b5b6000600190505b82811161170257601060003373ffffffffffffffffffffffffffffffffffffffff1673ffffffffffffffffffffffffffffffffffffffff16815260200190815260200160002060008154809291906116d590613af9565b91905055506116ef3382846116ea9190613666565b611f87565b80806116fa90613af9565b91505061167e565b505050565b611719611712611a87565b8383611fa5565b5050565b61172e611728611a87565b83611b48565b61176d576040517f08c379a000000000000000000000000000000000000000000000000000000000815260040161176490613585565b60405180910390fd5b61177984848484612111565b50505050565b611787611e43565b80600d8190555050565b600581565b60606117a182611a3c565b60006117ab61216d565b905060008151116117cb57604051806020016040528060008152506117f6565b806117d5846121ff565b6040516020016117e6929190613ef1565b6040516020818303038152906040525b915050919050565b60106020528060005260406000206000915090505481565b6124b181565b6000600560008473ffffffffffffffffffffffffffffffffffffffff1673ffffffffffffffffffffffffffffffffffffffff16815260200190815260200160002060008373ffffffffffffffffffffffffffffffffffffffff1673ffffffffffffffffffffffffffffffffffffffff16815260200190815260200160002060009054906101000a900460ff16905092915050565b600080600d54141580156118c6575042600d5411155b905090565b6118d3611e43565b600073ffffffffffffffffffffffffffffffffffffffff168173ffffffffffffffffffffffffffffffffffffffff1603611942576040517f08c379a000000000000000000000000000000000000000000000000000000000815260040161193990613f87565b60405180910390fd5b61194b81611ec1565b50565b6702c68af0bb14000081565b60007f80ac58cd000000000000000000000000000000000000000000000000000000007bffffffffffffffffffffffffffffffffffffffffffffffffffffffff1916827bffffffffffffffffffffffffffffffffffffffffffffffffffffffff19161480611a2557507f5b5e139f000000000000000000000000000000000000000000000000000000007bffffffffffffffffffffffffffffffffffffffffffffffffffffffff1916827bffffffffffffffffffffffffffffffffffffffffffffffffffffffff1916145b80611a355750611a348261235f565b5b9050919050565b611a45816123c9565b611a84576040517f08c379a0000000000000000000000000000000000000000000000000000000008152600401611a7b90613a47565b60405180910390fd5b50565b600033905090565b816004600083815260200190815260200160002060006101000a81548173ffffffffffffffffffffffffffffffffffffffff021916908373ffffffffffffffffffffffffffffffffffffffff160217905550808273ffffffffffffffffffffffffffffffffffffffff16611b0283610f6d565b73ffffffffffffffffffffffffffffffffffffffff167f8c5be1e5ebec7d5bd14f71427d1e84f3dd0314c0f7b2291e5b200ac8c7c3b92560405160405180910390a45050565b600080611b5483610f6d565b90508073ffffffffffffffffffffffffffffffffffffffff168473ffffffffffffffffffffffffffffffffffffffff161480611b965750611b95818561181c565b5b80611bd457508373ffffffffffffffffffffffffffffffffffffffff16611bbc84610b1b565b73ffffffffffffffffffffffffffffffffffffffff16145b91505092915050565b8273ffffffffffffffffffffffffffffffffffffffff16611bfd82610f6d565b73ffffffffffffffffffffffffffffffffffffffff1614611c53576040517f08c379a0000000000000000000000000000000000000000000000000000000008152600401611c4a90614019565b60405180910390fd5b600073ffffffffffffffffffffffffffffffffffffffff168273ffffffffffffffffffffffffffffffffffffffff1603611cc2576040517f08c379a0000000000000000000000000000000000000000000000000000000008152600401611cb9906140ab565b60405180910390fd5b611ccd838383612435565b611cd8600082611a8f565b6001600360008573ffffffffffffffffffffffffffffffffffffffff1673ffffffffffffffffffffffffffffffffffffffff1681526020019081526020016000206000828254611d2891906140cb565b925050819055506001600360008473ffffffffffffffffffffffffffffffffffffffff1673ffffffffffffffffffffffffffffffffffffffff1681526020019081526020016000206000828254611d7f9190613666565b92505081905550816002600083815260200190815260200160002060006101000a81548173ffffffffffffffffffffffffffffffffffffffff021916908373ffffffffffffffffffffffffffffffffffffffff160217905550808273ffffffffffffffffffffffffffffffffffffffff168473ffffffffffffffffffffffffffffffffffffffff167fddf252ad1be2c89b69c2b068fc378daa952ba7f163c4a11628f55a4df523b3ef60405160405180910390a4611e3e838383612547565b505050565b611e4b611a87565b73ffffffffffffffffffffffffffffffffffffffff16611e69611273565b73ffffffffffffffffffffffffffffffffffffffff1614611ebf576040517f08c379a0000000000000000000000000000000000000000000000000000000008152600401611eb69061414b565b60405180910390fd5b565b6000600a60009054906101000a900473ffffffffffffffffffffffffffffffffffffffff16905081600a60006101000a81548173ffffffffffffffffffffffffffffffffffffffff021916908373ffffffffffffffffffffffffffffffffffffffff1602179055508173ffffffffffffffffffffffffffffffffffffffff168173ffffffffffffffffffffffffffffffffffffffff167f8be0079c531659141344cd1fd0a4f28419497f9722a3daafe3b4186f6b6457e060405160405180910390a35050565b611fa182826040518060200160405280600081525061254c565b5050565b8173ffffffffffffffffffffffffffffffffffffffff168373ffffffffffffffffffffffffffffffffffffffff1603612013576040517f08c379a000000000000000000000000000000000000000000000000000000000815260040161200a906141b7565b60405180910390fd5b80600560008573ffffffffffffffffffffffffffffffffffffffff1673ffffffffffffffffffffffffffffffffffffffff16815260200190815260200160002060008473ffffffffffffffffffffffffffffffffffffffff1673ffffffffffffffffffffffffffffffffffffffff16815260200190815260200160002060006101000a81548160ff0219169083151502179055508173ffffffffffffffffffffffffffffffffffffffff168373ffffffffffffffffffffffffffffffffffffffff167f17307eab39ab6107e8899845ad3d59bd9653f200f220920489ca2b5937696c31836040516121049190612d1d565b60405180910390a3505050565b61211c848484611bdd565b612128848484846125a7565b612167576040517f08c379a000000000000000000000000000000000000000000000000000000000815260040161215e90614249565b60405180910390fd5b50505050565b6060600c805461217c906133be565b80601f01602080910402602001604051908101604052809291908181526020018280546121a8906133be565b80156121f55780601f106121ca576101008083540402835291602001916121f5565b820191906000526020600020905b8154815290600101906020018083116121d857829003601f168201915b5050505050905090565b606060008203612246576040518060400160405280600181526020017f3000000000000000000000000000000000000000000000000000000000000000815250905061235a565b600082905060005b6000821461227857808061226190613af9565b915050600a826122719190614298565b915061224e565b60008167ffffffffffffffff81111561229457612293612f9e565b5b6040519080825280601f01601f1916602001820160405280156122c65781602001600182028036833780820191505090505b5090505b60008514612353576001826122df91906140cb565b9150600a856122ee91906142c9565b60306122fa9190613666565b60f81b8183815181106123105761230f61374e565b5b60200101907effffffffffffffffffffffffffffffffffffffffffffffffffffffffffffff1916908160001a905350600a8561234c9190614298565b94506122ca565b8093505050505b919050565b60007f01ffc9a7000000000000000000000000000000000000000000000000000000007bffffffffffffffffffffffffffffffffffffffffffffffffffffffff1916827bffffffffffffffffffffffffffffffffffffffffffffffffffffffff1916149050919050565b60008073ffffffffffffffffffffffffffffffffffffffff166002600084815260200190815260200160002060009054906101000a900473ffffffffffffffffffffffffffffffffffffffff1673ffffffffffffffffffffffffffffffffffffffff1614159050919050565b61244083838361272e565b600073ffffffffffffffffffffffffffffffffffffffff168373ffffffffffffffffffffffffffffffffffffffff16036124825761247d81612733565b6124c1565b8173ffffffffffffffffffffffffffffffffffffffff168373ffffffffffffffffffffffffffffffffffffffff16146124c0576124bf838261277c565b5b5b600073ffffffffffffffffffffffffffffffffffffffff168273ffffffffffffffffffffffffffffffffffffffff1603612503576124fe816128e9565b612542565b8273ffffffffffffffffffffffffffffffffffffffff168273ffffffffffffffffffffffffffffffffffffffff16146125415761254082826129ba565b5b5b505050565b505050565b6125568383612a39565b61256360008484846125a7565b6125a2576040517f08c379a000000000000000000000000000000000000000000000000000000000815260040161259990614249565b60405180910390fd5b505050565b60006125c88473ffffffffffffffffffffffffffffffffffffffff16612c12565b15612721578373ffffffffffffffffffffffffffffffffffffffff1663150b7a026125f1611a87565b8786866040518563ffffffff1660e01b8152600401612613949392919061434f565b6020604051808303816000875af192505050801561264f57506040513d601f19601f8201168201806040525081019061264c91906143b0565b60015b6126d1573d806000811461267f576040519150601f19603f3d011682016040523d82523d6000602084013e612684565b606091505b5060008151036126c9576040517f08c379a00000000000000000000000000000000000000000000000000000000081526004016126c090614249565b60405180910390fd5b805181602001fd5b63150b7a0260e01b7bffffffffffffffffffffffffffffffffffffffffffffffffffffffff1916817bffffffffffffffffffffffffffffffffffffffffffffffffffffffff191614915050612726565b600190505b949350505050565b505050565b6008805490506009600083815260200190815260200160002081905550600881908060018154018082558091505060019003906000526020600020016000909190919091505550565b60006001612789846110ac565b61279391906140cb565b9050600060076000848152602001908152602001600020549050818114612878576000600660008673ffffffffffffffffffffffffffffffffffffffff1673ffffffffffffffffffffffffffffffffffffffff168152602001908152602001600020600084815260200190815260200160002054905080600660008773ffffffffffffffffffffffffffffffffffffffff1673ffffffffffffffffffffffffffffffffffffffff168152602001908152602001600020600084815260200190815260200160002081905550816007600083815260200190815260200160002081905550505b6007600084815260200190815260200160002060009055600660008573ffffffffffffffffffffffffffffffffffffffff1673ffffffffffffffffffffffffffffffffffffffff16815260200190815260200160002060008381526020019081526020016000206000905550505050565b600060016008805490506128fd91906140cb565b905060006009600084815260200190815260200160002054905060006008838154811061292d5761292c61374e565b5b90600052602060002001549050806008838154811061294f5761294e61374e565b5b90600052602060002001819055508160096000838152602001908152602001600020819055506009600085815260200190815260200160002060009055600880548061299e5761299d6143dd565b5b6001900381819060005260206000200160009055905550505050565b60006129c5836110ac565b905081600660008573ffffffffffffffffffffffffffffffffffffffff1673ffffffffffffffffffffffffffffffffffffffff168152602001908152602001600020600083815260200190815260200160002081905550806007600084815260200190815260200160002081905550505050565b600073ffffffffffffffffffffffffffffffffffffffff168273ffffffffffffffffffffffffffffffffffffffff1603612aa8576040517f08c379a0000000000000000000000000000000000000000000000000000000008152600401612a9f90614458565b60405180910390fd5b612ab1816123c9565b15612af1576040517f08c379a0000000000000000000000000000000000000000000000000000000008152600401612ae8906144c4565b60405180910390fd5b612afd60008383612435565b6001600360008473ffffffffffffffffffffffffffffffffffffffff1673ffffffffffffffffffffffffffffffffffffffff1681526020019081526020016000206000828254612b4d9190613666565b92505081905550816002600083815260200190815260200160002060006101000a81548173ffffffffffffffffffffffffffffffffffffffff021916908373ffffffffffffffffffffffffffffffffffffffff160217905550808273ffffffffffffffffffffffffffffffffffffffff16600073ffffffffffffffffffffffffffffffffffffffff167fddf252ad1be2c89b69c2b068fc378daa952ba7f163c4a11628f55a4df523b3ef60405160405180910390a4612c0e60008383612547565b5050565b6000808273ffffffffffffffffffffffffffffffffffffffff163b119050919050565b6000819050919050565b612c4881612c35565b82525050565b6000602082019050612c636000830184612c3f565b92915050565b6000604051905090565b600080fd5b600080fd5b60007fffffffff0000000000000000000000000000000000000000000000000000000082169050919050565b612cb281612c7d565b8114612cbd57600080fd5b50565b600081359050612ccf81612ca9565b92915050565b600060208284031215612ceb57612cea612c73565b5b6000612cf984828501612cc0565b91505092915050565b60008115159050919050565b612d1781612d02565b82525050565b6000602082019050612d326000830184612d0e565b92915050565b600081519050919050565b600082825260208201905092915050565b60005b83811015612d72578082015181840152602081019050612d57565b83811115612d81576000848401525b50505050565b6000601f19601f8301169050919050565b6000612da382612d38565b612dad8185612d43565b9350612dbd818560208601612d54565b612dc681612d87565b840191505092915050565b60006020820190508181036000830152612deb8184612d98565b905092915050565b612dfc81612c35565b8114612e0757600080fd5b50565b600081359050612e1981612df3565b92915050565b600060208284031215612e3557612e34612c73565b5b6000612e4384828501612e0a565b91505092915050565b600073ffffffffffffffffffffffffffffffffffffffff82169050919050565b6000612e7782612e4c565b9050919050565b612e8781612e6c565b82525050565b6000602082019050612ea26000830184612e7e565b92915050565b612eb181612e6c565b8114612ebc57600080fd5b50565b600081359050612ece81612ea8565b92915050565b60008060408385031215612eeb57612eea612c73565b5b6000612ef985828601612ebf565b9250506020612f0a85828601612e0a565b9150509250929050565b600060208284031215612f2a57612f29612c73565b5b6000612f3884828501612ebf565b91505092915050565b600080600060608486031215612f5a57612f59612c73565b5b6000612f6886828701612ebf565b9350506020612f7986828701612ebf565b9250506040612f8a86828701612e0a565b9150509250925092565b600080fd5b600080fd5b7f4e487b7100000000000000000000000000000000000000000000000000000000600052604160045260246000fd5b612fd682612d87565b810181811067ffffffffffffffff82111715612ff557612ff4612f9e565b5b80604052505050565b6000613008612c69565b90506130148282612fcd565b919050565b600067ffffffffffffffff82111561303457613033612f9e565b5b61303d82612d87565b9050602081019050919050565b82818337600083830152505050565b600061306c61306784613019565b612ffe565b90508281526020810184848401111561308857613087612f99565b5b61309384828561304a565b509392505050565b600082601f8301126130b0576130af612f94565b5b81356130c0848260208601613059565b91505092915050565b6000602082840312156130df576130de612c73565b5b600082013567ffffffffffffffff8111156130fd576130fc612c78565b5b6131098482850161309b565b91505092915050565b600080fd5b600080fd5b60008083601f84011261313257613131612f94565b5b8235905067ffffffffffffffff81111561314f5761314e613112565b5b60208301915083602082028301111561316b5761316a613117565b5b9250929050565b6000806020838503121561318957613188612c73565b5b600083013567ffffffffffffffff8111156131a7576131a6612c78565b5b6131b38582860161311c565b92509250509250929050565b6131c881612d02565b81146131d357600080fd5b50565b6000813590506131e5816131bf565b92915050565b6000806040838503121561320257613201612c73565b5b600061321085828601612ebf565b9250506020613221858286016131d6565b9150509250929050565b600067ffffffffffffffff82111561324657613245612f9e565b5b61324f82612d87565b9050602081019050919050565b600061326f61326a8461322b565b612ffe565b90508281526020810184848401111561328b5761328a612f99565b5b61329684828561304a565b509392505050565b600082601f8301126132b3576132b2612f94565b5b81356132c384826020860161325c565b91505092915050565b600080600080608085870312156132e6576132e5612c73565b5b60006132f487828801612ebf565b945050602061330587828801612ebf565b935050604061331687828801612e0a565b925050606085013567ffffffffffffffff81111561333757613336612c78565b5b6133438782880161329e565b91505092959194509250565b6000806040838503121561336657613365612c73565b5b600061337485828601612ebf565b925050602061338585828601612ebf565b9150509250929050565b7f4e487b7100000000000000000000000000000000000000000000000000000000600052602260045260246000fd5b600060028204905060018216806133d657607f821691505b6020821081036133e9576133e861338f565b5b50919050565b7f4552433732313a20617070726f76616c20746f2063757272656e74206f776e6560008201527f7200000000000000000000000000000000000000000000000000000000000000602082015250565b600061344b602183612d43565b9150613456826133ef565b604082019050919050565b6000602082019050818103600083015261347a8161343e565b9050919050565b7f4552433732313a20617070726f76652063616c6c6572206973206e6f7420746f60008201527f6b656e206f776e6572206e6f7220617070726f76656420666f7220616c6c0000602082015250565b60006134dd603e83612d43565b91506134e882613481565b604082019050919050565b6000602082019050818103600083015261350c816134d0565b9050919050565b7f4552433732313a2063616c6c6572206973206e6f7420746f6b656e206f776e6560008201527f72206e6f7220617070726f766564000000000000000000000000000000000000602082015250565b600061356f602e83612d43565b915061357a82613513565b604082019050919050565b6000602082019050818103600083015261359e81613562565b9050919050565b7f455243373231456e756d657261626c653a206f776e657220696e646578206f7560008201527f74206f6620626f756e6473000000000000000000000000000000000000000000602082015250565b6000613601602b83612d43565b915061360c826135a5565b604082019050919050565b60006020820190508181036000830152613630816135f4565b9050919050565b7f4e487b7100000000000000000000000000000000000000000000000000000000600052601160045260246000fd5b600061367182612c35565b915061367c83612c35565b9250827fffffffffffffffffffffffffffffffffffffffffffffffffffffffffffffffff038211156136b1576136b0613637565b5b828201905092915050565b7f455243373231456e756d657261626c653a20676c6f62616c20696e646578206f60008201527f7574206f6620626f756e64730000000000000000000000000000000000000000602082015250565b6000613718602c83612d43565b9150613723826136bc565b604082019050919050565b600060208201905081810360008301526137478161370b565b9050919050565b7f4e487b7100000000000000000000000000000000000000000000000000000000600052603260045260246000fd5b60008190508160005260206000209050919050565b60006020601f8301049050919050565b600082821b905092915050565b6000600883026137df7fffffffffffffffffffffffffffffffffffffffffffffffffffffffffffffffff826137a2565b6137e986836137a2565b95508019841693508086168417925050509392505050565b6000819050919050565b600061382661382161381c84612c35565b613801565b612c35565b9050919050565b6000819050919050565b6138408361380b565b61385461384c8261382d565b8484546137af565b825550505050565b600090565b61386961385c565b613874818484613837565b505050565b5b818110156138985761388d600082613861565b60018101905061387a565b5050565b601f8211156138dd576138ae8161377d565b6138b784613792565b810160208510156138c6578190505b6138da6138d285613792565b830182613879565b50505b505050565b600082821c905092915050565b6000613900600019846008026138e2565b1980831691505092915050565b600061391983836138ef565b9150826002028217905092915050565b61393282612d38565b67ffffffffffffffff81111561394b5761394a612f9e565b5b61395582546133be565b61396082828561389c565b600060209050601f8311600181146139935760008415613981578287015190505b61398b858261390d565b8655506139f3565b601f1984166139a18661377d565b60005b828110156139c9578489015182556001820191506020850194506020810190506139a4565b868310156139e657848901516139e2601f8916826138ef565b8355505b6001600288020188555050505b505050505050565b7f4552433732313a20696e76616c696420746f6b656e2049440000000000000000600082015250565b6000613a31601883612d43565b9150613a3c826139fb565b602082019050919050565b60006020820190508181036000830152613a6081613a24565b9050919050565b7f4552433732313a2061646472657373207a65726f206973206e6f74206120766160008201527f6c6964206f776e65720000000000000000000000000000000000000000000000602082015250565b6000613ac3602983612d43565b9150613ace82613a67565b604082019050919050565b60006020820190508181036000830152613af281613ab6565b9050919050565b6000613b0482612c35565b91507fffffffffffffffffffffffffffffffffffffffffffffffffffffffffffffffff8203613b3657613b35613637565b5b600182019050919050565b7f4d757374206d696e74206174206c65617374206f6e65204e4654000000000000600082015250565b6000613b77601a83612d43565b9150613b8282613b41565b602082019050919050565b60006020820190508181036000830152613ba681613b6a565b9050919050565b7f53616c65206973206e6f74206163746976650000000000000000000000000000600082015250565b6000613be3601283612d43565b9150613bee82613bad565b602082019050919050565b60006020820190508181036000830152613c1281613bd6565b9050919050565b7f537570706c79206c656674206973206e6f7420656e6f75676800000000000000600082015250565b6000613c4f601983612d43565b9150613c5a82613c19565b602082019050919050565b60006020820190508181036000830152613c7e81613c42565b9050919050565b6000613c9082612c35565b9150613c9b83612c35565b9250817fffffffffffffffffffffffffffffffffffffffffffffffffffffffffffffffff0483118215151615613cd457613cd3613637565b5b828202905092915050565b7f4e6f7420656e6f7567682066756e647320746f20707572636861736500000000600082015250565b6000613d15601c83612d43565b9150613d2082613cdf565b602082019050919050565b60006020820190508181036000830152613d4481613d08565b9050919050565b7f43616e2774206d696e74207468657365206d616e79204e465473206174206f6e60008201527f6365000000000000000000000000000000000000000000000000000000000000602082015250565b6000613da7602283612d43565b9150613db282613d4b565b604082019050919050565b60006020820190508181036000830152613dd681613d9a565b9050919050565b7f50726573616c65206163636573732064656e6965640000000000000000000000600082015250565b6000613e13601583612d43565b9150613e1e82613ddd565b602082019050919050565b60006020820190508181036000830152613e4281613e06565b9050919050565b7f4e6f7420656e6f7567682070726573616c65206d696e74696e6773206c656674600082015250565b6000613e7f602083612d43565b9150613e8a82613e49565b602082019050919050565b60006020820190508181036000830152613eae81613e72565b9050919050565b600081905092915050565b6000613ecb82612d38565b613ed58185613eb5565b9350613ee5818560208601612d54565b80840191505092915050565b6000613efd8285613ec0565b9150613f098284613ec0565b91508190509392505050565b7f4f776e61626c653a206e6577206f776e657220697320746865207a65726f206160008201527f6464726573730000000000000000000000000000000000000000000000000000602082015250565b6000613f71602683612d43565b9150613f7c82613f15565b604082019050919050565b60006020820190508181036000830152613fa081613f64565b9050919050565b7f4552433732313a207472616e736665722066726f6d20696e636f72726563742060008201527f6f776e6572000000000000000000000000000000000000000000000000000000602082015250565b6000614003602583612d43565b915061400e82613fa7565b604082019050919050565b6000602082019050818103600083015261403281613ff6565b9050919050565b7f4552433732313a207472616e7366657220746f20746865207a65726f2061646460008201527f7265737300000000000000000000000000000000000000000000000000000000602082015250565b6000614095602483612d43565b91506140a082614039565b604082019050919050565b600060208201905081810360008301526140c481614088565b9050919050565b60006140d682612c35565b91506140e183612c35565b9250828210156140f4576140f3613637565b5b828203905092915050565b7f4f776e61626c653a2063616c6c6572206973206e6f7420746865206f776e6572600082015250565b6000614135602083612d43565b9150614140826140ff565b602082019050919050565b6000602082019050818103600083015261416481614128565b9050919050565b7f4552433732313a20617070726f766520746f2063616c6c657200000000000000600082015250565b60006141a1601983612d43565b91506141ac8261416b565b602082019050919050565b600060208201905081810360008301526141d081614194565b9050919050565b7f4552433732313a207472616e7366657220746f206e6f6e20455243373231526560008201527f63656976657220696d706c656d656e7465720000000000000000000000000000602082015250565b6000614233603283612d43565b915061423e826141d7565b604082019050919050565b6000602082019050818103600083015261426281614226565b9050919050565b7f4e487b7100000000000000000000000000000000000000000000000000000000600052601260045260246000fd5b60006142a382612c35565b91506142ae83612c35565b9250826142be576142bd614269565b5b828204905092915050565b60006142d482612c35565b91506142df83612c35565b9250826142ef576142ee614269565b5b828206905092915050565b600081519050919050565b600082825260208201905092915050565b6000614321826142fa565b61432b8185614305565b935061433b818560208601612d54565b61434481612d87565b840191505092915050565b60006080820190506143646000830187612e7e565b6143716020830186612e7e565b61437e6040830185612c3f565b81810360608301526143908184614316565b905095945050505050565b6000815190506143aa81612ca9565b92915050565b6000602082840312156143c6576143c5612c73565b5b60006143d48482850161439b565b91505092915050565b7f4e487b7100000000000000000000000000000000000000000000000000000000600052603160045260246000fd5b7f4552433732313a206d696e7420746f20746865207a65726f2061646472657373600082015250565b6000614442602083612d43565b915061444d8261440c565b602082019050919050565b6000602082019050818103600083015261447181614435565b9050919050565b7f4552433732313a20746f6b656e20616c7265616479206d696e74656400000000600082015250565b60006144ae601c83612d43565b91506144b982614478565b602082019050919050565b600060208201905081810360008301526144dd816144a1565b905091905056fea2646970667358221220acce2a724d10bfeca9e537e99ac55b3f333f065807483f57a236d8d53ee641ad64736f6c634300080f0033",
  "immutableReferences": {},
  "source": "// SPDX-License-Identifier: MIT\n\npragma solidity ^0.8.0;\n\nimport \"@openzeppelin/contracts/access/Ownable.sol\";\nimport \"@openzeppelin/contracts/token/ERC721/extensions/ERC721Enumerable.sol\";\n\n/*\n      .\".\".\".\n    (`       `)               _.-=-.\n     '._.--.-;             .-`  -'  '.\n    .-'`.o )  \\           /  .-_.--'  `\\\n   `;---) \\    ;         /  / ;' _-_.-' `\n     `;\"`  ;    \\        ; .  .'   _-' \\\n      (    )    |        |  / .-.-'    -`\n       '-.-'     \\       | .' ` '.-'-\\`\n        /_./\\_.|\\_\\      ;  ' .'-'.-.\n        /         '-._    \\` /  _;-,\n       |         .-=-.;-._ \\  -'-,\n       \\        /      `\";`-`,-\"`)\n        \\       \\     '-- `\\.\\\n         '.      '._ '-- '--'/\n           `-._     `'----'`;\n               `\"\"\"--.____,/\n                      \\\\  \\\n                      // /`\n                  ___// /__\n                (`(`(---\"-`)\n*/\ncontract ZetaSaurio is ERC721Enumerable, Ownable {\n    using Strings for uint256;\n\n    address public manager;\n\n    string public baseURI = \"\";\n\n    uint256 public saleStartTimestamp;\n    uint256 public presaleStartTimestamp;\n    uint256 public constant maxSupply = 9393;\n    uint256 public constant batchMintLimit = 5;\n    uint256 public constant presaleMintPerAddressLimit = 3;\n    uint256 public constant salePrice = 0.2 ether; // 0.2 BNB\n    uint256 public constant presalePrice = 0.15 ether; // 0.15 BNB\n    uint256 public constant presaleDuration = 259200; // 72 hours\n\n    mapping(address => bool) public hasPresaleAccess;\n    mapping(address => uint256) public mintedPerAddress;\n\n    constructor() ERC721(\"ZetaSaurio\", \"ZS\") {}\n\n    /**\n     * @dev Base URI for computing {tokenURI} in {ERC721} parent contract.\n     */\n    function _baseURI() internal view virtual override returns (string memory) {\n        return baseURI;\n    }\n\n    function setBaseURI(string memory _newBaseURI) public onlyOwner {\n        baseURI = _newBaseURI;\n    }\n\n    function schedulePresale(uint256 _presaleStartTimestamp) public onlyOwner {\n        presaleStartTimestamp = _presaleStartTimestamp;\n    }\n\n    function scheduleSale(uint256 _saleStartTimestamp) public onlyOwner {\n        saleStartTimestamp = _saleStartTimestamp;\n    }\n\n    function presaleIsActive() public view returns (bool) {\n        return presaleStartTimestamp >= block.timestamp && block.timestamp < (presaleStartTimestamp + presaleDuration);\n    }\n\n    function saleIsActive() public view returns (bool) {\n        return saleStartTimestamp != 0 && saleStartTimestamp <= block.timestamp;\n    }\n\n    function price() public view virtual returns (uint256) {\n        return presaleIsActive() ? presalePrice : salePrice;\n    }\n\n    function enoughPresaleMintingsLeft(uint256 _mintAmount) public view returns (bool) {\n        return mintedPerAddress[msg.sender] + _mintAmount < presaleMintPerAddressLimit;\n    }\n\n    function grantPresaleAccess(address[] calldata _users) public onlyOwner {\n        for (uint256 i = 0; i < _users.length; i++) {\n            hasPresaleAccess[_users[i]] = true;\n        }\n    }\n\n    function revokePresaleAccess(address[] calldata _users) public onlyOwner {\n        for (uint256 i = 0; i < _users.length; i++) {\n            hasPresaleAccess[_users[i]] = false;\n        }\n    }\n\n    function withdraw() public payable onlyOwner {\n        require(payable(msg.sender).send(address(this).balance));\n    }\n\n    /**\n     * Reserve zetas for the team and giveaways.\n     */\n    function reserve(uint256 _amount) public onlyOwner {\n        uint256 supply = totalSupply();\n\n        for (uint256 i = 1; i <= _amount; i++) {\n            _safeMint(msg.sender, supply + i);\n        }\n    }\n\n    function mint(uint256 _mintAmount) public payable {\n        uint256 supply = totalSupply();\n\n        require(_mintAmount > 0, \"Must mint at least one NFT\");\n        require(saleIsActive() || presaleIsActive(), \"Sale is not active\");\n        require(supply + _mintAmount <= maxSupply, \"Supply left is not enough\");\n        require(msg.value >= price() * _mintAmount, \"Not enough funds to purchase\");\n        require(_mintAmount <= batchMintLimit, \"Can't mint these many NFTs at once\");\n\n        if (presaleIsActive()) {\n            require(hasPresaleAccess[msg.sender], \"Presale access denied\");\n            require(enoughPresaleMintingsLeft(_mintAmount), \"Not enough presale mintings left\");\n        }\n\n        for (uint256 i = 1; i <= _mintAmount; i++) {\n            mintedPerAddress[msg.sender]++;\n            _safeMint(msg.sender, supply + i);\n        }\n    }\n}\n",
  "sourcePath": "/home/jose92/Personal/ZetaSaurio/zetasaurio/contracts/ZetaSaurio.sol",
  "compiler": {
    "name": "solc",
    "version": "0.8.15+commit.e14f2714.Emscripten.clang"
  },
  "schemaVersion": "3.4.8",
  "updatedAt": "2022-07-21T03:34:56.921Z",
  "devdoc": {
    "kind": "dev",
    "methods": {
      "approve(address,uint256)": {
        "details": "See {IERC721-approve}."
      },
      "balanceOf(address)": {
        "details": "See {IERC721-balanceOf}."
      },
      "getApproved(uint256)": {
        "details": "See {IERC721-getApproved}."
      },
      "isApprovedForAll(address,address)": {
        "details": "See {IERC721-isApprovedForAll}."
      },
      "name()": {
        "details": "See {IERC721Metadata-name}."
      },
      "owner()": {
        "details": "Returns the address of the current owner."
      },
      "ownerOf(uint256)": {
        "details": "See {IERC721-ownerOf}."
      },
      "renounceOwnership()": {
        "details": "Leaves the contract without owner. It will not be possible to call `onlyOwner` functions anymore. Can only be called by the current owner. NOTE: Renouncing ownership will leave the contract without an owner, thereby removing any functionality that is only available to the owner."
      },
      "safeTransferFrom(address,address,uint256)": {
        "details": "See {IERC721-safeTransferFrom}."
      },
      "safeTransferFrom(address,address,uint256,bytes)": {
        "details": "See {IERC721-safeTransferFrom}."
      },
      "setApprovalForAll(address,bool)": {
        "details": "See {IERC721-setApprovalForAll}."
      },
      "supportsInterface(bytes4)": {
        "details": "See {IERC165-supportsInterface}."
      },
      "symbol()": {
        "details": "See {IERC721Metadata-symbol}."
      },
      "tokenByIndex(uint256)": {
        "details": "See {IERC721Enumerable-tokenByIndex}."
      },
      "tokenOfOwnerByIndex(address,uint256)": {
        "details": "See {IERC721Enumerable-tokenOfOwnerByIndex}."
      },
      "tokenURI(uint256)": {
        "details": "See {IERC721Metadata-tokenURI}."
      },
      "totalSupply()": {
        "details": "See {IERC721Enumerable-totalSupply}."
      },
      "transferFrom(address,address,uint256)": {
        "details": "See {IERC721-transferFrom}."
      },
      "transferOwnership(address)": {
        "details": "Transfers ownership of the contract to a new account (`newOwner`). Can only be called by the current owner."
      }
    },
    "version": 1
  },
  "userdoc": {
    "kind": "user",
    "methods": {
      "reserve(uint256)": {
        "notice": "Reserve zetas for the team and giveaways."
      }
    },
    "version": 1
  }
}