{
  "contractName": "ZetaSaurio",
  "abi": [
    {
      "inputs": [],
      "stateMutability": "nonpayable",
      "type": "constructor"
    },
    {
      "anonymous": false,
      "inputs": [
        {
          "indexed": true,
          "internalType": "address",
          "name": "owner",
          "type": "address"
        },
        {
          "indexed": true,
          "internalType": "address",
          "name": "approved",
          "type": "address"
        },
        {
          "indexed": true,
          "internalType": "uint256",
          "name": "tokenId",
          "type": "uint256"
        }
      ],
      "name": "Approval",
      "type": "event"
    },
    {
      "anonymous": false,
      "inputs": [
        {
          "indexed": true,
          "internalType": "address",
          "name": "owner",
          "type": "address"
        },
        {
          "indexed": true,
          "internalType": "address",
          "name": "operator",
          "type": "address"
        },
        {
          "indexed": false,
          "internalType": "bool",
          "name": "approved",
          "type": "bool"
        }
      ],
      "name": "ApprovalForAll",
      "type": "event"
    },
    {
      "anonymous": false,
      "inputs": [
        {
          "indexed": true,
          "internalType": "address",
          "name": "previousOwner",
          "type": "address"
        },
        {
          "indexed": true,
          "internalType": "address",
          "name": "newOwner",
          "type": "address"
        }
      ],
      "name": "OwnershipTransferred",
      "type": "event"
    },
    {
      "anonymous": false,
      "inputs": [
        {
          "indexed": true,
          "internalType": "address",
          "name": "from",
          "type": "address"
        },
        {
          "indexed": true,
          "internalType": "address",
          "name": "to",
          "type": "address"
        },
        {
          "indexed": true,
          "internalType": "uint256",
          "name": "tokenId",
          "type": "uint256"
        }
      ],
      "name": "Transfer",
      "type": "event"
    },
    {
      "inputs": [
        {
          "internalType": "address",
          "name": "to",
          "type": "address"
        },
        {
          "internalType": "uint256",
          "name": "tokenId",
          "type": "uint256"
        }
      ],
      "name": "approve",
      "outputs": [],
      "stateMutability": "nonpayable",
      "type": "function"
    },
    {
      "inputs": [
        {
          "internalType": "address",
          "name": "owner",
          "type": "address"
        }
      ],
      "name": "balanceOf",
      "outputs": [
        {
          "internalType": "uint256",
          "name": "",
          "type": "uint256"
        }
      ],
      "stateMutability": "view",
      "type": "function",
      "constant": true
    },
    {
      "inputs": [],
      "name": "baseURI",
      "outputs": [
        {
          "internalType": "string",
          "name": "",
          "type": "string"
        }
      ],
      "stateMutability": "view",
      "type": "function",
      "constant": true
    },
    {
      "inputs": [],
      "name": "batchMintLimit",
      "outputs": [
        {
          "internalType": "uint256",
          "name": "",
          "type": "uint256"
        }
      ],
      "stateMutability": "view",
      "type": "function",
      "constant": true
    },
    {
      "inputs": [
        {
          "internalType": "uint256",
          "name": "tokenId",
          "type": "uint256"
        }
      ],
      "name": "getApproved",
      "outputs": [
        {
          "internalType": "address",
          "name": "",
          "type": "address"
        }
      ],
      "stateMutability": "view",
      "type": "function",
      "constant": true
    },
    {
      "inputs": [
        {
          "internalType": "address",
          "name": "",
          "type": "address"
        }
      ],
      "name": "hasPresaleAccess",
      "outputs": [
        {
          "internalType": "bool",
          "name": "",
          "type": "bool"
        }
      ],
      "stateMutability": "view",
      "type": "function",
      "constant": true
    },
    {
      "inputs": [
        {
          "internalType": "address",
          "name": "owner",
          "type": "address"
        },
        {
          "internalType": "address",
          "name": "operator",
          "type": "address"
        }
      ],
      "name": "isApprovedForAll",
      "outputs": [
        {
          "internalType": "bool",
          "name": "",
          "type": "bool"
        }
      ],
      "stateMutability": "view",
      "type": "function",
      "constant": true
    },
    {
      "inputs": [],
      "name": "maxSupply",
      "outputs": [
        {
          "internalType": "uint256",
          "name": "",
          "type": "uint256"
        }
      ],
      "stateMutability": "view",
      "type": "function",
      "constant": true
    },
    {
      "inputs": [
        {
          "internalType": "address",
          "name": "",
          "type": "address"
        }
      ],
      "name": "mintedPerAddress",
      "outputs": [
        {
          "internalType": "uint256",
          "name": "",
          "type": "uint256"
        }
      ],
      "stateMutability": "view",
      "type": "function",
      "constant": true
    },
    {
      "inputs": [],
      "name": "name",
      "outputs": [
        {
          "internalType": "string",
          "name": "",
          "type": "string"
        }
      ],
      "stateMutability": "view",
      "type": "function",
      "constant": true
    },
    {
      "inputs": [],
      "name": "owner",
      "outputs": [
        {
          "internalType": "address",
          "name": "",
          "type": "address"
        }
      ],
      "stateMutability": "view",
      "type": "function",
      "constant": true
    },
    {
      "inputs": [
        {
          "internalType": "uint256",
          "name": "tokenId",
          "type": "uint256"
        }
      ],
      "name": "ownerOf",
      "outputs": [
        {
          "internalType": "address",
          "name": "",
          "type": "address"
        }
      ],
      "stateMutability": "view",
      "type": "function",
      "constant": true
    },
    {
      "inputs": [
        {
          "internalType": "uint256",
          "name": "",
          "type": "uint256"
        }
      ],
      "name": "partners",
      "outputs": [
        {
          "internalType": "address",
          "name": "",
          "type": "address"
        }
      ],
      "stateMutability": "view",
      "type": "function",
      "constant": true
    },
    {
      "inputs": [
        {
          "internalType": "address",
          "name": "",
          "type": "address"
        }
      ],
      "name": "partnerships",
      "outputs": [
        {
          "internalType": "string",
          "name": "label",
          "type": "string"
        },
        {
          "internalType": "uint256",
          "name": "discountPercent",
          "type": "uint256"
        },
        {
          "internalType": "uint256",
          "name": "discountedSupply",
          "type": "uint256"
        },
        {
          "internalType": "uint256",
          "name": "freeToMintSupply",
          "type": "uint256"
        },
        {
          "internalType": "uint256",
          "name": "reservedUntilTimestamp",
          "type": "uint256"
        },
        {
          "internalType": "bool",
          "name": "exists",
          "type": "bool"
        }
      ],
      "stateMutability": "view",
      "type": "function",
      "constant": true
    },
    {
      "inputs": [],
      "name": "presaleEndTimestamp",
      "outputs": [
        {
          "internalType": "uint256",
          "name": "",
          "type": "uint256"
        }
      ],
      "stateMutability": "view",
      "type": "function",
      "constant": true
    },
    {
      "inputs": [],
      "name": "presaleMintPerAddressLimit",
      "outputs": [
        {
          "internalType": "uint256",
          "name": "",
          "type": "uint256"
        }
      ],
      "stateMutability": "view",
      "type": "function",
      "constant": true
    },
    {
      "inputs": [],
      "name": "presalePrice",
      "outputs": [
        {
          "internalType": "uint256",
          "name": "",
          "type": "uint256"
        }
      ],
      "stateMutability": "view",
      "type": "function",
      "constant": true
    },
    {
      "inputs": [],
      "name": "presaleStartTimestamp",
      "outputs": [
        {
          "internalType": "uint256",
          "name": "",
          "type": "uint256"
        }
      ],
      "stateMutability": "view",
      "type": "function",
      "constant": true
    },
    {
      "inputs": [],
      "name": "renounceOwnership",
      "outputs": [],
      "stateMutability": "nonpayable",
      "type": "function"
    },
    {
      "inputs": [
        {
          "internalType": "address",
          "name": "from",
          "type": "address"
        },
        {
          "internalType": "address",
          "name": "to",
          "type": "address"
        },
        {
          "internalType": "uint256",
          "name": "tokenId",
          "type": "uint256"
        }
      ],
      "name": "safeTransferFrom",
      "outputs": [],
      "stateMutability": "nonpayable",
      "type": "function"
    },
    {
      "inputs": [
        {
          "internalType": "address",
          "name": "from",
          "type": "address"
        },
        {
          "internalType": "address",
          "name": "to",
          "type": "address"
        },
        {
          "internalType": "uint256",
          "name": "tokenId",
          "type": "uint256"
        },
        {
          "internalType": "bytes",
          "name": "data",
          "type": "bytes"
        }
      ],
      "name": "safeTransferFrom",
      "outputs": [],
      "stateMutability": "nonpayable",
      "type": "function"
    },
    {
      "inputs": [],
      "name": "salePrice",
      "outputs": [
        {
          "internalType": "uint256",
          "name": "",
          "type": "uint256"
        }
      ],
      "stateMutability": "view",
      "type": "function",
      "constant": true
    },
    {
      "inputs": [],
      "name": "saleStartTimestamp",
      "outputs": [
        {
          "internalType": "uint256",
          "name": "",
          "type": "uint256"
        }
      ],
      "stateMutability": "view",
      "type": "function",
      "constant": true
    },
    {
      "inputs": [
        {
          "internalType": "address",
          "name": "operator",
          "type": "address"
        },
        {
          "internalType": "bool",
          "name": "approved",
          "type": "bool"
        }
      ],
      "name": "setApprovalForAll",
      "outputs": [],
      "stateMutability": "nonpayable",
      "type": "function"
    },
    {
      "inputs": [
        {
          "internalType": "bytes4",
          "name": "interfaceId",
          "type": "bytes4"
        }
      ],
      "name": "supportsInterface",
      "outputs": [
        {
          "internalType": "bool",
          "name": "",
          "type": "bool"
        }
      ],
      "stateMutability": "view",
      "type": "function",
      "constant": true
    },
    {
      "inputs": [],
      "name": "symbol",
      "outputs": [
        {
          "internalType": "string",
          "name": "",
          "type": "string"
        }
      ],
      "stateMutability": "view",
      "type": "function",
      "constant": true
    },
    {
      "inputs": [
        {
          "internalType": "uint256",
          "name": "index",
          "type": "uint256"
        }
      ],
      "name": "tokenByIndex",
      "outputs": [
        {
          "internalType": "uint256",
          "name": "",
          "type": "uint256"
        }
      ],
      "stateMutability": "view",
      "type": "function",
      "constant": true
    },
    {
      "inputs": [
        {
          "internalType": "address",
          "name": "owner",
          "type": "address"
        },
        {
          "internalType": "uint256",
          "name": "index",
          "type": "uint256"
        }
      ],
      "name": "tokenOfOwnerByIndex",
      "outputs": [
        {
          "internalType": "uint256",
          "name": "",
          "type": "uint256"
        }
      ],
      "stateMutability": "view",
      "type": "function",
      "constant": true
    },
    {
      "inputs": [
        {
          "internalType": "uint256",
          "name": "tokenId",
          "type": "uint256"
        }
      ],
      "name": "tokenURI",
      "outputs": [
        {
          "internalType": "string",
          "name": "",
          "type": "string"
        }
      ],
      "stateMutability": "view",
      "type": "function",
      "constant": true
    },
    {
      "inputs": [],
      "name": "totalSupply",
      "outputs": [
        {
          "internalType": "uint256",
          "name": "",
          "type": "uint256"
        }
      ],
      "stateMutability": "view",
      "type": "function",
      "constant": true
    },
    {
      "inputs": [
        {
          "internalType": "address",
          "name": "from",
          "type": "address"
        },
        {
          "internalType": "address",
          "name": "to",
          "type": "address"
        },
        {
          "internalType": "uint256",
          "name": "tokenId",
          "type": "uint256"
        }
      ],
      "name": "transferFrom",
      "outputs": [],
      "stateMutability": "nonpayable",
      "type": "function"
    },
    {
      "inputs": [
        {
          "internalType": "address",
          "name": "newOwner",
          "type": "address"
        }
      ],
      "name": "transferOwnership",
      "outputs": [],
      "stateMutability": "nonpayable",
      "type": "function"
    },
    {
      "inputs": [
        {
          "internalType": "address",
          "name": "_user",
          "type": "address"
        },
        {
          "internalType": "uint256",
          "name": "_mintAmount",
          "type": "uint256"
        }
      ],
      "name": "mint",
      "outputs": [],
      "stateMutability": "payable",
      "type": "function",
      "payable": true
    },
    {
      "inputs": [
        {
          "internalType": "address",
          "name": "_user",
          "type": "address"
        },
        {
          "internalType": "uint256",
          "name": "_mintAmount",
          "type": "uint256"
        }
      ],
      "name": "mintAsPartner",
      "outputs": [],
      "stateMutability": "payable",
      "type": "function",
      "payable": true
    },
    {
      "inputs": [
        {
          "internalType": "address",
          "name": "_user",
          "type": "address"
        },
        {
          "internalType": "uint256",
          "name": "_mintAmount",
          "type": "uint256"
        }
      ],
      "name": "freeMint",
      "outputs": [],
      "stateMutability": "payable",
      "type": "function",
      "payable": true
    },
    {
      "inputs": [],
      "name": "partnersCount",
      "outputs": [
        {
          "internalType": "uint256",
          "name": "",
          "type": "uint256"
        }
      ],
      "stateMutability": "view",
      "type": "function",
      "constant": true
    },
    {
      "inputs": [
        {
          "internalType": "address",
          "name": "_partner",
          "type": "address"
        }
      ],
      "name": "partnershipExists",
      "outputs": [
        {
          "internalType": "bool",
          "name": "",
          "type": "bool"
        }
      ],
      "stateMutability": "view",
      "type": "function",
      "constant": true
    },
    {
      "inputs": [
        {
          "internalType": "address",
          "name": "_partner",
          "type": "address"
        }
      ],
      "name": "partnershipSupplyIsReserved",
      "outputs": [
        {
          "internalType": "bool",
          "name": "",
          "type": "bool"
        }
      ],
      "stateMutability": "view",
      "type": "function",
      "constant": true
    },
    {
      "inputs": [],
      "name": "partnershipReservedFreeToMintSupply",
      "outputs": [
        {
          "internalType": "uint256",
          "name": "",
          "type": "uint256"
        }
      ],
      "stateMutability": "view",
      "type": "function",
      "constant": true
    },
    {
      "inputs": [
        {
          "internalType": "address",
          "name": "_partner",
          "type": "address"
        }
      ],
      "name": "partnershipReservedSupply",
      "outputs": [
        {
          "internalType": "uint256",
          "name": "",
          "type": "uint256"
        }
      ],
      "stateMutability": "view",
      "type": "function",
      "constant": true
    },
    {
      "inputs": [],
      "name": "presaleIsActive",
      "outputs": [
        {
          "internalType": "bool",
          "name": "",
          "type": "bool"
        }
      ],
      "stateMutability": "view",
      "type": "function",
      "constant": true
    },
    {
      "inputs": [],
      "name": "saleIsActive",
      "outputs": [
        {
          "internalType": "bool",
          "name": "",
          "type": "bool"
        }
      ],
      "stateMutability": "view",
      "type": "function",
      "constant": true
    },
    {
      "inputs": [],
      "name": "price",
      "outputs": [
        {
          "internalType": "uint256",
          "name": "",
          "type": "uint256"
        }
      ],
      "stateMutability": "view",
      "type": "function",
      "constant": true
    },
    {
      "inputs": [],
      "name": "reservedSupply",
      "outputs": [
        {
          "internalType": "uint256",
          "name": "",
          "type": "uint256"
        }
      ],
      "stateMutability": "view",
      "type": "function",
      "constant": true
    },
    {
      "inputs": [
        {
          "internalType": "address",
          "name": "_user",
          "type": "address"
        },
        {
          "internalType": "uint256",
          "name": "_mintAmount",
          "type": "uint256"
        }
      ],
      "name": "enoughPresaleMintingsLeft",
      "outputs": [
        {
          "internalType": "bool",
          "name": "",
          "type": "bool"
        }
      ],
      "stateMutability": "view",
      "type": "function",
      "constant": true
    },
    {
      "inputs": [
        {
          "internalType": "uint256",
          "name": "_saleStartTimestamp",
          "type": "uint256"
        }
      ],
      "name": "scheduleSale",
      "outputs": [],
      "stateMutability": "nonpayable",
      "type": "function"
    },
    {
      "inputs": [
        {
          "internalType": "uint256",
          "name": "_presaleStartTimestamp",
          "type": "uint256"
        },
        {
          "internalType": "uint256",
          "name": "_presaleEndTimestamp",
          "type": "uint256"
        }
      ],
      "name": "schedulePresale",
      "outputs": [],
      "stateMutability": "nonpayable",
      "type": "function"
    },
    {
      "inputs": [
        {
          "internalType": "address[]",
          "name": "_users",
          "type": "address[]"
        }
      ],
      "name": "grantPresaleAccess",
      "outputs": [],
      "stateMutability": "nonpayable",
      "type": "function"
    },
    {
      "inputs": [
        {
          "internalType": "address[]",
          "name": "_users",
          "type": "address[]"
        }
      ],
      "name": "revokePresaleAccess",
      "outputs": [],
      "stateMutability": "nonpayable",
      "type": "function"
    },
    {
      "inputs": [
        {
          "internalType": "address",
          "name": "_partner",
          "type": "address"
        },
        {
          "internalType": "string",
          "name": "_label",
          "type": "string"
        },
        {
          "internalType": "uint256",
          "name": "_discountPercent",
          "type": "uint256"
        },
        {
          "internalType": "uint256",
          "name": "_discountedSupply",
          "type": "uint256"
        },
        {
          "internalType": "uint256",
          "name": "_freeToMintSupply",
          "type": "uint256"
        },
        {
          "internalType": "uint256",
          "name": "_reservedUntilTimestamp",
          "type": "uint256"
        }
      ],
      "name": "createPartnership",
      "outputs": [],
      "stateMutability": "nonpayable",
      "type": "function"
    },
    {
      "inputs": [
        {
          "internalType": "address",
          "name": "_partner",
          "type": "address"
        }
      ],
      "name": "deletePartnership",
      "outputs": [],
      "stateMutability": "nonpayable",
      "type": "function"
    },
    {
      "inputs": [
        {
          "internalType": "address",
          "name": "_user",
          "type": "address"
        },
        {
          "internalType": "uint256",
          "name": "_mintAmount",
          "type": "uint256"
        }
      ],
      "name": "reserve",
      "outputs": [],
      "stateMutability": "nonpayable",
      "type": "function"
    },
    {
      "inputs": [],
      "name": "withdraw",
      "outputs": [],
      "stateMutability": "payable",
      "type": "function",
      "payable": true
    },
    {
      "inputs": [
        {
          "internalType": "string",
          "name": "_newBaseURI",
          "type": "string"
        }
      ],
      "name": "setBaseURI",
      "outputs": [],
      "stateMutability": "nonpayable",
      "type": "function"
    }
  ],
  "bytecode": "0x608060405260405180602001604052806000815250600d90816200002491906200043b565b503480156200003257600080fd5b506040518060400160405280600a81526020017f5a65746153617572696f000000000000000000000000000000000000000000008152506040518060400160405280600281526020017f5a530000000000000000000000000000000000000000000000000000000000008152508160009081620000b091906200043b565b508060019081620000c291906200043b565b505050620000e5620000d9620000f360201b60201c565b620000fb60201b60201c565b6001600b8190555062000522565b600033905090565b6000600a60009054906101000a900473ffffffffffffffffffffffffffffffffffffffff16905081600a60006101000a81548173ffffffffffffffffffffffffffffffffffffffff021916908373ffffffffffffffffffffffffffffffffffffffff1602179055508173ffffffffffffffffffffffffffffffffffffffff168173ffffffffffffffffffffffffffffffffffffffff167f8be0079c531659141344cd1fd0a4f28419497f9722a3daafe3b4186f6b6457e060405160405180910390a35050565b600081519050919050565b7f4e487b7100000000000000000000000000000000000000000000000000000000600052604160045260246000fd5b7f4e487b7100000000000000000000000000000000000000000000000000000000600052602260045260246000fd5b600060028204905060018216806200024357607f821691505b602082108103620002595762000258620001fb565b5b50919050565b60008190508160005260206000209050919050565b60006020601f8301049050919050565b600082821b905092915050565b600060088302620002c37fffffffffffffffffffffffffffffffffffffffffffffffffffffffffffffffff8262000284565b620002cf868362000284565b95508019841693508086168417925050509392505050565b6000819050919050565b6000819050919050565b60006200031c620003166200031084620002e7565b620002f1565b620002e7565b9050919050565b6000819050919050565b6200033883620002fb565b62000350620003478262000323565b84845462000291565b825550505050565b600090565b6200036762000358565b620003748184846200032d565b505050565b5b818110156200039c57620003906000826200035d565b6001810190506200037a565b5050565b601f821115620003eb57620003b5816200025f565b620003c08462000274565b81016020851015620003d0578190505b620003e8620003df8562000274565b83018262000379565b50505b505050565b600082821c905092915050565b60006200041060001984600802620003f0565b1980831691505092915050565b60006200042b8383620003fd565b9150826002028217905092915050565b6200044682620001c1565b67ffffffffffffffff811115620004625762000461620001cc565b5b6200046e82546200022a565b6200047b828285620003a0565b600060209050601f831160018114620004b357600084156200049e578287015190505b620004aa85826200041d565b8655506200051a565b601f198416620004c3866200025f565b60005b82811015620004ed57848901518255600182019150602085019450602081019050620004c6565b868310156200050d578489015162000509601f891682620003fd565b8355505b6001600288020188555050505b505050505050565b6159be80620005326000396000f3fe6080604052600436106103345760003560e01c8063715018a6116101ab578063c3b49d04116100f7578063dcad8a4911610095578063eb8d24441161006f578063eb8d244414610c36578063f19b88ad14610c61578063f2fde38b14610c9e578063f51f96dd14610cc757610334565b8063dcad8a4914610b93578063de0cc70d14610bbc578063e985e9c514610bf957610334565b8063cc47a40b116100d1578063cc47a40b14610ad7578063cdd8fea514610b00578063d445b97814610b2b578063d5abeb0114610b6857610334565b8063c3b49d0414610a32578063c6bd6bc814610a6f578063c87b56dd14610a9a57610334565b806395d89b4111610164578063a035b1fe1161013e578063a035b1fe1461098c578063a22cb465146109b7578063b88d4fde146109e0578063c383e6c614610a0957610334565b806395d89b411461091c578063985e89fe146109475780639883566e1461097057610334565b8063715018a61461082d57806371efb8d11461084457806378da7ba1146108815780637c920e47146108ac57806385d2c72f146108d55780638da5cb5b146108f157610334565b80632f6b1cd51161028557806344d19d2b1161022357806355f804b3116101fd57806355f804b31461075f5780636352211e146107885780636c0360eb146107c557806370a08231146107f057610334565b806344d19d2b146106cc5780634ea37fec146106f75780634f6ccce71461072257610334565b80633c276d861161025f5780633c276d86146106525780633ccfd60b1461067d57806340c10f191461068757806342842e0e146106a357610334565b80632f6b1cd5146105ad5780632f745c59146105ea57806330f72cd41461062757610334565b80630f209186116102f2578063208596d6116102cc578063208596d61461050557806323b872dd1461052e57806325efe85c1461055757806327a3e8051461058257610334565b80630f2091861461047457806318160ddd146104b15780631e66345b146104dc57610334565b80620e7fa81461033957806301ffc9a71461036457806306fdde03146103a1578063081812fc146103cc578063095ea7b3146104095780630d5893c614610432575b600080fd5b34801561034557600080fd5b5061034e610cf2565b60405161035b9190613bb4565b60405180910390f35b34801561037057600080fd5b5061038b60048036038101906103869190613c3b565b610cfe565b6040516103989190613c83565b60405180910390f35b3480156103ad57600080fd5b506103b6610d78565b6040516103c39190613d2e565b60405180910390f35b3480156103d857600080fd5b506103f360048036038101906103ee9190613d7c565b610e0a565b6040516104009190613dea565b60405180910390f35b34801561041557600080fd5b50610430600480360381019061042b9190613e31565b610e50565b005b34801561043e57600080fd5b5061045960048036038101906104549190613e71565b610f67565b60405161046b96959493929190613e9e565b60405180910390f35b34801561048057600080fd5b5061049b60048036038101906104969190613e71565b611038565b6040516104a89190613c83565b60405180910390f35b3480156104bd57600080fd5b506104c6611058565b6040516104d39190613bb4565b60405180910390f35b3480156104e857600080fd5b5061050360048036038101906104fe9190613e71565b611065565b005b34801561051157600080fd5b5061052c6004803603810190610527919061403b565b6112a0565b005b34801561053a57600080fd5b50610555600480360381019061055091906140e4565b61142c565b005b34801561056357600080fd5b5061056c61148c565b6040516105799190613bb4565b60405180910390f35b34801561058e57600080fd5b50610597611491565b6040516105a49190613bb4565b60405180910390f35b3480156105b957600080fd5b506105d460048036038101906105cf9190613e71565b6114f3565b6040516105e19190613c83565b60405180910390f35b3480156105f657600080fd5b50610611600480360381019061060c9190613e31565b611542565b60405161061e9190613bb4565b60405180910390f35b34801561063357600080fd5b5061063c6115e7565b6040516106499190613c83565b60405180910390f35b34801561065e57600080fd5b50610667611601565b6040516106749190613bb4565b60405180910390f35b610685611607565b005b6106a1600480360381019061069c9190613e31565b6116c5565b005b3480156106af57600080fd5b506106ca60048036038101906106c591906140e4565b61173b565b005b3480156106d857600080fd5b506106e161175b565b6040516106ee9190613bb4565b60405180910390f35b34801561070357600080fd5b5061070c6117e1565b6040516107199190613bb4565b60405180910390f35b34801561072e57600080fd5b5061074960048036038101906107449190613d7c565b6117e7565b6040516107569190613bb4565b60405180910390f35b34801561076b57600080fd5b5061078660048036038101906107819190614137565b611858565b005b34801561079457600080fd5b506107af60048036038101906107aa9190613d7c565b611873565b6040516107bc9190613dea565b60405180910390f35b3480156107d157600080fd5b506107da611924565b6040516107e79190613d2e565b60405180910390f35b3480156107fc57600080fd5b5061081760048036038101906108129190613e71565b6119b2565b6040516108249190613bb4565b60405180910390f35b34801561083957600080fd5b50610842611a69565b005b34801561085057600080fd5b5061086b60048036038101906108669190613e71565b611a7d565b6040516108789190613c83565b60405180910390f35b34801561088d57600080fd5b50610896611ad6565b6040516108a39190613bb4565b60405180910390f35b3480156108b857600080fd5b506108d360048036038101906108ce91906141e0565b611adc565b005b6108ef60048036038101906108ea9190613e31565b611b89565b005b3480156108fd57600080fd5b50610906611c08565b6040516109139190613dea565b60405180910390f35b34801561092857600080fd5b50610931611c32565b60405161093e9190613d2e565b60405180910390f35b34801561095357600080fd5b5061096e600480360381019061096991906141e0565b611cc4565b005b61098a60048036038101906109859190613e31565b611d71565b005b34801561099857600080fd5b506109a1611ddd565b6040516109ae9190613bb4565b60405180910390f35b3480156109c357600080fd5b506109de60048036038101906109d99190614259565b611e8f565b005b3480156109ec57600080fd5b50610a076004803603810190610a02919061433a565b611ea5565b005b348015610a1557600080fd5b50610a306004803603810190610a2b9190613d7c565b611f07565b005b348015610a3e57600080fd5b50610a596004803603810190610a549190613d7c565b611f19565b604051610a669190613dea565b60405180910390f35b348015610a7b57600080fd5b50610a84611f58565b604051610a919190613bb4565b60405180910390f35b348015610aa657600080fd5b50610ac16004803603810190610abc9190613d7c565b611f5d565b604051610ace9190613d2e565b60405180910390f35b348015610ae357600080fd5b50610afe6004803603810190610af99190613e31565b611fc5565b005b348015610b0c57600080fd5b50610b15612044565b604051610b229190613bb4565b60405180910390f35b348015610b3757600080fd5b50610b526004803603810190610b4d9190613e71565b612051565b604051610b5f9190613bb4565b60405180910390f35b348015610b7457600080fd5b50610b7d612069565b604051610b8a9190613bb4565b60405180910390f35b348015610b9f57600080fd5b50610bba6004803603810190610bb591906143bd565b61206f565b005b348015610bc857600080fd5b50610be36004803603810190610bde9190613e71565b612089565b604051610bf09190613bb4565b60405180910390f35b348015610c0557600080fd5b50610c206004803603810190610c1b91906143fd565b61213a565b604051610c2d9190613c83565b60405180910390f35b348015610c4257600080fd5b50610c4b6121ce565b604051610c589190613c83565b60405180910390f35b348015610c6d57600080fd5b50610c886004803603810190610c839190613e31565b6121e9565b604051610c959190613c83565b60405180910390f35b348015610caa57600080fd5b50610cc56004803603810190610cc09190613e71565b612242565b005b348015610cd357600080fd5b50610cdc6122c5565b604051610ce99190613bb4565b60405180910390f35b670214e8348c4f000081565b60007f780e9d63000000000000000000000000000000000000000000000000000000007bffffffffffffffffffffffffffffffffffffffffffffffffffffffff1916827bffffffffffffffffffffffffffffffffffffffffffffffffffffffff19161480610d715750610d70826122d1565b5b9050919050565b606060008054610d879061446c565b80601f0160208091040260200160405190810160405280929190818152602001828054610db39061446c565b8015610e005780601f10610dd557610100808354040283529160200191610e00565b820191906000526020600020905b815481529060010190602001808311610de357829003601f168201915b5050505050905090565b6000610e15826123b3565b6004600083815260200190815260200160002060009054906101000a900473ffffffffffffffffffffffffffffffffffffffff169050919050565b6000610e5b82611873565b90508073ffffffffffffffffffffffffffffffffffffffff168373ffffffffffffffffffffffffffffffffffffffff1603610ecb576040517f08c379a0000000000000000000000000000000000000000000000000000000008152600401610ec29061450f565b60405180910390fd5b8073ffffffffffffffffffffffffffffffffffffffff16610eea6123fe565b73ffffffffffffffffffffffffffffffffffffffff161480610f195750610f1881610f136123fe565b61213a565b5b610f58576040517f08c379a0000000000000000000000000000000000000000000000000000000008152600401610f4f906145a1565b60405180910390fd5b610f628383612406565b505050565b6013602052806000526040600020600091509050806000018054610f8a9061446c565b80601f0160208091040260200160405190810160405280929190818152602001828054610fb69061446c565b80156110035780601f10610fd857610100808354040283529160200191611003565b820191906000526020600020905b815481529060010190602001808311610fe657829003601f168201915b5050505050908060010154908060020154908060030154908060040154908060050160009054906101000a900460ff16905086565b60116020528060005260406000206000915054906101000a900460ff1681565b6000600880549050905090565b61106d6124bf565b61107681611a7d565b6110b5576040517f08c379a00000000000000000000000000000000000000000000000000000000081526004016110ac9061460d565b60405180910390fd5b6000601360008373ffffffffffffffffffffffffffffffffffffffff1673ffffffffffffffffffffffffffffffffffffffff16815260200190815260200160002060050160006101000a81548160ff02191690831515021790555060005b600c8054905081101561129c578173ffffffffffffffffffffffffffffffffffffffff16600c828154811061114b5761114a61462d565b5b9060005260206000200160009054906101000a900473ffffffffffffffffffffffffffffffffffffffff1673ffffffffffffffffffffffffffffffffffffffff160361128957600c6001600c805490506111a5919061468b565b815481106111b6576111b561462d565b5b9060005260206000200160009054906101000a900473ffffffffffffffffffffffffffffffffffffffff16600c82815481106111f5576111f461462d565b5b9060005260206000200160006101000a81548173ffffffffffffffffffffffffffffffffffffffff021916908373ffffffffffffffffffffffffffffffffffffffff160217905550600c80548061124f5761124e6146bf565b5b6001900381819060005260206000200160006101000a81549073ffffffffffffffffffffffffffffffffffffffff0219169055905561129c565b8080611294906146ee565b915050611113565b5050565b6112a86124bf565b6112b186611a7d565b156112f1576040517f08c379a00000000000000000000000000000000000000000000000000000000081526004016112e890614782565b60405180910390fd5b600c869080600181540180825580915050600190039060005260206000200160009091909190916101000a81548173ffffffffffffffffffffffffffffffffffffffff021916908373ffffffffffffffffffffffffffffffffffffffff1602179055506040518060c0016040528086815260200185815260200184815260200183815260200182815260200160011515815250601360008873ffffffffffffffffffffffffffffffffffffffff1673ffffffffffffffffffffffffffffffffffffffff16815260200190815260200160002060008201518160000190816113d8919061494e565b506020820151816001015560408201518160020155606082015181600301556080820151816004015560a08201518160050160006101000a81548160ff021916908315150217905550905050505050505050565b61143d6114376123fe565b8261253d565b61147c576040517f08c379a000000000000000000000000000000000000000000000000000000000815260040161147390614a92565b60405180910390fd5b6114878383836125d2565b505050565b600381565b600061149c336114f3565b156114eb57601360003373ffffffffffffffffffffffffffffffffffffffff1673ffffffffffffffffffffffffffffffffffffffff1681526020019081526020016000206003015490506114f0565b600090505b90565b600042601360008473ffffffffffffffffffffffffffffffffffffffff1673ffffffffffffffffffffffffffffffffffffffff1681526020019081526020016000206004015410159050919050565b600061154d836119b2565b821061158e576040517f08c379a000000000000000000000000000000000000000000000000000000000815260040161158590614b24565b60405180910390fd5b600660008473ffffffffffffffffffffffffffffffffffffffff1673ffffffffffffffffffffffffffffffffffffffff168152602001908152602001600020600083815260200190815260200160002054905092915050565b600042601054111580156115fc5750600f5442105b905090565b600e5481565b61160f6124bf565b6000611619611c08565b73ffffffffffffffffffffffffffffffffffffffff164760405161163c90614b75565b60006040518083038185875af1925050503d8060008114611679576040519150601f19603f3d011682016040523d82523d6000602084013e61167e565b606091505b50509050806116c2576040517f08c379a00000000000000000000000000000000000000000000000000000000081526004016116b990614bd6565b60405180910390fd5b50565b6002600b540361170a576040517f08c379a000000000000000000000000000000000000000000000000000000000815260040161170190614c42565b60405180910390fd5b6002600b8190555061171b81612838565b61172582826129d6565b61172f8282612abd565b6001600b819055505050565b61175683838360405180602001604052806000815250611ea5565b505050565b6000806000905060005b600c805490508110156117d9576117b9600c82815481106117895761178861462d565b5b9060005260206000200160009054906101000a900473ffffffffffffffffffffffffffffffffffffffff16612089565b826117c49190614c62565b915080806117d1906146ee565b915050611765565b508091505090565b60105481565b60006117f1611058565b8210611832576040517f08c379a000000000000000000000000000000000000000000000000000000000815260040161182990614d08565b60405180910390fd5b600882815481106118465761184561462d565b5b90600052602060002001549050919050565b6118606124bf565b80600d908161186f919061494e565b5050565b6000806002600084815260200190815260200160002060009054906101000a900473ffffffffffffffffffffffffffffffffffffffff169050600073ffffffffffffffffffffffffffffffffffffffff168173ffffffffffffffffffffffffffffffffffffffff160361191b576040517f08c379a000000000000000000000000000000000000000000000000000000000815260040161191290614d74565b60405180910390fd5b80915050919050565b600d80546119319061446c565b80601f016020809104026020016040519081016040528092919081815260200182805461195d9061446c565b80156119aa5780601f1061197f576101008083540402835291602001916119aa565b820191906000526020600020905b81548152906001019060200180831161198d57829003601f168201915b505050505081565b60008073ffffffffffffffffffffffffffffffffffffffff168273ffffffffffffffffffffffffffffffffffffffff1603611a22576040517f08c379a0000000000000000000000000000000000000000000000000000000008152600401611a1990614e06565b60405180910390fd5b600360008373ffffffffffffffffffffffffffffffffffffffff1673ffffffffffffffffffffffffffffffffffffffff168152602001908152602001600020549050919050565b611a716124bf565b611a7b6000612b5b565b565b6000601360008373ffffffffffffffffffffffffffffffffffffffff1673ffffffffffffffffffffffffffffffffffffffff16815260200190815260200160002060050160009054906101000a900460ff169050919050565b600f5481565b611ae46124bf565b60005b82829050811015611b8457600160116000858585818110611b0b57611b0a61462d565b5b9050602002016020810190611b209190613e71565b73ffffffffffffffffffffffffffffffffffffffff1673ffffffffffffffffffffffffffffffffffffffff16815260200190815260200160002060006101000a81548160ff0219169083151502179055508080611b7c906146ee565b915050611ae7565b505050565b6002600b5403611bce576040517f08c379a0000000000000000000000000000000000000000000000000000000008152600401611bc590614c42565b60405180910390fd5b6002600b81905550611bdf81612c21565b611be881612838565b611bf282826129d6565b611bfc8282612abd565b6001600b819055505050565b6000600a60009054906101000a900473ffffffffffffffffffffffffffffffffffffffff16905090565b606060018054611c419061446c565b80601f0160208091040260200160405190810160405280929190818152602001828054611c6d9061446c565b8015611cba5780601f10611c8f57610100808354040283529160200191611cba565b820191906000526020600020905b815481529060010190602001808311611c9d57829003601f168201915b5050505050905090565b611ccc6124bf565b60005b82829050811015611d6c57600060116000858585818110611cf357611cf261462d565b5b9050602002016020810190611d089190613e71565b73ffffffffffffffffffffffffffffffffffffffff1673ffffffffffffffffffffffffffffffffffffffff16815260200190815260200160002060006101000a81548160ff0219169083151502179055508080611d64906146ee565b915050611ccf565b505050565b6002600b5403611db6576040517f08c379a0000000000000000000000000000000000000000000000000000000008152600401611dad90614c42565b60405180910390fd5b6002600b81905550611dc781612d4a565b611dd18282612abd565b6001600b819055505050565b600080611de86115e7565b611dfa576702c68af0bb140000611e04565b670214e8348c4f00005b9050611e0f33611a7d565b15611e875760006064601360003373ffffffffffffffffffffffffffffffffffffffff1673ffffffffffffffffffffffffffffffffffffffff1681526020019081526020016000206001015483611e669190614e26565b611e709190614eaf565b90508082611e7e919061468b565b92505050611e8c565b809150505b90565b611ea1611e9a6123fe565b8383612eed565b5050565b611eb6611eb06123fe565b8361253d565b611ef5576040517f08c379a0000000000000000000000000000000000000000000000000000000008152600401611eec90614a92565b60405180910390fd5b611f0184848484613059565b50505050565b611f0f6124bf565b80600e8190555050565b600c8181548110611f2957600080fd5b906000526020600020016000915054906101000a900473ffffffffffffffffffffffffffffffffffffffff1681565b600581565b6060611f68826123b3565b6000611f726130b5565b90506000815111611f925760405180602001604052806000815250611fbd565b80611f9c84613147565b604051602001611fad929190614f1c565b6040516020818303038152906040525b915050919050565b611fcd6124bf565b6124b1611fd861175b565b82611fe1611058565b611feb9190614c62565b611ff59190614c62565b1115612036576040517f08c379a000000000000000000000000000000000000000000000000000000000815260040161202d90614f8c565b60405180910390fd5b6120408282612abd565b5050565b6000600c80549050905090565b60126020528060005260406000206000915090505481565b6124b181565b6120776124bf565b80600f81905550816010819055505050565b6000612094826114f3565b1561213057601360008373ffffffffffffffffffffffffffffffffffffffff1673ffffffffffffffffffffffffffffffffffffffff16815260200190815260200160002060030154601360008473ffffffffffffffffffffffffffffffffffffffff1673ffffffffffffffffffffffffffffffffffffffff168152602001908152602001600020600201546121299190614c62565b9050612135565b600090505b919050565b6000600560008473ffffffffffffffffffffffffffffffffffffffff1673ffffffffffffffffffffffffffffffffffffffff16815260200190815260200160002060008373ffffffffffffffffffffffffffffffffffffffff1673ffffffffffffffffffffffffffffffffffffffff16815260200190815260200160002060009054906101000a900460ff16905092915050565b600080600e54141580156121e4575042600e5411155b905090565b6000600382601260008673ffffffffffffffffffffffffffffffffffffffff1673ffffffffffffffffffffffffffffffffffffffff168152602001908152602001600020546122389190614c62565b1115905092915050565b61224a6124bf565b600073ffffffffffffffffffffffffffffffffffffffff168173ffffffffffffffffffffffffffffffffffffffff16036122b9576040517f08c379a00000000000000000000000000000000000000000000000000000000081526004016122b09061501e565b60405180910390fd5b6122c281612b5b565b50565b6702c68af0bb14000081565b60007f80ac58cd000000000000000000000000000000000000000000000000000000007bffffffffffffffffffffffffffffffffffffffffffffffffffffffff1916827bffffffffffffffffffffffffffffffffffffffffffffffffffffffff1916148061239c57507f5b5e139f000000000000000000000000000000000000000000000000000000007bffffffffffffffffffffffffffffffffffffffffffffffffffffffff1916827bffffffffffffffffffffffffffffffffffffffffffffffffffffffff1916145b806123ac57506123ab826132a7565b5b9050919050565b6123bc81613311565b6123fb576040517f08c379a00000000000000000000000000000000000000000000000000000000081526004016123f290614d74565b60405180910390fd5b50565b600033905090565b816004600083815260200190815260200160002060006101000a81548173ffffffffffffffffffffffffffffffffffffffff021916908373ffffffffffffffffffffffffffffffffffffffff160217905550808273ffffffffffffffffffffffffffffffffffffffff1661247983611873565b73ffffffffffffffffffffffffffffffffffffffff167f8c5be1e5ebec7d5bd14f71427d1e84f3dd0314c0f7b2291e5b200ac8c7c3b92560405160405180910390a45050565b6124c76123fe565b73ffffffffffffffffffffffffffffffffffffffff166124e5611c08565b73ffffffffffffffffffffffffffffffffffffffff161461253b576040517f08c379a00000000000000000000000000000000000000000000000000000000081526004016125329061508a565b60405180910390fd5b565b60008061254983611873565b90508073ffffffffffffffffffffffffffffffffffffffff168473ffffffffffffffffffffffffffffffffffffffff16148061258b575061258a818561213a565b5b806125c957508373ffffffffffffffffffffffffffffffffffffffff166125b184610e0a565b73ffffffffffffffffffffffffffffffffffffffff16145b91505092915050565b8273ffffffffffffffffffffffffffffffffffffffff166125f282611873565b73ffffffffffffffffffffffffffffffffffffffff1614612648576040517f08c379a000000000000000000000000000000000000000000000000000000000815260040161263f9061511c565b60405180910390fd5b600073ffffffffffffffffffffffffffffffffffffffff168273ffffffffffffffffffffffffffffffffffffffff16036126b7576040517f08c379a00000000000000000000000000000000000000000000000000000000081526004016126ae906151ae565b60405180910390fd5b6126c283838361337d565b6126cd600082612406565b6001600360008573ffffffffffffffffffffffffffffffffffffffff1673ffffffffffffffffffffffffffffffffffffffff168152602001908152602001600020600082825461271d919061468b565b925050819055506001600360008473ffffffffffffffffffffffffffffffffffffffff1673ffffffffffffffffffffffffffffffffffffffff16815260200190815260200160002060008282546127749190614c62565b92505081905550816002600083815260200190815260200160002060006101000a81548173ffffffffffffffffffffffffffffffffffffffff021916908373ffffffffffffffffffffffffffffffffffffffff160217905550808273ffffffffffffffffffffffffffffffffffffffff168473ffffffffffffffffffffffffffffffffffffffff167fddf252ad1be2c89b69c2b068fc378daa952ba7f163c4a11628f55a4df523b3ef60405160405180910390a461283383838361348f565b505050565b6128406121ce565b8061284f575061284e6115e7565b5b61288e576040517f08c379a00000000000000000000000000000000000000000000000000000000081526004016128859061521a565b60405180910390fd5b600081116128d1576040517f08c379a00000000000000000000000000000000000000000000000000000000081526004016128c890615286565b60405180910390fd5b6124b1816128dd61175b565b6128e5611058565b6128ef9190614c62565b6128f99190614c62565b111561293a576040517f08c379a000000000000000000000000000000000000000000000000000000000815260040161293190614f8c565b60405180910390fd5b600581111561297e576040517f08c379a000000000000000000000000000000000000000000000000000000000815260040161297590615318565b60405180910390fd5b612986611ddd565b816129919190614e26565b3410156129d3576040517f08c379a00000000000000000000000000000000000000000000000000000000081526004016129ca90615384565b60405180910390fd5b50565b6129de6115e7565b15612ab957601160008373ffffffffffffffffffffffffffffffffffffffff1673ffffffffffffffffffffffffffffffffffffffff16815260200190815260200160002060009054906101000a900460ff16612a6f576040517f08c379a0000000000000000000000000000000000000000000000000000000008152600401612a66906153f0565b60405180910390fd5b612a7982826121e9565b612ab8576040517f08c379a0000000000000000000000000000000000000000000000000000000008152600401612aaf9061545c565b60405180910390fd5b5b5050565b6000612ac7611058565b905081601260008573ffffffffffffffffffffffffffffffffffffffff1673ffffffffffffffffffffffffffffffffffffffff1681526020019081526020016000206000828254612b189190614c62565b925050819055506000600190505b828111612b5557612b42848284612b3d9190614c62565b613494565b8080612b4d906146ee565b915050612b26565b50505050565b6000600a60009054906101000a900473ffffffffffffffffffffffffffffffffffffffff16905081600a60006101000a81548173ffffffffffffffffffffffffffffffffffffffff021916908373ffffffffffffffffffffffffffffffffffffffff1602179055508173ffffffffffffffffffffffffffffffffffffffff168173ffffffffffffffffffffffffffffffffffffffff167f8be0079c531659141344cd1fd0a4f28419497f9722a3daafe3b4186f6b6457e060405160405180910390a35050565b612c2a33611a7d565b612c69576040517f08c379a0000000000000000000000000000000000000000000000000000000008152600401612c60906154ee565b60405180910390fd5b601360003373ffffffffffffffffffffffffffffffffffffffff1673ffffffffffffffffffffffffffffffffffffffff16815260200190815260200160002060020154811115612cee576040517f08c379a0000000000000000000000000000000000000000000000000000000008152600401612ce59061555a565b60405180910390fd5b80601360003373ffffffffffffffffffffffffffffffffffffffff1673ffffffffffffffffffffffffffffffffffffffff1681526020019081526020016000206002016000828254612d40919061468b565b9250508190555050565b612d5333611a7d565b612d92576040517f08c379a0000000000000000000000000000000000000000000000000000000008152600401612d89906155ec565b60405180910390fd5b6124b1612d9d611491565b82612da661175b565b612dae611058565b612db89190614c62565b612dc29190614c62565b612dcc919061468b565b1115612e0d576040517f08c379a0000000000000000000000000000000000000000000000000000000008152600401612e0490614f8c565b60405180910390fd5b601360003373ffffffffffffffffffffffffffffffffffffffff1673ffffffffffffffffffffffffffffffffffffffff168152602001908152602001600020600301548110612e91576040517f08c379a0000000000000000000000000000000000000000000000000000000008152600401612e889061567e565b60405180910390fd5b80601360003373ffffffffffffffffffffffffffffffffffffffff1673ffffffffffffffffffffffffffffffffffffffff1681526020019081526020016000206003016000828254612ee3919061468b565b9250508190555050565b8173ffffffffffffffffffffffffffffffffffffffff168373ffffffffffffffffffffffffffffffffffffffff1603612f5b576040517f08c379a0000000000000000000000000000000000000000000000000000000008152600401612f52906156ea565b60405180910390fd5b80600560008573ffffffffffffffffffffffffffffffffffffffff1673ffffffffffffffffffffffffffffffffffffffff16815260200190815260200160002060008473ffffffffffffffffffffffffffffffffffffffff1673ffffffffffffffffffffffffffffffffffffffff16815260200190815260200160002060006101000a81548160ff0219169083151502179055508173ffffffffffffffffffffffffffffffffffffffff168373ffffffffffffffffffffffffffffffffffffffff167f17307eab39ab6107e8899845ad3d59bd9653f200f220920489ca2b5937696c318360405161304c9190613c83565b60405180910390a3505050565b6130648484846125d2565b613070848484846134b2565b6130af576040517f08c379a00000000000000000000000000000000000000000000000000000000081526004016130a69061577c565b60405180910390fd5b50505050565b6060600d80546130c49061446c565b80601f01602080910402602001604051908101604052809291908181526020018280546130f09061446c565b801561313d5780601f106131125761010080835404028352916020019161313d565b820191906000526020600020905b81548152906001019060200180831161312057829003601f168201915b5050505050905090565b60606000820361318e576040518060400160405280600181526020017f300000000000000000000000000000000000000000000000000000000000000081525090506132a2565b600082905060005b600082146131c05780806131a9906146ee565b915050600a826131b99190614eaf565b9150613196565b60008167ffffffffffffffff8111156131dc576131db613f10565b5b6040519080825280601f01601f19166020018201604052801561320e5781602001600182028036833780820191505090505b5090505b6000851461329b57600182613227919061468b565b9150600a85613236919061579c565b60306132429190614c62565b60f81b8183815181106132585761325761462d565b5b60200101907effffffffffffffffffffffffffffffffffffffffffffffffffffffffffffff1916908160001a905350600a856132949190614eaf565b9450613212565b8093505050505b919050565b60007f01ffc9a7000000000000000000000000000000000000000000000000000000007bffffffffffffffffffffffffffffffffffffffffffffffffffffffff1916827bffffffffffffffffffffffffffffffffffffffffffffffffffffffff1916149050919050565b60008073ffffffffffffffffffffffffffffffffffffffff166002600084815260200190815260200160002060009054906101000a900473ffffffffffffffffffffffffffffffffffffffff1673ffffffffffffffffffffffffffffffffffffffff1614159050919050565b613388838383613639565b600073ffffffffffffffffffffffffffffffffffffffff168373ffffffffffffffffffffffffffffffffffffffff16036133ca576133c58161363e565b613409565b8173ffffffffffffffffffffffffffffffffffffffff168373ffffffffffffffffffffffffffffffffffffffff1614613408576134078382613687565b5b5b600073ffffffffffffffffffffffffffffffffffffffff168273ffffffffffffffffffffffffffffffffffffffff160361344b57613446816137f4565b61348a565b8273ffffffffffffffffffffffffffffffffffffffff168273ffffffffffffffffffffffffffffffffffffffff16146134895761348882826138c5565b5b5b505050565b505050565b6134ae828260405180602001604052806000815250613944565b5050565b60006134d38473ffffffffffffffffffffffffffffffffffffffff1661399f565b1561362c578373ffffffffffffffffffffffffffffffffffffffff1663150b7a026134fc6123fe565b8786866040518563ffffffff1660e01b815260040161351e9493929190615822565b6020604051808303816000875af192505050801561355a57506040513d601f19601f820116820180604052508101906135579190615883565b60015b6135dc573d806000811461358a576040519150601f19603f3d011682016040523d82523d6000602084013e61358f565b606091505b5060008151036135d4576040517f08c379a00000000000000000000000000000000000000000000000000000000081526004016135cb9061577c565b60405180910390fd5b805181602001fd5b63150b7a0260e01b7bffffffffffffffffffffffffffffffffffffffffffffffffffffffff1916817bffffffffffffffffffffffffffffffffffffffffffffffffffffffff191614915050613631565b600190505b949350505050565b505050565b6008805490506009600083815260200190815260200160002081905550600881908060018154018082558091505060019003906000526020600020016000909190919091505550565b60006001613694846119b2565b61369e919061468b565b9050600060076000848152602001908152602001600020549050818114613783576000600660008673ffffffffffffffffffffffffffffffffffffffff1673ffffffffffffffffffffffffffffffffffffffff168152602001908152602001600020600084815260200190815260200160002054905080600660008773ffffffffffffffffffffffffffffffffffffffff1673ffffffffffffffffffffffffffffffffffffffff168152602001908152602001600020600084815260200190815260200160002081905550816007600083815260200190815260200160002081905550505b6007600084815260200190815260200160002060009055600660008573ffffffffffffffffffffffffffffffffffffffff1673ffffffffffffffffffffffffffffffffffffffff16815260200190815260200160002060008381526020019081526020016000206000905550505050565b60006001600880549050613808919061468b565b90506000600960008481526020019081526020016000205490506000600883815481106138385761383761462d565b5b90600052602060002001549050806008838154811061385a5761385961462d565b5b9060005260206000200181905550816009600083815260200190815260200160002081905550600960008581526020019081526020016000206000905560088054806138a9576138a86146bf565b5b6001900381819060005260206000200160009055905550505050565b60006138d0836119b2565b905081600660008573ffffffffffffffffffffffffffffffffffffffff1673ffffffffffffffffffffffffffffffffffffffff168152602001908152602001600020600083815260200190815260200160002081905550806007600084815260200190815260200160002081905550505050565b61394e83836139c2565b61395b60008484846134b2565b61399a576040517f08c379a00000000000000000000000000000000000000000000000000000000081526004016139919061577c565b60405180910390fd5b505050565b6000808273ffffffffffffffffffffffffffffffffffffffff163b119050919050565b600073ffffffffffffffffffffffffffffffffffffffff168273ffffffffffffffffffffffffffffffffffffffff1603613a31576040517f08c379a0000000000000000000000000000000000000000000000000000000008152600401613a28906158fc565b60405180910390fd5b613a3a81613311565b15613a7a576040517f08c379a0000000000000000000000000000000000000000000000000000000008152600401613a7190615968565b60405180910390fd5b613a866000838361337d565b6001600360008473ffffffffffffffffffffffffffffffffffffffff1673ffffffffffffffffffffffffffffffffffffffff1681526020019081526020016000206000828254613ad69190614c62565b92505081905550816002600083815260200190815260200160002060006101000a81548173ffffffffffffffffffffffffffffffffffffffff021916908373ffffffffffffffffffffffffffffffffffffffff160217905550808273ffffffffffffffffffffffffffffffffffffffff16600073ffffffffffffffffffffffffffffffffffffffff167fddf252ad1be2c89b69c2b068fc378daa952ba7f163c4a11628f55a4df523b3ef60405160405180910390a4613b976000838361348f565b5050565b6000819050919050565b613bae81613b9b565b82525050565b6000602082019050613bc96000830184613ba5565b92915050565b6000604051905090565b600080fd5b600080fd5b60007fffffffff0000000000000000000000000000000000000000000000000000000082169050919050565b613c1881613be3565b8114613c2357600080fd5b50565b600081359050613c3581613c0f565b92915050565b600060208284031215613c5157613c50613bd9565b5b6000613c5f84828501613c26565b91505092915050565b60008115159050919050565b613c7d81613c68565b82525050565b6000602082019050613c986000830184613c74565b92915050565b600081519050919050565b600082825260208201905092915050565b60005b83811015613cd8578082015181840152602081019050613cbd565b60008484015250505050565b6000601f19601f8301169050919050565b6000613d0082613c9e565b613d0a8185613ca9565b9350613d1a818560208601613cba565b613d2381613ce4565b840191505092915050565b60006020820190508181036000830152613d488184613cf5565b905092915050565b613d5981613b9b565b8114613d6457600080fd5b50565b600081359050613d7681613d50565b92915050565b600060208284031215613d9257613d91613bd9565b5b6000613da084828501613d67565b91505092915050565b600073ffffffffffffffffffffffffffffffffffffffff82169050919050565b6000613dd482613da9565b9050919050565b613de481613dc9565b82525050565b6000602082019050613dff6000830184613ddb565b92915050565b613e0e81613dc9565b8114613e1957600080fd5b50565b600081359050613e2b81613e05565b92915050565b60008060408385031215613e4857613e47613bd9565b5b6000613e5685828601613e1c565b9250506020613e6785828601613d67565b9150509250929050565b600060208284031215613e8757613e86613bd9565b5b6000613e9584828501613e1c565b91505092915050565b600060c0820190508181036000830152613eb88189613cf5565b9050613ec76020830188613ba5565b613ed46040830187613ba5565b613ee16060830186613ba5565b613eee6080830185613ba5565b613efb60a0830184613c74565b979650505050505050565b600080fd5b600080fd5b7f4e487b7100000000000000000000000000000000000000000000000000000000600052604160045260246000fd5b613f4882613ce4565b810181811067ffffffffffffffff82111715613f6757613f66613f10565b5b80604052505050565b6000613f7a613bcf565b9050613f868282613f3f565b919050565b600067ffffffffffffffff821115613fa657613fa5613f10565b5b613faf82613ce4565b9050602081019050919050565b82818337600083830152505050565b6000613fde613fd984613f8b565b613f70565b905082815260208101848484011115613ffa57613ff9613f0b565b5b614005848285613fbc565b509392505050565b600082601f83011261402257614021613f06565b5b8135614032848260208601613fcb565b91505092915050565b60008060008060008060c0878903121561405857614057613bd9565b5b600061406689828a01613e1c565b965050602087013567ffffffffffffffff81111561408757614086613bde565b5b61409389828a0161400d565b95505060406140a489828a01613d67565b94505060606140b589828a01613d67565b93505060806140c689828a01613d67565b92505060a06140d789828a01613d67565b9150509295509295509295565b6000806000606084860312156140fd576140fc613bd9565b5b600061410b86828701613e1c565b935050602061411c86828701613e1c565b925050604061412d86828701613d67565b9150509250925092565b60006020828403121561414d5761414c613bd9565b5b600082013567ffffffffffffffff81111561416b5761416a613bde565b5b6141778482850161400d565b91505092915050565b600080fd5b600080fd5b60008083601f8401126141a05761419f613f06565b5b8235905067ffffffffffffffff8111156141bd576141bc614180565b5b6020830191508360208202830111156141d9576141d8614185565b5b9250929050565b600080602083850312156141f7576141f6613bd9565b5b600083013567ffffffffffffffff81111561421557614214613bde565b5b6142218582860161418a565b92509250509250929050565b61423681613c68565b811461424157600080fd5b50565b6000813590506142538161422d565b92915050565b600080604083850312156142705761426f613bd9565b5b600061427e85828601613e1c565b925050602061428f85828601614244565b9150509250929050565b600067ffffffffffffffff8211156142b4576142b3613f10565b5b6142bd82613ce4565b9050602081019050919050565b60006142dd6142d884614299565b613f70565b9050828152602081018484840111156142f9576142f8613f0b565b5b614304848285613fbc565b509392505050565b600082601f83011261432157614320613f06565b5b81356143318482602086016142ca565b91505092915050565b6000806000806080858703121561435457614353613bd9565b5b600061436287828801613e1c565b945050602061437387828801613e1c565b935050604061438487828801613d67565b925050606085013567ffffffffffffffff8111156143a5576143a4613bde565b5b6143b18782880161430c565b91505092959194509250565b600080604083850312156143d4576143d3613bd9565b5b60006143e285828601613d67565b92505060206143f385828601613d67565b9150509250929050565b6000806040838503121561441457614413613bd9565b5b600061442285828601613e1c565b925050602061443385828601613e1c565b9150509250929050565b7f4e487b7100000000000000000000000000000000000000000000000000000000600052602260045260246000fd5b6000600282049050600182168061448457607f821691505b6020821081036144975761449661443d565b5b50919050565b7f4552433732313a20617070726f76616c20746f2063757272656e74206f776e6560008201527f7200000000000000000000000000000000000000000000000000000000000000602082015250565b60006144f9602183613ca9565b91506145048261449d565b604082019050919050565b60006020820190508181036000830152614528816144ec565b9050919050565b7f4552433732313a20617070726f76652063616c6c6572206973206e6f7420746f60008201527f6b656e206f776e6572206e6f7220617070726f76656420666f7220616c6c0000602082015250565b600061458b603e83613ca9565b91506145968261452f565b604082019050919050565b600060208201905081810360008301526145ba8161457e565b9050919050565b7f506172746e65727368697020646f6573206e6f74206578697374000000000000600082015250565b60006145f7601a83613ca9565b9150614602826145c1565b602082019050919050565b60006020820190508181036000830152614626816145ea565b9050919050565b7f4e487b7100000000000000000000000000000000000000000000000000000000600052603260045260246000fd5b7f4e487b7100000000000000000000000000000000000000000000000000000000600052601160045260246000fd5b600061469682613b9b565b91506146a183613b9b565b92508282039050818111156146b9576146b861465c565b5b92915050565b7f4e487b7100000000000000000000000000000000000000000000000000000000600052603160045260246000fd5b60006146f982613b9b565b91507fffffffffffffffffffffffffffffffffffffffffffffffffffffffffffffffff820361472b5761472a61465c565b5b600182019050919050565b7f506172746e65727368697020616c726561647920657869737473000000000000600082015250565b600061476c601a83613ca9565b915061477782614736565b602082019050919050565b6000602082019050818103600083015261479b8161475f565b9050919050565b60008190508160005260206000209050919050565b60006020601f8301049050919050565b600082821b905092915050565b6000600883026148047fffffffffffffffffffffffffffffffffffffffffffffffffffffffffffffffff826147c7565b61480e86836147c7565b95508019841693508086168417925050509392505050565b6000819050919050565b600061484b61484661484184613b9b565b614826565b613b9b565b9050919050565b6000819050919050565b61486583614830565b61487961487182614852565b8484546147d4565b825550505050565b600090565b61488e614881565b61489981848461485c565b505050565b5b818110156148bd576148b2600082614886565b60018101905061489f565b5050565b601f821115614902576148d3816147a2565b6148dc846147b7565b810160208510156148eb578190505b6148ff6148f7856147b7565b83018261489e565b50505b505050565b600082821c905092915050565b600061492560001984600802614907565b1980831691505092915050565b600061493e8383614914565b9150826002028217905092915050565b61495782613c9e565b67ffffffffffffffff8111156149705761496f613f10565b5b61497a825461446c565b6149858282856148c1565b600060209050601f8311600181146149b857600084156149a6578287015190505b6149b08582614932565b865550614a18565b601f1984166149c6866147a2565b60005b828110156149ee578489015182556001820191506020850194506020810190506149c9565b86831015614a0b5784890151614a07601f891682614914565b8355505b6001600288020188555050505b505050505050565b7f4552433732313a2063616c6c6572206973206e6f7420746f6b656e206f776e6560008201527f72206e6f7220617070726f766564000000000000000000000000000000000000602082015250565b6000614a7c602e83613ca9565b9150614a8782614a20565b604082019050919050565b60006020820190508181036000830152614aab81614a6f565b9050919050565b7f455243373231456e756d657261626c653a206f776e657220696e646578206f7560008201527f74206f6620626f756e6473000000000000000000000000000000000000000000602082015250565b6000614b0e602b83613ca9565b9150614b1982614ab2565b604082019050919050565b60006020820190508181036000830152614b3d81614b01565b9050919050565b600081905092915050565b50565b6000614b5f600083614b44565b9150614b6a82614b4f565b600082019050919050565b6000614b8082614b52565b9150819050919050565b7f4661696c656420746f2077697468647261770000000000000000000000000000600082015250565b6000614bc0601283613ca9565b9150614bcb82614b8a565b602082019050919050565b60006020820190508181036000830152614bef81614bb3565b9050919050565b7f5265656e7472616e637947756172643a207265656e7472616e742063616c6c00600082015250565b6000614c2c601f83613ca9565b9150614c3782614bf6565b602082019050919050565b60006020820190508181036000830152614c5b81614c1f565b9050919050565b6000614c6d82613b9b565b9150614c7883613b9b565b9250828201905080821115614c9057614c8f61465c565b5b92915050565b7f455243373231456e756d657261626c653a20676c6f62616c20696e646578206f60008201527f7574206f6620626f756e64730000000000000000000000000000000000000000602082015250565b6000614cf2602c83613ca9565b9150614cfd82614c96565b604082019050919050565b60006020820190508181036000830152614d2181614ce5565b9050919050565b7f4552433732313a20696e76616c696420746f6b656e2049440000000000000000600082015250565b6000614d5e601883613ca9565b9150614d6982614d28565b602082019050919050565b60006020820190508181036000830152614d8d81614d51565b9050919050565b7f4552433732313a2061646472657373207a65726f206973206e6f74206120766160008201527f6c6964206f776e65720000000000000000000000000000000000000000000000602082015250565b6000614df0602983613ca9565b9150614dfb82614d94565b604082019050919050565b60006020820190508181036000830152614e1f81614de3565b9050919050565b6000614e3182613b9b565b9150614e3c83613b9b565b9250817fffffffffffffffffffffffffffffffffffffffffffffffffffffffffffffffff0483118215151615614e7557614e7461465c565b5b828202905092915050565b7f4e487b7100000000000000000000000000000000000000000000000000000000600052601260045260246000fd5b6000614eba82613b9b565b9150614ec583613b9b565b925082614ed557614ed4614e80565b5b828204905092915050565b600081905092915050565b6000614ef682613c9e565b614f008185614ee0565b9350614f10818560208601613cba565b80840191505092915050565b6000614f288285614eeb565b9150614f348284614eeb565b91508190509392505050565b7f537570706c79206c656674206973206e6f7420656e6f75676800000000000000600082015250565b6000614f76601983613ca9565b9150614f8182614f40565b602082019050919050565b60006020820190508181036000830152614fa581614f69565b9050919050565b7f4f776e61626c653a206e6577206f776e657220697320746865207a65726f206160008201527f6464726573730000000000000000000000000000000000000000000000000000602082015250565b6000615008602683613ca9565b915061501382614fac565b604082019050919050565b6000602082019050818103600083015261503781614ffb565b9050919050565b7f4f776e61626c653a2063616c6c6572206973206e6f7420746865206f776e6572600082015250565b6000615074602083613ca9565b915061507f8261503e565b602082019050919050565b600060208201905081810360008301526150a381615067565b9050919050565b7f4552433732313a207472616e736665722066726f6d20696e636f72726563742060008201527f6f776e6572000000000000000000000000000000000000000000000000000000602082015250565b6000615106602583613ca9565b9150615111826150aa565b604082019050919050565b60006020820190508181036000830152615135816150f9565b9050919050565b7f4552433732313a207472616e7366657220746f20746865207a65726f2061646460008201527f7265737300000000000000000000000000000000000000000000000000000000602082015250565b6000615198602483613ca9565b91506151a38261513c565b604082019050919050565b600060208201905081810360008301526151c78161518b565b9050919050565b7f53616c65206973206e6f74206163746976650000000000000000000000000000600082015250565b6000615204601283613ca9565b915061520f826151ce565b602082019050919050565b60006020820190508181036000830152615233816151f7565b9050919050565b7f4d757374206d696e74206174206c65617374206f6e65204e4654000000000000600082015250565b6000615270601a83613ca9565b915061527b8261523a565b602082019050919050565b6000602082019050818103600083015261529f81615263565b9050919050565b7f43616e2774206d696e74207468657365206d616e79204e465473206174206f6e60008201527f6365000000000000000000000000000000000000000000000000000000000000602082015250565b6000615302602283613ca9565b915061530d826152a6565b604082019050919050565b60006020820190508181036000830152615331816152f5565b9050919050565b7f4e6f7420656e6f7567682066756e647320746f20707572636861736500000000600082015250565b600061536e601c83613ca9565b915061537982615338565b602082019050919050565b6000602082019050818103600083015261539d81615361565b9050919050565b7f50726573616c65206163636573732064656e6965640000000000000000000000600082015250565b60006153da601583613ca9565b91506153e5826153a4565b602082019050919050565b60006020820190508181036000830152615409816153cd565b9050919050565b7f4e6f7420656e6f7567682070726573616c65206d696e74696e6773206c656674600082015250565b6000615446602083613ca9565b915061545182615410565b602082019050919050565b6000602082019050818103600083015261547581615439565b9050919050565b7f4f6e6c7920706172746e65727320686176652061636365737320746f2064697360008201527f636f756e746564206d696e747300000000000000000000000000000000000000602082015250565b60006154d8602d83613ca9565b91506154e38261547c565b604082019050919050565b60006020820190508181036000830152615507816154cb565b9050919050565b7f4e6f7420656e6f75676820706172746e6572206d696e7473206c656674000000600082015250565b6000615544601d83613ca9565b915061554f8261550e565b602082019050919050565b6000602082019050818103600083015261557381615537565b9050919050565b7f4f6e6c7920706172746e65727320686176652061636365737320746f2066726560008201527f65206d696e747300000000000000000000000000000000000000000000000000602082015250565b60006155d6602783613ca9565b91506155e18261557a565b604082019050919050565b60006020820190508181036000830152615605816155c9565b9050919050565b7f4e6f7420656e6f75676820706172746e65722066726565206d696e7473206c6560008201527f6674000000000000000000000000000000000000000000000000000000000000602082015250565b6000615668602283613ca9565b91506156738261560c565b604082019050919050565b600060208201905081810360008301526156978161565b565b9050919050565b7f4552433732313a20617070726f766520746f2063616c6c657200000000000000600082015250565b60006156d4601983613ca9565b91506156df8261569e565b602082019050919050565b60006020820190508181036000830152615703816156c7565b9050919050565b7f4552433732313a207472616e7366657220746f206e6f6e20455243373231526560008201527f63656976657220696d706c656d656e7465720000000000000000000000000000602082015250565b6000615766603283613ca9565b91506157718261570a565b604082019050919050565b6000602082019050818103600083015261579581615759565b9050919050565b60006157a782613b9b565b91506157b283613b9b565b9250826157c2576157c1614e80565b5b828206905092915050565b600081519050919050565b600082825260208201905092915050565b60006157f4826157cd565b6157fe81856157d8565b935061580e818560208601613cba565b61581781613ce4565b840191505092915050565b60006080820190506158376000830187613ddb565b6158446020830186613ddb565b6158516040830185613ba5565b818103606083015261586381846157e9565b905095945050505050565b60008151905061587d81613c0f565b92915050565b60006020828403121561589957615898613bd9565b5b60006158a78482850161586e565b91505092915050565b7f4552433732313a206d696e7420746f20746865207a65726f2061646472657373600082015250565b60006158e6602083613ca9565b91506158f1826158b0565b602082019050919050565b60006020820190508181036000830152615915816158d9565b9050919050565b7f4552433732313a20746f6b656e20616c7265616479206d696e74656400000000600082015250565b6000615952601c83613ca9565b915061595d8261591c565b602082019050919050565b6000602082019050818103600083015261598181615945565b905091905056fea2646970667358221220e72fff4fb952270d3d644d902252bc811de3bbf99fcf6d36f4feda89715a605d64736f6c63430008100033",
  "immutableReferences": {},
  "source": "// SPDX-License-Identifier: MIT\n\npragma solidity ^0.8.0;\n\nimport \"@openzeppelin/contracts/access/Ownable.sol\";\nimport \"@openzeppelin/contracts/security/ReentrancyGuard.sol\";\nimport \"@openzeppelin/contracts/token/ERC721/extensions/ERC721Enumerable.sol\";\n\n/*\n      .\".\".\".\n    (`       `)               _.-=-.\n     '._.--.-;             .-`  -'  '.\n    .-'`.o )  \\           /  .-_.--'  `\\\n   `;---) \\    ;         /  / ;' _-_.-' `\n     `;\"`  ;    \\        ; .  .'   _-' \\\n      (    )    |        |  / .-.-'    -`\n       '-.-'     \\       | .' ` '.-'-\\`\n        /_./\\_.|\\_\\      ;  ' .'-'.-.\n        /         '-._    \\` /  _;-,\n       |         .-=-.;-._ \\  -'-,\n       \\        /      `\";`-`,-\"`)\n        \\       \\     '-- `\\.\\\n         '.      '._ '-- '--'/\n           `-._     `'----'`;\n               `\"\"\"--.____,/\n                      \\\\  \\\n                      // /`\n                  ___// /__\n                (`(`(---\"-`)\n*/\ncontract ZetaSaurio is ERC721Enumerable, Ownable, ReentrancyGuard {\n    using Strings for uint256;\n\n    struct Partnership {\n        // The human-readable identifier of the partnership\n        string label;\n        // The discount percent given to the partner\n        uint256 discountPercent;\n        // The amount of discounted tokens given to the partner\n        uint256 discountedSupply;\n        // The amount of free to mint tokens given to the partner\n        uint256 freeToMintSupply;\n        // The timestamp until which the supply will be reserved\n        uint reservedUntilTimestamp;\n        // Just a marker to know if a patnership exists\n        bool exists;\n    }\n\n    address[] public partners;\n    string public baseURI = \"\";\n    uint public saleStartTimestamp;\n    uint public presaleEndTimestamp;\n    uint public presaleStartTimestamp;\n    uint256 public constant maxSupply = 9393;\n    uint256 public constant batchMintLimit = 5;\n    uint256 public constant presaleMintPerAddressLimit = 3;\n    uint256 public constant salePrice = 0.2 ether; // 0.2 BNB\n    uint256 public constant presalePrice = 0.15 ether; // 0.15 BNB\n    mapping(address => bool) public hasPresaleAccess;\n    mapping(address => uint256) public mintedPerAddress;\n    mapping(address => Partnership) public partnerships;\n\n    constructor() ERC721(\"ZetaSaurio\", \"ZS\") {}\n\n    // Minting\n\n    function mint(address _user, uint256 _mintAmount) public payable nonReentrant {\n        validateSale(_mintAmount);\n        validateAndUpdatePresale(_user, _mintAmount);\n\n        mintMany(_user, _mintAmount);\n    }\n\n    function mintAsPartner(address _user, uint256 _mintAmount) public payable nonReentrant {\n        validateAndUpdatePartnership(_mintAmount);\n\n        validateSale(_mintAmount);\n        validateAndUpdatePresale(_user, _mintAmount);\n\n        mintMany(_user, _mintAmount);\n    }\n\n    function freeMint(address _user, uint256 _mintAmount) public payable nonReentrant {\n        validateAndUpdateFreeMint(_mintAmount);\n\n        mintMany(_user, _mintAmount);\n    }\n\n    // Utility\n\n    function partnersCount() public view returns (uint256) {\n        return partners.length;\n    }\n\n    function partnershipExists(address _partner) public view returns (bool) {\n        return partnerships[_partner].exists;\n    }\n\n    function partnershipSupplyIsReserved(address _partner) public view returns (bool) {\n        return partnerships[_partner].reservedUntilTimestamp >= block.timestamp;\n    }\n\n    function partnershipReservedFreeToMintSupply() public view returns (uint256) {\n        if(partnershipSupplyIsReserved(msg.sender))  {\n            return partnerships[msg.sender].freeToMintSupply;\n        }\n\n        return 0;\n    }\n\n    function partnershipReservedSupply(address _partner) public view returns (uint256) {\n        if(partnershipSupplyIsReserved(_partner))  {\n            return partnerships[_partner].discountedSupply + partnerships[_partner].freeToMintSupply;\n        }\n\n        return 0;\n    }\n\n    function presaleIsActive() public view returns (bool) {\n        return presaleStartTimestamp <= block.timestamp && block.timestamp < presaleEndTimestamp;\n    }\n\n    function saleIsActive() public view returns (bool) {\n        return saleStartTimestamp != 0 && saleStartTimestamp <= block.timestamp;\n    }\n\n    function price() public view returns (uint256) {\n        uint256 currentPrice = presaleIsActive() ? presalePrice : salePrice;\n\n        if (partnershipExists(msg.sender)) {\n            uint256 discount = currentPrice * partnerships[msg.sender].discountPercent / 100;\n            return currentPrice - discount;\n        }\n\n        return currentPrice;\n    }\n\n    function reservedSupply() public view returns (uint256) {\n        uint256 supply = 0;\n\n        for (uint256 i = 0; i < partners.length; i++) {\n            supply += partnershipReservedSupply(partners[i]);\n        }\n\n        return supply;\n    }\n\n    function enoughPresaleMintingsLeft(address _user, uint256 _mintAmount) public view returns (bool) {\n        return mintedPerAddress[_user] + _mintAmount <= presaleMintPerAddressLimit;\n    }\n\n    // Internal\n\n    function validateSale(uint256 _mintAmount) internal view {\n        require(saleIsActive() || presaleIsActive(), \"Sale is not active\");\n        require(_mintAmount > 0, \"Must mint at least one NFT\");\n        require(totalSupply() + reservedSupply() + _mintAmount <= maxSupply, \"Supply left is not enough\");\n        require(_mintAmount <= batchMintLimit, \"Can't mint these many NFTs at once\");\n        require(msg.value >= _mintAmount * price(), \"Not enough funds to purchase\");        \n    }\n\n    function validateAndUpdatePresale(address _user, uint256 _mintAmount) internal view {\n        if (presaleIsActive()) {\n            require(hasPresaleAccess[_user], \"Presale access denied\");\n            require(enoughPresaleMintingsLeft(_user, _mintAmount), \"Not enough presale mintings left\");\n        }\n    }\n\n    function validateAndUpdatePartnership(uint256 _mintAmount) internal {\n        require(partnershipExists(msg.sender), \"Only partners have access to discounted mints\");\n        require(_mintAmount <= partnerships[msg.sender].discountedSupply, \"Not enough partner mints left\");\n\n        partnerships[msg.sender].discountedSupply -= _mintAmount;\n    }\n\n    function validateAndUpdateFreeMint(uint256 _mintAmount) internal {\n        require(partnershipExists(msg.sender), \"Only partners have access to free mints\");\n        require(\n            totalSupply()\n            + reservedSupply() \n            + _mintAmount\n            - partnershipReservedFreeToMintSupply()\n            <= maxSupply,\n            \"Supply left is not enough\"\n        );\n        require(_mintAmount < partnerships[msg.sender].freeToMintSupply, \"Not enough partner free mints left\");\n\n        partnerships[msg.sender].freeToMintSupply -= _mintAmount;\n    }\n\n    function mintMany(address _user, uint256 _mintAmount) internal {\n        uint256 supply = totalSupply();\n        mintedPerAddress[_user] += _mintAmount;\n\n        for (uint256 i = 1; i <= _mintAmount; i++) {\n            _safeMint(_user, supply + i);\n        }\n    }\n\n    // Only owner\n\n    function scheduleSale(uint _saleStartTimestamp) public onlyOwner {\n        saleStartTimestamp = _saleStartTimestamp;\n    }\n\n    function schedulePresale(uint _presaleStartTimestamp, uint _presaleEndTimestamp) public onlyOwner {\n        presaleEndTimestamp = _presaleEndTimestamp;\n        presaleStartTimestamp = _presaleStartTimestamp;\n    }\n\n    function grantPresaleAccess(address[] calldata _users) public onlyOwner {\n        for (uint256 i = 0; i < _users.length; i++) {\n            hasPresaleAccess[_users[i]] = true;\n        }\n    }\n\n    function revokePresaleAccess(address[] calldata _users) public onlyOwner {\n        for (uint256 i = 0; i < _users.length; i++) {\n            hasPresaleAccess[_users[i]] = false;\n        }\n    }\n\n    function createPartnership(\n        address _partner,\n        string memory _label,\n        uint256 _discountPercent,\n        uint256 _discountedSupply,\n        uint256 _freeToMintSupply,\n        uint _reservedUntilTimestamp\n    ) public onlyOwner {\n        require(!partnershipExists(_partner), \"Partnership already exists\");\n        \n        partners.push(_partner);\n\n        partnerships[_partner] = Partnership(\n            _label,\n            _discountPercent,\n            _discountedSupply,\n            _freeToMintSupply,\n            _reservedUntilTimestamp,\n            true\n        );\n    }\n\n    function deletePartnership(address _partner) public onlyOwner {        \n        require(partnershipExists(_partner), \"Partnership does not exist\");\n\n        partnerships[_partner].exists = false;\n\n        for (uint256 index = 0; index < partners.length; index++) {\n            if (partners[index] == _partner) {\n                partners[index] = partners[partners.length - 1];\n                partners.pop();\n                break;\n            }\n        }\n    }\n\n    function reserve(address _user, uint256 _mintAmount) public onlyOwner {\n        require(totalSupply() + _mintAmount + reservedSupply() <= maxSupply, \"Supply left is not enough\");\n\n        mintMany(_user, _mintAmount);\n    }\n\n    function withdraw() public payable onlyOwner {\n        (bool sent,) = payable(owner()).call{value: address(this).balance}(\"\");\n        require(sent, \"Failed to withdraw\");\n    }\n\n    // Base URI\n\n    function setBaseURI(string memory _newBaseURI) public onlyOwner {\n        baseURI = _newBaseURI;\n    }\n\n    /**\n     * @dev Base URI for computing {tokenURI} in {ERC721} parent contract.\n     */\n    function _baseURI() internal view virtual override returns (string memory) {\n        return baseURI;\n    }\n}\n",
  "sourcePath": "/home/jose92/Personal/ZetaSaurio/zetasaurio/contracts/ZetaSaurio.sol",
  "compiler": {
    "name": "solc",
    "version": "0.8.16+commit.07a7930e.Emscripten.clang"
  },
  "schemaVersion": "3.4.8",
  "updatedAt": "2022-09-04T17:56:55.138Z",
  "networkType": "ethereum",
  "devdoc": {
    "kind": "dev",
    "methods": {
      "approve(address,uint256)": {
        "details": "See {IERC721-approve}."
      },
      "balanceOf(address)": {
        "details": "See {IERC721-balanceOf}."
      },
      "getApproved(uint256)": {
        "details": "See {IERC721-getApproved}."
      },
      "isApprovedForAll(address,address)": {
        "details": "See {IERC721-isApprovedForAll}."
      },
      "name()": {
        "details": "See {IERC721Metadata-name}."
      },
      "owner()": {
        "details": "Returns the address of the current owner."
      },
      "ownerOf(uint256)": {
        "details": "See {IERC721-ownerOf}."
      },
      "renounceOwnership()": {
        "details": "Leaves the contract without owner. It will not be possible to call `onlyOwner` functions anymore. Can only be called by the current owner. NOTE: Renouncing ownership will leave the contract without an owner, thereby removing any functionality that is only available to the owner."
      },
      "safeTransferFrom(address,address,uint256)": {
        "details": "See {IERC721-safeTransferFrom}."
      },
      "safeTransferFrom(address,address,uint256,bytes)": {
        "details": "See {IERC721-safeTransferFrom}."
      },
      "setApprovalForAll(address,bool)": {
        "details": "See {IERC721-setApprovalForAll}."
      },
      "supportsInterface(bytes4)": {
        "details": "See {IERC165-supportsInterface}."
      },
      "symbol()": {
        "details": "See {IERC721Metadata-symbol}."
      },
      "tokenByIndex(uint256)": {
        "details": "See {IERC721Enumerable-tokenByIndex}."
      },
      "tokenOfOwnerByIndex(address,uint256)": {
        "details": "See {IERC721Enumerable-tokenOfOwnerByIndex}."
      },
      "tokenURI(uint256)": {
        "details": "See {IERC721Metadata-tokenURI}."
      },
      "totalSupply()": {
        "details": "See {IERC721Enumerable-totalSupply}."
      },
      "transferFrom(address,address,uint256)": {
        "details": "See {IERC721-transferFrom}."
      },
      "transferOwnership(address)": {
        "details": "Transfers ownership of the contract to a new account (`newOwner`). Can only be called by the current owner."
      }
    },
    "version": 1
  },
  "userdoc": {
    "kind": "user",
    "methods": {},
    "version": 1
  }
}