{
  "contractName": "ZetaSaurio",
  "abi": [
    {
      "inputs": [],
      "stateMutability": "nonpayable",
      "type": "constructor"
    },
    {
      "anonymous": false,
      "inputs": [
        {
          "indexed": true,
          "internalType": "address",
          "name": "owner",
          "type": "address"
        },
        {
          "indexed": true,
          "internalType": "address",
          "name": "approved",
          "type": "address"
        },
        {
          "indexed": true,
          "internalType": "uint256",
          "name": "tokenId",
          "type": "uint256"
        }
      ],
      "name": "Approval",
      "type": "event"
    },
    {
      "anonymous": false,
      "inputs": [
        {
          "indexed": true,
          "internalType": "address",
          "name": "owner",
          "type": "address"
        },
        {
          "indexed": true,
          "internalType": "address",
          "name": "operator",
          "type": "address"
        },
        {
          "indexed": false,
          "internalType": "bool",
          "name": "approved",
          "type": "bool"
        }
      ],
      "name": "ApprovalForAll",
      "type": "event"
    },
    {
      "anonymous": false,
      "inputs": [
        {
          "indexed": true,
          "internalType": "address",
          "name": "previousOwner",
          "type": "address"
        },
        {
          "indexed": true,
          "internalType": "address",
          "name": "newOwner",
          "type": "address"
        }
      ],
      "name": "OwnershipTransferred",
      "type": "event"
    },
    {
      "anonymous": false,
      "inputs": [
        {
          "indexed": true,
          "internalType": "address",
          "name": "from",
          "type": "address"
        },
        {
          "indexed": true,
          "internalType": "address",
          "name": "to",
          "type": "address"
        },
        {
          "indexed": true,
          "internalType": "uint256",
          "name": "tokenId",
          "type": "uint256"
        }
      ],
      "name": "Transfer",
      "type": "event"
    },
    {
      "inputs": [
        {
          "internalType": "address",
          "name": "to",
          "type": "address"
        },
        {
          "internalType": "uint256",
          "name": "tokenId",
          "type": "uint256"
        }
      ],
      "name": "approve",
      "outputs": [],
      "stateMutability": "nonpayable",
      "type": "function"
    },
    {
      "inputs": [
        {
          "internalType": "address",
          "name": "owner",
          "type": "address"
        }
      ],
      "name": "balanceOf",
      "outputs": [
        {
          "internalType": "uint256",
          "name": "",
          "type": "uint256"
        }
      ],
      "stateMutability": "view",
      "type": "function",
      "constant": true
    },
    {
      "inputs": [],
      "name": "baseURI",
      "outputs": [
        {
          "internalType": "string",
          "name": "",
          "type": "string"
        }
      ],
      "stateMutability": "view",
      "type": "function",
      "constant": true
    },
    {
      "inputs": [],
      "name": "batchMintLimit",
      "outputs": [
        {
          "internalType": "uint256",
          "name": "",
          "type": "uint256"
        }
      ],
      "stateMutability": "view",
      "type": "function",
      "constant": true
    },
    {
      "inputs": [
        {
          "internalType": "uint256",
          "name": "tokenId",
          "type": "uint256"
        }
      ],
      "name": "getApproved",
      "outputs": [
        {
          "internalType": "address",
          "name": "",
          "type": "address"
        }
      ],
      "stateMutability": "view",
      "type": "function",
      "constant": true
    },
    {
      "inputs": [
        {
          "internalType": "address",
          "name": "",
          "type": "address"
        }
      ],
      "name": "hasPresaleAccess",
      "outputs": [
        {
          "internalType": "bool",
          "name": "",
          "type": "bool"
        }
      ],
      "stateMutability": "view",
      "type": "function",
      "constant": true
    },
    {
      "inputs": [
        {
          "internalType": "address",
          "name": "owner",
          "type": "address"
        },
        {
          "internalType": "address",
          "name": "operator",
          "type": "address"
        }
      ],
      "name": "isApprovedForAll",
      "outputs": [
        {
          "internalType": "bool",
          "name": "",
          "type": "bool"
        }
      ],
      "stateMutability": "view",
      "type": "function",
      "constant": true
    },
    {
      "inputs": [],
      "name": "manager",
      "outputs": [
        {
          "internalType": "address",
          "name": "",
          "type": "address"
        }
      ],
      "stateMutability": "view",
      "type": "function",
      "constant": true
    },
    {
      "inputs": [],
      "name": "maxSupply",
      "outputs": [
        {
          "internalType": "uint256",
          "name": "",
          "type": "uint256"
        }
      ],
      "stateMutability": "view",
      "type": "function",
      "constant": true
    },
    {
      "inputs": [
        {
          "internalType": "address",
          "name": "",
          "type": "address"
        }
      ],
      "name": "mintedPerAddress",
      "outputs": [
        {
          "internalType": "uint256",
          "name": "",
          "type": "uint256"
        }
      ],
      "stateMutability": "view",
      "type": "function",
      "constant": true
    },
    {
      "inputs": [],
      "name": "name",
      "outputs": [
        {
          "internalType": "string",
          "name": "",
          "type": "string"
        }
      ],
      "stateMutability": "view",
      "type": "function",
      "constant": true
    },
    {
      "inputs": [],
      "name": "owner",
      "outputs": [
        {
          "internalType": "address",
          "name": "",
          "type": "address"
        }
      ],
      "stateMutability": "view",
      "type": "function",
      "constant": true
    },
    {
      "inputs": [
        {
          "internalType": "uint256",
          "name": "tokenId",
          "type": "uint256"
        }
      ],
      "name": "ownerOf",
      "outputs": [
        {
          "internalType": "address",
          "name": "",
          "type": "address"
        }
      ],
      "stateMutability": "view",
      "type": "function",
      "constant": true
    },
    {
      "inputs": [],
      "name": "presaleEndTimestamp",
      "outputs": [
        {
          "internalType": "uint256",
          "name": "",
          "type": "uint256"
        }
      ],
      "stateMutability": "view",
      "type": "function",
      "constant": true
    },
    {
      "inputs": [],
      "name": "presaleMintPerAddressLimit",
      "outputs": [
        {
          "internalType": "uint256",
          "name": "",
          "type": "uint256"
        }
      ],
      "stateMutability": "view",
      "type": "function",
      "constant": true
    },
    {
      "inputs": [],
      "name": "presalePrice",
      "outputs": [
        {
          "internalType": "uint256",
          "name": "",
          "type": "uint256"
        }
      ],
      "stateMutability": "view",
      "type": "function",
      "constant": true
    },
    {
      "inputs": [],
      "name": "presaleStartTimestamp",
      "outputs": [
        {
          "internalType": "uint256",
          "name": "",
          "type": "uint256"
        }
      ],
      "stateMutability": "view",
      "type": "function",
      "constant": true
    },
    {
      "inputs": [],
      "name": "renounceOwnership",
      "outputs": [],
      "stateMutability": "nonpayable",
      "type": "function"
    },
    {
      "inputs": [
        {
          "internalType": "address",
          "name": "from",
          "type": "address"
        },
        {
          "internalType": "address",
          "name": "to",
          "type": "address"
        },
        {
          "internalType": "uint256",
          "name": "tokenId",
          "type": "uint256"
        }
      ],
      "name": "safeTransferFrom",
      "outputs": [],
      "stateMutability": "nonpayable",
      "type": "function"
    },
    {
      "inputs": [
        {
          "internalType": "address",
          "name": "from",
          "type": "address"
        },
        {
          "internalType": "address",
          "name": "to",
          "type": "address"
        },
        {
          "internalType": "uint256",
          "name": "tokenId",
          "type": "uint256"
        },
        {
          "internalType": "bytes",
          "name": "data",
          "type": "bytes"
        }
      ],
      "name": "safeTransferFrom",
      "outputs": [],
      "stateMutability": "nonpayable",
      "type": "function"
    },
    {
      "inputs": [],
      "name": "salePrice",
      "outputs": [
        {
          "internalType": "uint256",
          "name": "",
          "type": "uint256"
        }
      ],
      "stateMutability": "view",
      "type": "function",
      "constant": true
    },
    {
      "inputs": [],
      "name": "saleStartTimestamp",
      "outputs": [
        {
          "internalType": "uint256",
          "name": "",
          "type": "uint256"
        }
      ],
      "stateMutability": "view",
      "type": "function",
      "constant": true
    },
    {
      "inputs": [
        {
          "internalType": "address",
          "name": "operator",
          "type": "address"
        },
        {
          "internalType": "bool",
          "name": "approved",
          "type": "bool"
        }
      ],
      "name": "setApprovalForAll",
      "outputs": [],
      "stateMutability": "nonpayable",
      "type": "function"
    },
    {
      "inputs": [
        {
          "internalType": "bytes4",
          "name": "interfaceId",
          "type": "bytes4"
        }
      ],
      "name": "supportsInterface",
      "outputs": [
        {
          "internalType": "bool",
          "name": "",
          "type": "bool"
        }
      ],
      "stateMutability": "view",
      "type": "function",
      "constant": true
    },
    {
      "inputs": [],
      "name": "symbol",
      "outputs": [
        {
          "internalType": "string",
          "name": "",
          "type": "string"
        }
      ],
      "stateMutability": "view",
      "type": "function",
      "constant": true
    },
    {
      "inputs": [
        {
          "internalType": "uint256",
          "name": "index",
          "type": "uint256"
        }
      ],
      "name": "tokenByIndex",
      "outputs": [
        {
          "internalType": "uint256",
          "name": "",
          "type": "uint256"
        }
      ],
      "stateMutability": "view",
      "type": "function",
      "constant": true
    },
    {
      "inputs": [
        {
          "internalType": "address",
          "name": "owner",
          "type": "address"
        },
        {
          "internalType": "uint256",
          "name": "index",
          "type": "uint256"
        }
      ],
      "name": "tokenOfOwnerByIndex",
      "outputs": [
        {
          "internalType": "uint256",
          "name": "",
          "type": "uint256"
        }
      ],
      "stateMutability": "view",
      "type": "function",
      "constant": true
    },
    {
      "inputs": [
        {
          "internalType": "uint256",
          "name": "tokenId",
          "type": "uint256"
        }
      ],
      "name": "tokenURI",
      "outputs": [
        {
          "internalType": "string",
          "name": "",
          "type": "string"
        }
      ],
      "stateMutability": "view",
      "type": "function",
      "constant": true
    },
    {
      "inputs": [],
      "name": "totalSupply",
      "outputs": [
        {
          "internalType": "uint256",
          "name": "",
          "type": "uint256"
        }
      ],
      "stateMutability": "view",
      "type": "function",
      "constant": true
    },
    {
      "inputs": [
        {
          "internalType": "address",
          "name": "from",
          "type": "address"
        },
        {
          "internalType": "address",
          "name": "to",
          "type": "address"
        },
        {
          "internalType": "uint256",
          "name": "tokenId",
          "type": "uint256"
        }
      ],
      "name": "transferFrom",
      "outputs": [],
      "stateMutability": "nonpayable",
      "type": "function"
    },
    {
      "inputs": [
        {
          "internalType": "address",
          "name": "newOwner",
          "type": "address"
        }
      ],
      "name": "transferOwnership",
      "outputs": [],
      "stateMutability": "nonpayable",
      "type": "function"
    },
    {
      "inputs": [
        {
          "internalType": "string",
          "name": "_newBaseURI",
          "type": "string"
        }
      ],
      "name": "setBaseURI",
      "outputs": [],
      "stateMutability": "nonpayable",
      "type": "function"
    },
    {
      "inputs": [
        {
          "internalType": "uint256",
          "name": "_presaleStartTimestamp",
          "type": "uint256"
        },
        {
          "internalType": "uint256",
          "name": "_presaleEndTimestamp",
          "type": "uint256"
        }
      ],
      "name": "schedulePresale",
      "outputs": [],
      "stateMutability": "nonpayable",
      "type": "function"
    },
    {
      "inputs": [
        {
          "internalType": "uint256",
          "name": "_saleStartTimestamp",
          "type": "uint256"
        }
      ],
      "name": "scheduleSale",
      "outputs": [],
      "stateMutability": "nonpayable",
      "type": "function"
    },
    {
      "inputs": [],
      "name": "presaleIsActive",
      "outputs": [
        {
          "internalType": "bool",
          "name": "",
          "type": "bool"
        }
      ],
      "stateMutability": "view",
      "type": "function",
      "constant": true
    },
    {
      "inputs": [],
      "name": "saleIsActive",
      "outputs": [
        {
          "internalType": "bool",
          "name": "",
          "type": "bool"
        }
      ],
      "stateMutability": "view",
      "type": "function",
      "constant": true
    },
    {
      "inputs": [],
      "name": "price",
      "outputs": [
        {
          "internalType": "uint256",
          "name": "",
          "type": "uint256"
        }
      ],
      "stateMutability": "view",
      "type": "function",
      "constant": true
    },
    {
      "inputs": [
        {
          "internalType": "address",
          "name": "_user",
          "type": "address"
        },
        {
          "internalType": "uint256",
          "name": "_mintAmount",
          "type": "uint256"
        }
      ],
      "name": "enoughPresaleMintingsLeft",
      "outputs": [
        {
          "internalType": "bool",
          "name": "",
          "type": "bool"
        }
      ],
      "stateMutability": "view",
      "type": "function",
      "constant": true
    },
    {
      "inputs": [
        {
          "internalType": "address[]",
          "name": "_users",
          "type": "address[]"
        }
      ],
      "name": "grantPresaleAccess",
      "outputs": [],
      "stateMutability": "nonpayable",
      "type": "function"
    },
    {
      "inputs": [
        {
          "internalType": "address[]",
          "name": "_users",
          "type": "address[]"
        }
      ],
      "name": "revokePresaleAccess",
      "outputs": [],
      "stateMutability": "nonpayable",
      "type": "function"
    },
    {
      "inputs": [],
      "name": "withdraw",
      "outputs": [],
      "stateMutability": "payable",
      "type": "function",
      "payable": true
    },
    {
      "inputs": [
        {
          "internalType": "uint256",
          "name": "_amount",
          "type": "uint256"
        }
      ],
      "name": "reserve",
      "outputs": [],
      "stateMutability": "nonpayable",
      "type": "function"
    },
    {
      "inputs": [
        {
          "internalType": "address",
          "name": "_user",
          "type": "address"
        },
        {
          "internalType": "uint256",
          "name": "_mintAmount",
          "type": "uint256"
        }
      ],
      "name": "mint",
      "outputs": [],
      "stateMutability": "payable",
      "type": "function",
      "payable": true
    }
  ],
  "bytecode": "0x608060405260405180602001604052806000815250600c908162000024919062000433565b503480156200003257600080fd5b506040518060400160405280600a81526020017f5a65746153617572696f000000000000000000000000000000000000000000008152506040518060400160405280600281526020017f5a530000000000000000000000000000000000000000000000000000000000008152508160009081620000b0919062000433565b508060019081620000c2919062000433565b505050620000e5620000d9620000eb60201b60201c565b620000f360201b60201c565b6200051a565b600033905090565b6000600a60009054906101000a900473ffffffffffffffffffffffffffffffffffffffff16905081600a60006101000a81548173ffffffffffffffffffffffffffffffffffffffff021916908373ffffffffffffffffffffffffffffffffffffffff1602179055508173ffffffffffffffffffffffffffffffffffffffff168173ffffffffffffffffffffffffffffffffffffffff167f8be0079c531659141344cd1fd0a4f28419497f9722a3daafe3b4186f6b6457e060405160405180910390a35050565b600081519050919050565b7f4e487b7100000000000000000000000000000000000000000000000000000000600052604160045260246000fd5b7f4e487b7100000000000000000000000000000000000000000000000000000000600052602260045260246000fd5b600060028204905060018216806200023b57607f821691505b602082108103620002515762000250620001f3565b5b50919050565b60008190508160005260206000209050919050565b60006020601f8301049050919050565b600082821b905092915050565b600060088302620002bb7fffffffffffffffffffffffffffffffffffffffffffffffffffffffffffffffff826200027c565b620002c786836200027c565b95508019841693508086168417925050509392505050565b6000819050919050565b6000819050919050565b6000620003146200030e6200030884620002df565b620002e9565b620002df565b9050919050565b6000819050919050565b6200033083620002f3565b620003486200033f826200031b565b84845462000289565b825550505050565b600090565b6200035f62000350565b6200036c81848462000325565b505050565b5b8181101562000394576200038860008262000355565b60018101905062000372565b5050565b601f821115620003e357620003ad8162000257565b620003b8846200026c565b81016020851015620003c8578190505b620003e0620003d7856200026c565b83018262000371565b50505b505050565b600082821c905092915050565b60006200040860001984600802620003e8565b1980831691505092915050565b6000620004238383620003f5565b9150826002028217905092915050565b6200043e82620001b9565b67ffffffffffffffff8111156200045a5762000459620001c4565b5b62000466825462000222565b6200047382828562000398565b600060209050601f831160018114620004ab576000841562000496578287015190505b620004a2858262000415565b86555062000512565b601f198416620004bb8662000257565b60005b82811015620004e557848901518255600182019150602085019450602081019050620004be565b8683101562000505578489015162000501601f891682620003f5565b8355505b6001600288020188555050505b505050505050565b61467f806200052a6000396000f3fe60806040526004361061025b5760003560e01c806370a0823111610144578063c383e6c6116100b6578063dcad8a491161007a578063dcad8a49146108e1578063e985e9c51461090a578063eb8d244414610947578063f19b88ad14610972578063f2fde38b146109af578063f51f96dd146109d85761025b565b8063c383e6c6146107e8578063c6bd6bc814610811578063c87b56dd1461083c578063d445b97814610879578063d5abeb01146108b65761025b565b80638da5cb5b116101085780638da5cb5b146106ec57806395d89b4114610717578063985e89fe14610742578063a035b1fe1461076b578063a22cb46514610796578063b88d4fde146107bf5761025b565b806370a082311461061b578063715018a61461065857806378da7ba11461066f5780637c920e471461069a578063819b25ba146106c35761025b565b806330f72cd4116101dd578063481c6a75116101a1578063481c6a75146104f75780634ea37fec146105225780634f6ccce71461054d57806355f804b31461058a5780636352211e146105b35780636c0360eb146105f05761025b565b806330f72cd4146104525780633c276d861461047d5780633ccfd60b146104a857806340c10f19146104b257806342842e0e146104ce5761025b565b80630f209186116102245780630f2091861461035957806318160ddd1461039657806323b872dd146103c157806325efe85c146103ea5780632f745c59146104155761025b565b80620e7fa81461026057806301ffc9a71461028b57806306fdde03146102c8578063081812fc146102f3578063095ea7b314610330575b600080fd5b34801561026c57600080fd5b50610275610a03565b6040516102829190612cc1565b60405180910390f35b34801561029757600080fd5b506102b260048036038101906102ad9190612d48565b610a0f565b6040516102bf9190612d90565b60405180910390f35b3480156102d457600080fd5b506102dd610a89565b6040516102ea9190612e44565b60405180910390f35b3480156102ff57600080fd5b5061031a60048036038101906103159190612e92565b610b1b565b6040516103279190612f00565b60405180910390f35b34801561033c57600080fd5b5061035760048036038101906103529190612f47565b610b61565b005b34801561036557600080fd5b50610380600480360381019061037b9190612f87565b610c78565b60405161038d9190612d90565b60405180910390f35b3480156103a257600080fd5b506103ab610c98565b6040516103b89190612cc1565b60405180910390f35b3480156103cd57600080fd5b506103e860048036038101906103e39190612fb4565b610ca5565b005b3480156103f657600080fd5b506103ff610d05565b60405161040c9190612cc1565b60405180910390f35b34801561042157600080fd5b5061043c60048036038101906104379190612f47565b610d0a565b6040516104499190612cc1565b60405180910390f35b34801561045e57600080fd5b50610467610daf565b6040516104749190612d90565b60405180910390f35b34801561048957600080fd5b50610492610dc9565b60405161049f9190612cc1565b60405180910390f35b6104b0610dcf565b005b6104cc60048036038101906104c79190612f47565b610e8d565b005b3480156104da57600080fd5b506104f560048036038101906104f09190612fb4565b61118f565b005b34801561050357600080fd5b5061050c6111af565b6040516105199190612f00565b60405180910390f35b34801561052e57600080fd5b506105376111d5565b6040516105449190612cc1565b60405180910390f35b34801561055957600080fd5b50610574600480360381019061056f9190612e92565b6111db565b6040516105819190612cc1565b60405180910390f35b34801561059657600080fd5b506105b160048036038101906105ac919061313c565b61124c565b005b3480156105bf57600080fd5b506105da60048036038101906105d59190612e92565b611267565b6040516105e79190612f00565b60405180910390f35b3480156105fc57600080fd5b50610605611318565b6040516106129190612e44565b60405180910390f35b34801561062757600080fd5b50610642600480360381019061063d9190612f87565b6113a6565b60405161064f9190612cc1565b60405180910390f35b34801561066457600080fd5b5061066d61145d565b005b34801561067b57600080fd5b50610684611471565b6040516106919190612cc1565b60405180910390f35b3480156106a657600080fd5b506106c160048036038101906106bc91906131e5565b611477565b005b3480156106cf57600080fd5b506106ea60048036038101906106e59190612e92565b611524565b005b3480156106f857600080fd5b50610701611573565b60405161070e9190612f00565b60405180910390f35b34801561072357600080fd5b5061072c61159d565b6040516107399190612e44565b60405180910390f35b34801561074e57600080fd5b50610769600480360381019061076491906131e5565b61162f565b005b34801561077757600080fd5b506107806116dc565b60405161078d9190612cc1565b60405180910390f35b3480156107a257600080fd5b506107bd60048036038101906107b8919061325e565b611707565b005b3480156107cb57600080fd5b506107e660048036038101906107e1919061333f565b61171d565b005b3480156107f457600080fd5b5061080f600480360381019061080a9190612e92565b61177f565b005b34801561081d57600080fd5b50610826611791565b6040516108339190612cc1565b60405180910390f35b34801561084857600080fd5b50610863600480360381019061085e9190612e92565b611796565b6040516108709190612e44565b60405180910390f35b34801561088557600080fd5b506108a0600480360381019061089b9190612f87565b6117fe565b6040516108ad9190612cc1565b60405180910390f35b3480156108c257600080fd5b506108cb611816565b6040516108d89190612cc1565b60405180910390f35b3480156108ed57600080fd5b50610908600480360381019061090391906133c2565b61181c565b005b34801561091657600080fd5b50610931600480360381019061092c9190613402565b611836565b60405161093e9190612d90565b60405180910390f35b34801561095357600080fd5b5061095c6118ca565b6040516109699190612d90565b60405180910390f35b34801561097e57600080fd5b5061099960048036038101906109949190612f47565b6118e5565b6040516109a69190612d90565b60405180910390f35b3480156109bb57600080fd5b506109d660048036038101906109d19190612f87565b61193e565b005b3480156109e457600080fd5b506109ed6119c1565b6040516109fa9190612cc1565b60405180910390f35b670214e8348c4f000081565b60007f780e9d63000000000000000000000000000000000000000000000000000000007bffffffffffffffffffffffffffffffffffffffffffffffffffffffff1916827bffffffffffffffffffffffffffffffffffffffffffffffffffffffff19161480610a825750610a81826119cd565b5b9050919050565b606060008054610a9890613471565b80601f0160208091040260200160405190810160405280929190818152602001828054610ac490613471565b8015610b115780601f10610ae657610100808354040283529160200191610b11565b820191906000526020600020905b815481529060010190602001808311610af457829003601f168201915b5050505050905090565b6000610b2682611aaf565b6004600083815260200190815260200160002060009054906101000a900473ffffffffffffffffffffffffffffffffffffffff169050919050565b6000610b6c82611267565b90508073ffffffffffffffffffffffffffffffffffffffff168373ffffffffffffffffffffffffffffffffffffffff1603610bdc576040517f08c379a0000000000000000000000000000000000000000000000000000000008152600401610bd390613514565b60405180910390fd5b8073ffffffffffffffffffffffffffffffffffffffff16610bfb611afa565b73ffffffffffffffffffffffffffffffffffffffff161480610c2a5750610c2981610c24611afa565b611836565b5b610c69576040517f08c379a0000000000000000000000000000000000000000000000000000000008152600401610c60906135a6565b60405180910390fd5b610c738383611b02565b505050565b60106020528060005260406000206000915054906101000a900460ff1681565b6000600880549050905090565b610cb6610cb0611afa565b82611bbb565b610cf5576040517f08c379a0000000000000000000000000000000000000000000000000000000008152600401610cec90613638565b60405180910390fd5b610d00838383611c50565b505050565b600381565b6000610d15836113a6565b8210610d56576040517f08c379a0000000000000000000000000000000000000000000000000000000008152600401610d4d906136ca565b60405180910390fd5b600660008473ffffffffffffffffffffffffffffffffffffffff1673ffffffffffffffffffffffffffffffffffffffff168152602001908152602001600020600083815260200190815260200160002054905092915050565b600042600f5411158015610dc45750600e5442105b905090565b600d5481565b610dd7611eb6565b6000610de1611573565b73ffffffffffffffffffffffffffffffffffffffff1647604051610e049061371b565b60006040518083038185875af1925050503d8060008114610e41576040519150601f19603f3d011682016040523d82523d6000602084013e610e46565b606091505b5050905080610e8a576040517f08c379a0000000000000000000000000000000000000000000000000000000008152600401610e819061377c565b60405180910390fd5b50565b6000610e97610c98565b9050610ea16118ca565b80610eb05750610eaf610daf565b5b610eef576040517f08c379a0000000000000000000000000000000000000000000000000000000008152600401610ee6906137e8565b60405180910390fd5b60008211610f32576040517f08c379a0000000000000000000000000000000000000000000000000000000008152600401610f2990613854565b60405180910390fd5b6124b18282610f4191906138a3565b1115610f82576040517f08c379a0000000000000000000000000000000000000000000000000000000008152600401610f7990613945565b60405180910390fd5b610f8a6116dc565b82610f959190613965565b341015610fd7576040517f08c379a0000000000000000000000000000000000000000000000000000000008152600401610fce90613a0b565b60405180910390fd5b600582111561101b576040517f08c379a000000000000000000000000000000000000000000000000000000000815260040161101290613a9d565b60405180910390fd5b611023610daf565b156110fe57601060008473ffffffffffffffffffffffffffffffffffffffff1673ffffffffffffffffffffffffffffffffffffffff16815260200190815260200160002060009054906101000a900460ff166110b4576040517f08c379a00000000000000000000000000000000000000000000000000000000081526004016110ab90613b09565b60405180910390fd5b6110be83836118e5565b6110fd576040517f08c379a00000000000000000000000000000000000000000000000000000000081526004016110f490613b75565b60405180910390fd5b5b6000600190505b82811161118957601160008573ffffffffffffffffffffffffffffffffffffffff1673ffffffffffffffffffffffffffffffffffffffff168152602001908152602001600020600081548092919061115c90613b95565b919050555061117684828461117191906138a3565b611f34565b808061118190613b95565b915050611105565b50505050565b6111aa8383836040518060200160405280600081525061171d565b505050565b600b60009054906101000a900473ffffffffffffffffffffffffffffffffffffffff1681565b600f5481565b60006111e5610c98565b8210611226576040517f08c379a000000000000000000000000000000000000000000000000000000000815260040161121d90613c4f565b60405180910390fd5b6008828154811061123a57611239613c6f565b5b90600052602060002001549050919050565b611254611eb6565b80600c90816112639190613e4a565b5050565b6000806002600084815260200190815260200160002060009054906101000a900473ffffffffffffffffffffffffffffffffffffffff169050600073ffffffffffffffffffffffffffffffffffffffff168173ffffffffffffffffffffffffffffffffffffffff160361130f576040517f08c379a000000000000000000000000000000000000000000000000000000000815260040161130690613f68565b60405180910390fd5b80915050919050565b600c805461132590613471565b80601f016020809104026020016040519081016040528092919081815260200182805461135190613471565b801561139e5780601f106113735761010080835404028352916020019161139e565b820191906000526020600020905b81548152906001019060200180831161138157829003601f168201915b505050505081565b60008073ffffffffffffffffffffffffffffffffffffffff168273ffffffffffffffffffffffffffffffffffffffff1603611416576040517f08c379a000000000000000000000000000000000000000000000000000000000815260040161140d90613ffa565b60405180910390fd5b600360008373ffffffffffffffffffffffffffffffffffffffff1673ffffffffffffffffffffffffffffffffffffffff168152602001908152602001600020549050919050565b611465611eb6565b61146f6000611f52565b565b600e5481565b61147f611eb6565b60005b8282905081101561151f576001601060008585858181106114a6576114a5613c6f565b5b90506020020160208101906114bb9190612f87565b73ffffffffffffffffffffffffffffffffffffffff1673ffffffffffffffffffffffffffffffffffffffff16815260200190815260200160002060006101000a81548160ff021916908315150217905550808061151790613b95565b915050611482565b505050565b61152c611eb6565b6000611536610c98565b90506000600190505b82811161156e5761155b33828461155691906138a3565b611f34565b808061156690613b95565b91505061153f565b505050565b6000600a60009054906101000a900473ffffffffffffffffffffffffffffffffffffffff16905090565b6060600180546115ac90613471565b80601f01602080910402602001604051908101604052809291908181526020018280546115d890613471565b80156116255780601f106115fa57610100808354040283529160200191611625565b820191906000526020600020905b81548152906001019060200180831161160857829003601f168201915b5050505050905090565b611637611eb6565b60005b828290508110156116d75760006010600085858581811061165e5761165d613c6f565b5b90506020020160208101906116739190612f87565b73ffffffffffffffffffffffffffffffffffffffff1673ffffffffffffffffffffffffffffffffffffffff16815260200190815260200160002060006101000a81548160ff02191690831515021790555080806116cf90613b95565b91505061163a565b505050565b60006116e6610daf565b6116f8576702c68af0bb140000611702565b670214e8348c4f00005b905090565b611719611712611afa565b8383612018565b5050565b61172e611728611afa565b83611bbb565b61176d576040517f08c379a000000000000000000000000000000000000000000000000000000000815260040161176490613638565b60405180910390fd5b61177984848484612184565b50505050565b611787611eb6565b80600d8190555050565b600581565b60606117a182611aaf565b60006117ab6121e0565b905060008151116117cb57604051806020016040528060008152506117f6565b806117d584612272565b6040516020016117e6929190614056565b6040516020818303038152906040525b915050919050565b60116020528060005260406000206000915090505481565b6124b181565b611824611eb6565b80600e8190555081600f819055505050565b6000600560008473ffffffffffffffffffffffffffffffffffffffff1673ffffffffffffffffffffffffffffffffffffffff16815260200190815260200160002060008373ffffffffffffffffffffffffffffffffffffffff1673ffffffffffffffffffffffffffffffffffffffff16815260200190815260200160002060009054906101000a900460ff16905092915050565b600080600d54141580156118e0575042600d5411155b905090565b6000600382601160008673ffffffffffffffffffffffffffffffffffffffff1673ffffffffffffffffffffffffffffffffffffffff1681526020019081526020016000205461193491906138a3565b1115905092915050565b611946611eb6565b600073ffffffffffffffffffffffffffffffffffffffff168173ffffffffffffffffffffffffffffffffffffffff16036119b5576040517f08c379a00000000000000000000000000000000000000000000000000000000081526004016119ac906140ec565b60405180910390fd5b6119be81611f52565b50565b6702c68af0bb14000081565b60007f80ac58cd000000000000000000000000000000000000000000000000000000007bffffffffffffffffffffffffffffffffffffffffffffffffffffffff1916827bffffffffffffffffffffffffffffffffffffffffffffffffffffffff19161480611a9857507f5b5e139f000000000000000000000000000000000000000000000000000000007bffffffffffffffffffffffffffffffffffffffffffffffffffffffff1916827bffffffffffffffffffffffffffffffffffffffffffffffffffffffff1916145b80611aa85750611aa7826123d2565b5b9050919050565b611ab88161243c565b611af7576040517f08c379a0000000000000000000000000000000000000000000000000000000008152600401611aee90613f68565b60405180910390fd5b50565b600033905090565b816004600083815260200190815260200160002060006101000a81548173ffffffffffffffffffffffffffffffffffffffff021916908373ffffffffffffffffffffffffffffffffffffffff160217905550808273ffffffffffffffffffffffffffffffffffffffff16611b7583611267565b73ffffffffffffffffffffffffffffffffffffffff167f8c5be1e5ebec7d5bd14f71427d1e84f3dd0314c0f7b2291e5b200ac8c7c3b92560405160405180910390a45050565b600080611bc783611267565b90508073ffffffffffffffffffffffffffffffffffffffff168473ffffffffffffffffffffffffffffffffffffffff161480611c095750611c088185611836565b5b80611c4757508373ffffffffffffffffffffffffffffffffffffffff16611c2f84610b1b565b73ffffffffffffffffffffffffffffffffffffffff16145b91505092915050565b8273ffffffffffffffffffffffffffffffffffffffff16611c7082611267565b73ffffffffffffffffffffffffffffffffffffffff1614611cc6576040517f08c379a0000000000000000000000000000000000000000000000000000000008152600401611cbd9061417e565b60405180910390fd5b600073ffffffffffffffffffffffffffffffffffffffff168273ffffffffffffffffffffffffffffffffffffffff1603611d35576040517f08c379a0000000000000000000000000000000000000000000000000000000008152600401611d2c90614210565b60405180910390fd5b611d408383836124a8565b611d4b600082611b02565b6001600360008573ffffffffffffffffffffffffffffffffffffffff1673ffffffffffffffffffffffffffffffffffffffff1681526020019081526020016000206000828254611d9b9190614230565b925050819055506001600360008473ffffffffffffffffffffffffffffffffffffffff1673ffffffffffffffffffffffffffffffffffffffff1681526020019081526020016000206000828254611df291906138a3565b92505081905550816002600083815260200190815260200160002060006101000a81548173ffffffffffffffffffffffffffffffffffffffff021916908373ffffffffffffffffffffffffffffffffffffffff160217905550808273ffffffffffffffffffffffffffffffffffffffff168473ffffffffffffffffffffffffffffffffffffffff167fddf252ad1be2c89b69c2b068fc378daa952ba7f163c4a11628f55a4df523b3ef60405160405180910390a4611eb18383836125ba565b505050565b611ebe611afa565b73ffffffffffffffffffffffffffffffffffffffff16611edc611573565b73ffffffffffffffffffffffffffffffffffffffff1614611f32576040517f08c379a0000000000000000000000000000000000000000000000000000000008152600401611f29906142b0565b60405180910390fd5b565b611f4e8282604051806020016040528060008152506125bf565b5050565b6000600a60009054906101000a900473ffffffffffffffffffffffffffffffffffffffff16905081600a60006101000a81548173ffffffffffffffffffffffffffffffffffffffff021916908373ffffffffffffffffffffffffffffffffffffffff1602179055508173ffffffffffffffffffffffffffffffffffffffff168173ffffffffffffffffffffffffffffffffffffffff167f8be0079c531659141344cd1fd0a4f28419497f9722a3daafe3b4186f6b6457e060405160405180910390a35050565b8173ffffffffffffffffffffffffffffffffffffffff168373ffffffffffffffffffffffffffffffffffffffff1603612086576040517f08c379a000000000000000000000000000000000000000000000000000000000815260040161207d9061431c565b60405180910390fd5b80600560008573ffffffffffffffffffffffffffffffffffffffff1673ffffffffffffffffffffffffffffffffffffffff16815260200190815260200160002060008473ffffffffffffffffffffffffffffffffffffffff1673ffffffffffffffffffffffffffffffffffffffff16815260200190815260200160002060006101000a81548160ff0219169083151502179055508173ffffffffffffffffffffffffffffffffffffffff168373ffffffffffffffffffffffffffffffffffffffff167f17307eab39ab6107e8899845ad3d59bd9653f200f220920489ca2b5937696c31836040516121779190612d90565b60405180910390a3505050565b61218f848484611c50565b61219b8484848461261a565b6121da576040517f08c379a00000000000000000000000000000000000000000000000000000000081526004016121d1906143ae565b60405180910390fd5b50505050565b6060600c80546121ef90613471565b80601f016020809104026020016040519081016040528092919081815260200182805461221b90613471565b80156122685780601f1061223d57610100808354040283529160200191612268565b820191906000526020600020905b81548152906001019060200180831161224b57829003601f168201915b5050505050905090565b6060600082036122b9576040518060400160405280600181526020017f300000000000000000000000000000000000000000000000000000000000000081525090506123cd565b600082905060005b600082146122eb5780806122d490613b95565b915050600a826122e491906143fd565b91506122c1565b60008167ffffffffffffffff81111561230757612306613011565b5b6040519080825280601f01601f1916602001820160405280156123395781602001600182028036833780820191505090505b5090505b600085146123c6576001826123529190614230565b9150600a85612361919061442e565b603061236d91906138a3565b60f81b81838151811061238357612382613c6f565b5b60200101907effffffffffffffffffffffffffffffffffffffffffffffffffffffffffffff1916908160001a905350600a856123bf91906143fd565b945061233d565b8093505050505b919050565b60007f01ffc9a7000000000000000000000000000000000000000000000000000000007bffffffffffffffffffffffffffffffffffffffffffffffffffffffff1916827bffffffffffffffffffffffffffffffffffffffffffffffffffffffff1916149050919050565b60008073ffffffffffffffffffffffffffffffffffffffff166002600084815260200190815260200160002060009054906101000a900473ffffffffffffffffffffffffffffffffffffffff1673ffffffffffffffffffffffffffffffffffffffff1614159050919050565b6124b38383836127a1565b600073ffffffffffffffffffffffffffffffffffffffff168373ffffffffffffffffffffffffffffffffffffffff16036124f5576124f0816127a6565b612534565b8173ffffffffffffffffffffffffffffffffffffffff168373ffffffffffffffffffffffffffffffffffffffff16146125335761253283826127ef565b5b5b600073ffffffffffffffffffffffffffffffffffffffff168273ffffffffffffffffffffffffffffffffffffffff1603612576576125718161295c565b6125b5565b8273ffffffffffffffffffffffffffffffffffffffff168273ffffffffffffffffffffffffffffffffffffffff16146125b4576125b38282612a2d565b5b5b505050565b505050565b6125c98383612aac565b6125d6600084848461261a565b612615576040517f08c379a000000000000000000000000000000000000000000000000000000000815260040161260c906143ae565b60405180910390fd5b505050565b600061263b8473ffffffffffffffffffffffffffffffffffffffff16612c85565b15612794578373ffffffffffffffffffffffffffffffffffffffff1663150b7a02612664611afa565b8786866040518563ffffffff1660e01b815260040161268694939291906144b4565b6020604051808303816000875af19250505080156126c257506040513d601f19601f820116820180604052508101906126bf9190614515565b60015b612744573d80600081146126f2576040519150601f19603f3d011682016040523d82523d6000602084013e6126f7565b606091505b50600081510361273c576040517f08c379a0000000000000000000000000000000000000000000000000000000008152600401612733906143ae565b60405180910390fd5b805181602001fd5b63150b7a0260e01b7bffffffffffffffffffffffffffffffffffffffffffffffffffffffff1916817bffffffffffffffffffffffffffffffffffffffffffffffffffffffff191614915050612799565b600190505b949350505050565b505050565b6008805490506009600083815260200190815260200160002081905550600881908060018154018082558091505060019003906000526020600020016000909190919091505550565b600060016127fc846113a6565b6128069190614230565b90506000600760008481526020019081526020016000205490508181146128eb576000600660008673ffffffffffffffffffffffffffffffffffffffff1673ffffffffffffffffffffffffffffffffffffffff168152602001908152602001600020600084815260200190815260200160002054905080600660008773ffffffffffffffffffffffffffffffffffffffff1673ffffffffffffffffffffffffffffffffffffffff168152602001908152602001600020600084815260200190815260200160002081905550816007600083815260200190815260200160002081905550505b6007600084815260200190815260200160002060009055600660008573ffffffffffffffffffffffffffffffffffffffff1673ffffffffffffffffffffffffffffffffffffffff16815260200190815260200160002060008381526020019081526020016000206000905550505050565b600060016008805490506129709190614230565b90506000600960008481526020019081526020016000205490506000600883815481106129a05761299f613c6f565b5b9060005260206000200154905080600883815481106129c2576129c1613c6f565b5b906000526020600020018190555081600960008381526020019081526020016000208190555060096000858152602001908152602001600020600090556008805480612a1157612a10614542565b5b6001900381819060005260206000200160009055905550505050565b6000612a38836113a6565b905081600660008573ffffffffffffffffffffffffffffffffffffffff1673ffffffffffffffffffffffffffffffffffffffff168152602001908152602001600020600083815260200190815260200160002081905550806007600084815260200190815260200160002081905550505050565b600073ffffffffffffffffffffffffffffffffffffffff168273ffffffffffffffffffffffffffffffffffffffff1603612b1b576040517f08c379a0000000000000000000000000000000000000000000000000000000008152600401612b12906145bd565b60405180910390fd5b612b248161243c565b15612b64576040517f08c379a0000000000000000000000000000000000000000000000000000000008152600401612b5b90614629565b60405180910390fd5b612b70600083836124a8565b6001600360008473ffffffffffffffffffffffffffffffffffffffff1673ffffffffffffffffffffffffffffffffffffffff1681526020019081526020016000206000828254612bc091906138a3565b92505081905550816002600083815260200190815260200160002060006101000a81548173ffffffffffffffffffffffffffffffffffffffff021916908373ffffffffffffffffffffffffffffffffffffffff160217905550808273ffffffffffffffffffffffffffffffffffffffff16600073ffffffffffffffffffffffffffffffffffffffff167fddf252ad1be2c89b69c2b068fc378daa952ba7f163c4a11628f55a4df523b3ef60405160405180910390a4612c81600083836125ba565b5050565b6000808273ffffffffffffffffffffffffffffffffffffffff163b119050919050565b6000819050919050565b612cbb81612ca8565b82525050565b6000602082019050612cd66000830184612cb2565b92915050565b6000604051905090565b600080fd5b600080fd5b60007fffffffff0000000000000000000000000000000000000000000000000000000082169050919050565b612d2581612cf0565b8114612d3057600080fd5b50565b600081359050612d4281612d1c565b92915050565b600060208284031215612d5e57612d5d612ce6565b5b6000612d6c84828501612d33565b91505092915050565b60008115159050919050565b612d8a81612d75565b82525050565b6000602082019050612da56000830184612d81565b92915050565b600081519050919050565b600082825260208201905092915050565b60005b83811015612de5578082015181840152602081019050612dca565b83811115612df4576000848401525b50505050565b6000601f19601f8301169050919050565b6000612e1682612dab565b612e208185612db6565b9350612e30818560208601612dc7565b612e3981612dfa565b840191505092915050565b60006020820190508181036000830152612e5e8184612e0b565b905092915050565b612e6f81612ca8565b8114612e7a57600080fd5b50565b600081359050612e8c81612e66565b92915050565b600060208284031215612ea857612ea7612ce6565b5b6000612eb684828501612e7d565b91505092915050565b600073ffffffffffffffffffffffffffffffffffffffff82169050919050565b6000612eea82612ebf565b9050919050565b612efa81612edf565b82525050565b6000602082019050612f156000830184612ef1565b92915050565b612f2481612edf565b8114612f2f57600080fd5b50565b600081359050612f4181612f1b565b92915050565b60008060408385031215612f5e57612f5d612ce6565b5b6000612f6c85828601612f32565b9250506020612f7d85828601612e7d565b9150509250929050565b600060208284031215612f9d57612f9c612ce6565b5b6000612fab84828501612f32565b91505092915050565b600080600060608486031215612fcd57612fcc612ce6565b5b6000612fdb86828701612f32565b9350506020612fec86828701612f32565b9250506040612ffd86828701612e7d565b9150509250925092565b600080fd5b600080fd5b7f4e487b7100000000000000000000000000000000000000000000000000000000600052604160045260246000fd5b61304982612dfa565b810181811067ffffffffffffffff8211171561306857613067613011565b5b80604052505050565b600061307b612cdc565b90506130878282613040565b919050565b600067ffffffffffffffff8211156130a7576130a6613011565b5b6130b082612dfa565b9050602081019050919050565b82818337600083830152505050565b60006130df6130da8461308c565b613071565b9050828152602081018484840111156130fb576130fa61300c565b5b6131068482856130bd565b509392505050565b600082601f83011261312357613122613007565b5b81356131338482602086016130cc565b91505092915050565b60006020828403121561315257613151612ce6565b5b600082013567ffffffffffffffff8111156131705761316f612ceb565b5b61317c8482850161310e565b91505092915050565b600080fd5b600080fd5b60008083601f8401126131a5576131a4613007565b5b8235905067ffffffffffffffff8111156131c2576131c1613185565b5b6020830191508360208202830111156131de576131dd61318a565b5b9250929050565b600080602083850312156131fc576131fb612ce6565b5b600083013567ffffffffffffffff81111561321a57613219612ceb565b5b6132268582860161318f565b92509250509250929050565b61323b81612d75565b811461324657600080fd5b50565b60008135905061325881613232565b92915050565b6000806040838503121561327557613274612ce6565b5b600061328385828601612f32565b925050602061329485828601613249565b9150509250929050565b600067ffffffffffffffff8211156132b9576132b8613011565b5b6132c282612dfa565b9050602081019050919050565b60006132e26132dd8461329e565b613071565b9050828152602081018484840111156132fe576132fd61300c565b5b6133098482856130bd565b509392505050565b600082601f83011261332657613325613007565b5b81356133368482602086016132cf565b91505092915050565b6000806000806080858703121561335957613358612ce6565b5b600061336787828801612f32565b945050602061337887828801612f32565b935050604061338987828801612e7d565b925050606085013567ffffffffffffffff8111156133aa576133a9612ceb565b5b6133b687828801613311565b91505092959194509250565b600080604083850312156133d9576133d8612ce6565b5b60006133e785828601612e7d565b92505060206133f885828601612e7d565b9150509250929050565b6000806040838503121561341957613418612ce6565b5b600061342785828601612f32565b925050602061343885828601612f32565b9150509250929050565b7f4e487b7100000000000000000000000000000000000000000000000000000000600052602260045260246000fd5b6000600282049050600182168061348957607f821691505b60208210810361349c5761349b613442565b5b50919050565b7f4552433732313a20617070726f76616c20746f2063757272656e74206f776e6560008201527f7200000000000000000000000000000000000000000000000000000000000000602082015250565b60006134fe602183612db6565b9150613509826134a2565b604082019050919050565b6000602082019050818103600083015261352d816134f1565b9050919050565b7f4552433732313a20617070726f76652063616c6c6572206973206e6f7420746f60008201527f6b656e206f776e6572206e6f7220617070726f76656420666f7220616c6c0000602082015250565b6000613590603e83612db6565b915061359b82613534565b604082019050919050565b600060208201905081810360008301526135bf81613583565b9050919050565b7f4552433732313a2063616c6c6572206973206e6f7420746f6b656e206f776e6560008201527f72206e6f7220617070726f766564000000000000000000000000000000000000602082015250565b6000613622602e83612db6565b915061362d826135c6565b604082019050919050565b6000602082019050818103600083015261365181613615565b9050919050565b7f455243373231456e756d657261626c653a206f776e657220696e646578206f7560008201527f74206f6620626f756e6473000000000000000000000000000000000000000000602082015250565b60006136b4602b83612db6565b91506136bf82613658565b604082019050919050565b600060208201905081810360008301526136e3816136a7565b9050919050565b600081905092915050565b50565b60006137056000836136ea565b9150613710826136f5565b600082019050919050565b6000613726826136f8565b9150819050919050565b7f4661696c656420746f2073656e64204574686572000000000000000000000000600082015250565b6000613766601483612db6565b915061377182613730565b602082019050919050565b6000602082019050818103600083015261379581613759565b9050919050565b7f53616c65206973206e6f74206163746976650000000000000000000000000000600082015250565b60006137d2601283612db6565b91506137dd8261379c565b602082019050919050565b60006020820190508181036000830152613801816137c5565b9050919050565b7f4d757374206d696e74206174206c65617374206f6e65204e4654000000000000600082015250565b600061383e601a83612db6565b915061384982613808565b602082019050919050565b6000602082019050818103600083015261386d81613831565b9050919050565b7f4e487b7100000000000000000000000000000000000000000000000000000000600052601160045260246000fd5b60006138ae82612ca8565b91506138b983612ca8565b9250827fffffffffffffffffffffffffffffffffffffffffffffffffffffffffffffffff038211156138ee576138ed613874565b5b828201905092915050565b7f537570706c79206c656674206973206e6f7420656e6f75676800000000000000600082015250565b600061392f601983612db6565b915061393a826138f9565b602082019050919050565b6000602082019050818103600083015261395e81613922565b9050919050565b600061397082612ca8565b915061397b83612ca8565b9250817fffffffffffffffffffffffffffffffffffffffffffffffffffffffffffffffff04831182151516156139b4576139b3613874565b5b828202905092915050565b7f4e6f7420656e6f7567682066756e647320746f20707572636861736500000000600082015250565b60006139f5601c83612db6565b9150613a00826139bf565b602082019050919050565b60006020820190508181036000830152613a24816139e8565b9050919050565b7f43616e2774206d696e74207468657365206d616e79204e465473206174206f6e60008201527f6365000000000000000000000000000000000000000000000000000000000000602082015250565b6000613a87602283612db6565b9150613a9282613a2b565b604082019050919050565b60006020820190508181036000830152613ab681613a7a565b9050919050565b7f50726573616c65206163636573732064656e6965640000000000000000000000600082015250565b6000613af3601583612db6565b9150613afe82613abd565b602082019050919050565b60006020820190508181036000830152613b2281613ae6565b9050919050565b7f4e6f7420656e6f7567682070726573616c65206d696e74696e6773206c656674600082015250565b6000613b5f602083612db6565b9150613b6a82613b29565b602082019050919050565b60006020820190508181036000830152613b8e81613b52565b9050919050565b6000613ba082612ca8565b91507fffffffffffffffffffffffffffffffffffffffffffffffffffffffffffffffff8203613bd257613bd1613874565b5b600182019050919050565b7f455243373231456e756d657261626c653a20676c6f62616c20696e646578206f60008201527f7574206f6620626f756e64730000000000000000000000000000000000000000602082015250565b6000613c39602c83612db6565b9150613c4482613bdd565b604082019050919050565b60006020820190508181036000830152613c6881613c2c565b9050919050565b7f4e487b7100000000000000000000000000000000000000000000000000000000600052603260045260246000fd5b60008190508160005260206000209050919050565b60006020601f8301049050919050565b600082821b905092915050565b600060088302613d007fffffffffffffffffffffffffffffffffffffffffffffffffffffffffffffffff82613cc3565b613d0a8683613cc3565b95508019841693508086168417925050509392505050565b6000819050919050565b6000613d47613d42613d3d84612ca8565b613d22565b612ca8565b9050919050565b6000819050919050565b613d6183613d2c565b613d75613d6d82613d4e565b848454613cd0565b825550505050565b600090565b613d8a613d7d565b613d95818484613d58565b505050565b5b81811015613db957613dae600082613d82565b600181019050613d9b565b5050565b601f821115613dfe57613dcf81613c9e565b613dd884613cb3565b81016020851015613de7578190505b613dfb613df385613cb3565b830182613d9a565b50505b505050565b600082821c905092915050565b6000613e2160001984600802613e03565b1980831691505092915050565b6000613e3a8383613e10565b9150826002028217905092915050565b613e5382612dab565b67ffffffffffffffff811115613e6c57613e6b613011565b5b613e768254613471565b613e81828285613dbd565b600060209050601f831160018114613eb45760008415613ea2578287015190505b613eac8582613e2e565b865550613f14565b601f198416613ec286613c9e565b60005b82811015613eea57848901518255600182019150602085019450602081019050613ec5565b86831015613f075784890151613f03601f891682613e10565b8355505b6001600288020188555050505b505050505050565b7f4552433732313a20696e76616c696420746f6b656e2049440000000000000000600082015250565b6000613f52601883612db6565b9150613f5d82613f1c565b602082019050919050565b60006020820190508181036000830152613f8181613f45565b9050919050565b7f4552433732313a2061646472657373207a65726f206973206e6f74206120766160008201527f6c6964206f776e65720000000000000000000000000000000000000000000000602082015250565b6000613fe4602983612db6565b9150613fef82613f88565b604082019050919050565b6000602082019050818103600083015261401381613fd7565b9050919050565b600081905092915050565b600061403082612dab565b61403a818561401a565b935061404a818560208601612dc7565b80840191505092915050565b60006140628285614025565b915061406e8284614025565b91508190509392505050565b7f4f776e61626c653a206e6577206f776e657220697320746865207a65726f206160008201527f6464726573730000000000000000000000000000000000000000000000000000602082015250565b60006140d6602683612db6565b91506140e18261407a565b604082019050919050565b60006020820190508181036000830152614105816140c9565b9050919050565b7f4552433732313a207472616e736665722066726f6d20696e636f72726563742060008201527f6f776e6572000000000000000000000000000000000000000000000000000000602082015250565b6000614168602583612db6565b91506141738261410c565b604082019050919050565b600060208201905081810360008301526141978161415b565b9050919050565b7f4552433732313a207472616e7366657220746f20746865207a65726f2061646460008201527f7265737300000000000000000000000000000000000000000000000000000000602082015250565b60006141fa602483612db6565b91506142058261419e565b604082019050919050565b60006020820190508181036000830152614229816141ed565b9050919050565b600061423b82612ca8565b915061424683612ca8565b92508282101561425957614258613874565b5b828203905092915050565b7f4f776e61626c653a2063616c6c6572206973206e6f7420746865206f776e6572600082015250565b600061429a602083612db6565b91506142a582614264565b602082019050919050565b600060208201905081810360008301526142c98161428d565b9050919050565b7f4552433732313a20617070726f766520746f2063616c6c657200000000000000600082015250565b6000614306601983612db6565b9150614311826142d0565b602082019050919050565b60006020820190508181036000830152614335816142f9565b9050919050565b7f4552433732313a207472616e7366657220746f206e6f6e20455243373231526560008201527f63656976657220696d706c656d656e7465720000000000000000000000000000602082015250565b6000614398603283612db6565b91506143a38261433c565b604082019050919050565b600060208201905081810360008301526143c78161438b565b9050919050565b7f4e487b7100000000000000000000000000000000000000000000000000000000600052601260045260246000fd5b600061440882612ca8565b915061441383612ca8565b925082614423576144226143ce565b5b828204905092915050565b600061443982612ca8565b915061444483612ca8565b925082614454576144536143ce565b5b828206905092915050565b600081519050919050565b600082825260208201905092915050565b60006144868261445f565b614490818561446a565b93506144a0818560208601612dc7565b6144a981612dfa565b840191505092915050565b60006080820190506144c96000830187612ef1565b6144d66020830186612ef1565b6144e36040830185612cb2565b81810360608301526144f5818461447b565b905095945050505050565b60008151905061450f81612d1c565b92915050565b60006020828403121561452b5761452a612ce6565b5b600061453984828501614500565b91505092915050565b7f4e487b7100000000000000000000000000000000000000000000000000000000600052603160045260246000fd5b7f4552433732313a206d696e7420746f20746865207a65726f2061646472657373600082015250565b60006145a7602083612db6565b91506145b282614571565b602082019050919050565b600060208201905081810360008301526145d68161459a565b9050919050565b7f4552433732313a20746f6b656e20616c7265616479206d696e74656400000000600082015250565b6000614613601c83612db6565b915061461e826145dd565b602082019050919050565b6000602082019050818103600083015261464281614606565b905091905056fea2646970667358221220a26fcee24143c3faecc025cb0d2296684a5e20483f99e4adcd14767a13099f5564736f6c634300080f0033",
  "immutableReferences": {},
  "source": "// SPDX-License-Identifier: MIT\n\npragma solidity ^0.8.0;\n\nimport \"@openzeppelin/contracts/access/Ownable.sol\";\nimport \"@openzeppelin/contracts/token/ERC721/extensions/ERC721Enumerable.sol\";\n\n/*\n      .\".\".\".\n    (`       `)               _.-=-.\n     '._.--.-;             .-`  -'  '.\n    .-'`.o )  \\           /  .-_.--'  `\\\n   `;---) \\    ;         /  / ;' _-_.-' `\n     `;\"`  ;    \\        ; .  .'   _-' \\\n      (    )    |        |  / .-.-'    -`\n       '-.-'     \\       | .' ` '.-'-\\`\n        /_./\\_.|\\_\\      ;  ' .'-'.-.\n        /         '-._    \\` /  _;-,\n       |         .-=-.;-._ \\  -'-,\n       \\        /      `\";`-`,-\"`)\n        \\       \\     '-- `\\.\\\n         '.      '._ '-- '--'/\n           `-._     `'----'`;\n               `\"\"\"--.____,/\n                      \\\\  \\\n                      // /`\n                  ___// /__\n                (`(`(---\"-`)\n*/\ncontract ZetaSaurio is ERC721Enumerable, Ownable {\n    using Strings for uint256;\n\n    address public manager;\n\n    string public baseURI = \"\";\n\n    uint public saleStartTimestamp;\n    uint public presaleEndTimestamp;\n    uint public presaleStartTimestamp;\n    uint256 public constant maxSupply = 9393;\n    uint256 public constant batchMintLimit = 5;\n    uint256 public constant presaleMintPerAddressLimit = 3;\n    uint256 public constant salePrice = 0.2 ether; // 0.2 BNB\n    uint256 public constant presalePrice = 0.15 ether; // 0.15 BNB\n\n    mapping(address => bool) public hasPresaleAccess;\n    mapping(address => uint256) public mintedPerAddress;\n\n    constructor() ERC721(\"ZetaSaurio\", \"ZS\") {}\n\n    /**\n     * @dev Base URI for computing {tokenURI} in {ERC721} parent contract.\n     */\n    function _baseURI() internal view virtual override returns (string memory) {\n        return baseURI;\n    }\n\n    function setBaseURI(string memory _newBaseURI) public onlyOwner {\n        baseURI = _newBaseURI;\n    }\n\n    function schedulePresale(uint _presaleStartTimestamp, uint _presaleEndTimestamp   ) public onlyOwner {\n        presaleEndTimestamp = _presaleEndTimestamp;\n        presaleStartTimestamp = _presaleStartTimestamp;\n    }\n\n    function scheduleSale(uint _saleStartTimestamp) public onlyOwner {\n        saleStartTimestamp = _saleStartTimestamp;\n    }\n\n    function presaleIsActive() public view returns (bool) {\n        return presaleStartTimestamp <= block.timestamp && block.timestamp < presaleEndTimestamp;\n    }\n\n    function saleIsActive() public view returns (bool) {\n        return saleStartTimestamp != 0 && saleStartTimestamp <= block.timestamp;\n    }\n\n    function price() public view virtual returns (uint256) {\n        return presaleIsActive() ? presalePrice : salePrice;\n    }\n\n    function enoughPresaleMintingsLeft(address _user, uint256 _mintAmount) public view returns (bool) {\n        return mintedPerAddress[_user] + _mintAmount <= presaleMintPerAddressLimit;\n    }\n\n    function grantPresaleAccess(address[] calldata _users) public onlyOwner {\n        for (uint256 i = 0; i < _users.length; i++) {\n            hasPresaleAccess[_users[i]] = true;\n        }\n    }\n\n    function revokePresaleAccess(address[] calldata _users) public onlyOwner {\n        for (uint256 i = 0; i < _users.length; i++) {\n            hasPresaleAccess[_users[i]] = false;\n        }\n    }\n\n    function withdraw() public payable onlyOwner {\n        (bool sent,) = payable(owner()).call{value: address(this).balance}(\"\");\n        require(sent, \"Failed to send Ether\");\n    }\n\n    /**\n     * Reserve zetas for the team and giveaways.\n     */\n    function reserve(uint256 _amount) public onlyOwner {\n        uint256 supply = totalSupply();\n\n        for (uint256 i = 1; i <= _amount; i++) {\n            _safeMint(msg.sender, supply + i);\n        }\n    }\n\n    function mint(address _user, uint256 _mintAmount) public payable {\n        uint256 supply = totalSupply();\n\n        require(saleIsActive() || presaleIsActive(), \"Sale is not active\");\n        require(_mintAmount > 0, \"Must mint at least one NFT\");\n        require(supply + _mintAmount <= maxSupply, \"Supply left is not enough\");\n        require(msg.value >= _mintAmount * price(), \"Not enough funds to purchase\");\n        require(_mintAmount <= batchMintLimit, \"Can't mint these many NFTs at once\");\n\n        if (presaleIsActive()) {\n            require(hasPresaleAccess[_user], \"Presale access denied\");\n            require(enoughPresaleMintingsLeft(_user, _mintAmount), \"Not enough presale mintings left\");\n        }\n\n        for (uint256 i = 1; i <= _mintAmount; i++) {\n            mintedPerAddress[_user]++;\n            _safeMint(_user, supply + i);\n        }\n    }\n}\n",
  "sourcePath": "/home/jose92/Personal/ZetaSaurio/zetasaurio/contracts/ZetaSaurio.sol",
  "compiler": {
    "name": "solc",
    "version": "0.8.15+commit.e14f2714.Emscripten.clang"
  },
  "schemaVersion": "3.4.8",
  "updatedAt": "2022-07-24T06:59:43.635Z",
  "networkType": "ethereum",
  "devdoc": {
    "kind": "dev",
    "methods": {
      "approve(address,uint256)": {
        "details": "See {IERC721-approve}."
      },
      "balanceOf(address)": {
        "details": "See {IERC721-balanceOf}."
      },
      "getApproved(uint256)": {
        "details": "See {IERC721-getApproved}."
      },
      "isApprovedForAll(address,address)": {
        "details": "See {IERC721-isApprovedForAll}."
      },
      "name()": {
        "details": "See {IERC721Metadata-name}."
      },
      "owner()": {
        "details": "Returns the address of the current owner."
      },
      "ownerOf(uint256)": {
        "details": "See {IERC721-ownerOf}."
      },
      "renounceOwnership()": {
        "details": "Leaves the contract without owner. It will not be possible to call `onlyOwner` functions anymore. Can only be called by the current owner. NOTE: Renouncing ownership will leave the contract without an owner, thereby removing any functionality that is only available to the owner."
      },
      "safeTransferFrom(address,address,uint256)": {
        "details": "See {IERC721-safeTransferFrom}."
      },
      "safeTransferFrom(address,address,uint256,bytes)": {
        "details": "See {IERC721-safeTransferFrom}."
      },
      "setApprovalForAll(address,bool)": {
        "details": "See {IERC721-setApprovalForAll}."
      },
      "supportsInterface(bytes4)": {
        "details": "See {IERC165-supportsInterface}."
      },
      "symbol()": {
        "details": "See {IERC721Metadata-symbol}."
      },
      "tokenByIndex(uint256)": {
        "details": "See {IERC721Enumerable-tokenByIndex}."
      },
      "tokenOfOwnerByIndex(address,uint256)": {
        "details": "See {IERC721Enumerable-tokenOfOwnerByIndex}."
      },
      "tokenURI(uint256)": {
        "details": "See {IERC721Metadata-tokenURI}."
      },
      "totalSupply()": {
        "details": "See {IERC721Enumerable-totalSupply}."
      },
      "transferFrom(address,address,uint256)": {
        "details": "See {IERC721-transferFrom}."
      },
      "transferOwnership(address)": {
        "details": "Transfers ownership of the contract to a new account (`newOwner`). Can only be called by the current owner."
      }
    },
    "version": 1
  },
  "userdoc": {
    "kind": "user",
    "methods": {
      "reserve(uint256)": {
        "notice": "Reserve zetas for the team and giveaways."
      }
    },
    "version": 1
  }
}