{
  "contractName": "ZetaSaurio",
  "abi": [
    {
      "inputs": [],
      "stateMutability": "nonpayable",
      "type": "constructor"
    },
    {
      "anonymous": false,
      "inputs": [
        {
          "indexed": true,
          "internalType": "address",
          "name": "owner",
          "type": "address"
        },
        {
          "indexed": true,
          "internalType": "address",
          "name": "approved",
          "type": "address"
        },
        {
          "indexed": true,
          "internalType": "uint256",
          "name": "tokenId",
          "type": "uint256"
        }
      ],
      "name": "Approval",
      "type": "event"
    },
    {
      "anonymous": false,
      "inputs": [
        {
          "indexed": true,
          "internalType": "address",
          "name": "owner",
          "type": "address"
        },
        {
          "indexed": true,
          "internalType": "address",
          "name": "operator",
          "type": "address"
        },
        {
          "indexed": false,
          "internalType": "bool",
          "name": "approved",
          "type": "bool"
        }
      ],
      "name": "ApprovalForAll",
      "type": "event"
    },
    {
      "anonymous": false,
      "inputs": [
        {
          "indexed": true,
          "internalType": "address",
          "name": "previousOwner",
          "type": "address"
        },
        {
          "indexed": true,
          "internalType": "address",
          "name": "newOwner",
          "type": "address"
        }
      ],
      "name": "OwnershipTransferred",
      "type": "event"
    },
    {
      "anonymous": false,
      "inputs": [
        {
          "indexed": true,
          "internalType": "address",
          "name": "from",
          "type": "address"
        },
        {
          "indexed": true,
          "internalType": "address",
          "name": "to",
          "type": "address"
        },
        {
          "indexed": true,
          "internalType": "uint256",
          "name": "tokenId",
          "type": "uint256"
        }
      ],
      "name": "Transfer",
      "type": "event"
    },
    {
      "inputs": [
        {
          "internalType": "address",
          "name": "to",
          "type": "address"
        },
        {
          "internalType": "uint256",
          "name": "tokenId",
          "type": "uint256"
        }
      ],
      "name": "approve",
      "outputs": [],
      "stateMutability": "nonpayable",
      "type": "function"
    },
    {
      "inputs": [
        {
          "internalType": "address",
          "name": "owner",
          "type": "address"
        }
      ],
      "name": "balanceOf",
      "outputs": [
        {
          "internalType": "uint256",
          "name": "",
          "type": "uint256"
        }
      ],
      "stateMutability": "view",
      "type": "function",
      "constant": true
    },
    {
      "inputs": [],
      "name": "baseURI",
      "outputs": [
        {
          "internalType": "string",
          "name": "",
          "type": "string"
        }
      ],
      "stateMutability": "view",
      "type": "function",
      "constant": true
    },
    {
      "inputs": [],
      "name": "batchMintLimit",
      "outputs": [
        {
          "internalType": "uint256",
          "name": "",
          "type": "uint256"
        }
      ],
      "stateMutability": "view",
      "type": "function",
      "constant": true
    },
    {
      "inputs": [
        {
          "internalType": "uint256",
          "name": "tokenId",
          "type": "uint256"
        }
      ],
      "name": "getApproved",
      "outputs": [
        {
          "internalType": "address",
          "name": "",
          "type": "address"
        }
      ],
      "stateMutability": "view",
      "type": "function",
      "constant": true
    },
    {
      "inputs": [
        {
          "internalType": "address",
          "name": "",
          "type": "address"
        }
      ],
      "name": "hasPresaleAccess",
      "outputs": [
        {
          "internalType": "bool",
          "name": "",
          "type": "bool"
        }
      ],
      "stateMutability": "view",
      "type": "function",
      "constant": true
    },
    {
      "inputs": [
        {
          "internalType": "address",
          "name": "owner",
          "type": "address"
        },
        {
          "internalType": "address",
          "name": "operator",
          "type": "address"
        }
      ],
      "name": "isApprovedForAll",
      "outputs": [
        {
          "internalType": "bool",
          "name": "",
          "type": "bool"
        }
      ],
      "stateMutability": "view",
      "type": "function",
      "constant": true
    },
    {
      "inputs": [],
      "name": "manager",
      "outputs": [
        {
          "internalType": "address",
          "name": "",
          "type": "address"
        }
      ],
      "stateMutability": "view",
      "type": "function",
      "constant": true
    },
    {
      "inputs": [],
      "name": "maxSupply",
      "outputs": [
        {
          "internalType": "uint256",
          "name": "",
          "type": "uint256"
        }
      ],
      "stateMutability": "view",
      "type": "function",
      "constant": true
    },
    {
      "inputs": [
        {
          "internalType": "address",
          "name": "",
          "type": "address"
        }
      ],
      "name": "mintedPerAddress",
      "outputs": [
        {
          "internalType": "uint256",
          "name": "",
          "type": "uint256"
        }
      ],
      "stateMutability": "view",
      "type": "function",
      "constant": true
    },
    {
      "inputs": [],
      "name": "name",
      "outputs": [
        {
          "internalType": "string",
          "name": "",
          "type": "string"
        }
      ],
      "stateMutability": "view",
      "type": "function",
      "constant": true
    },
    {
      "inputs": [],
      "name": "owner",
      "outputs": [
        {
          "internalType": "address",
          "name": "",
          "type": "address"
        }
      ],
      "stateMutability": "view",
      "type": "function",
      "constant": true
    },
    {
      "inputs": [
        {
          "internalType": "uint256",
          "name": "tokenId",
          "type": "uint256"
        }
      ],
      "name": "ownerOf",
      "outputs": [
        {
          "internalType": "address",
          "name": "",
          "type": "address"
        }
      ],
      "stateMutability": "view",
      "type": "function",
      "constant": true
    },
    {
      "inputs": [],
      "name": "presaleEndTimestamp",
      "outputs": [
        {
          "internalType": "uint256",
          "name": "",
          "type": "uint256"
        }
      ],
      "stateMutability": "view",
      "type": "function",
      "constant": true
    },
    {
      "inputs": [],
      "name": "presaleMintPerAddressLimit",
      "outputs": [
        {
          "internalType": "uint256",
          "name": "",
          "type": "uint256"
        }
      ],
      "stateMutability": "view",
      "type": "function",
      "constant": true
    },
    {
      "inputs": [],
      "name": "presalePrice",
      "outputs": [
        {
          "internalType": "uint256",
          "name": "",
          "type": "uint256"
        }
      ],
      "stateMutability": "view",
      "type": "function",
      "constant": true
    },
    {
      "inputs": [],
      "name": "presaleStartTimestamp",
      "outputs": [
        {
          "internalType": "uint256",
          "name": "",
          "type": "uint256"
        }
      ],
      "stateMutability": "view",
      "type": "function",
      "constant": true
    },
    {
      "inputs": [],
      "name": "renounceOwnership",
      "outputs": [],
      "stateMutability": "nonpayable",
      "type": "function"
    },
    {
      "inputs": [
        {
          "internalType": "address",
          "name": "from",
          "type": "address"
        },
        {
          "internalType": "address",
          "name": "to",
          "type": "address"
        },
        {
          "internalType": "uint256",
          "name": "tokenId",
          "type": "uint256"
        }
      ],
      "name": "safeTransferFrom",
      "outputs": [],
      "stateMutability": "nonpayable",
      "type": "function"
    },
    {
      "inputs": [
        {
          "internalType": "address",
          "name": "from",
          "type": "address"
        },
        {
          "internalType": "address",
          "name": "to",
          "type": "address"
        },
        {
          "internalType": "uint256",
          "name": "tokenId",
          "type": "uint256"
        },
        {
          "internalType": "bytes",
          "name": "data",
          "type": "bytes"
        }
      ],
      "name": "safeTransferFrom",
      "outputs": [],
      "stateMutability": "nonpayable",
      "type": "function"
    },
    {
      "inputs": [],
      "name": "salePrice",
      "outputs": [
        {
          "internalType": "uint256",
          "name": "",
          "type": "uint256"
        }
      ],
      "stateMutability": "view",
      "type": "function",
      "constant": true
    },
    {
      "inputs": [],
      "name": "saleStartTimestamp",
      "outputs": [
        {
          "internalType": "uint256",
          "name": "",
          "type": "uint256"
        }
      ],
      "stateMutability": "view",
      "type": "function",
      "constant": true
    },
    {
      "inputs": [
        {
          "internalType": "address",
          "name": "operator",
          "type": "address"
        },
        {
          "internalType": "bool",
          "name": "approved",
          "type": "bool"
        }
      ],
      "name": "setApprovalForAll",
      "outputs": [],
      "stateMutability": "nonpayable",
      "type": "function"
    },
    {
      "inputs": [
        {
          "internalType": "bytes4",
          "name": "interfaceId",
          "type": "bytes4"
        }
      ],
      "name": "supportsInterface",
      "outputs": [
        {
          "internalType": "bool",
          "name": "",
          "type": "bool"
        }
      ],
      "stateMutability": "view",
      "type": "function",
      "constant": true
    },
    {
      "inputs": [],
      "name": "symbol",
      "outputs": [
        {
          "internalType": "string",
          "name": "",
          "type": "string"
        }
      ],
      "stateMutability": "view",
      "type": "function",
      "constant": true
    },
    {
      "inputs": [
        {
          "internalType": "uint256",
          "name": "index",
          "type": "uint256"
        }
      ],
      "name": "tokenByIndex",
      "outputs": [
        {
          "internalType": "uint256",
          "name": "",
          "type": "uint256"
        }
      ],
      "stateMutability": "view",
      "type": "function",
      "constant": true
    },
    {
      "inputs": [
        {
          "internalType": "address",
          "name": "owner",
          "type": "address"
        },
        {
          "internalType": "uint256",
          "name": "index",
          "type": "uint256"
        }
      ],
      "name": "tokenOfOwnerByIndex",
      "outputs": [
        {
          "internalType": "uint256",
          "name": "",
          "type": "uint256"
        }
      ],
      "stateMutability": "view",
      "type": "function",
      "constant": true
    },
    {
      "inputs": [
        {
          "internalType": "uint256",
          "name": "tokenId",
          "type": "uint256"
        }
      ],
      "name": "tokenURI",
      "outputs": [
        {
          "internalType": "string",
          "name": "",
          "type": "string"
        }
      ],
      "stateMutability": "view",
      "type": "function",
      "constant": true
    },
    {
      "inputs": [],
      "name": "totalSupply",
      "outputs": [
        {
          "internalType": "uint256",
          "name": "",
          "type": "uint256"
        }
      ],
      "stateMutability": "view",
      "type": "function",
      "constant": true
    },
    {
      "inputs": [
        {
          "internalType": "address",
          "name": "from",
          "type": "address"
        },
        {
          "internalType": "address",
          "name": "to",
          "type": "address"
        },
        {
          "internalType": "uint256",
          "name": "tokenId",
          "type": "uint256"
        }
      ],
      "name": "transferFrom",
      "outputs": [],
      "stateMutability": "nonpayable",
      "type": "function"
    },
    {
      "inputs": [
        {
          "internalType": "address",
          "name": "newOwner",
          "type": "address"
        }
      ],
      "name": "transferOwnership",
      "outputs": [],
      "stateMutability": "nonpayable",
      "type": "function"
    },
    {
      "inputs": [
        {
          "internalType": "string",
          "name": "_newBaseURI",
          "type": "string"
        }
      ],
      "name": "setBaseURI",
      "outputs": [],
      "stateMutability": "nonpayable",
      "type": "function"
    },
    {
      "inputs": [
        {
          "internalType": "uint256",
          "name": "_presaleStartTimestamp",
          "type": "uint256"
        },
        {
          "internalType": "uint256",
          "name": "_presaleEndTimestamp",
          "type": "uint256"
        }
      ],
      "name": "schedulePresale",
      "outputs": [],
      "stateMutability": "nonpayable",
      "type": "function"
    },
    {
      "inputs": [
        {
          "internalType": "uint256",
          "name": "_saleStartTimestamp",
          "type": "uint256"
        }
      ],
      "name": "scheduleSale",
      "outputs": [],
      "stateMutability": "nonpayable",
      "type": "function"
    },
    {
      "inputs": [],
      "name": "presaleIsActive",
      "outputs": [
        {
          "internalType": "bool",
          "name": "",
          "type": "bool"
        }
      ],
      "stateMutability": "view",
      "type": "function",
      "constant": true
    },
    {
      "inputs": [],
      "name": "saleIsActive",
      "outputs": [
        {
          "internalType": "bool",
          "name": "",
          "type": "bool"
        }
      ],
      "stateMutability": "view",
      "type": "function",
      "constant": true
    },
    {
      "inputs": [],
      "name": "price",
      "outputs": [
        {
          "internalType": "uint256",
          "name": "",
          "type": "uint256"
        }
      ],
      "stateMutability": "view",
      "type": "function",
      "constant": true
    },
    {
      "inputs": [
        {
          "internalType": "address",
          "name": "_user",
          "type": "address"
        },
        {
          "internalType": "uint256",
          "name": "_mintAmount",
          "type": "uint256"
        }
      ],
      "name": "enoughPresaleMintingsLeft",
      "outputs": [
        {
          "internalType": "bool",
          "name": "",
          "type": "bool"
        }
      ],
      "stateMutability": "view",
      "type": "function",
      "constant": true
    },
    {
      "inputs": [
        {
          "internalType": "address[]",
          "name": "_users",
          "type": "address[]"
        }
      ],
      "name": "grantPresaleAccess",
      "outputs": [],
      "stateMutability": "nonpayable",
      "type": "function"
    },
    {
      "inputs": [
        {
          "internalType": "address[]",
          "name": "_users",
          "type": "address[]"
        }
      ],
      "name": "revokePresaleAccess",
      "outputs": [],
      "stateMutability": "nonpayable",
      "type": "function"
    },
    {
      "inputs": [],
      "name": "withdraw",
      "outputs": [],
      "stateMutability": "payable",
      "type": "function",
      "payable": true
    },
    {
      "inputs": [
        {
          "internalType": "uint256",
          "name": "_amount",
          "type": "uint256"
        }
      ],
      "name": "reserve",
      "outputs": [],
      "stateMutability": "nonpayable",
      "type": "function"
    },
    {
      "inputs": [
        {
          "internalType": "address",
          "name": "_user",
          "type": "address"
        },
        {
          "internalType": "uint256",
          "name": "_mintAmount",
          "type": "uint256"
        }
      ],
      "name": "mint",
      "outputs": [],
      "stateMutability": "payable",
      "type": "function",
      "payable": true
    }
  ],
  "bytecode": "0x608060405260405180602001604052806000815250600d90816200002491906200043b565b503480156200003257600080fd5b506040518060400160405280600a81526020017f5a65746153617572696f000000000000000000000000000000000000000000008152506040518060400160405280600281526020017f5a530000000000000000000000000000000000000000000000000000000000008152508160009081620000b091906200043b565b508060019081620000c291906200043b565b505050620000e5620000d9620000f360201b60201c565b620000fb60201b60201c565b6001600b8190555062000522565b600033905090565b6000600a60009054906101000a900473ffffffffffffffffffffffffffffffffffffffff16905081600a60006101000a81548173ffffffffffffffffffffffffffffffffffffffff021916908373ffffffffffffffffffffffffffffffffffffffff1602179055508173ffffffffffffffffffffffffffffffffffffffff168173ffffffffffffffffffffffffffffffffffffffff167f8be0079c531659141344cd1fd0a4f28419497f9722a3daafe3b4186f6b6457e060405160405180910390a35050565b600081519050919050565b7f4e487b7100000000000000000000000000000000000000000000000000000000600052604160045260246000fd5b7f4e487b7100000000000000000000000000000000000000000000000000000000600052602260045260246000fd5b600060028204905060018216806200024357607f821691505b602082108103620002595762000258620001fb565b5b50919050565b60008190508160005260206000209050919050565b60006020601f8301049050919050565b600082821b905092915050565b600060088302620002c37fffffffffffffffffffffffffffffffffffffffffffffffffffffffffffffffff8262000284565b620002cf868362000284565b95508019841693508086168417925050509392505050565b6000819050919050565b6000819050919050565b60006200031c620003166200031084620002e7565b620002f1565b620002e7565b9050919050565b6000819050919050565b6200033883620002fb565b62000350620003478262000323565b84845462000291565b825550505050565b600090565b6200036762000358565b620003748184846200032d565b505050565b5b818110156200039c57620003906000826200035d565b6001810190506200037a565b5050565b601f821115620003eb57620003b5816200025f565b620003c08462000274565b81016020851015620003d0578190505b620003e8620003df8562000274565b83018262000379565b50505b505050565b600082821c905092915050565b60006200041060001984600802620003f0565b1980831691505092915050565b60006200042b8383620003fd565b9150826002028217905092915050565b6200044682620001c1565b67ffffffffffffffff811115620004625762000461620001cc565b5b6200046e82546200022a565b6200047b828285620003a0565b600060209050601f831160018114620004b357600084156200049e578287015190505b620004aa85826200041d565b8655506200051a565b601f198416620004c3866200025f565b60005b82811015620004ed57848901518255600182019150602085019450602081019050620004c6565b868310156200050d578489015162000509601f891682620003fd565b8355505b6001600288020188555050505b505050505050565b61472f80620005326000396000f3fe60806040526004361061025b5760003560e01c806370a0823111610144578063c383e6c6116100b6578063dcad8a491161007a578063dcad8a49146108e1578063e985e9c51461090a578063eb8d244414610947578063f19b88ad14610972578063f2fde38b146109af578063f51f96dd146109d85761025b565b8063c383e6c6146107e8578063c6bd6bc814610811578063c87b56dd1461083c578063d445b97814610879578063d5abeb01146108b65761025b565b80638da5cb5b116101085780638da5cb5b146106ec57806395d89b4114610717578063985e89fe14610742578063a035b1fe1461076b578063a22cb46514610796578063b88d4fde146107bf5761025b565b806370a082311461061b578063715018a61461065857806378da7ba11461066f5780637c920e471461069a578063819b25ba146106c35761025b565b806330f72cd4116101dd578063481c6a75116101a1578063481c6a75146104f75780634ea37fec146105225780634f6ccce71461054d57806355f804b31461058a5780636352211e146105b35780636c0360eb146105f05761025b565b806330f72cd4146104525780633c276d861461047d5780633ccfd60b146104a857806340c10f19146104b257806342842e0e146104ce5761025b565b80630f209186116102245780630f2091861461035957806318160ddd1461039657806323b872dd146103c157806325efe85c146103ea5780632f745c59146104155761025b565b80620e7fa81461026057806301ffc9a71461028b57806306fdde03146102c8578063081812fc146102f3578063095ea7b314610330575b600080fd5b34801561026c57600080fd5b50610275610a03565b6040516102829190612d05565b60405180910390f35b34801561029757600080fd5b506102b260048036038101906102ad9190612d8c565b610a0f565b6040516102bf9190612dd4565b60405180910390f35b3480156102d457600080fd5b506102dd610a89565b6040516102ea9190612e88565b60405180910390f35b3480156102ff57600080fd5b5061031a60048036038101906103159190612ed6565b610b1b565b6040516103279190612f44565b60405180910390f35b34801561033c57600080fd5b5061035760048036038101906103529190612f8b565b610b61565b005b34801561036557600080fd5b50610380600480360381019061037b9190612fcb565b610c78565b60405161038d9190612dd4565b60405180910390f35b3480156103a257600080fd5b506103ab610c98565b6040516103b89190612d05565b60405180910390f35b3480156103cd57600080fd5b506103e860048036038101906103e39190612ff8565b610ca5565b005b3480156103f657600080fd5b506103ff610d05565b60405161040c9190612d05565b60405180910390f35b34801561042157600080fd5b5061043c60048036038101906104379190612f8b565b610d0a565b6040516104499190612d05565b60405180910390f35b34801561045e57600080fd5b50610467610daf565b6040516104749190612dd4565b60405180910390f35b34801561048957600080fd5b50610492610dc9565b60405161049f9190612d05565b60405180910390f35b6104b0610dcf565b005b6104cc60048036038101906104c79190612f8b565b610e8d565b005b3480156104da57600080fd5b506104f560048036038101906104f09190612ff8565b6111d3565b005b34801561050357600080fd5b5061050c6111f3565b6040516105199190612f44565b60405180910390f35b34801561052e57600080fd5b50610537611219565b6040516105449190612d05565b60405180910390f35b34801561055957600080fd5b50610574600480360381019061056f9190612ed6565b61121f565b6040516105819190612d05565b60405180910390f35b34801561059657600080fd5b506105b160048036038101906105ac9190613180565b611290565b005b3480156105bf57600080fd5b506105da60048036038101906105d59190612ed6565b6112ab565b6040516105e79190612f44565b60405180910390f35b3480156105fc57600080fd5b5061060561135c565b6040516106129190612e88565b60405180910390f35b34801561062757600080fd5b50610642600480360381019061063d9190612fcb565b6113ea565b60405161064f9190612d05565b60405180910390f35b34801561066457600080fd5b5061066d6114a1565b005b34801561067b57600080fd5b506106846114b5565b6040516106919190612d05565b60405180910390f35b3480156106a657600080fd5b506106c160048036038101906106bc9190613229565b6114bb565b005b3480156106cf57600080fd5b506106ea60048036038101906106e59190612ed6565b611568565b005b3480156106f857600080fd5b506107016115b7565b60405161070e9190612f44565b60405180910390f35b34801561072357600080fd5b5061072c6115e1565b6040516107399190612e88565b60405180910390f35b34801561074e57600080fd5b5061076960048036038101906107649190613229565b611673565b005b34801561077757600080fd5b50610780611720565b60405161078d9190612d05565b60405180910390f35b3480156107a257600080fd5b506107bd60048036038101906107b891906132a2565b61174b565b005b3480156107cb57600080fd5b506107e660048036038101906107e19190613383565b611761565b005b3480156107f457600080fd5b5061080f600480360381019061080a9190612ed6565b6117c3565b005b34801561081d57600080fd5b506108266117d5565b6040516108339190612d05565b60405180910390f35b34801561084857600080fd5b50610863600480360381019061085e9190612ed6565b6117da565b6040516108709190612e88565b60405180910390f35b34801561088557600080fd5b506108a0600480360381019061089b9190612fcb565b611842565b6040516108ad9190612d05565b60405180910390f35b3480156108c257600080fd5b506108cb61185a565b6040516108d89190612d05565b60405180910390f35b3480156108ed57600080fd5b5061090860048036038101906109039190613406565b611860565b005b34801561091657600080fd5b50610931600480360381019061092c9190613446565b61187a565b60405161093e9190612dd4565b60405180910390f35b34801561095357600080fd5b5061095c61190e565b6040516109699190612dd4565b60405180910390f35b34801561097e57600080fd5b5061099960048036038101906109949190612f8b565b611929565b6040516109a69190612dd4565b60405180910390f35b3480156109bb57600080fd5b506109d660048036038101906109d19190612fcb565b611982565b005b3480156109e457600080fd5b506109ed611a05565b6040516109fa9190612d05565b60405180910390f35b670214e8348c4f000081565b60007f780e9d63000000000000000000000000000000000000000000000000000000007bffffffffffffffffffffffffffffffffffffffffffffffffffffffff1916827bffffffffffffffffffffffffffffffffffffffffffffffffffffffff19161480610a825750610a8182611a11565b5b9050919050565b606060008054610a98906134b5565b80601f0160208091040260200160405190810160405280929190818152602001828054610ac4906134b5565b8015610b115780601f10610ae657610100808354040283529160200191610b11565b820191906000526020600020905b815481529060010190602001808311610af457829003601f168201915b5050505050905090565b6000610b2682611af3565b6004600083815260200190815260200160002060009054906101000a900473ffffffffffffffffffffffffffffffffffffffff169050919050565b6000610b6c826112ab565b90508073ffffffffffffffffffffffffffffffffffffffff168373ffffffffffffffffffffffffffffffffffffffff1603610bdc576040517f08c379a0000000000000000000000000000000000000000000000000000000008152600401610bd390613558565b60405180910390fd5b8073ffffffffffffffffffffffffffffffffffffffff16610bfb611b3e565b73ffffffffffffffffffffffffffffffffffffffff161480610c2a5750610c2981610c24611b3e565b61187a565b5b610c69576040517f08c379a0000000000000000000000000000000000000000000000000000000008152600401610c60906135ea565b60405180910390fd5b610c738383611b46565b505050565b60116020528060005260406000206000915054906101000a900460ff1681565b6000600880549050905090565b610cb6610cb0611b3e565b82611bff565b610cf5576040517f08c379a0000000000000000000000000000000000000000000000000000000008152600401610cec9061367c565b60405180910390fd5b610d00838383611c94565b505050565b600381565b6000610d15836113ea565b8210610d56576040517f08c379a0000000000000000000000000000000000000000000000000000000008152600401610d4d9061370e565b60405180910390fd5b600660008473ffffffffffffffffffffffffffffffffffffffff1673ffffffffffffffffffffffffffffffffffffffff168152602001908152602001600020600083815260200190815260200160002054905092915050565b60004260105411158015610dc45750600f5442105b905090565b600e5481565b610dd7611efa565b6000610de16115b7565b73ffffffffffffffffffffffffffffffffffffffff1647604051610e049061375f565b60006040518083038185875af1925050503d8060008114610e41576040519150601f19603f3d011682016040523d82523d6000602084013e610e46565b606091505b5050905080610e8a576040517f08c379a0000000000000000000000000000000000000000000000000000000008152600401610e81906137c0565b60405180910390fd5b50565b6002600b5403610ed2576040517f08c379a0000000000000000000000000000000000000000000000000000000008152600401610ec99061382c565b60405180910390fd5b6002600b819055506000610ee4610c98565b9050610eee61190e565b80610efd5750610efc610daf565b5b610f3c576040517f08c379a0000000000000000000000000000000000000000000000000000000008152600401610f3390613898565b60405180910390fd5b60008211610f7f576040517f08c379a0000000000000000000000000000000000000000000000000000000008152600401610f7690613904565b60405180910390fd5b6124b18282610f8e9190613953565b1115610fcf576040517f08c379a0000000000000000000000000000000000000000000000000000000008152600401610fc6906139f5565b60405180910390fd5b610fd7611720565b82610fe29190613a15565b341015611024576040517f08c379a000000000000000000000000000000000000000000000000000000000815260040161101b90613abb565b60405180910390fd5b6005821115611068576040517f08c379a000000000000000000000000000000000000000000000000000000000815260040161105f90613b4d565b60405180910390fd5b611070610daf565b1561114b57601160008473ffffffffffffffffffffffffffffffffffffffff1673ffffffffffffffffffffffffffffffffffffffff16815260200190815260200160002060009054906101000a900460ff16611101576040517f08c379a00000000000000000000000000000000000000000000000000000000081526004016110f890613bb9565b60405180910390fd5b61110b8383611929565b61114a576040517f08c379a000000000000000000000000000000000000000000000000000000000815260040161114190613c25565b60405180910390fd5b5b81601260008573ffffffffffffffffffffffffffffffffffffffff1673ffffffffffffffffffffffffffffffffffffffff168152602001908152602001600020819055506000600190505b8281116111c5576111b28482846111ad9190613953565b611f78565b80806111bd90613c45565b915050611196565b50506001600b819055505050565b6111ee83838360405180602001604052806000815250611761565b505050565b600c60009054906101000a900473ffffffffffffffffffffffffffffffffffffffff1681565b60105481565b6000611229610c98565b821061126a576040517f08c379a000000000000000000000000000000000000000000000000000000000815260040161126190613cff565b60405180910390fd5b6008828154811061127e5761127d613d1f565b5b90600052602060002001549050919050565b611298611efa565b80600d90816112a79190613efa565b5050565b6000806002600084815260200190815260200160002060009054906101000a900473ffffffffffffffffffffffffffffffffffffffff169050600073ffffffffffffffffffffffffffffffffffffffff168173ffffffffffffffffffffffffffffffffffffffff1603611353576040517f08c379a000000000000000000000000000000000000000000000000000000000815260040161134a90614018565b60405180910390fd5b80915050919050565b600d8054611369906134b5565b80601f0160208091040260200160405190810160405280929190818152602001828054611395906134b5565b80156113e25780601f106113b7576101008083540402835291602001916113e2565b820191906000526020600020905b8154815290600101906020018083116113c557829003601f168201915b505050505081565b60008073ffffffffffffffffffffffffffffffffffffffff168273ffffffffffffffffffffffffffffffffffffffff160361145a576040517f08c379a0000000000000000000000000000000000000000000000000000000008152600401611451906140aa565b60405180910390fd5b600360008373ffffffffffffffffffffffffffffffffffffffff1673ffffffffffffffffffffffffffffffffffffffff168152602001908152602001600020549050919050565b6114a9611efa565b6114b36000611f96565b565b600f5481565b6114c3611efa565b60005b82829050811015611563576001601160008585858181106114ea576114e9613d1f565b5b90506020020160208101906114ff9190612fcb565b73ffffffffffffffffffffffffffffffffffffffff1673ffffffffffffffffffffffffffffffffffffffff16815260200190815260200160002060006101000a81548160ff021916908315150217905550808061155b90613c45565b9150506114c6565b505050565b611570611efa565b600061157a610c98565b90506000600190505b8281116115b25761159f33828461159a9190613953565b611f78565b80806115aa90613c45565b915050611583565b505050565b6000600a60009054906101000a900473ffffffffffffffffffffffffffffffffffffffff16905090565b6060600180546115f0906134b5565b80601f016020809104026020016040519081016040528092919081815260200182805461161c906134b5565b80156116695780601f1061163e57610100808354040283529160200191611669565b820191906000526020600020905b81548152906001019060200180831161164c57829003601f168201915b5050505050905090565b61167b611efa565b60005b8282905081101561171b576000601160008585858181106116a2576116a1613d1f565b5b90506020020160208101906116b79190612fcb565b73ffffffffffffffffffffffffffffffffffffffff1673ffffffffffffffffffffffffffffffffffffffff16815260200190815260200160002060006101000a81548160ff021916908315150217905550808061171390613c45565b91505061167e565b505050565b600061172a610daf565b61173c576702c68af0bb140000611746565b670214e8348c4f00005b905090565b61175d611756611b3e565b838361205c565b5050565b61177261176c611b3e565b83611bff565b6117b1576040517f08c379a00000000000000000000000000000000000000000000000000000000081526004016117a89061367c565b60405180910390fd5b6117bd848484846121c8565b50505050565b6117cb611efa565b80600e8190555050565b600581565b60606117e582611af3565b60006117ef612224565b9050600081511161180f576040518060200160405280600081525061183a565b80611819846122b6565b60405160200161182a929190614106565b6040516020818303038152906040525b915050919050565b60126020528060005260406000206000915090505481565b6124b181565b611868611efa565b80600f81905550816010819055505050565b6000600560008473ffffffffffffffffffffffffffffffffffffffff1673ffffffffffffffffffffffffffffffffffffffff16815260200190815260200160002060008373ffffffffffffffffffffffffffffffffffffffff1673ffffffffffffffffffffffffffffffffffffffff16815260200190815260200160002060009054906101000a900460ff16905092915050565b600080600e5414158015611924575042600e5411155b905090565b6000600382601260008673ffffffffffffffffffffffffffffffffffffffff1673ffffffffffffffffffffffffffffffffffffffff168152602001908152602001600020546119789190613953565b1115905092915050565b61198a611efa565b600073ffffffffffffffffffffffffffffffffffffffff168173ffffffffffffffffffffffffffffffffffffffff16036119f9576040517f08c379a00000000000000000000000000000000000000000000000000000000081526004016119f09061419c565b60405180910390fd5b611a0281611f96565b50565b6702c68af0bb14000081565b60007f80ac58cd000000000000000000000000000000000000000000000000000000007bffffffffffffffffffffffffffffffffffffffffffffffffffffffff1916827bffffffffffffffffffffffffffffffffffffffffffffffffffffffff19161480611adc57507f5b5e139f000000000000000000000000000000000000000000000000000000007bffffffffffffffffffffffffffffffffffffffffffffffffffffffff1916827bffffffffffffffffffffffffffffffffffffffffffffffffffffffff1916145b80611aec5750611aeb82612416565b5b9050919050565b611afc81612480565b611b3b576040517f08c379a0000000000000000000000000000000000000000000000000000000008152600401611b3290614018565b60405180910390fd5b50565b600033905090565b816004600083815260200190815260200160002060006101000a81548173ffffffffffffffffffffffffffffffffffffffff021916908373ffffffffffffffffffffffffffffffffffffffff160217905550808273ffffffffffffffffffffffffffffffffffffffff16611bb9836112ab565b73ffffffffffffffffffffffffffffffffffffffff167f8c5be1e5ebec7d5bd14f71427d1e84f3dd0314c0f7b2291e5b200ac8c7c3b92560405160405180910390a45050565b600080611c0b836112ab565b90508073ffffffffffffffffffffffffffffffffffffffff168473ffffffffffffffffffffffffffffffffffffffff161480611c4d5750611c4c818561187a565b5b80611c8b57508373ffffffffffffffffffffffffffffffffffffffff16611c7384610b1b565b73ffffffffffffffffffffffffffffffffffffffff16145b91505092915050565b8273ffffffffffffffffffffffffffffffffffffffff16611cb4826112ab565b73ffffffffffffffffffffffffffffffffffffffff1614611d0a576040517f08c379a0000000000000000000000000000000000000000000000000000000008152600401611d019061422e565b60405180910390fd5b600073ffffffffffffffffffffffffffffffffffffffff168273ffffffffffffffffffffffffffffffffffffffff1603611d79576040517f08c379a0000000000000000000000000000000000000000000000000000000008152600401611d70906142c0565b60405180910390fd5b611d848383836124ec565b611d8f600082611b46565b6001600360008573ffffffffffffffffffffffffffffffffffffffff1673ffffffffffffffffffffffffffffffffffffffff1681526020019081526020016000206000828254611ddf91906142e0565b925050819055506001600360008473ffffffffffffffffffffffffffffffffffffffff1673ffffffffffffffffffffffffffffffffffffffff1681526020019081526020016000206000828254611e369190613953565b92505081905550816002600083815260200190815260200160002060006101000a81548173ffffffffffffffffffffffffffffffffffffffff021916908373ffffffffffffffffffffffffffffffffffffffff160217905550808273ffffffffffffffffffffffffffffffffffffffff168473ffffffffffffffffffffffffffffffffffffffff167fddf252ad1be2c89b69c2b068fc378daa952ba7f163c4a11628f55a4df523b3ef60405160405180910390a4611ef58383836125fe565b505050565b611f02611b3e565b73ffffffffffffffffffffffffffffffffffffffff16611f206115b7565b73ffffffffffffffffffffffffffffffffffffffff1614611f76576040517f08c379a0000000000000000000000000000000000000000000000000000000008152600401611f6d90614360565b60405180910390fd5b565b611f92828260405180602001604052806000815250612603565b5050565b6000600a60009054906101000a900473ffffffffffffffffffffffffffffffffffffffff16905081600a60006101000a81548173ffffffffffffffffffffffffffffffffffffffff021916908373ffffffffffffffffffffffffffffffffffffffff1602179055508173ffffffffffffffffffffffffffffffffffffffff168173ffffffffffffffffffffffffffffffffffffffff167f8be0079c531659141344cd1fd0a4f28419497f9722a3daafe3b4186f6b6457e060405160405180910390a35050565b8173ffffffffffffffffffffffffffffffffffffffff168373ffffffffffffffffffffffffffffffffffffffff16036120ca576040517f08c379a00000000000000000000000000000000000000000000000000000000081526004016120c1906143cc565b60405180910390fd5b80600560008573ffffffffffffffffffffffffffffffffffffffff1673ffffffffffffffffffffffffffffffffffffffff16815260200190815260200160002060008473ffffffffffffffffffffffffffffffffffffffff1673ffffffffffffffffffffffffffffffffffffffff16815260200190815260200160002060006101000a81548160ff0219169083151502179055508173ffffffffffffffffffffffffffffffffffffffff168373ffffffffffffffffffffffffffffffffffffffff167f17307eab39ab6107e8899845ad3d59bd9653f200f220920489ca2b5937696c31836040516121bb9190612dd4565b60405180910390a3505050565b6121d3848484611c94565b6121df8484848461265e565b61221e576040517f08c379a00000000000000000000000000000000000000000000000000000000081526004016122159061445e565b60405180910390fd5b50505050565b6060600d8054612233906134b5565b80601f016020809104026020016040519081016040528092919081815260200182805461225f906134b5565b80156122ac5780601f10612281576101008083540402835291602001916122ac565b820191906000526020600020905b81548152906001019060200180831161228f57829003601f168201915b5050505050905090565b6060600082036122fd576040518060400160405280600181526020017f30000000000000000000000000000000000000000000000000000000000000008152509050612411565b600082905060005b6000821461232f57808061231890613c45565b915050600a8261232891906144ad565b9150612305565b60008167ffffffffffffffff81111561234b5761234a613055565b5b6040519080825280601f01601f19166020018201604052801561237d5781602001600182028036833780820191505090505b5090505b6000851461240a5760018261239691906142e0565b9150600a856123a591906144de565b60306123b19190613953565b60f81b8183815181106123c7576123c6613d1f565b5b60200101907effffffffffffffffffffffffffffffffffffffffffffffffffffffffffffff1916908160001a905350600a8561240391906144ad565b9450612381565b8093505050505b919050565b60007f01ffc9a7000000000000000000000000000000000000000000000000000000007bffffffffffffffffffffffffffffffffffffffffffffffffffffffff1916827bffffffffffffffffffffffffffffffffffffffffffffffffffffffff1916149050919050565b60008073ffffffffffffffffffffffffffffffffffffffff166002600084815260200190815260200160002060009054906101000a900473ffffffffffffffffffffffffffffffffffffffff1673ffffffffffffffffffffffffffffffffffffffff1614159050919050565b6124f78383836127e5565b600073ffffffffffffffffffffffffffffffffffffffff168373ffffffffffffffffffffffffffffffffffffffff160361253957612534816127ea565b612578565b8173ffffffffffffffffffffffffffffffffffffffff168373ffffffffffffffffffffffffffffffffffffffff1614612577576125768382612833565b5b5b600073ffffffffffffffffffffffffffffffffffffffff168273ffffffffffffffffffffffffffffffffffffffff16036125ba576125b5816129a0565b6125f9565b8273ffffffffffffffffffffffffffffffffffffffff168273ffffffffffffffffffffffffffffffffffffffff16146125f8576125f78282612a71565b5b5b505050565b505050565b61260d8383612af0565b61261a600084848461265e565b612659576040517f08c379a00000000000000000000000000000000000000000000000000000000081526004016126509061445e565b60405180910390fd5b505050565b600061267f8473ffffffffffffffffffffffffffffffffffffffff16612cc9565b156127d8578373ffffffffffffffffffffffffffffffffffffffff1663150b7a026126a8611b3e565b8786866040518563ffffffff1660e01b81526004016126ca9493929190614564565b6020604051808303816000875af192505050801561270657506040513d601f19601f8201168201806040525081019061270391906145c5565b60015b612788573d8060008114612736576040519150601f19603f3d011682016040523d82523d6000602084013e61273b565b606091505b506000815103612780576040517f08c379a00000000000000000000000000000000000000000000000000000000081526004016127779061445e565b60405180910390fd5b805181602001fd5b63150b7a0260e01b7bffffffffffffffffffffffffffffffffffffffffffffffffffffffff1916817bffffffffffffffffffffffffffffffffffffffffffffffffffffffff1916149150506127dd565b600190505b949350505050565b505050565b6008805490506009600083815260200190815260200160002081905550600881908060018154018082558091505060019003906000526020600020016000909190919091505550565b60006001612840846113ea565b61284a91906142e0565b905060006007600084815260200190815260200160002054905081811461292f576000600660008673ffffffffffffffffffffffffffffffffffffffff1673ffffffffffffffffffffffffffffffffffffffff168152602001908152602001600020600084815260200190815260200160002054905080600660008773ffffffffffffffffffffffffffffffffffffffff1673ffffffffffffffffffffffffffffffffffffffff168152602001908152602001600020600084815260200190815260200160002081905550816007600083815260200190815260200160002081905550505b6007600084815260200190815260200160002060009055600660008573ffffffffffffffffffffffffffffffffffffffff1673ffffffffffffffffffffffffffffffffffffffff16815260200190815260200160002060008381526020019081526020016000206000905550505050565b600060016008805490506129b491906142e0565b90506000600960008481526020019081526020016000205490506000600883815481106129e4576129e3613d1f565b5b906000526020600020015490508060088381548110612a0657612a05613d1f565b5b906000526020600020018190555081600960008381526020019081526020016000208190555060096000858152602001908152602001600020600090556008805480612a5557612a546145f2565b5b6001900381819060005260206000200160009055905550505050565b6000612a7c836113ea565b905081600660008573ffffffffffffffffffffffffffffffffffffffff1673ffffffffffffffffffffffffffffffffffffffff168152602001908152602001600020600083815260200190815260200160002081905550806007600084815260200190815260200160002081905550505050565b600073ffffffffffffffffffffffffffffffffffffffff168273ffffffffffffffffffffffffffffffffffffffff1603612b5f576040517f08c379a0000000000000000000000000000000000000000000000000000000008152600401612b569061466d565b60405180910390fd5b612b6881612480565b15612ba8576040517f08c379a0000000000000000000000000000000000000000000000000000000008152600401612b9f906146d9565b60405180910390fd5b612bb4600083836124ec565b6001600360008473ffffffffffffffffffffffffffffffffffffffff1673ffffffffffffffffffffffffffffffffffffffff1681526020019081526020016000206000828254612c049190613953565b92505081905550816002600083815260200190815260200160002060006101000a81548173ffffffffffffffffffffffffffffffffffffffff021916908373ffffffffffffffffffffffffffffffffffffffff160217905550808273ffffffffffffffffffffffffffffffffffffffff16600073ffffffffffffffffffffffffffffffffffffffff167fddf252ad1be2c89b69c2b068fc378daa952ba7f163c4a11628f55a4df523b3ef60405160405180910390a4612cc5600083836125fe565b5050565b6000808273ffffffffffffffffffffffffffffffffffffffff163b119050919050565b6000819050919050565b612cff81612cec565b82525050565b6000602082019050612d1a6000830184612cf6565b92915050565b6000604051905090565b600080fd5b600080fd5b60007fffffffff0000000000000000000000000000000000000000000000000000000082169050919050565b612d6981612d34565b8114612d7457600080fd5b50565b600081359050612d8681612d60565b92915050565b600060208284031215612da257612da1612d2a565b5b6000612db084828501612d77565b91505092915050565b60008115159050919050565b612dce81612db9565b82525050565b6000602082019050612de96000830184612dc5565b92915050565b600081519050919050565b600082825260208201905092915050565b60005b83811015612e29578082015181840152602081019050612e0e565b83811115612e38576000848401525b50505050565b6000601f19601f8301169050919050565b6000612e5a82612def565b612e648185612dfa565b9350612e74818560208601612e0b565b612e7d81612e3e565b840191505092915050565b60006020820190508181036000830152612ea28184612e4f565b905092915050565b612eb381612cec565b8114612ebe57600080fd5b50565b600081359050612ed081612eaa565b92915050565b600060208284031215612eec57612eeb612d2a565b5b6000612efa84828501612ec1565b91505092915050565b600073ffffffffffffffffffffffffffffffffffffffff82169050919050565b6000612f2e82612f03565b9050919050565b612f3e81612f23565b82525050565b6000602082019050612f596000830184612f35565b92915050565b612f6881612f23565b8114612f7357600080fd5b50565b600081359050612f8581612f5f565b92915050565b60008060408385031215612fa257612fa1612d2a565b5b6000612fb085828601612f76565b9250506020612fc185828601612ec1565b9150509250929050565b600060208284031215612fe157612fe0612d2a565b5b6000612fef84828501612f76565b91505092915050565b60008060006060848603121561301157613010612d2a565b5b600061301f86828701612f76565b935050602061303086828701612f76565b925050604061304186828701612ec1565b9150509250925092565b600080fd5b600080fd5b7f4e487b7100000000000000000000000000000000000000000000000000000000600052604160045260246000fd5b61308d82612e3e565b810181811067ffffffffffffffff821117156130ac576130ab613055565b5b80604052505050565b60006130bf612d20565b90506130cb8282613084565b919050565b600067ffffffffffffffff8211156130eb576130ea613055565b5b6130f482612e3e565b9050602081019050919050565b82818337600083830152505050565b600061312361311e846130d0565b6130b5565b90508281526020810184848401111561313f5761313e613050565b5b61314a848285613101565b509392505050565b600082601f8301126131675761316661304b565b5b8135613177848260208601613110565b91505092915050565b60006020828403121561319657613195612d2a565b5b600082013567ffffffffffffffff8111156131b4576131b3612d2f565b5b6131c084828501613152565b91505092915050565b600080fd5b600080fd5b60008083601f8401126131e9576131e861304b565b5b8235905067ffffffffffffffff811115613206576132056131c9565b5b602083019150836020820283011115613222576132216131ce565b5b9250929050565b600080602083850312156132405761323f612d2a565b5b600083013567ffffffffffffffff81111561325e5761325d612d2f565b5b61326a858286016131d3565b92509250509250929050565b61327f81612db9565b811461328a57600080fd5b50565b60008135905061329c81613276565b92915050565b600080604083850312156132b9576132b8612d2a565b5b60006132c785828601612f76565b92505060206132d88582860161328d565b9150509250929050565b600067ffffffffffffffff8211156132fd576132fc613055565b5b61330682612e3e565b9050602081019050919050565b6000613326613321846132e2565b6130b5565b90508281526020810184848401111561334257613341613050565b5b61334d848285613101565b509392505050565b600082601f83011261336a5761336961304b565b5b813561337a848260208601613313565b91505092915050565b6000806000806080858703121561339d5761339c612d2a565b5b60006133ab87828801612f76565b94505060206133bc87828801612f76565b93505060406133cd87828801612ec1565b925050606085013567ffffffffffffffff8111156133ee576133ed612d2f565b5b6133fa87828801613355565b91505092959194509250565b6000806040838503121561341d5761341c612d2a565b5b600061342b85828601612ec1565b925050602061343c85828601612ec1565b9150509250929050565b6000806040838503121561345d5761345c612d2a565b5b600061346b85828601612f76565b925050602061347c85828601612f76565b9150509250929050565b7f4e487b7100000000000000000000000000000000000000000000000000000000600052602260045260246000fd5b600060028204905060018216806134cd57607f821691505b6020821081036134e0576134df613486565b5b50919050565b7f4552433732313a20617070726f76616c20746f2063757272656e74206f776e6560008201527f7200000000000000000000000000000000000000000000000000000000000000602082015250565b6000613542602183612dfa565b915061354d826134e6565b604082019050919050565b6000602082019050818103600083015261357181613535565b9050919050565b7f4552433732313a20617070726f76652063616c6c6572206973206e6f7420746f60008201527f6b656e206f776e6572206e6f7220617070726f76656420666f7220616c6c0000602082015250565b60006135d4603e83612dfa565b91506135df82613578565b604082019050919050565b60006020820190508181036000830152613603816135c7565b9050919050565b7f4552433732313a2063616c6c6572206973206e6f7420746f6b656e206f776e6560008201527f72206e6f7220617070726f766564000000000000000000000000000000000000602082015250565b6000613666602e83612dfa565b91506136718261360a565b604082019050919050565b6000602082019050818103600083015261369581613659565b9050919050565b7f455243373231456e756d657261626c653a206f776e657220696e646578206f7560008201527f74206f6620626f756e6473000000000000000000000000000000000000000000602082015250565b60006136f8602b83612dfa565b91506137038261369c565b604082019050919050565b60006020820190508181036000830152613727816136eb565b9050919050565b600081905092915050565b50565b600061374960008361372e565b915061375482613739565b600082019050919050565b600061376a8261373c565b9150819050919050565b7f4661696c656420746f2073656e64204574686572000000000000000000000000600082015250565b60006137aa601483612dfa565b91506137b582613774565b602082019050919050565b600060208201905081810360008301526137d98161379d565b9050919050565b7f5265656e7472616e637947756172643a207265656e7472616e742063616c6c00600082015250565b6000613816601f83612dfa565b9150613821826137e0565b602082019050919050565b6000602082019050818103600083015261384581613809565b9050919050565b7f53616c65206973206e6f74206163746976650000000000000000000000000000600082015250565b6000613882601283612dfa565b915061388d8261384c565b602082019050919050565b600060208201905081810360008301526138b181613875565b9050919050565b7f4d757374206d696e74206174206c65617374206f6e65204e4654000000000000600082015250565b60006138ee601a83612dfa565b91506138f9826138b8565b602082019050919050565b6000602082019050818103600083015261391d816138e1565b9050919050565b7f4e487b7100000000000000000000000000000000000000000000000000000000600052601160045260246000fd5b600061395e82612cec565b915061396983612cec565b9250827fffffffffffffffffffffffffffffffffffffffffffffffffffffffffffffffff0382111561399e5761399d613924565b5b828201905092915050565b7f537570706c79206c656674206973206e6f7420656e6f75676800000000000000600082015250565b60006139df601983612dfa565b91506139ea826139a9565b602082019050919050565b60006020820190508181036000830152613a0e816139d2565b9050919050565b6000613a2082612cec565b9150613a2b83612cec565b9250817fffffffffffffffffffffffffffffffffffffffffffffffffffffffffffffffff0483118215151615613a6457613a63613924565b5b828202905092915050565b7f4e6f7420656e6f7567682066756e647320746f20707572636861736500000000600082015250565b6000613aa5601c83612dfa565b9150613ab082613a6f565b602082019050919050565b60006020820190508181036000830152613ad481613a98565b9050919050565b7f43616e2774206d696e74207468657365206d616e79204e465473206174206f6e60008201527f6365000000000000000000000000000000000000000000000000000000000000602082015250565b6000613b37602283612dfa565b9150613b4282613adb565b604082019050919050565b60006020820190508181036000830152613b6681613b2a565b9050919050565b7f50726573616c65206163636573732064656e6965640000000000000000000000600082015250565b6000613ba3601583612dfa565b9150613bae82613b6d565b602082019050919050565b60006020820190508181036000830152613bd281613b96565b9050919050565b7f4e6f7420656e6f7567682070726573616c65206d696e74696e6773206c656674600082015250565b6000613c0f602083612dfa565b9150613c1a82613bd9565b602082019050919050565b60006020820190508181036000830152613c3e81613c02565b9050919050565b6000613c5082612cec565b91507fffffffffffffffffffffffffffffffffffffffffffffffffffffffffffffffff8203613c8257613c81613924565b5b600182019050919050565b7f455243373231456e756d657261626c653a20676c6f62616c20696e646578206f60008201527f7574206f6620626f756e64730000000000000000000000000000000000000000602082015250565b6000613ce9602c83612dfa565b9150613cf482613c8d565b604082019050919050565b60006020820190508181036000830152613d1881613cdc565b9050919050565b7f4e487b7100000000000000000000000000000000000000000000000000000000600052603260045260246000fd5b60008190508160005260206000209050919050565b60006020601f8301049050919050565b600082821b905092915050565b600060088302613db07fffffffffffffffffffffffffffffffffffffffffffffffffffffffffffffffff82613d73565b613dba8683613d73565b95508019841693508086168417925050509392505050565b6000819050919050565b6000613df7613df2613ded84612cec565b613dd2565b612cec565b9050919050565b6000819050919050565b613e1183613ddc565b613e25613e1d82613dfe565b848454613d80565b825550505050565b600090565b613e3a613e2d565b613e45818484613e08565b505050565b5b81811015613e6957613e5e600082613e32565b600181019050613e4b565b5050565b601f821115613eae57613e7f81613d4e565b613e8884613d63565b81016020851015613e97578190505b613eab613ea385613d63565b830182613e4a565b50505b505050565b600082821c905092915050565b6000613ed160001984600802613eb3565b1980831691505092915050565b6000613eea8383613ec0565b9150826002028217905092915050565b613f0382612def565b67ffffffffffffffff811115613f1c57613f1b613055565b5b613f2682546134b5565b613f31828285613e6d565b600060209050601f831160018114613f645760008415613f52578287015190505b613f5c8582613ede565b865550613fc4565b601f198416613f7286613d4e565b60005b82811015613f9a57848901518255600182019150602085019450602081019050613f75565b86831015613fb75784890151613fb3601f891682613ec0565b8355505b6001600288020188555050505b505050505050565b7f4552433732313a20696e76616c696420746f6b656e2049440000000000000000600082015250565b6000614002601883612dfa565b915061400d82613fcc565b602082019050919050565b6000602082019050818103600083015261403181613ff5565b9050919050565b7f4552433732313a2061646472657373207a65726f206973206e6f74206120766160008201527f6c6964206f776e65720000000000000000000000000000000000000000000000602082015250565b6000614094602983612dfa565b915061409f82614038565b604082019050919050565b600060208201905081810360008301526140c381614087565b9050919050565b600081905092915050565b60006140e082612def565b6140ea81856140ca565b93506140fa818560208601612e0b565b80840191505092915050565b600061411282856140d5565b915061411e82846140d5565b91508190509392505050565b7f4f776e61626c653a206e6577206f776e657220697320746865207a65726f206160008201527f6464726573730000000000000000000000000000000000000000000000000000602082015250565b6000614186602683612dfa565b91506141918261412a565b604082019050919050565b600060208201905081810360008301526141b581614179565b9050919050565b7f4552433732313a207472616e736665722066726f6d20696e636f72726563742060008201527f6f776e6572000000000000000000000000000000000000000000000000000000602082015250565b6000614218602583612dfa565b9150614223826141bc565b604082019050919050565b600060208201905081810360008301526142478161420b565b9050919050565b7f4552433732313a207472616e7366657220746f20746865207a65726f2061646460008201527f7265737300000000000000000000000000000000000000000000000000000000602082015250565b60006142aa602483612dfa565b91506142b58261424e565b604082019050919050565b600060208201905081810360008301526142d98161429d565b9050919050565b60006142eb82612cec565b91506142f683612cec565b92508282101561430957614308613924565b5b828203905092915050565b7f4f776e61626c653a2063616c6c6572206973206e6f7420746865206f776e6572600082015250565b600061434a602083612dfa565b915061435582614314565b602082019050919050565b600060208201905081810360008301526143798161433d565b9050919050565b7f4552433732313a20617070726f766520746f2063616c6c657200000000000000600082015250565b60006143b6601983612dfa565b91506143c182614380565b602082019050919050565b600060208201905081810360008301526143e5816143a9565b9050919050565b7f4552433732313a207472616e7366657220746f206e6f6e20455243373231526560008201527f63656976657220696d706c656d656e7465720000000000000000000000000000602082015250565b6000614448603283612dfa565b9150614453826143ec565b604082019050919050565b600060208201905081810360008301526144778161443b565b9050919050565b7f4e487b7100000000000000000000000000000000000000000000000000000000600052601260045260246000fd5b60006144b882612cec565b91506144c383612cec565b9250826144d3576144d261447e565b5b828204905092915050565b60006144e982612cec565b91506144f483612cec565b9250826145045761450361447e565b5b828206905092915050565b600081519050919050565b600082825260208201905092915050565b60006145368261450f565b614540818561451a565b9350614550818560208601612e0b565b61455981612e3e565b840191505092915050565b60006080820190506145796000830187612f35565b6145866020830186612f35565b6145936040830185612cf6565b81810360608301526145a5818461452b565b905095945050505050565b6000815190506145bf81612d60565b92915050565b6000602082840312156145db576145da612d2a565b5b60006145e9848285016145b0565b91505092915050565b7f4e487b7100000000000000000000000000000000000000000000000000000000600052603160045260246000fd5b7f4552433732313a206d696e7420746f20746865207a65726f2061646472657373600082015250565b6000614657602083612dfa565b915061466282614621565b602082019050919050565b600060208201905081810360008301526146868161464a565b9050919050565b7f4552433732313a20746f6b656e20616c7265616479206d696e74656400000000600082015250565b60006146c3601c83612dfa565b91506146ce8261468d565b602082019050919050565b600060208201905081810360008301526146f2816146b6565b905091905056fea26469706673582212207c4e47b4e225a499944f373e686e1d3e05b9ebc79f48a5f415423a998974090064736f6c634300080f0033",
  "immutableReferences": {},
  "source": "// SPDX-License-Identifier: MIT\n\npragma solidity ^0.8.0;\n\nimport \"@openzeppelin/contracts/access/Ownable.sol\";\nimport \"@openzeppelin/contracts/security/ReentrancyGuard.sol\";\nimport \"@openzeppelin/contracts/token/ERC721/extensions/ERC721Enumerable.sol\";\n\n/*\n      .\".\".\".\n    (`       `)               _.-=-.\n     '._.--.-;             .-`  -'  '.\n    .-'`.o )  \\           /  .-_.--'  `\\\n   `;---) \\    ;         /  / ;' _-_.-' `\n     `;\"`  ;    \\        ; .  .'   _-' \\\n      (    )    |        |  / .-.-'    -`\n       '-.-'     \\       | .' ` '.-'-\\`\n        /_./\\_.|\\_\\      ;  ' .'-'.-.\n        /         '-._    \\` /  _;-,\n       |         .-=-.;-._ \\  -'-,\n       \\        /      `\";`-`,-\"`)\n        \\       \\     '-- `\\.\\\n         '.      '._ '-- '--'/\n           `-._     `'----'`;\n               `\"\"\"--.____,/\n                      \\\\  \\\n                      // /`\n                  ___// /__\n                (`(`(---\"-`)\n*/\ncontract ZetaSaurio is ERC721Enumerable, Ownable, ReentrancyGuard {\n    using Strings for uint256;\n\n    address public manager;\n\n    string public baseURI = \"\";\n\n    uint public saleStartTimestamp;\n    uint public presaleEndTimestamp;\n    uint public presaleStartTimestamp;\n    uint256 public constant maxSupply = 9393;\n    uint256 public constant batchMintLimit = 5;\n    uint256 public constant presaleMintPerAddressLimit = 3;\n    uint256 public constant salePrice = 0.2 ether; // 0.2 BNB\n    uint256 public constant presalePrice = 0.15 ether; // 0.15 BNB\n\n    mapping(address => bool) public hasPresaleAccess;\n    mapping(address => uint256) public mintedPerAddress;\n\n    constructor() ERC721(\"ZetaSaurio\", \"ZS\") {}\n\n    /**\n     * @dev Base URI for computing {tokenURI} in {ERC721} parent contract.\n     */\n    function _baseURI() internal view virtual override returns (string memory) {\n        return baseURI;\n    }\n\n    function setBaseURI(string memory _newBaseURI) public onlyOwner {\n        baseURI = _newBaseURI;\n    }\n\n    function schedulePresale(uint _presaleStartTimestamp, uint _presaleEndTimestamp   ) public onlyOwner {\n        presaleEndTimestamp = _presaleEndTimestamp;\n        presaleStartTimestamp = _presaleStartTimestamp;\n    }\n\n    function scheduleSale(uint _saleStartTimestamp) public onlyOwner {\n        saleStartTimestamp = _saleStartTimestamp;\n    }\n\n    function presaleIsActive() public view returns (bool) {\n        return presaleStartTimestamp <= block.timestamp && block.timestamp < presaleEndTimestamp;\n    }\n\n    function saleIsActive() public view returns (bool) {\n        return saleStartTimestamp != 0 && saleStartTimestamp <= block.timestamp;\n    }\n\n    function price() public view virtual returns (uint256) {\n        return presaleIsActive() ? presalePrice : salePrice;\n    }\n\n    function enoughPresaleMintingsLeft(address _user, uint256 _mintAmount) public view returns (bool) {\n        return mintedPerAddress[_user] + _mintAmount <= presaleMintPerAddressLimit;\n    }\n\n    function grantPresaleAccess(address[] calldata _users) public onlyOwner {\n        for (uint256 i = 0; i < _users.length; i++) {\n            hasPresaleAccess[_users[i]] = true;\n        }\n    }\n\n    function revokePresaleAccess(address[] calldata _users) public onlyOwner {\n        for (uint256 i = 0; i < _users.length; i++) {\n            hasPresaleAccess[_users[i]] = false;\n        }\n    }\n\n    function withdraw() public payable onlyOwner {\n        (bool sent,) = payable(owner()).call{value: address(this).balance}(\"\");\n        require(sent, \"Failed to send Ether\");\n    }\n\n    /**\n     * Reserve zetas for the team and giveaways.\n     */\n    function reserve(uint256 _amount) public onlyOwner {\n        uint256 supply = totalSupply();\n\n        for (uint256 i = 1; i <= _amount; i++) {\n            _safeMint(msg.sender, supply + i);\n        }\n    }\n\n    function mint(address _user, uint256 _mintAmount) public payable nonReentrant {\n        uint256 supply = totalSupply();\n\n        require(saleIsActive() || presaleIsActive(), \"Sale is not active\");\n        require(_mintAmount > 0, \"Must mint at least one NFT\");\n        require(supply + _mintAmount <= maxSupply, \"Supply left is not enough\");\n        require(msg.value >= _mintAmount * price(), \"Not enough funds to purchase\");\n        require(_mintAmount <= batchMintLimit, \"Can't mint these many NFTs at once\");\n\n        if (presaleIsActive()) {\n            require(hasPresaleAccess[_user], \"Presale access denied\");\n            require(enoughPresaleMintingsLeft(_user, _mintAmount), \"Not enough presale mintings left\");\n        }\n\n        mintedPerAddress[_user] = _mintAmount;\n        for (uint256 i = 1; i <= _mintAmount; i++) {\n            _safeMint(_user, supply + i);\n        }\n    }\n}\n",
  "sourcePath": "/home/jose92/Personal/ZetaSaurio/zetasaurio/contracts/ZetaSaurio.sol",
  "compiler": {
    "name": "solc",
    "version": "0.8.15+commit.e14f2714.Emscripten.clang"
  },
  "schemaVersion": "3.4.8",
  "updatedAt": "2022-07-24T16:31:49.414Z",
  "networkType": "ethereum",
  "devdoc": {
    "kind": "dev",
    "methods": {
      "approve(address,uint256)": {
        "details": "See {IERC721-approve}."
      },
      "balanceOf(address)": {
        "details": "See {IERC721-balanceOf}."
      },
      "getApproved(uint256)": {
        "details": "See {IERC721-getApproved}."
      },
      "isApprovedForAll(address,address)": {
        "details": "See {IERC721-isApprovedForAll}."
      },
      "name()": {
        "details": "See {IERC721Metadata-name}."
      },
      "owner()": {
        "details": "Returns the address of the current owner."
      },
      "ownerOf(uint256)": {
        "details": "See {IERC721-ownerOf}."
      },
      "renounceOwnership()": {
        "details": "Leaves the contract without owner. It will not be possible to call `onlyOwner` functions anymore. Can only be called by the current owner. NOTE: Renouncing ownership will leave the contract without an owner, thereby removing any functionality that is only available to the owner."
      },
      "safeTransferFrom(address,address,uint256)": {
        "details": "See {IERC721-safeTransferFrom}."
      },
      "safeTransferFrom(address,address,uint256,bytes)": {
        "details": "See {IERC721-safeTransferFrom}."
      },
      "setApprovalForAll(address,bool)": {
        "details": "See {IERC721-setApprovalForAll}."
      },
      "supportsInterface(bytes4)": {
        "details": "See {IERC165-supportsInterface}."
      },
      "symbol()": {
        "details": "See {IERC721Metadata-symbol}."
      },
      "tokenByIndex(uint256)": {
        "details": "See {IERC721Enumerable-tokenByIndex}."
      },
      "tokenOfOwnerByIndex(address,uint256)": {
        "details": "See {IERC721Enumerable-tokenOfOwnerByIndex}."
      },
      "tokenURI(uint256)": {
        "details": "See {IERC721Metadata-tokenURI}."
      },
      "totalSupply()": {
        "details": "See {IERC721Enumerable-totalSupply}."
      },
      "transferFrom(address,address,uint256)": {
        "details": "See {IERC721-transferFrom}."
      },
      "transferOwnership(address)": {
        "details": "Transfers ownership of the contract to a new account (`newOwner`). Can only be called by the current owner."
      }
    },
    "version": 1
  },
  "userdoc": {
    "kind": "user",
    "methods": {
      "reserve(uint256)": {
        "notice": "Reserve zetas for the team and giveaways."
      }
    },
    "version": 1
  }
}